{
  "_format": "hh-sol-artifact-1",
  "contractName": "FloatCapital_v0",
  "sourceName": "contracts/FloatCapital_v0.sol",
  "abi": [
    {
      "inputs": [],
      "name": "admin",
      "outputs": [
        {
          "internalType": "address",
          "name": "",
          "type": "address"
        }
      ],
      "stateMutability": "view",
      "type": "function"
    },
    {
      "inputs": [
        {
          "internalType": "address",
          "name": "_admin",
          "type": "address"
        }
      ],
      "name": "changeAdmin",
      "outputs": [],
      "stateMutability": "nonpayable",
      "type": "function"
    },
    {
      "inputs": [
        {
          "internalType": "address",
          "name": "_admin",
          "type": "address"
        }
      ],
      "name": "initialize",
      "outputs": [],
      "stateMutability": "nonpayable",
      "type": "function"
    }
  ],
  "bytecode": "0x608060405234801561001057600080fd5b50610258806100206000396000f3fe608060405234801561001057600080fd5b50600436106100415760003560e01c80638f28397014610046578063c4d66de81461005b578063f851a4401461006e575b600080fd5b6100596100543660046101f4565b6100a3565b005b6100596100693660046101f4565b61011e565b600054610087906201000090046001600160a01b031681565b6040516001600160a01b03909116815260200160405180910390f35b6000546201000090046001600160a01b031633146100f45760405162461bcd60e51b81526020600482015260096024820152682737ba1030b236b4b760b91b60448201526064015b60405180910390fd5b600080546001600160a01b03909216620100000262010000600160b01b0319909216919091179055565b600054610100900460ff1680610137575060005460ff16155b61019a5760405162461bcd60e51b815260206004820152602e60248201527f496e697469616c697a61626c653a20636f6e747261637420697320616c72656160448201526d191e481a5b9a5d1a585b1a5e995960921b60648201526084016100eb565b600054610100900460ff161580156101bc576000805461ffff19166101011790555b6000805462010000600160b01b031916620100006001600160a01b0385160217905580156101f0576000805461ff00191690555b5050565b600060208284031215610205578081fd5b81356001600160a01b038116811461021b578182fd5b939250505056fea26469706673582212201eb3ba8d08898c7d43b4eb3eacf600ef02e2aea22b705d01f4490d0edc281eb664736f6c63430008030033",
  "linkReferences": {},
  "deployedLinkReferences": {}
}