{
  "_format": "hh-sol-artifact-1",
  "contractName": "StakerForInternalMocking",
  "sourceName": "contracts/testing/generated/StakerForInternalMocking.sol",
  "abi": [
    {
      "inputs": [
        {
          "internalType": "uint32",
          "name": "",
          "type": "uint32"
        },
        {
          "internalType": "uint256",
          "name": "",
          "type": "uint256"
        },
        {
          "internalType": "uint256",
          "name": "",
          "type": "uint256"
        },
        {
          "internalType": "uint256",
          "name": "",
          "type": "uint256"
        },
        {
          "internalType": "uint256",
          "name": "",
          "type": "uint256"
        }
      ],
      "name": "_calculateAccumulatedFloatInRangeMock",
      "outputs": [
        {
          "internalType": "uint256",
          "name": "floatReward",
          "type": "uint256"
        }
      ],
      "stateMutability": "pure",
      "type": "function"
    },
    {
      "inputs": [
        {
          "internalType": "uint32",
          "name": "",
          "type": "uint32"
        },
        {
          "internalType": "address",
          "name": "",
          "type": "address"
        }
      ],
      "name": "_calculateAccumulatedFloatMock",
      "outputs": [
        {
          "internalType": "uint256",
          "name": "floatReward",
          "type": "uint256"
        }
      ],
      "stateMutability": "pure",
      "type": "function"
    },
    {
      "inputs": [
        {
          "internalType": "uint32",
          "name": "",
          "type": "uint32"
        },
        {
          "internalType": "uint256",
          "name": "",
          "type": "uint256"
        },
        {
          "internalType": "uint256",
          "name": "",
          "type": "uint256"
        },
        {
          "internalType": "uint256",
          "name": "",
          "type": "uint256"
        },
        {
          "internalType": "uint256",
          "name": "",
          "type": "uint256"
        }
      ],
      "name": "_calculateFloatPerSecondMock",
      "outputs": [
        {
          "internalType": "uint256",
          "name": "longFloatPerSecond",
          "type": "uint256"
        },
        {
          "internalType": "uint256",
          "name": "shortFloatPerSecond",
          "type": "uint256"
        }
      ],
      "stateMutability": "pure",
      "type": "function"
    },
    {
      "inputs": [
        {
          "internalType": "uint32",
          "name": "",
          "type": "uint32"
        },
        {
          "internalType": "uint256",
          "name": "",
          "type": "uint256"
        },
        {
          "internalType": "uint256",
          "name": "",
          "type": "uint256"
        },
        {
          "internalType": "uint256",
          "name": "",
          "type": "uint256"
        },
        {
          "internalType": "uint256",
          "name": "",
          "type": "uint256"
        }
      ],
      "name": "_calculateNewCumulativeIssuancePerStakedSynthMock",
      "outputs": [
        {
          "internalType": "uint256",
          "name": "longCumulativeRates",
          "type": "uint256"
        },
        {
          "internalType": "uint256",
          "name": "shortCumulativeRates",
          "type": "uint256"
        }
      ],
      "stateMutability": "pure",
      "type": "function"
    },
    {
      "inputs": [
        {
          "internalType": "uint32",
          "name": "",
          "type": "uint32"
        }
      ],
      "name": "_calculateTimeDeltaFromLastAccumulativeIssuancePerStakedSynthSnapshotMock",
      "outputs": [
        {
          "internalType": "uint256",
          "name": "",
          "type": "uint256"
        }
      ],
      "stateMutability": "pure",
      "type": "function"
    },
    {
      "inputs": [
        {
          "internalType": "uint32",
          "name": "",
          "type": "uint32"
        },
        {
          "internalType": "int256",
          "name": "",
          "type": "int256"
        }
      ],
      "name": "_changeBalanceIncentiveEquilibriumOffsetMock",
      "outputs": [],
      "stateMutability": "pure",
      "type": "function"
    },
    {
      "inputs": [
        {
          "internalType": "uint32",
          "name": "",
          "type": "uint32"
        },
        {
          "internalType": "uint256",
          "name": "",
          "type": "uint256"
        }
      ],
      "name": "_changeBalanceIncentiveExponentMock",
      "outputs": [],
      "stateMutability": "pure",
      "type": "function"
    },
    {
      "inputs": [
        {
          "internalType": "uint256",
          "name": "",
          "type": "uint256"
        }
      ],
      "name": "_changeFloatPercentageMock",
      "outputs": [],
      "stateMutability": "pure",
      "type": "function"
    },
    {
      "inputs": [
        {
          "internalType": "uint32",
          "name": "",
          "type": "uint32"
        },
        {
          "internalType": "uint256",
          "name": "",
          "type": "uint256"
        },
        {
          "internalType": "uint256",
          "name": "",
          "type": "uint256"
        }
      ],
      "name": "_changeMarketLaunchIncentiveParametersMock",
      "outputs": [],
      "stateMutability": "pure",
      "type": "function"
    },
    {
      "inputs": [
        {
          "internalType": "uint32",
          "name": "",
          "type": "uint32"
        },
        {
          "internalType": "uint256",
          "name": "",
          "type": "uint256"
        }
      ],
      "name": "_changeUnstakeFeeMock",
      "outputs": [],
      "stateMutability": "pure",
      "type": "function"
    },
    {
      "inputs": [
        {
          "internalType": "uint32",
          "name": "",
          "type": "uint32"
        }
      ],
      "name": "_getKValueMock",
      "outputs": [
        {
          "internalType": "uint256",
          "name": "",
          "type": "uint256"
        }
      ],
      "stateMutability": "pure",
      "type": "function"
    },
    {
      "inputs": [
        {
          "internalType": "uint32",
          "name": "",
          "type": "uint32"
        }
      ],
      "name": "_getMarketLaunchIncentiveParametersMock",
      "outputs": [
        {
          "internalType": "uint256",
          "name": "",
          "type": "uint256"
        },
        {
          "internalType": "uint256",
          "name": "",
          "type": "uint256"
        }
      ],
      "stateMutability": "pure",
      "type": "function"
    },
    {
      "inputs": [
        {
          "internalType": "uint32",
          "name": "",
          "type": "uint32"
        },
        {
          "internalType": "address",
          "name": "",
          "type": "address"
        }
      ],
      "name": "_mintAccumulatedFloatMock",
      "outputs": [],
      "stateMutability": "pure",
      "type": "function"
    },
    {
      "inputs": [
        {
          "internalType": "uint32[]",
          "name": "",
          "type": "uint32[]"
        },
        {
          "internalType": "address",
          "name": "",
          "type": "address"
        }
      ],
      "name": "_mintAccumulatedFloatMultiMock",
      "outputs": [],
      "stateMutability": "pure",
      "type": "function"
    },
    {
      "inputs": [
        {
          "internalType": "address",
          "name": "",
          "type": "address"
        },
        {
          "internalType": "uint256",
          "name": "",
          "type": "uint256"
        }
      ],
      "name": "_mintFloatMock",
      "outputs": [],
      "stateMutability": "pure",
      "type": "function"
    },
    {
      "inputs": [
        {
          "internalType": "uint32",
          "name": "",
          "type": "uint32"
        },
        {
          "internalType": "uint256",
          "name": "",
          "type": "uint256"
        },
        {
          "internalType": "uint256",
          "name": "",
          "type": "uint256"
        },
        {
          "internalType": "uint256",
          "name": "",
          "type": "uint256"
        },
        {
          "internalType": "uint256",
          "name": "",
          "type": "uint256"
        }
      ],
      "name": "_setCurrentAccumulativeIssuancePerStakeStakedSynthSnapshotMock",
      "outputs": [],
      "stateMutability": "pure",
      "type": "function"
    },
    {
      "inputs": [
        {
          "internalType": "address",
          "name": "",
          "type": "address"
        },
        {
          "internalType": "uint256",
          "name": "",
          "type": "uint256"
        },
        {
          "internalType": "address",
          "name": "",
          "type": "address"
        }
      ],
      "name": "_stakeMock",
      "outputs": [],
      "stateMutability": "pure",
      "type": "function"
    },
    {
      "inputs": [
        {
          "internalType": "uint32",
          "name": "",
          "type": "uint32"
        },
        {
          "internalType": "address",
          "name": "",
          "type": "address"
        },
        {
          "internalType": "uint256",
          "name": "",
          "type": "uint256"
        }
      ],
      "name": "_withdrawMock",
      "outputs": [],
      "stateMutability": "pure",
      "type": "function"
    },
    {
      "inputs": [
        {
          "internalType": "address",
          "name": "",
          "type": "address"
        },
        {
          "internalType": "address",
          "name": "",
          "type": "address"
        },
        {
          "internalType": "address",
          "name": "",
          "type": "address"
        },
        {
          "internalType": "address",
          "name": "",
          "type": "address"
        },
        {
          "internalType": "address",
          "name": "",
          "type": "address"
        },
        {
          "internalType": "uint256",
          "name": "",
          "type": "uint256"
        }
      ],
      "name": "initializeMock",
      "outputs": [],
      "stateMutability": "pure",
      "type": "function"
    },
    {
      "inputs": [],
      "name": "onlyAdminModifierLogicMock",
      "outputs": [],
      "stateMutability": "pure",
      "type": "function"
    },
    {
      "inputs": [],
      "name": "onlyLongShortModifierLogicMock",
      "outputs": [],
      "stateMutability": "pure",
      "type": "function"
    },
    {
      "inputs": [
        {
          "internalType": "uint32",
          "name": "",
          "type": "uint32"
        }
      ],
      "name": "onlyValidMarketModifierLogicMock",
      "outputs": [],
      "stateMutability": "pure",
      "type": "function"
    },
    {
      "inputs": [
        {
          "internalType": "address",
          "name": "",
          "type": "address"
        }
      ],
      "name": "onlyValidSyntheticModifierLogicMock",
      "outputs": [],
      "stateMutability": "pure",
      "type": "function"
    },
    {
      "inputs": [
        {
          "internalType": "uint256",
          "name": "",
          "type": "uint256"
        },
        {
          "internalType": "uint32",
          "name": "",
          "type": "uint32"
        },
        {
          "internalType": "bool",
          "name": "",
          "type": "bool"
        }
      ],
      "name": "shiftTokensMock",
      "outputs": [],
      "stateMutability": "pure",
      "type": "function"
    },
    {
      "inputs": [
        {
          "internalType": "address",
          "name": "",
          "type": "address"
        },
        {
          "internalType": "uint256",
          "name": "",
          "type": "uint256"
        }
      ],
      "name": "stakeFromUserMock",
      "outputs": [],
      "stateMutability": "pure",
      "type": "function"
    }
  ],
  "bytecode": "0x608060405234801561001057600080fd5b50610792806100206000396000f3fe608060405234801561001057600080fd5b50600436106101735760003560e01c8063c0a38179116100de578063e228b2fa11610097578063e9c7ee1811610071578063e9c7ee18146102ad578063ecec9496146102bb578063ed3d0c1b1461028c578063f08d5aca146102c957610173565b8063e228b2fa14610279578063e69ba1071461028c578063e92364be1461029f57610173565b8063c0a381791461022f578063c6b4766d14610245578063c73fe557146101c6578063cd1a7b2714610256578063cfe7f966146101d8578063e0837e6f1461026457610173565b806347e415f71161013057806347e415f7146101d857806366a9e7c2146101e65780636b2c5c69146101d85780639dd912f9146101f9578063b33749d7146101e6578063beea77201461022157610173565b806301af204f146101785780631b2614341461018d5780631e3bede514610192578063214e2e06146101b85780632de9dac8146101c657806343500c4e1461018d575b600080fd5b61018b6101863660046104aa565b505050565b005b61018b565b6101a56101a036600461064b565b6102d7565b6040519081526020015b60405180910390f35b61018b61018636600461067d565b61018b6101d4366004610481565b5050565b61018b6101d43660046106b8565b6101a56101f4366004610631565b6102fb565b61020c610207366004610631565b610320565b604080519283526020830191909152016101af565b61018b6101d436600461064b565b61018b61023d366004610415565b505050505050565b61018b6102533660046103fb565b50565b61018b6102533660046105be565b61018b610272366004610705565b5050505050565b6101a5610287366004610705565b610362565b61020c61029a366004610705565b610389565b61018b6101d43660046104e5565b61018b6101863660046105ee565b61018b6101863660046106d3565b61018b610253366004610631565b604080516020810191829052600090819052906102f490806105d6565b9392505050565b6040805160208101918290526000908190529061031890806105d6565b90505b919050565b60408051602081019182905260009081905290819061033f90806105d6565b6040805160208101918290526000905261035990806105d6565b91509150915091565b6040805160208101918290526000908190529061037f90806105d6565b9695505050505050565b6040805160208101918290526000908190529081906103a890806105d6565b604080516020810191829052600090526103c290806105d6565b915091509550959350505050565b80356001600160a01b038116811461031b57600080fd5b803563ffffffff8116811461031b57600080fd5b60006020828403121561040c578081fd5b6102f4826103d0565b60008060008060008060c0878903121561042d578182fd5b610436876103d0565b9550610444602088016103d0565b9450610452604088016103d0565b9350610460606088016103d0565b925061046e608088016103d0565b915060a087013590509295509295509295565b60008060408385031215610493578182fd5b61049c836103d0565b946020939093013593505050565b6000806000606084860312156104be578283fd5b6104c7846103d0565b9250602084013591506104dc604085016103d0565b90509250925092565b600080604083850312156104f7578182fd5b823567ffffffffffffffff8082111561050e578384fd5b818501915085601f830112610521578384fd5b813560208282111561053557610535610746565b8160051b604051601f19603f8301168101818110868211171561055a5761055a610746565b604052838152828101945085830182870184018b1015610578578889fd5b8896505b848710156105a15761058d816103e7565b86526001969096019594830194830161057c565b5096506105b190508782016103d0565b9450505050509250929050565b6000602082840312156105cf578081fd5b5035919050565b6000602082840312156105e7578081fd5b5051919050565b600080600060608486031215610602578283fd5b83359250610612602085016103e7565b915060408401358015158114610626578182fd5b809150509250925092565b600060208284031215610642578081fd5b6102f4826103e7565b6000806040838503121561065d578182fd5b610666836103e7565b9150610674602084016103d0565b90509250929050565b600080600060608486031215610691578283fd5b61069a846103e7565b92506106a8602085016103d0565b9150604084013590509250925092565b600080604083850312156106ca578182fd5b61049c836103e7565b6000806000606084860312156106e7578081fd5b6106f0846103e7565b95602085013595506040909401359392505050565b600080600080600060a0868803121561071c578283fd5b610725866103e7565b97602087013597506040870135966060810135965060800135945092505050565b634e487b7160e01b600052604160045260246000fdfea2646970667358221220553fdf3f57387f4fe61ea120b1bb6e867d1c7278bc57046a17bf18edd096300b64736f6c63430008030033",
  "linkReferences": {},
  "deployedLinkReferences": {}
}