{
  "contractName": "AaveIncentivesControllerMock",
  "abi": [
    {
      "anonymous": false,
      "inputs": [
        {
          "indexed": true,
          "internalType": "address",
          "name": "user",
          "type": "address"
        },
        {
          "indexed": true,
          "internalType": "address",
          "name": "to",
          "type": "address"
        },
        {
          "indexed": false,
          "internalType": "uint256",
          "name": "amount",
          "type": "uint256"
        }
      ],
      "name": "RewardsClaimed",
      "type": "event"
    },
    {
      "inputs": [
        {
          "internalType": "address[]",
          "name": "assets",
          "type": "address[]"
        },
        {
          "internalType": "uint256",
          "name": "amount",
          "type": "uint256"
        },
        {
          "internalType": "address",
          "name": "to",
          "type": "address"
        }
      ],
      "name": "claimRewards",
      "outputs": [
        {
          "internalType": "uint256",
          "name": "amountToClaim",
          "type": "uint256"
        }
      ],
      "stateMutability": "nonpayable",
      "type": "function"
    },
    {
      "inputs": [
        {
          "internalType": "address",
          "name": "user",
          "type": "address"
        }
      ],
      "name": "getUserUnclaimedRewards",
      "outputs": [
        {
          "internalType": "uint256",
          "name": "usersUnclaimedRewards",
          "type": "uint256"
        }
      ],
      "stateMutability": "view",
      "type": "function"
    }
  ],
  "bytecode": "0x608060405234801561001057600080fd5b50610173806100206000396000f3fe608060405234801561001057600080fd5b50600436106100365760003560e01c8063198fa81e1461003b5780633111e7b314610061575b600080fd5b61004f610049366004610095565b50600090565b60405190815260200160405180910390f35b61004f61006f3660046100b6565b6000949350505050565b80356001600160a01b038116811461009057600080fd5b919050565b6000602082840312156100a6578081fd5b6100af82610079565b9392505050565b600080600080606085870312156100cb578283fd5b843567ffffffffffffffff808211156100e2578485fd5b818701915087601f8301126100f5578485fd5b813581811115610103578586fd5b8860208260051b8501011115610117578586fd5b60209283019650945050850135915061013260408601610079565b90509295919450925056fea2646970667358221220e622af8d27d6c9b2d0222d31a72ca7e2374404b5367915a36c293902ad40c90864736f6c63430008030033",
  "immutableReferences": {},
  "source": "// SPDX-License-Identifier: agpl-3.0\n\npragma solidity 0.8.3;\n\nimport \"@openzeppelin/contracts/token/ERC20/presets/ERC20PresetMinterPauser.sol\";\nimport \"../interfaces/aave/IAaveIncentivesController.sol\";\n\ncontract AaveIncentivesControllerMock is IAaveIncentivesController {\n  function claimRewards(\n    address[] calldata assets,\n    uint256 amount,\n    address to\n  ) external override returns (uint256 amountToClaim) {}\n\n  function getUserUnclaimedRewards(address user)\n    external\n    view\n    override\n    returns (uint256 usersUnclaimedRewards)\n  {}\n}\n",
  "sourcePath": "/home/jasoons/Documents/code/monorepo/contracts/contracts/mocks/AaveIncentivesControllerMock.sol",
  "compiler": {
    "name": "solc",
    "version": "0.8.3+commit.8d00100c.Emscripten.clang"
  },
  "schemaVersion": "3.3.4",
  "updatedAt": "2021-08-04T10:05:03.801Z",
  "devdoc": {
    "kind": "dev",
    "methods": {},
    "version": 1
  },
  "userdoc": {
    "kind": "user",
    "methods": {},
    "version": 1
  }
}