{
  "contractName": "BandOracleMock",
  "abi": [
    {
      "inputs": [],
      "name": "admin",
      "outputs": [
        {
          "internalType": "address",
          "name": "",
          "type": "address"
        }
      ],
      "stateMutability": "view",
      "type": "function"
    },
    {
      "inputs": [
        {
          "internalType": "address",
          "name": "_admin",
          "type": "address"
        }
      ],
      "name": "setup",
      "outputs": [],
      "stateMutability": "nonpayable",
      "type": "function"
    },
    {
      "inputs": [
        {
          "internalType": "string",
          "name": "_base",
          "type": "string"
        },
        {
          "internalType": "string",
          "name": "_quote",
          "type": "string"
        },
        {
          "internalType": "uint256",
          "name": "rate",
          "type": "uint256"
        }
      ],
      "name": "setRate",
      "outputs": [],
      "stateMutability": "nonpayable",
      "type": "function"
    },
    {
      "inputs": [
        {
          "internalType": "string",
          "name": "_base",
          "type": "string"
        },
        {
          "internalType": "string",
          "name": "_quote",
          "type": "string"
        }
      ],
      "name": "getReferenceData",
      "outputs": [
        {
          "components": [
            {
              "internalType": "uint256",
              "name": "rate",
              "type": "uint256"
            },
            {
              "internalType": "uint256",
              "name": "lastUpdatedBase",
              "type": "uint256"
            },
            {
              "internalType": "uint256",
              "name": "lastUpdatedQuote",
              "type": "uint256"
            }
          ],
          "internalType": "struct IBandOracle.ReferenceData",
          "name": "ref",
          "type": "tuple"
        }
      ],
      "stateMutability": "view",
      "type": "function"
    },
    {
      "inputs": [
        {
          "internalType": "string[]",
          "name": "_bases",
          "type": "string[]"
        },
        {
          "internalType": "string[]",
          "name": "_quotes",
          "type": "string[]"
        }
      ],
      "name": "getReferenceDataBulk",
      "outputs": [
        {
          "components": [
            {
              "internalType": "uint256",
              "name": "rate",
              "type": "uint256"
            },
            {
              "internalType": "uint256",
              "name": "lastUpdatedBase",
              "type": "uint256"
            },
            {
              "internalType": "uint256",
              "name": "lastUpdatedQuote",
              "type": "uint256"
            }
          ],
          "internalType": "struct IBandOracle.ReferenceData[]",
          "name": "",
          "type": "tuple[]"
        }
      ],
      "stateMutability": "view",
      "type": "function"
    }
  ],
  "bytecode": "0x608060405234801561001057600080fd5b5061088d806100206000396000f3fe608060405234801561001057600080fd5b50600436106100575760003560e01c806365555bcc1461005c57806366d382031461008557806377e7fc461461009a578063e42a071b146100ad578063f851a440146100cd575b600080fd5b61006f61006a3660046105c2565b6100fe565b60405161007c9190610798565b60405180910390f35b610098610093366004610533565b610180565b005b6100986100a8366004610619565b61025a565b6100c06100bb366004610561565b61029c565b60405161007c9190610708565b6000546100e6906201000090046001600160a01b031681565b6040516001600160a01b03909116815260200161007c565b61012260405180606001604052806000815260200160008152602001600081525090565b4260208201819052604080830191909152516001906101429085906106ec565b90815260200160405180910390208260405161015e91906106ec565b9081526040519081900360200190205480825261017a57600080fd5b92915050565b600054610100900460ff1680610199575060005460ff16155b6102005760405162461bcd60e51b815260206004820152602e60248201527f496e697469616c697a61626c653a20636f6e747261637420697320616c72656160448201526d191e481a5b9a5d1a585b1a5e995960921b606482015260840160405180910390fd5b600054610100900460ff16158015610222576000805461ffff19166101011790555b6000805462010000600160b01b031916620100006001600160a01b038516021790558015610256576000805461ff00191690555b5050565b8060018460405161026b91906106ec565b90815260200160405180910390208360405161028791906106ec565b90815260405190819003602001902055505050565b606081518351146102ac57600080fd5b6000825167ffffffffffffffff8111156102d657634e487b7160e01b600052604160045260246000fd5b60405190808252806020026020018201604052801561032b57816020015b61031860405180606001604052806000815260200160008152602001600081525090565b8152602001906001900390816102f45790505b50905060005b845181101561044457306001600160a01b03166365555bcc86838151811061036957634e487b7160e01b600052603260045260246000fd5b602002602001015186848151811061039157634e487b7160e01b600052603260045260246000fd5b60200260200101516040518363ffffffff1660e01b81526004016103b692919061076a565b60606040518083038186803b1580156103ce57600080fd5b505afa1580156103e2573d6000803e3d6000fd5b505050506040513d601f19601f820116820180604052508101906104069190610683565b82828151811061042657634e487b7160e01b600052603260045260246000fd5b6020026020010181905250808061043c9061081a565b915050610331565b509392505050565b600082601f83011261045c578081fd5b8135602067ffffffffffffffff82111561047857610478610841565b610486818360051b016107b9565b82815281810190858301855b858110156104bb576104a9898684358b01016104c8565b84529284019290840190600101610492565b5090979650505050505050565b600082601f8301126104d8578081fd5b813567ffffffffffffffff8111156104f2576104f2610841565b610505601f8201601f19166020016107b9565b818152846020838601011115610519578283fd5b816020850160208301379081016020019190915292915050565b600060208284031215610544578081fd5b81356001600160a01b038116811461055a578182fd5b9392505050565b60008060408385031215610573578081fd5b823567ffffffffffffffff8082111561058a578283fd5b6105968683870161044c565b935060208501359150808211156105ab578283fd5b506105b88582860161044c565b9150509250929050565b600080604083850312156105d4578182fd5b823567ffffffffffffffff808211156105eb578384fd5b6105f7868387016104c8565b9350602085013591508082111561060c578283fd5b506105b8858286016104c8565b60008060006060848603121561062d578081fd5b833567ffffffffffffffff80821115610644578283fd5b610650878388016104c8565b94506020860135915080821115610665578283fd5b50610672868287016104c8565b925050604084013590509250925092565b600060608284031215610694578081fd5b61069e60606107b9565b8251815260208301516020820152604083015160408201528091505092915050565b600081518084526106d88160208601602086016107ea565b601f01601f19169290920160200192915050565b600082516106fe8184602087016107ea565b9190910192915050565b6020808252825182820181905260009190848201906040850190845b8181101561075e5761074b8385518051825260208082015190830152604090810151910152565b9284019260609290920191600101610724565b50909695505050505050565b60006040825261077d60408301856106c0565b828103602084015261078f81856106c0565b95945050505050565b8151815260208083015190820152604080830151908201526060810161017a565b604051601f8201601f1916810167ffffffffffffffff811182821017156107e2576107e2610841565b604052919050565b60005b838110156108055781810151838201526020016107ed565b83811115610814576000848401525b50505050565b600060001982141561083a57634e487b7160e01b81526011600452602481fd5b5060010190565b634e487b7160e01b600052604160045260246000fdfea2646970667358221220011146d8562fa8d08be4308bce8e485b4190048e65747e60c38cc5b9872f2db864736f6c63430008030033",
  "immutableReferences": {},
  "source": "// SPDX-License-Identifier: BUSL-1.1\n\npragma solidity 0.8.3;\npragma abicoder v2;\n\nimport \"@openzeppelin/contracts-upgradeable/proxy/utils/Initializable.sol\";\nimport \"@openzeppelin/contracts-upgradeable/token/ERC20/presets/ERC20PresetMinterPauserUpgradeable.sol\";\n\nimport \"../interfaces/IBandOracle.sol\";\n\n/*\n * BandOracleMock is an implementation of a Band oracle that allows prices\n * to be set arbitrarily for testing.\n */\ncontract BandOracleMock is IBandOracle, Initializable {\n  // Admin contracts.\n  address public admin;\n\n  // Global state.\n  //   base -> quote -> price\n  mapping(string => mapping(string => uint256)) pairRates; // e18\n\n  ////////////////////////////////////\n  /////////// MODIFIERS //////////////\n  ////////////////////////////////////\n\n  modifier adminOnly() {\n    require(msg.sender == admin, \"Not admin\");\n    _;\n  }\n\n  ////////////////////////////////////\n  ///// CONTRACT SET-UP //////////////\n  ////////////////////////////////////\n\n  function setup(address _admin) public initializer {\n    admin = _admin;\n  }\n\n  ////////////////////////////////////\n  ///// IMPLEMENTATION ///////////////\n  ////////////////////////////////////\n\n  /*\n   * Sets the mock rate for the given base/quote pair.\n   */\n  function setRate(\n    string memory _base,\n    string memory _quote,\n    uint256 rate\n  ) public {\n    pairRates[_base][_quote] = rate;\n  }\n\n  /*\n   * Returns rate data for given base/quote pair. Reverts if not available.\n   */\n  function getReferenceData(string memory _base, string memory _quote)\n    external\n    view\n    override\n    returns (IBandOracle.ReferenceData memory ref)\n  {\n    ref.lastUpdatedBase = block.timestamp;\n    ref.lastUpdatedQuote = block.timestamp;\n    ref.rate = pairRates[_base][_quote];\n    require(ref.rate > 0);\n\n    return ref;\n  }\n\n  /*\n   * Batch version of getReferenceData(...).\n   */\n  function getReferenceDataBulk(string[] memory _bases, string[] memory _quotes)\n    external\n    view\n    override\n    returns (IBandOracle.ReferenceData[] memory)\n  {\n    require(_bases.length == _quotes.length);\n\n    IBandOracle.ReferenceData[] memory refs = new IBandOracle.ReferenceData[](_quotes.length);\n    for (uint256 i = 0; i < _bases.length; i++) {\n      refs[i] = this.getReferenceData(_bases[i], _quotes[i]);\n    }\n\n    return refs;\n  }\n}\n",
  "sourcePath": "/home/jasoons/Documents/code/monorepo/contracts/contracts/mocks/BandOracleMock.sol",
  "compiler": {
    "name": "solc",
    "version": "0.8.3+commit.8d00100c.Emscripten.clang"
  },
  "schemaVersion": "3.3.4",
  "updatedAt": "2021-08-04T10:05:03.805Z",
  "devdoc": {
    "kind": "dev",
    "methods": {},
    "version": 1
  },
  "userdoc": {
    "kind": "user",
    "methods": {},
    "version": 1
  }
}