{
  "contractName": "LendingPoolAaveMock",
  "abi": [
    {
      "inputs": [
        {
          "internalType": "address",
          "name": "asset",
          "type": "address"
        },
        {
          "internalType": "uint256",
          "name": "amount",
          "type": "uint256"
        },
        {
          "internalType": "address",
          "name": "onBehalfOf",
          "type": "address"
        },
        {
          "internalType": "uint16",
          "name": "referralCode",
          "type": "uint16"
        }
      ],
      "name": "deposit",
      "outputs": [],
      "stateMutability": "pure",
      "type": "function"
    },
    {
      "inputs": [
        {
          "internalType": "address",
          "name": "asset",
          "type": "address"
        },
        {
          "internalType": "uint256",
          "name": "amount",
          "type": "uint256"
        },
        {
          "internalType": "address",
          "name": "to",
          "type": "address"
        }
      ],
      "name": "withdraw",
      "outputs": [
        {
          "internalType": "uint256",
          "name": "",
          "type": "uint256"
        }
      ],
      "stateMutability": "pure",
      "type": "function"
    }
  ],
  "bytecode": "0x608060405234801561001057600080fd5b50610194806100206000396000f3fe608060405234801561001057600080fd5b50600436106100365760003560e01c806369328dec1461003b578063e8eda9df14610060575b600080fd5b61004e6100493660046100b7565b610076565b60405190815260200160405180910390f35b61007461006e3660046100f2565b50505050565b005b604080516020810191829052600090819052906100939080610146565b949350505050565b80356001600160a01b03811681146100b257600080fd5b919050565b6000806000606084860312156100cb578283fd5b6100d48461009b565b9250602084013591506100e96040850161009b565b90509250925092565b60008060008060808587031215610107578081fd5b6101108561009b565b9350602085013592506101256040860161009b565b9150606085013561ffff8116811461013b578182fd5b939692955090935050565b600060208284031215610157578081fd5b505191905056fea264697066735822122009b7d566efa591fdac545584fbbfd20249164d61333972f87996868c1b78491464736f6c63430008030033",
  "immutableReferences": {},
  "source": "// SPDX-License-Identifier: BUSL-1.1\n\npragma solidity 0.8.3;\n\ncontract LendingPoolAaveMock {\n  function deposit(\n    address asset,\n    uint256 amount,\n    address onBehalfOf,\n    uint16 referralCode\n  ) public pure {\n    return ();\n  }\n\n  function withdraw(\n    address asset,\n    uint256 amount,\n    address to\n  ) public pure returns (uint256) {\n    return (abi.decode(\"\", (uint256)));\n  }\n}\n",
  "sourcePath": "/home/jasoons/Documents/code/monorepo/contracts/contracts/mocks/LendingPoolAaveMock.sol",
  "compiler": {
    "name": "solc",
    "version": "0.8.3+commit.8d00100c.Emscripten.clang"
  },
  "schemaVersion": "3.3.4",
  "updatedAt": "2021-08-04T10:05:03.818Z",
  "devdoc": {
    "kind": "dev",
    "methods": {},
    "version": 1
  },
  "userdoc": {
    "kind": "user",
    "methods": {},
    "version": 1
  }
}