{
  "contractName": "LongShort",
  "abi": [
    {
      "anonymous": false,
      "inputs": [
        {
          "indexed": false,
          "internalType": "address",
          "name": "user",
          "type": "address"
        },
        {
          "indexed": false,
          "internalType": "uint32",
          "name": "marketIndex",
          "type": "uint32"
        },
        {
          "indexed": false,
          "internalType": "bool",
          "name": "isShiftFromLong",
          "type": "bool"
        },
        {
          "indexed": false,
          "internalType": "uint256",
          "name": "amount",
          "type": "uint256"
        }
      ],
      "name": "ExecuteNextPriceMarketSideShiftSettlementUser",
      "type": "event"
    },
    {
      "anonymous": false,
      "inputs": [
        {
          "indexed": false,
          "internalType": "address",
          "name": "user",
          "type": "address"
        },
        {
          "indexed": false,
          "internalType": "uint32",
          "name": "marketIndex",
          "type": "uint32"
        },
        {
          "indexed": false,
          "internalType": "bool",
          "name": "isLong",
          "type": "bool"
        },
        {
          "indexed": false,
          "internalType": "uint256",
          "name": "amount",
          "type": "uint256"
        }
      ],
      "name": "ExecuteNextPriceMintSettlementUser",
      "type": "event"
    },
    {
      "anonymous": false,
      "inputs": [
        {
          "indexed": false,
          "internalType": "address",
          "name": "user",
          "type": "address"
        },
        {
          "indexed": false,
          "internalType": "uint32",
          "name": "marketIndex",
          "type": "uint32"
        },
        {
          "indexed": false,
          "internalType": "bool",
          "name": "isLong",
          "type": "bool"
        },
        {
          "indexed": false,
          "internalType": "uint256",
          "name": "amount",
          "type": "uint256"
        }
      ],
      "name": "ExecuteNextPriceRedeemSettlementUser",
      "type": "event"
    },
    {
      "anonymous": false,
      "inputs": [
        {
          "indexed": false,
          "internalType": "address",
          "name": "user",
          "type": "address"
        },
        {
          "indexed": false,
          "internalType": "uint32",
          "name": "marketIndex",
          "type": "uint32"
        }
      ],
      "name": "ExecuteNextPriceSettlementsUser",
      "type": "event"
    },
    {
      "anonymous": false,
      "inputs": [
        {
          "indexed": false,
          "internalType": "address",
          "name": "admin",
          "type": "address"
        },
        {
          "indexed": false,
          "internalType": "address",
          "name": "treasury",
          "type": "address"
        },
        {
          "indexed": false,
          "internalType": "address",
          "name": "tokenFactory",
          "type": "address"
        },
        {
          "indexed": false,
          "internalType": "address",
          "name": "staker",
          "type": "address"
        }
      ],
      "name": "LongShortV1",
      "type": "event"
    },
    {
      "anonymous": false,
      "inputs": [
        {
          "indexed": false,
          "internalType": "uint32",
          "name": "marketIndex",
          "type": "uint32"
        },
        {
          "indexed": false,
          "internalType": "uint256",
          "name": "initialSeed",
          "type": "uint256"
        }
      ],
      "name": "NewMarketLaunchedAndSeeded",
      "type": "event"
    },
    {
      "anonymous": false,
      "inputs": [
        {
          "indexed": false,
          "internalType": "uint32",
          "name": "marketIndex",
          "type": "uint32"
        },
        {
          "indexed": false,
          "internalType": "bool",
          "name": "isLong",
          "type": "bool"
        },
        {
          "indexed": false,
          "internalType": "uint256",
          "name": "depositAdded",
          "type": "uint256"
        },
        {
          "indexed": false,
          "internalType": "address",
          "name": "user",
          "type": "address"
        },
        {
          "indexed": false,
          "internalType": "uint256",
          "name": "oracleUpdateIndex",
          "type": "uint256"
        }
      ],
      "name": "NextPriceDeposit",
      "type": "event"
    },
    {
      "anonymous": false,
      "inputs": [
        {
          "indexed": false,
          "internalType": "uint32",
          "name": "marketIndex",
          "type": "uint32"
        },
        {
          "indexed": false,
          "internalType": "bool",
          "name": "isLong",
          "type": "bool"
        },
        {
          "indexed": false,
          "internalType": "uint256",
          "name": "synthRedeemed",
          "type": "uint256"
        },
        {
          "indexed": false,
          "internalType": "address",
          "name": "user",
          "type": "address"
        },
        {
          "indexed": false,
          "internalType": "uint256",
          "name": "oracleUpdateIndex",
          "type": "uint256"
        }
      ],
      "name": "NextPriceRedeem",
      "type": "event"
    },
    {
      "anonymous": false,
      "inputs": [
        {
          "indexed": false,
          "internalType": "uint32",
          "name": "marketIndex",
          "type": "uint32"
        },
        {
          "indexed": false,
          "internalType": "bool",
          "name": "isShiftFromLong",
          "type": "bool"
        },
        {
          "indexed": false,
          "internalType": "uint256",
          "name": "synthShifted",
          "type": "uint256"
        },
        {
          "indexed": false,
          "internalType": "address",
          "name": "user",
          "type": "address"
        },
        {
          "indexed": false,
          "internalType": "uint256",
          "name": "oracleUpdateIndex",
          "type": "uint256"
        }
      ],
      "name": "NextPriceSyntheticPositionShift",
      "type": "event"
    },
    {
      "anonymous": false,
      "inputs": [
        {
          "indexed": false,
          "internalType": "uint32",
          "name": "marketIndex",
          "type": "uint32"
        },
        {
          "indexed": false,
          "internalType": "address",
          "name": "oldOracleAddress",
          "type": "address"
        },
        {
          "indexed": false,
          "internalType": "address",
          "name": "newOracleAddress",
          "type": "address"
        }
      ],
      "name": "OracleUpdated",
      "type": "event"
    },
    {
      "anonymous": false,
      "inputs": [
        {
          "indexed": false,
          "internalType": "uint32",
          "name": "marketIndex",
          "type": "uint32"
        },
        {
          "indexed": false,
          "internalType": "address",
          "name": "longTokenAddress",
          "type": "address"
        },
        {
          "indexed": false,
          "internalType": "address",
          "name": "shortTokenAddress",
          "type": "address"
        },
        {
          "indexed": false,
          "internalType": "address",
          "name": "paymentToken",
          "type": "address"
        },
        {
          "indexed": false,
          "internalType": "uint256",
          "name": "initialAssetPrice",
          "type": "uint256"
        },
        {
          "indexed": false,
          "internalType": "string",
          "name": "name",
          "type": "string"
        },
        {
          "indexed": false,
          "internalType": "string",
          "name": "symbol",
          "type": "string"
        },
        {
          "indexed": false,
          "internalType": "address",
          "name": "oracleAddress",
          "type": "address"
        },
        {
          "indexed": false,
          "internalType": "address",
          "name": "yieldManagerAddress",
          "type": "address"
        }
      ],
      "name": "SyntheticMarketCreated",
      "type": "event"
    },
    {
      "anonymous": false,
      "inputs": [
        {
          "indexed": false,
          "internalType": "uint32",
          "name": "marketIndex",
          "type": "uint32"
        },
        {
          "indexed": false,
          "internalType": "uint256",
          "name": "updateIndex",
          "type": "uint256"
        },
        {
          "indexed": false,
          "internalType": "int256",
          "name": "underlyingAssetPrice",
          "type": "int256"
        },
        {
          "indexed": false,
          "internalType": "uint256",
          "name": "longValue",
          "type": "uint256"
        },
        {
          "indexed": false,
          "internalType": "uint256",
          "name": "shortValue",
          "type": "uint256"
        },
        {
          "indexed": false,
          "internalType": "uint256",
          "name": "longPrice",
          "type": "uint256"
        },
        {
          "indexed": false,
          "internalType": "uint256",
          "name": "shortPrice",
          "type": "uint256"
        }
      ],
      "name": "SystemStateUpdated",
      "type": "event"
    },
    {
      "inputs": [],
      "name": "PERMANENT_INITIAL_LIQUIDITY_HOLDER",
      "outputs": [
        {
          "internalType": "address",
          "name": "",
          "type": "address"
        }
      ],
      "stateMutability": "view",
      "type": "function",
      "constant": true
    },
    {
      "inputs": [],
      "name": "admin",
      "outputs": [
        {
          "internalType": "address",
          "name": "",
          "type": "address"
        }
      ],
      "stateMutability": "view",
      "type": "function",
      "constant": true
    },
    {
      "inputs": [
        {
          "internalType": "uint32",
          "name": "",
          "type": "uint32"
        }
      ],
      "name": "assetPrice",
      "outputs": [
        {
          "internalType": "uint256",
          "name": "",
          "type": "uint256"
        }
      ],
      "stateMutability": "view",
      "type": "function",
      "constant": true
    },
    {
      "inputs": [
        {
          "internalType": "uint32",
          "name": "",
          "type": "uint32"
        },
        {
          "internalType": "bool",
          "name": "",
          "type": "bool"
        }
      ],
      "name": "batched_amountPaymentToken_deposit",
      "outputs": [
        {
          "internalType": "uint256",
          "name": "",
          "type": "uint256"
        }
      ],
      "stateMutability": "view",
      "type": "function",
      "constant": true
    },
    {
      "inputs": [
        {
          "internalType": "uint32",
          "name": "",
          "type": "uint32"
        },
        {
          "internalType": "bool",
          "name": "",
          "type": "bool"
        }
      ],
      "name": "batched_amountSyntheticToken_redeem",
      "outputs": [
        {
          "internalType": "uint256",
          "name": "",
          "type": "uint256"
        }
      ],
      "stateMutability": "view",
      "type": "function",
      "constant": true
    },
    {
      "inputs": [
        {
          "internalType": "uint32",
          "name": "",
          "type": "uint32"
        },
        {
          "internalType": "bool",
          "name": "",
          "type": "bool"
        }
      ],
      "name": "batched_amountSyntheticToken_toShiftAwayFrom_marketSide",
      "outputs": [
        {
          "internalType": "uint256",
          "name": "",
          "type": "uint256"
        }
      ],
      "stateMutability": "view",
      "type": "function",
      "constant": true
    },
    {
      "inputs": [],
      "name": "latestMarket",
      "outputs": [
        {
          "internalType": "uint32",
          "name": "",
          "type": "uint32"
        }
      ],
      "stateMutability": "view",
      "type": "function",
      "constant": true
    },
    {
      "inputs": [
        {
          "internalType": "uint32",
          "name": "",
          "type": "uint32"
        }
      ],
      "name": "marketExists",
      "outputs": [
        {
          "internalType": "bool",
          "name": "",
          "type": "bool"
        }
      ],
      "stateMutability": "view",
      "type": "function",
      "constant": true
    },
    {
      "inputs": [
        {
          "internalType": "uint32",
          "name": "",
          "type": "uint32"
        },
        {
          "internalType": "bool",
          "name": "",
          "type": "bool"
        }
      ],
      "name": "marketSideValueInPaymentToken",
      "outputs": [
        {
          "internalType": "uint256",
          "name": "",
          "type": "uint256"
        }
      ],
      "stateMutability": "view",
      "type": "function",
      "constant": true
    },
    {
      "inputs": [
        {
          "internalType": "uint32",
          "name": "",
          "type": "uint32"
        }
      ],
      "name": "marketTreasurySplitGradient_e18",
      "outputs": [
        {
          "internalType": "uint256",
          "name": "",
          "type": "uint256"
        }
      ],
      "stateMutability": "view",
      "type": "function",
      "constant": true
    },
    {
      "inputs": [
        {
          "internalType": "uint32",
          "name": "",
          "type": "uint32"
        }
      ],
      "name": "marketUpdateIndex",
      "outputs": [
        {
          "internalType": "uint256",
          "name": "",
          "type": "uint256"
        }
      ],
      "stateMutability": "view",
      "type": "function",
      "constant": true
    },
    {
      "inputs": [
        {
          "internalType": "uint32",
          "name": "",
          "type": "uint32"
        }
      ],
      "name": "oracleManagers",
      "outputs": [
        {
          "internalType": "address",
          "name": "",
          "type": "address"
        }
      ],
      "stateMutability": "view",
      "type": "function",
      "constant": true
    },
    {
      "inputs": [
        {
          "internalType": "uint32",
          "name": "",
          "type": "uint32"
        }
      ],
      "name": "paymentTokens",
      "outputs": [
        {
          "internalType": "address",
          "name": "",
          "type": "address"
        }
      ],
      "stateMutability": "view",
      "type": "function",
      "constant": true
    },
    {
      "inputs": [],
      "name": "staker",
      "outputs": [
        {
          "internalType": "address",
          "name": "",
          "type": "address"
        }
      ],
      "stateMutability": "view",
      "type": "function",
      "constant": true
    },
    {
      "inputs": [
        {
          "internalType": "uint32",
          "name": "",
          "type": "uint32"
        },
        {
          "internalType": "bool",
          "name": "",
          "type": "bool"
        },
        {
          "internalType": "uint256",
          "name": "",
          "type": "uint256"
        }
      ],
      "name": "syntheticToken_priceSnapshot",
      "outputs": [
        {
          "internalType": "uint256",
          "name": "",
          "type": "uint256"
        }
      ],
      "stateMutability": "view",
      "type": "function",
      "constant": true
    },
    {
      "inputs": [
        {
          "internalType": "uint32",
          "name": "",
          "type": "uint32"
        },
        {
          "internalType": "bool",
          "name": "",
          "type": "bool"
        }
      ],
      "name": "syntheticTokens",
      "outputs": [
        {
          "internalType": "address",
          "name": "",
          "type": "address"
        }
      ],
      "stateMutability": "view",
      "type": "function",
      "constant": true
    },
    {
      "inputs": [],
      "name": "tokenFactory",
      "outputs": [
        {
          "internalType": "address",
          "name": "",
          "type": "address"
        }
      ],
      "stateMutability": "view",
      "type": "function",
      "constant": true
    },
    {
      "inputs": [],
      "name": "treasury",
      "outputs": [
        {
          "internalType": "address",
          "name": "",
          "type": "address"
        }
      ],
      "stateMutability": "view",
      "type": "function",
      "constant": true
    },
    {
      "inputs": [
        {
          "internalType": "uint32",
          "name": "",
          "type": "uint32"
        },
        {
          "internalType": "address",
          "name": "",
          "type": "address"
        }
      ],
      "name": "userNextPrice_currentUpdateIndex",
      "outputs": [
        {
          "internalType": "uint256",
          "name": "",
          "type": "uint256"
        }
      ],
      "stateMutability": "view",
      "type": "function",
      "constant": true
    },
    {
      "inputs": [
        {
          "internalType": "uint32",
          "name": "",
          "type": "uint32"
        },
        {
          "internalType": "bool",
          "name": "",
          "type": "bool"
        },
        {
          "internalType": "address",
          "name": "",
          "type": "address"
        }
      ],
      "name": "userNextPrice_paymentToken_depositAmount",
      "outputs": [
        {
          "internalType": "uint256",
          "name": "",
          "type": "uint256"
        }
      ],
      "stateMutability": "view",
      "type": "function",
      "constant": true
    },
    {
      "inputs": [
        {
          "internalType": "uint32",
          "name": "",
          "type": "uint32"
        },
        {
          "internalType": "bool",
          "name": "",
          "type": "bool"
        },
        {
          "internalType": "address",
          "name": "",
          "type": "address"
        }
      ],
      "name": "userNextPrice_syntheticToken_redeemAmount",
      "outputs": [
        {
          "internalType": "uint256",
          "name": "",
          "type": "uint256"
        }
      ],
      "stateMutability": "view",
      "type": "function",
      "constant": true
    },
    {
      "inputs": [
        {
          "internalType": "uint32",
          "name": "",
          "type": "uint32"
        },
        {
          "internalType": "bool",
          "name": "",
          "type": "bool"
        },
        {
          "internalType": "address",
          "name": "",
          "type": "address"
        }
      ],
      "name": "userNextPrice_syntheticToken_toShiftAwayFrom_marketSide",
      "outputs": [
        {
          "internalType": "uint256",
          "name": "",
          "type": "uint256"
        }
      ],
      "stateMutability": "view",
      "type": "function",
      "constant": true
    },
    {
      "inputs": [
        {
          "internalType": "uint32",
          "name": "",
          "type": "uint32"
        }
      ],
      "name": "yieldManagers",
      "outputs": [
        {
          "internalType": "address",
          "name": "",
          "type": "address"
        }
      ],
      "stateMutability": "view",
      "type": "function",
      "constant": true
    },
    {
      "inputs": [
        {
          "internalType": "address",
          "name": "_admin",
          "type": "address"
        },
        {
          "internalType": "address",
          "name": "_treasury",
          "type": "address"
        },
        {
          "internalType": "address",
          "name": "_tokenFactory",
          "type": "address"
        },
        {
          "internalType": "address",
          "name": "_staker",
          "type": "address"
        }
      ],
      "name": "initialize",
      "outputs": [],
      "stateMutability": "nonpayable",
      "type": "function"
    },
    {
      "inputs": [
        {
          "internalType": "address",
          "name": "_admin",
          "type": "address"
        }
      ],
      "name": "changeAdmin",
      "outputs": [],
      "stateMutability": "nonpayable",
      "type": "function"
    },
    {
      "inputs": [
        {
          "internalType": "address",
          "name": "_treasury",
          "type": "address"
        }
      ],
      "name": "changeTreasury",
      "outputs": [],
      "stateMutability": "nonpayable",
      "type": "function"
    },
    {
      "inputs": [
        {
          "internalType": "uint32",
          "name": "marketIndex",
          "type": "uint32"
        },
        {
          "internalType": "address",
          "name": "_newOracleManager",
          "type": "address"
        }
      ],
      "name": "updateMarketOracle",
      "outputs": [],
      "stateMutability": "nonpayable",
      "type": "function"
    },
    {
      "inputs": [
        {
          "internalType": "uint32",
          "name": "marketIndex",
          "type": "uint32"
        },
        {
          "internalType": "uint256",
          "name": "_marketTreasurySplitGradient_e18",
          "type": "uint256"
        }
      ],
      "name": "changeMarketTreasurySplitGradient",
      "outputs": [],
      "stateMutability": "nonpayable",
      "type": "function"
    },
    {
      "inputs": [
        {
          "internalType": "string",
          "name": "syntheticName",
          "type": "string"
        },
        {
          "internalType": "string",
          "name": "syntheticSymbol",
          "type": "string"
        },
        {
          "internalType": "address",
          "name": "_paymentToken",
          "type": "address"
        },
        {
          "internalType": "address",
          "name": "_oracleManager",
          "type": "address"
        },
        {
          "internalType": "address",
          "name": "_yieldManager",
          "type": "address"
        }
      ],
      "name": "createNewSyntheticMarket",
      "outputs": [],
      "stateMutability": "nonpayable",
      "type": "function"
    },
    {
      "inputs": [
        {
          "internalType": "uint32",
          "name": "marketIndex",
          "type": "uint32"
        },
        {
          "internalType": "uint256",
          "name": "kInitialMultiplier",
          "type": "uint256"
        },
        {
          "internalType": "uint256",
          "name": "kPeriod",
          "type": "uint256"
        },
        {
          "internalType": "uint256",
          "name": "unstakeFee_e18",
          "type": "uint256"
        },
        {
          "internalType": "uint256",
          "name": "initialMarketSeedForEachMarketSide",
          "type": "uint256"
        },
        {
          "internalType": "uint256",
          "name": "balanceIncentiveCurve_exponent",
          "type": "uint256"
        },
        {
          "internalType": "int256",
          "name": "balanceIncentiveCurve_equilibriumOffset",
          "type": "int256"
        },
        {
          "internalType": "uint256",
          "name": "_marketTreasurySplitGradient_e18",
          "type": "uint256"
        }
      ],
      "name": "initializeMarket",
      "outputs": [],
      "stateMutability": "nonpayable",
      "type": "function"
    },
    {
      "inputs": [
        {
          "internalType": "uint32",
          "name": "marketIndex",
          "type": "uint32"
        },
        {
          "internalType": "uint256",
          "name": "amountSyntheticToken_redeemOnOriginSide",
          "type": "uint256"
        },
        {
          "internalType": "bool",
          "name": "isShiftFromLong",
          "type": "bool"
        },
        {
          "internalType": "uint256",
          "name": "priceSnapshotIndex",
          "type": "uint256"
        }
      ],
      "name": "getAmountSyntheticTokenToMintOnTargetSide",
      "outputs": [
        {
          "internalType": "uint256",
          "name": "amountSyntheticTokensToMintOnTargetSide",
          "type": "uint256"
        }
      ],
      "stateMutability": "view",
      "type": "function",
      "constant": true
    },
    {
      "inputs": [
        {
          "internalType": "address",
          "name": "user",
          "type": "address"
        },
        {
          "internalType": "uint32",
          "name": "marketIndex",
          "type": "uint32"
        },
        {
          "internalType": "bool",
          "name": "isLong",
          "type": "bool"
        }
      ],
      "name": "getUsersConfirmedButNotSettledSynthBalance",
      "outputs": [
        {
          "internalType": "uint256",
          "name": "confirmedButNotSettledBalance",
          "type": "uint256"
        }
      ],
      "stateMutability": "view",
      "type": "function",
      "constant": true
    },
    {
      "inputs": [
        {
          "internalType": "uint32",
          "name": "marketIndex",
          "type": "uint32"
        }
      ],
      "name": "updateSystemState",
      "outputs": [],
      "stateMutability": "nonpayable",
      "type": "function"
    },
    {
      "inputs": [
        {
          "internalType": "uint32[]",
          "name": "marketIndexes",
          "type": "uint32[]"
        }
      ],
      "name": "updateSystemStateMulti",
      "outputs": [],
      "stateMutability": "nonpayable",
      "type": "function"
    },
    {
      "inputs": [
        {
          "internalType": "uint32",
          "name": "marketIndex",
          "type": "uint32"
        },
        {
          "internalType": "uint256",
          "name": "amount",
          "type": "uint256"
        }
      ],
      "name": "mintLongNextPrice",
      "outputs": [],
      "stateMutability": "nonpayable",
      "type": "function"
    },
    {
      "inputs": [
        {
          "internalType": "uint32",
          "name": "marketIndex",
          "type": "uint32"
        },
        {
          "internalType": "uint256",
          "name": "amount",
          "type": "uint256"
        }
      ],
      "name": "mintShortNextPrice",
      "outputs": [],
      "stateMutability": "nonpayable",
      "type": "function"
    },
    {
      "inputs": [
        {
          "internalType": "uint32",
          "name": "marketIndex",
          "type": "uint32"
        },
        {
          "internalType": "uint256",
          "name": "tokens_redeem",
          "type": "uint256"
        }
      ],
      "name": "redeemLongNextPrice",
      "outputs": [],
      "stateMutability": "nonpayable",
      "type": "function"
    },
    {
      "inputs": [
        {
          "internalType": "uint32",
          "name": "marketIndex",
          "type": "uint32"
        },
        {
          "internalType": "uint256",
          "name": "tokens_redeem",
          "type": "uint256"
        }
      ],
      "name": "redeemShortNextPrice",
      "outputs": [],
      "stateMutability": "nonpayable",
      "type": "function"
    },
    {
      "inputs": [
        {
          "internalType": "uint32",
          "name": "marketIndex",
          "type": "uint32"
        },
        {
          "internalType": "uint256",
          "name": "amountSyntheticTokensToShift",
          "type": "uint256"
        }
      ],
      "name": "shiftPositionFromLongNextPrice",
      "outputs": [],
      "stateMutability": "nonpayable",
      "type": "function"
    },
    {
      "inputs": [
        {
          "internalType": "uint32",
          "name": "marketIndex",
          "type": "uint32"
        },
        {
          "internalType": "uint256",
          "name": "amountSyntheticTokensToShift",
          "type": "uint256"
        }
      ],
      "name": "shiftPositionFromShortNextPrice",
      "outputs": [],
      "stateMutability": "nonpayable",
      "type": "function"
    },
    {
      "inputs": [
        {
          "internalType": "address",
          "name": "user",
          "type": "address"
        },
        {
          "internalType": "uint32",
          "name": "marketIndex",
          "type": "uint32"
        }
      ],
      "name": "executeOutstandingNextPriceSettlementsUser",
      "outputs": [],
      "stateMutability": "nonpayable",
      "type": "function"
    },
    {
      "inputs": [
        {
          "internalType": "address",
          "name": "user",
          "type": "address"
        },
        {
          "internalType": "uint32[]",
          "name": "marketIndexes",
          "type": "uint32[]"
        }
      ],
      "name": "executeOutstandingNextPriceSettlementsUserMulti",
      "outputs": [],
      "stateMutability": "nonpayable",
      "type": "function"
    }
  ],
  "bytecode": "0x608060405234801561001057600080fd5b506137d6806100206000396000f3fe608060405234801561001057600080fd5b506004361061025e5760003560e01c806391a9fa6111610146578063c2e12471116100c3578063eeb0235211610087578063eeb02352146106c9578063f41cb195146106dc578063f68a327f14610705578063f80c9b9214610718578063f851a44014610743578063f8c8765e146107565761025e565b8063c2e124711461066a578063d88905c91461067d578063da04ce1414610690578063e6b604e0146106a3578063e77772fe146106b65761025e565b8063b14f2a391161010a578063b14f2a39146105ad578063b36f5374146105c0578063b3c7e218146105f3578063bb0a45291461061e578063c2b80072146106395761025e565b806391a9fa61146104ff57806392f6fe80146105125780639c5b0ee3146105255780639dc39e0f1461054e578063b054c4a1146105795761025e565b8063636190c8116101df5780636f486c5b116101a35780636f486c5b146104625780637a0e94f014610493578063867dfc6d146104a65780638900bdfa146104b9578063897a0786146104d95780638f283970146104ec5761025e565b8063636190c8146103d257806364d16f53146103fe57806364e4a81d14610411578063682ad2861461043c5780636c8d2b971461044f5761025e565b80633489868411610226578063348986841461033d57806334daaa251461036e578063414ffd50146103995780635ebaf1db146103ac57806361d027b3146103bf5761025e565b806305c8146f146102635780630e5140dc1461027857806314c88ffa146102bc5780631badf5c0146102dc57806321658e481461031d575b600080fd5b61027661027136600461318d565b610769565b005b6102a9610286366004613208565b606f60209081526000938452604080852082529284528284209052825290205481565b6040519081526020015b60405180910390f35b6102a96102ca36600461318d565b60616020526000908152604090205481565b6103056102ea36600461318d565b6064602052600090815260409020546001600160a01b031681565b6040516001600160a01b0390911681526020016102b3565b6102a961032b36600461318d565b60656020526000908152604090205481565b6102a961034b366004613208565b606e60209081526000938452604080852082529284528284209052825290205481565b6102a961037c3660046131dd565b606a60209081526000928352604080842090915290825290205481565b6102766103a73660046132f1565b610775565b603054610305906001600160a01b031681565b602f54610305906001600160a01b031681565b602f546103e990600160a01b900463ffffffff1681565b60405163ffffffff90911681526020016102b3565b61027661040c3660046131a7565b610939565b6102a961041f3660046131dd565b606960209081526000928352604080842090915290825290205481565b61027661044a366004613283565b6109be565b61027661045d366004613043565b6109ce565b6102a9610470366004613245565b606860209081526000938452604080852082529284528284209052825290205481565b6102766104a1366004612eeb565b610a2d565b6102766104b4366004613283565b610a7c565b6102a96104c736600461318d565b60606020526000908152604090205481565b6102766104e7366004612fc7565b610a88565b6102766104fa366004612e51565b610a92565b61027661050d366004613283565b610abc565b6102a96105203660046132ac565b610ac8565b61030561053336600461318d565b6063602052600090815260409020546001600160a01b031681565b6102a961055c3660046131a7565b606c60209081526000928352604080842090915290825290205481565b6103056105873660046131dd565b60666020908152600092835260408084209091529082529020546001600160a01b031681565b6102766105bb366004612e51565b610b1d565b6105e36105ce36600461318d565b605f6020526000908152604090205460ff1681565b60405190151581526020016102b3565b6102a96106013660046131dd565b606760209081526000928352604080842090915290825290205481565b61030573f10a7f10a7f10a7f10a7f10a7f10a7f10a7f10a781565b6102a9610647366004613208565b606d60209081526000938452604080852082529284528284209052825290205481565b610276610678366004613283565b610b47565b61027661068b3660046130e7565b610b53565b61027661069e366004613283565b610f8b565b6102766106b1366004613283565b610fac565b603154610305906001600160a01b031681565b6102766106d7366004613283565b610fb8565b6103056106ea36600461318d565b6062602052600090815260409020546001600160a01b031681565b6102a9610713366004612ffb565b610fc4565b6102a96107263660046131dd565b606b60209081526000928352604080842090915290825290205481565b602e54610305906001600160a01b031681565b610276610764366004612e90565b611151565b6107728161129d565b50565b61077d6117e8565b63ffffffff88166000908152605f602052604090205460ff16156107de5760405162461bcd60e51b8152602060048201526013602482015272185b1c9958591e481a5b9a5d1a585b1a5e9959606a1b60448201526064015b60405180910390fd5b602f5463ffffffff600160a01b909104811690891611156108325760405162461bcd60e51b815260206004820152600e60248201526d0d2dcc8caf040e8dede40d0d2ced60931b60448201526064016107d5565b63ffffffff8881166000908152605f60209081526040808320805460ff191660019081179091556065835281842086905560618352818420819055603054602f54600160a01b9004909516808552606684528285209185529252808320548380529281902054905163b0956b5f60e01b815260048101929092526001600160a01b03928316602483015282166044820152606481018a90526084810189905260a4810188905260c4810186905260e4810185905291169063b0956b5f9061010401600060405180830381600087803b15801561090d57600080fd5b505af1158015610921573d6000803e3d6000fd5b5050505061092f8489611831565b5050505050505050565b6109416117e8565b63ffffffff821660008181526064602090815260409182902080546001600160a01b038681166001600160a01b03198316811790935584519586521691840182905291830191909152907ffc4d69f373858d480cfc3f12e7cc7f9b12201291753ffc3babef0e7a8041979f906060015b60405180910390a1505050565b6109ca82826000611ab5565b5050565b60005b81811015610a2857610a168383838181106109fc57634e487b7160e01b600052603260045260246000fd5b9050602002016020810190610a11919061318d565b61129d565b80610a20816136e2565b9150506109d1565b505050565b60005b8151811015610a2857610a6a83838381518110610a5d57634e487b7160e01b600052603260045260246000fd5b6020026020010151611cbb565b80610a74816136e2565b915050610a30565b6109ca82826001611db9565b6109ca8282611cbb565b610a9a6117e8565b602e80546001600160a01b0319166001600160a01b0392909216919091179055565b6109ca82826000611db9565b63ffffffff84166000908152606860209081526040808320851580158552818452828520868652845282852054908552908352818420858552909252822054610b12868383611ed2565b979650505050505050565b610b256117e8565b602f80546001600160a01b0319166001600160a01b0392909216919091179055565b6109ca82826001611ef1565b610b5b6117e8565b602f8054600160a01b900463ffffffff16906014610b78836136fd565b91906101000a81548163ffffffff021916908363ffffffff16021790555050603160009054906101000a90046001600160a01b03166001600160a01b031663e6d304678888604051602001610bce929190613424565b6040516020818303038152906040528787604051602001610bf09291906133df565b60408051808303601f1901815290829052603054602f5460e086901b6001600160e01b0319168452610c4394936001600160a01b0390921691600160a01b90910463ffffffff1690600190600401613477565b602060405180830381600087803b158015610c5d57600080fd5b505af1158015610c71573d6000803e3d6000fd5b505050506040513d601f19601f82011682018060405250810190610c959190612e74565b602f54600160a01b900463ffffffff1660009081526066602090815260408083206001845282529182902080546001600160a01b0319166001600160a01b039485161790556031549151919092169163e6d3046791610cf8918b918b91016133fd565b6040516020818303038152906040528787604051602001610d1a9291906133c1565b60408051808303601f1901815290829052603054602f5460e086901b6001600160e01b0319168452610d6d94936001600160a01b0390921691600160a01b90910463ffffffff1690600090600401613477565b602060405180830381600087803b158015610d8757600080fd5b505af1158015610d9b573d6000803e3d6000fd5b505050506040513d601f19601f82011682018060405250810190610dbf9190612e74565b602f8054600160a01b9081900463ffffffff9081166000908152606660209081526040808320838052825280832080546001600160a01b03199081166001600160a01b03998a161790915586548690048516845260628352818420805482168c8a1617905586548690048516845260638352818420805482168a8a161790558654869004851684526064835281842080549091168a89161790559454939093049091168152828120548351630ce74fc560e31b8152935194169363673a7e289360048082019493918390030190829087803b158015610e9d57600080fd5b505af1158015610eb1573d6000803e3d6000fd5b505050506040513d601f19601f82011682018060405250810190610ed591906130cf565b602f805463ffffffff600160a01b91829004811660009081526060602081815260408084209790975594549390930490911680825260668452848220600183528452848220548280528583205482845293909452908490205493517fe4584ea0a1a399f353be60f6d1c0e612653d69e0417763b14dec1245538b976194610f7a9492936001600160a01b039384169316918991908e908e908e908e908d908d906134cb565b60405180910390a150505050505050565b610f936117e8565b63ffffffff909116600090815260656020526040902055565b6109ca82826000611ef1565b6109ca82826001611ab5565b600082610fd0816120b4565b63ffffffff8416600090815260616020908152604080832054606c83528184206001600160a01b038a168552909252909120541580159061103a575063ffffffff85166000908152606c602090815260408083206001600160a01b038a1684529091529020548110155b156111485763ffffffff85166000908152606d60209081526040808320871515845282528083206001600160a01b038a16845290915290205480156110b25763ffffffff86166000908152606860209081526040808320881515845282528083208584529091529020546110ae8282612110565b9450505b63ffffffff86166000908152606f602090815260408083208815845282528083206001600160a01b038b16845290915290205480156111455763ffffffff8716600090815260686020908152604080832089158085528184528285208886528452828520549015855290835281842087855290925290912054611136838383611ed2565b6111409088613590565b965050505b50505b50509392505050565b600054610100900460ff168061116a575060005460ff16155b6111cd5760405162461bcd60e51b815260206004820152602e60248201527f496e697469616c697a61626c653a20636f6e747261637420697320616c72656160448201526d191e481a5b9a5d1a585b1a5e995960921b60648201526084016107d5565b600054610100900460ff161580156111ef576000805461ffff19166101011790555b602e80546001600160a01b038781166001600160a01b03199283168117909355602f805488831690841681179091556031805488841690851681179091556030805493881693909416831790935560408051948552602085019190915283019190915260608201527fd3469a6e81bfb8eb50829f6f9a8531a9b6a7c1e7765bb91fbe57a91e173ccbbe9060800160405180910390a18015611296576000805461ff00191690555b5050505050565b806112a7816120b4565b63ffffffff82166000908152606460209081526040808320548151630ce74fc560e31b815291516001600160a01b039091169263673a7e28926004808201939182900301818787803b1580156112fc57600080fd5b505af1158015611310573d6000803e3d6000fd5b505050506040513d601f19601f8201168201806040525081019061133491906130cf565b63ffffffff841660009081526060602052604090205490915080821415808061136757506030546001600160a01b031633145b156112965763ffffffff8516600081815260686020908152604080832060018085528184528285208686526061808652848720548088529186528487205487805293865284872082885286529386205496909552919092529092916113cb91613590565b63ffffffff88166000908152606c602090815260408083206030546001600160a01b031684529091529020541480156114015750825b156114c75760305463ffffffff881660008181526067602090815260408083206001845282528083205483805281842054858552606c84528285206001600160a01b0390971680865296909352928190205490516317b4d3fb60e31b8152600481019490945260248401879052604484018690526064840192909252608483015260a482015263bda69fd89060c401600060405180830381600087803b1580156114aa57600080fd5b505af11580156114be573d6000803e3d6000fd5b5050505061156d565b60305463ffffffff8816600081815260676020908152604080832060018452909152808220548280528183205491516317b4d3fb60e31b8152600481019490945260248401879052604484018690526064840152608483015260a48201526001600160a01b039091169063bda69fd89060c401600060405180830381600087803b15801561155457600080fd5b505af1158015611568573d6000803e3d6000fd5b505050505b8261157c5750505050506109ca565b60008061158a898888612138565b63ffffffff8b166000908152606660209081526040808320600184528252918290205482516318160ddd60e01b815292519496509294506116309386936001600160a01b0316926318160ddd926004808301939192829003018186803b1580156115f357600080fd5b505afa158015611607573d6000803e3d6000fd5b505050506040513d601f19601f8201168201806040525081019061162b91906130cf565b612110565b63ffffffff8a1660009081526066602090815260408083208380528252918290205482516318160ddd60e01b815292519397506116969385936001600160a01b03909216926318160ddd9260048082019391829003018186803b1580156115f357600080fd5b63ffffffff8a1660009081526060602090815260408083208b90556061909152812080549295506001929091906116ce908490613590565b909155505063ffffffff891660008181526068602090815260408083206001845280835281842094845260618352818420805485529483528184208990558380528252808320935483529290529081208490558061172d8b87876122db565b909250905061173c828561354f565b9350611748818461354f565b63ffffffff8c16600081815260676020908152604080832060018452825280832089905582805280832085905583835260618252918290205482519384529083015281018b9052606081018690526080810182905260a0810188905260c081018790529093507f69e662f95898affac086a5bc1177755bdaf7f4a40a3880364c48012170ee57fe9060e00160405180910390a15050505050505050505050565b602e546001600160a01b0316331461182f5760405162461bcd60e51b815260206004820152600a60248201526937b7363c9030b236b4b760b11b60448201526064016107d5565b565b670de0b6b3a76400008210156118895760405162461bcd60e51b815260206004820152601860248201527f496e73756666696369656e74206d61726b65742073656564000000000000000060448201526064016107d5565b600061189683600261366d565b90506118a282826125cf565b63ffffffff8216600090815260636020526040908190205490516304831f7160e51b8152600481018390526001600160a01b0390911690639063ee2090602401600060405180830381600087803b1580156118fc57600080fd5b505af1158015611910573d6000803e3d6000fd5b5050602f54600160a01b900463ffffffff16600090815260666020908152604080832060018452909152908190205490516340c10f1960e01b815273f10a7f10a7f10a7f10a7f10a7f10a7f10a7f10a76004820152602481018790526001600160a01b0390911692506340c10f199150604401600060405180830381600087803b15801561199d57600080fd5b505af11580156119b1573d6000803e3d6000fd5b5050602f54600160a01b900463ffffffff166000908152606660209081526040808320838052909152908190205490516340c10f1960e01b815273f10a7f10a7f10a7f10a7f10a7f10a7f10a7f10a76004820152602481018790526001600160a01b0390911692506340c10f199150604401600060405180830381600087803b158015611a3d57600080fd5b505af1158015611a51573d6000803e3d6000fd5b5050505063ffffffff8216600081815260676020908152604080832060018452825280832087905582805291829020869055815192835282018590527f6b73d8f672e796176444c21cb5429d8ea426e6f0f8a3b34e7057a808be5d19c691016109b1565b82611abf8161129d565b3384611acb8282611cbb565b63ffffffff861660009081526066602090815260408083208715158452909152908190205490516323b872dd60e01b8152336004820152306024820152604481018790526001600160a01b03909116906323b872dd90606401602060405180830381600087803b158015611b3e57600080fd5b505af1158015611b52573d6000803e3d6000fd5b505050506040513d601f19601f82011682018060405250810190611b7691906130b3565b611b7f57600080fd5b63ffffffff86166000908152606f602090815260408083208715158452825280832033845290915281208054879290611bb9908490613590565b909155505063ffffffff8616600090815260616020526040902054611bdf906001613590565b63ffffffff87166000818152606c60209081526040808320338452825280832094909455918152606b825282812087151582529091529081208054879290611c28908490613590565b909155505063ffffffff86166000908152606160205260409020547fd850f5d8405edb0730cd72e6bb9e228043c91fd591562543ea553efda14970b6908790869088903390611c78906001613590565b6040805163ffffffff90961686529315156020860152928401919091526001600160a01b03166060830152608082015260a00160405180910390a1505050505050565b63ffffffff81166000908152606c602090815260408083206001600160a01b03861684529091529020548015801590611d09575063ffffffff82166000908152606160205260409020548111155b15610a2857611d1a82846001612682565b611d2682846000612682565b611d3282846001612827565b611d3e82846000612827565b611d4a82846001612986565b611d5682846000612986565b63ffffffff82166000818152606c602090815260408083206001600160a01b038816808552908352818420939093558051928352908201929092527fe03aa867e2345cc967d98e4c81f6b0707b5ef082d9d20bac3dcf95540acdeae491016109b1565b82611dc38161129d565b3384611dcf8282611cbb565b611dd986866125cf565b63ffffffff86166000908152606960209081526040808320871515845290915281208054879290611e0b908490613590565b909155505063ffffffff86166000908152606d602090815260408083208715158452825280832033845290915281208054879290611e4a908490613590565b909155505063ffffffff8616600090815260616020526040902054611e70906001613590565b63ffffffff87166000818152606c6020908152604080832033808552908352818420959095559282526061905220547f50b8727b538cf16daeb79894e8bde5c1e975985071be8a8d7620675a5dddfc6b91889187918991611c78906001613590565b600081611edf848661366d565b611ee991906135d6565b949350505050565b82611efb8161129d565b3384611f078282611cbb565b63ffffffff861660009081526066602090815260408083208715158452909152908190205490516323b872dd60e01b8152336004820152306024820152604481018790526001600160a01b03909116906323b872dd90606401602060405180830381600087803b158015611f7a57600080fd5b505af1158015611f8e573d6000803e3d6000fd5b505050506040513d601f19601f82011682018060405250810190611fb291906130b3565b611fbb57600080fd5b63ffffffff86166000908152606e602090815260408083208715158452825280832033845290915281208054879290611ff5908490613590565b909155505063ffffffff861660009081526061602052604090205461201b906001613590565b63ffffffff87166000818152606c60209081526040808320338452825280832094909455918152606a825282812087151582529091529081208054879290612064908490613590565b909155505063ffffffff86166000908152606160205260409020547f191d5f0d51691cdc223884e5321013c9663c6b337a07d550c538d9dcbbd66203908790869088903390611c78906001613590565b63ffffffff81166000908152605f602052604090205460ff166107725760405162461bcd60e51b81526020600482015260146024820152731b585c9ad95d08191bd95cdb89dd08195e1a5cdd60621b60448201526064016107d5565b60008161212584670de0b6b3a764000061366d565b61212f91906135d6565b90505b92915050565b63ffffffff83166000908152606760209081526040808320600184529091528082205482805290822054909161216e8284613590565b905060008061217f88868686612b01565b63ffffffff8a1660009081526063602052604080822054905163452accd960e11b81526004810188905260248101849052939550919350916001600160a01b0390911690638a5599b290604401602060405180830381600087803b1580156121e657600080fd5b505af11580156121fa573d6000803e3d6000fd5b505050506040513d601f19601f8201168201806040525081019061221e91906130cf565b9050801561224a57821561223d576122368187613590565b955061224a565b6122478186613590565b94505b60006122568787612b8f565b905060008882612266828d61368c565b61227091906135ea565b61227a91906135a8565b905060008113156122a25761228f8189613590565b975061229b81886136cb565b96506122cd565b6122ab81613721565b6122b590896136cb565b97506122c081613721565b6122ca9088613590565b96505b505050505050935093915050565b63ffffffff8316600090815260696020908152604080832060018452909152812054819081908190801561233b5763ffffffff88166000908152606960209081526040808320600184529091528120559350836123388188612110565b92505b5063ffffffff8716600090815260696020908152604080832083805290915290205480156123945763ffffffff881660009081526069602090815260408083208380529091528120559250826123918187612110565b91505b5063ffffffff87166000908152606b6020908152604080832060018452909152902054801561242a5760006123c98289612ba7565b90506123d5818761368c565b95506123e1818661354f565b94506123ed828561368c565b93506123fa828989611ed2565b612404908461354f565b63ffffffff8a166000908152606b60209081526040808320600184529091528120559250505b5063ffffffff87166000908152606b6020908152604080832083805290915290205480156124bf57600061245e8288612ba7565b905061246a818661368c565b9450612476818761354f565b9550612482828461368c565b925061248f82888a611ed2565b612499908561354f565b63ffffffff8a166000908152606b60209081526040808320600184529091528120559350505b5063ffffffff87166000908152606a6020908152604080832060018452909152902054801561252d576124f28188612ba7565b6124fc908661368c565b9450612508818461368c565b63ffffffff89166000908152606a602090815260408083206001845290915281205592505b5063ffffffff87166000908152606a6020908152604080832083805290915290205480156125995761255f8187612ba7565b612569908561368c565b9350612575818361368c565b63ffffffff89166000908152606a6020908152604080832083805290915281205591505b6125ac886125a7868861354f565b612bbc565b6125b888600185612cc6565b6125c488600084612cc6565b505050935093915050565b63ffffffff82166000908152606260209081526040808320546063909252918290205491516323b872dd60e01b81523360048201526001600160a01b039283166024820152604481018490529116906323b872dd90606401602060405180830381600087803b15801561264157600080fd5b505af1158015612655573d6000803e3d6000fd5b505050506040513d601f19601f8201168201806040525081019061267991906130b3565b6109ca57600080fd5b63ffffffff83166000908152606d60209081526040808320841515845282528083206001600160a01b038616845290915290205480156128215763ffffffff84166000818152606d602090815260408083208615158085529083528184206001600160a01b03891680865290845282852085905585855260688452828520918552908352818420948452606c8352818420908452825280832054835292905290812054612730908390612110565b63ffffffff8616600090815260666020908152604080832087151584529091529081902054905163a9059cbb60e01b81526001600160a01b0387811660048301526024820184905292935091169063a9059cbb90604401602060405180830381600087803b1580156127a157600080fd5b505af11580156127b5573d6000803e3d6000fd5b505050506040513d601f19601f820116820180604052508101906127d991906130b3565b6127e257600080fd5b7f2b896bbe6fd98e6571cdb9adb035742b407675559adeedf5f06159e3e56f6dda848685846040516128179493929190613449565b60405180910390a1505b50505050565b63ffffffff83166000908152606e60209081526040808320841515845282528083206001600160a01b038616845290915290205480156128215763ffffffff84166000818152606e602090815260408083208615158085529083528184206001600160a01b03891680865290845282852085905585855260688452828520918552908352818420948452606c83528184209084528252808320548352929052908120546128d5908390612ba7565b63ffffffff8616600090815260636020526040908190205490516375b5ffd160e11b81526001600160a01b0387811660048301526024820184905292935091169063eb6bffa290604401600060405180830381600087803b15801561293957600080fd5b505af115801561294d573d6000803e3d6000fd5b505050507f8937f7ec13112bd5042a48b763f209c758b38657c498e81470568e88b0d19707848685846040516128179493929190613449565b63ffffffff83166000908152606f60209081526040808320841515845282528083206001600160a01b038616845290915290205480156128215763ffffffff84166000908152606c602090815260408083206001600160a01b03871684529091528120546129f990869084908690610ac8565b63ffffffff86166000818152606f602090815260408083208815801585529083528184206001600160a01b038b81168087529185528386208690559585526066845282852091855292529182902054915163a9059cbb60e01b8152600481019190915260248101849052929350169063a9059cbb90604401602060405180830381600087803b158015612a8b57600080fd5b505af1158015612a9f573d6000803e3d6000fd5b505050506040513d601f19601f82011682018060405250810190612ac391906130b3565b612acc57600080fd5b7f284b8f45766675af314e474626b6fe315a5c96f2fac530ad6e47991bbf254723848685846040516128179493929190613449565b8183106000808215612b1e57612b1786866136cb565b9050612b2b565b612b2885876136cb565b90505b63ffffffff87166000908152606560205260408120548590612b4d908461366d565b612b5791906135d6565b90506000612b6d82670de0b6b3a7640000612b8f565b9050612b8181670de0b6b3a76400006136cb565b935050505094509492505050565b600081831115612ba0575080612132565b5081612132565b6000670de0b6b3a7640000612125838561366d565b6000811315612c3c5763ffffffff8216600090815260636020526040908190205490516304831f7160e51b8152600481018390526001600160a01b0390911690639063ee2090602401600060405180830381600087803b158015612c1f57600080fd5b505af1158015612c33573d6000803e3d6000fd5b505050506109ca565b60008112156109ca5763ffffffff82166000908152606360205260409020546001600160a01b0316631c499b55612c7283613721565b6040518263ffffffff1660e01b8152600401612c9091815260200190565b600060405180830381600087803b158015612caa57600080fd5b505af1158015612cbe573d6000803e3d6000fd5b505050505050565b6000811315612d595763ffffffff831660009081526066602090815260408083208515158452909152908190205490516340c10f1960e01b8152306004820152602481018390526001600160a01b03909116906340c10f1990604401600060405180830381600087803b158015612d3c57600080fd5b505af1158015612d50573d6000803e3d6000fd5b50505050610a28565b6000811215610a285763ffffffff8316600090815260666020908152604080832085151584529091529020546001600160a01b03166342966c68612d9c83613721565b6040518263ffffffff1660e01b8152600401612dba91815260200190565b600060405180830381600087803b158015612dd457600080fd5b505af1158015612de8573d6000803e3d6000fd5b50505050505050565b60008083601f840112612e02578182fd5b50813567ffffffffffffffff811115612e19578182fd5b602083019150836020828501011115612e3157600080fd5b9250929050565b803563ffffffff81168114612e4c57600080fd5b919050565b600060208284031215612e62578081fd5b8135612e6d8161377d565b9392505050565b600060208284031215612e85578081fd5b8151612e6d8161377d565b60008060008060808587031215612ea5578283fd5b8435612eb08161377d565b93506020850135612ec08161377d565b92506040850135612ed08161377d565b91506060850135612ee08161377d565b939692955090935050565b60008060408385031215612efd578182fd5b8235612f088161377d565b915060208381013567ffffffffffffffff80821115612f25578384fd5b818601915086601f830112612f38578384fd5b813581811115612f4a57612f4a613767565b8060051b604051601f19603f83011681018181108582111715612f6f57612f6f613767565b604052828152858101935084860182860187018b1015612f8d578788fd5b8795505b83861015612fb657612fa281612e38565b855260019590950194938601938601612f91565b508096505050505050509250929050565b60008060408385031215612fd9578182fd5b8235612fe48161377d565b9150612ff260208401612e38565b90509250929050565b60008060006060848603121561300f578283fd5b833561301a8161377d565b925061302860208501612e38565b9150604084013561303881613792565b809150509250925092565b60008060208385031215613055578182fd5b823567ffffffffffffffff8082111561306c578384fd5b818501915085601f83011261307f578384fd5b81358181111561308d578485fd5b8660208260051b85010111156130a1578485fd5b60209290920196919550909350505050565b6000602082840312156130c4578081fd5b8151612e6d81613792565b6000602082840312156130e0578081fd5b5051919050565b600080600080600080600060a0888a031215613101578283fd5b873567ffffffffffffffff80821115613118578485fd5b6131248b838c01612df1565b909950975060208a013591508082111561313c578485fd5b506131498a828b01612df1565b909650945050604088013561315d8161377d565b9250606088013561316d8161377d565b9150608088013561317d8161377d565b8091505092959891949750929550565b60006020828403121561319e578081fd5b61212f82612e38565b600080604083850312156131b9578182fd5b6131c283612e38565b915060208301356131d28161377d565b809150509250929050565b600080604083850312156131ef578182fd5b6131f883612e38565b915060208301356131d281613792565b60008060006060848603121561321c578081fd5b61322584612e38565b9250602084013561323581613792565b915060408401356130388161377d565b600080600060608486031215613259578081fd5b61326284612e38565b9250602084013561327281613792565b929592945050506040919091013590565b60008060408385031215613295578182fd5b61329e83612e38565b946020939093013593505050565b600080600080608085870312156132c1578182fd5b6132ca85612e38565b93506020850135925060408501356132e181613792565b9396929550929360600135925050565b600080600080600080600080610100898b03121561330d578182fd5b61331689612e38565b9a60208a01359a5060408a013599606081013599506080810135985060a0810135975060c0810135965060e00135945092505050565b60008284528282602086013780602084860101526020601f19601f85011685010190509392505050565b60008151808452815b8181101561339b5760208185018101518683018201520161337f565b818111156133ac5782602083870101525b50601f01601f19169290920160200192915050565b600061199960f21b8252828460028401379101600201908152919050565b600061667560f01b8252828460028401379101600201908152919050565b60006a0233637b0ba102237bbb7160ad1b82528284600b8401379101600b01908152919050565b6000680233637b0ba102ab8160bd1b8252828460098401379101600901908152919050565b6001600160a01b0394909416845263ffffffff92909216602084015215156040830152606082015260800190565b600060a0825261348a60a0830188613376565b828103602084015261349c8188613376565b6001600160a01b03969096166040840152505063ffffffff929092166060830152151560809091015292915050565b63ffffffff8c1681526001600160a01b038b811660208301528a8116604083015289811660608301526080820189905261012060a083018190526000916135158483018a8c61334c565b915083820360c085015261352a82888a61334c565b925080861660e085015280851661010085015250509c9b505050505050505050505050565b600080821280156001600160ff1b03849003851316156135715761357161373b565b600160ff1b839003841281161561358a5761358a61373b565b50500190565b600082198211156135a3576135a361373b565b500190565b6000826135b7576135b7613751565b600160ff1b8214600019841416156135d1576135d161373b565b500590565b6000826135e5576135e5613751565b500490565b60006001600160ff1b03818413828413808216868404861116156136105761361061373b565b600160ff1b8487128281168783058912161561362e5761362e61373b565b8587129250878205871284841616156136495761364961373b565b8785058712818416161561365f5761365f61373b565b505050929093029392505050565b60008160001904831182151516156136875761368761373b565b500290565b60008083128015600160ff1b8501841216156136aa576136aa61373b565b6001600160ff1b03840183138116156136c5576136c561373b565b50500390565b6000828210156136dd576136dd61373b565b500390565b60006000198214156136f6576136f661373b565b5060010190565b600063ffffffff808316818114156137175761371761373b565b6001019392505050565b6000600160ff1b8214156137375761373761373b565b0390565b634e487b7160e01b600052601160045260246000fd5b634e487b7160e01b600052601260045260246000fd5b634e487b7160e01b600052604160045260246000fd5b6001600160a01b038116811461077257600080fd5b801515811461077257600080fdfea2646970667358221220d8f1b2030ec2cf5d34e67cce99e2d5568e4f0bbed8652c548550b5f91f27ae8f64736f6c63430008030033",
  "immutableReferences": {},
  "source": "// SPDX-License-Identifier: BUSL-1.1\n\npragma solidity 0.8.3;\n\nimport \"@openzeppelin/contracts-upgradeable/proxy/utils/Initializable.sol\";\nimport \"@openzeppelin/contracts/token/ERC20/IERC20.sol\";\n\nimport \"./interfaces/ITokenFactory.sol\";\nimport \"./interfaces/ISyntheticToken.sol\";\nimport \"./interfaces/IStaker.sol\";\nimport \"./interfaces/ILongShort.sol\";\nimport \"./interfaces/IYieldManager.sol\";\nimport \"./interfaces/IOracleManager.sol\";\n\n/**\n **** visit https://float.capital *****\n */\n\n/// @title Core logic of Float Protocal markets\n/// @author float.capital\n/// @notice visit https://float.capital for more info\n/// @dev All functions in this file are currently `virtual`. This is NOT to encourage inheritance.\n/// It is merely for convenince when unit testing.\n/// @custom:auditors This contract balances long and short sides.\ncontract LongShort is ILongShort, Initializable {\n  /*\n              VARIABLES          \n    */\n\n  // Fixed-precision constants\n  /// @notice this is the address that permanently locked initial liquidity for markets is held by.\n  /// These tokens will never move so market can never have zero liquidity on a side.\n  /// @dev f10a7 spells float in hex - for fun - important part is that the private key for this address in not known.\n  address public constant PERMANENT_INITIAL_LIQUIDITY_HOLDER =\n    0xf10A7_F10A7_f10A7_F10a7_F10A7_f10a7_F10A7_f10a7;\n  uint256[45] private __constantsGap;\n\n  // Global state\n  address public admin;\n  address public treasury;\n  uint32 public latestMarket;\n\n  address public staker;\n  address public tokenFactory;\n  uint256[45] private __globalStateGap;\n\n  // Market specific\n  mapping(uint32 => bool) public marketExists;\n  mapping(uint32 => uint256) public assetPrice;\n  mapping(uint32 => uint256) public marketUpdateIndex;\n  mapping(uint32 => address) public paymentTokens;\n  mapping(uint32 => address) public yieldManagers;\n  mapping(uint32 => address) public oracleManagers;\n  mapping(uint32 => uint256) public marketTreasurySplitGradient_e18;\n\n  // Market + position (long/short) specific\n  mapping(uint32 => mapping(bool => address)) public syntheticTokens;\n  mapping(uint32 => mapping(bool => uint256)) public marketSideValueInPaymentToken;\n\n  /// @notice synthetic token prices of a given market of a (long/short) at every previous price update\n  mapping(uint32 => mapping(bool => mapping(uint256 => uint256)))\n    public syntheticToken_priceSnapshot;\n\n  mapping(uint32 => mapping(bool => uint256)) public batched_amountPaymentToken_deposit;\n  mapping(uint32 => mapping(bool => uint256)) public batched_amountSyntheticToken_redeem;\n  mapping(uint32 => mapping(bool => uint256))\n    public batched_amountSyntheticToken_toShiftAwayFrom_marketSide;\n\n  // User specific\n  mapping(uint32 => mapping(address => uint256)) public userNextPrice_currentUpdateIndex;\n\n  mapping(uint32 => mapping(bool => mapping(address => uint256)))\n    public userNextPrice_paymentToken_depositAmount;\n  mapping(uint32 => mapping(bool => mapping(address => uint256)))\n    public userNextPrice_syntheticToken_redeemAmount;\n  mapping(uint32 => mapping(bool => mapping(address => uint256)))\n    public userNextPrice_syntheticToken_toShiftAwayFrom_marketSide;\n\n  /*\n               EVENTS           \n    */\n\n  event LongShortV1(address admin, address treasury, address tokenFactory, address staker);\n\n  event SystemStateUpdated(\n    uint32 marketIndex,\n    uint256 updateIndex,\n    int256 underlyingAssetPrice,\n    uint256 longValue,\n    uint256 shortValue,\n    uint256 longPrice,\n    uint256 shortPrice\n  );\n\n  event SyntheticMarketCreated(\n    uint32 marketIndex,\n    address longTokenAddress,\n    address shortTokenAddress,\n    address paymentToken,\n    uint256 initialAssetPrice,\n    string name,\n    string symbol,\n    address oracleAddress,\n    address yieldManagerAddress\n  );\n\n  event NextPriceRedeem(\n    uint32 marketIndex,\n    bool isLong,\n    uint256 synthRedeemed,\n    address user,\n    uint256 oracleUpdateIndex\n  );\n\n  event NextPriceSyntheticPositionShift(\n    uint32 marketIndex,\n    bool isShiftFromLong,\n    uint256 synthShifted,\n    address user,\n    uint256 oracleUpdateIndex\n  );\n\n  event NextPriceDeposit(\n    uint32 marketIndex,\n    bool isLong,\n    uint256 depositAdded,\n    address user,\n    uint256 oracleUpdateIndex\n  );\n\n  event OracleUpdated(uint32 marketIndex, address oldOracleAddress, address newOracleAddress);\n\n  event NewMarketLaunchedAndSeeded(uint32 marketIndex, uint256 initialSeed);\n\n  event ExecuteNextPriceMintSettlementUser(\n    address user,\n    uint32 marketIndex,\n    bool isLong,\n    uint256 amount\n  );\n\n  event ExecuteNextPriceRedeemSettlementUser(\n    address user,\n    uint32 marketIndex,\n    bool isLong,\n    uint256 amount\n  );\n\n  event ExecuteNextPriceMarketSideShiftSettlementUser(\n    address user,\n    uint32 marketIndex,\n    bool isShiftFromLong,\n    uint256 amount\n  );\n\n  event ExecuteNextPriceSettlementsUser(address user, uint32 marketIndex);\n\n  /*\n              MODIFIERS          \n    */\n\n  function adminOnlyModifierLogic() internal virtual {\n    require(msg.sender == admin, \"only admin\");\n  }\n\n  modifier adminOnly() {\n    adminOnlyModifierLogic();\n    _;\n  }\n\n  function requireMarketExistsModifierLogic(uint32 marketIndex) internal view virtual {\n    require(marketExists[marketIndex], \"market doesn't exist\");\n  }\n\n  modifier requireMarketExists(uint32 marketIndex) {\n    requireMarketExistsModifierLogic(marketIndex);\n    _;\n  }\n\n  modifier executeOutstandingNextPriceSettlements(address user, uint32 marketIndex) {\n    _executeOutstandingNextPriceSettlements(user, marketIndex);\n    _;\n  }\n\n  modifier updateSystemStateMarket(uint32 marketIndex) {\n    _updateSystemStateInternal(marketIndex);\n    _;\n  }\n\n  /*\n           CONTRACT SET-UP       \n    */\n\n  /// @notice Initializes the contract.\n  /// @dev Calls OpenZeppelin's initializer modifier.\n  /// @param _admin Address of the admin role.\n  /// @param _treasury Address of the treasury.\n  /// @param _tokenFactory Address of the contract which creates synthetic asset tokens.\n  /// @param _staker Address of the contract which handles synthetic asset stakes.\n  function initialize(\n    address _admin,\n    address _treasury,\n    address _tokenFactory,\n    address _staker\n  ) external virtual initializer {\n    admin = _admin;\n    treasury = _treasury;\n    tokenFactory = _tokenFactory;\n    staker = _staker;\n\n    emit LongShortV1(_admin, _treasury, _tokenFactory, _staker);\n  }\n\n  /*\n           MULTI-SIG ADMIN       \n    */\n\n  /// @notice Changes the admin address for this contract.\n  /// @dev Can only be called by the current admin.\n  /// @param _admin Address of the new admin.\n  function changeAdmin(address _admin) external adminOnly {\n    admin = _admin;\n  }\n\n  /// @notice Changes the treasury contract address for this contract.\n  /// @dev Can only be called by the current admin.\n  /// @param _treasury Address of the treasury contract\n  function changeTreasury(address _treasury) external adminOnly {\n    treasury = _treasury;\n  }\n\n  /// @notice Update oracle for a market\n  /// @dev Can only be called by the current admin.\n  /// @param marketIndex An int32 which uniquely identifies a market.\n  /// @param _newOracleManager Address of the replacement oracle manager.\n  function updateMarketOracle(uint32 marketIndex, address _newOracleManager) external adminOnly {\n    // If not a oracle contract this would break things.. Test's arn't validating this\n    // Ie require isOracle interface - ERC165\n    address previousOracleManager = oracleManagers[marketIndex];\n    oracleManagers[marketIndex] = _newOracleManager;\n    emit OracleUpdated(marketIndex, previousOracleManager, _newOracleManager);\n  }\n\n  /// @notice\n  function changeMarketTreasurySplitGradient(\n    uint32 marketIndex,\n    uint256 _marketTreasurySplitGradient_e18\n  ) external adminOnly {\n    marketTreasurySplitGradient_e18[marketIndex] = _marketTreasurySplitGradient_e18;\n  }\n\n  /*\n           MARKET CREATION       \n    */\n\n  /// @notice Creates an entirely new long/short market tracking an underlying oracle price.\n  ///  Make sure the synthetic names/symbols are unique.\n  /// @dev This does not make the market active.\n  /// The `initializeMarket` function was split out separately to this function to reduce costs.\n  /// @param syntheticName Name of the synthetic asset\n  /// @param syntheticSymbol Symbol for the synthetic asset\n  /// @param _paymentToken The address of the erc20 token used to buy this synthetic asset\n  /// this will likely always be DAI\n  /// @param _oracleManager The address of the oracle manager that provides the price feed for this market\n  /// @param _yieldManager The contract that manages depositing the paymentToken into a yield bearing protocol\n  function createNewSyntheticMarket(\n    string calldata syntheticName,\n    string calldata syntheticSymbol,\n    address _paymentToken,\n    address _oracleManager,\n    address _yieldManager\n  ) external adminOnly {\n    latestMarket++;\n\n    // Create new synthetic long token.\n    syntheticTokens[latestMarket][true] = ITokenFactory(tokenFactory).createSyntheticToken(\n      string(abi.encodePacked(\"Float Up \", syntheticName)),\n      string(abi.encodePacked(\"fu\", syntheticSymbol)),\n      staker,\n      latestMarket,\n      true\n    );\n\n    // Create new synthetic short token.\n    syntheticTokens[latestMarket][false] = ITokenFactory(tokenFactory).createSyntheticToken(\n      string(abi.encodePacked(\"Float Down \", syntheticName)),\n      string(abi.encodePacked(\"fd\", syntheticSymbol)),\n      staker,\n      latestMarket,\n      false\n    );\n\n    // Initial market state.\n    paymentTokens[latestMarket] = _paymentToken;\n    yieldManagers[latestMarket] = _yieldManager;\n    oracleManagers[latestMarket] = _oracleManager;\n    assetPrice[latestMarket] = uint256(IOracleManager(oracleManagers[latestMarket]).updatePrice());\n\n    emit SyntheticMarketCreated(\n      latestMarket,\n      syntheticTokens[latestMarket][true],\n      syntheticTokens[latestMarket][false],\n      _paymentToken,\n      assetPrice[latestMarket],\n      syntheticName,\n      syntheticSymbol,\n      _oracleManager,\n      _yieldManager\n    );\n  }\n\n  /// @notice Seeds a new market with initial capital.\n  /// @dev Only called when initializing a market.\n  /// @param initialMarketSeedForEachMarketSide Amount in wei for which to seed both sides of the market.\n  /// @param marketIndex An int32 which uniquely identifies a market.\n  function _seedMarketInitially(uint256 initialMarketSeedForEachMarketSide, uint32 marketIndex)\n    internal\n    virtual\n  {\n    require(\n      // You require at least 1e18 (1 payment token with 18 decimal places) of the underlying payment token to seed the market.\n      initialMarketSeedForEachMarketSide >= 1e18,\n      \"Insufficient market seed\"\n    );\n\n    uint256 amountToLockInYieldManager = initialMarketSeedForEachMarketSide * 2;\n    _transferPaymentTokensFromUserToYieldManager(marketIndex, amountToLockInYieldManager);\n    IYieldManager(yieldManagers[marketIndex]).depositPaymentToken(amountToLockInYieldManager);\n\n    ISyntheticToken(syntheticTokens[latestMarket][true]).mint(\n      PERMANENT_INITIAL_LIQUIDITY_HOLDER,\n      initialMarketSeedForEachMarketSide\n    );\n    ISyntheticToken(syntheticTokens[latestMarket][false]).mint(\n      PERMANENT_INITIAL_LIQUIDITY_HOLDER,\n      initialMarketSeedForEachMarketSide\n    );\n\n    marketSideValueInPaymentToken[marketIndex][true] = initialMarketSeedForEachMarketSide;\n    marketSideValueInPaymentToken[marketIndex][false] = initialMarketSeedForEachMarketSide;\n\n    emit NewMarketLaunchedAndSeeded(marketIndex, initialMarketSeedForEachMarketSide);\n  }\n\n  /// @notice Sets a market as active once it has already been setup by createNewSyntheticMarket.\n  /// @dev Seperated from createNewSyntheticMarket due to gas considerations.\n  /// @param marketIndex An int32 which uniquely identifies the market.\n  /// @param kInitialMultiplier Linearly decreasing multiplier for Float token issuance for the market when staking synths.\n  /// @param kPeriod Time which kInitialMultiplier will last\n  /// @param unstakeFee_e18 Base 1e18 percentage fee levied when unstaking for the market.\n  /// @param balanceIncentiveCurve_exponent Sets the degree to which Float token issuance differs\n  /// for market sides in unbalanced markets. See Staker.sol\n  /// @param balanceIncentiveCurve_equilibriumOffset An offset to account for naturally imbalanced markets\n  /// when Float token issuance should differ for market sides. See Staker.sol\n  /// @param initialMarketSeedForEachMarketSide Amount of payment token that will be deposited in each market side to seed the market.\n  function initializeMarket(\n    uint32 marketIndex,\n    uint256 kInitialMultiplier,\n    uint256 kPeriod,\n    uint256 unstakeFee_e18,\n    uint256 initialMarketSeedForEachMarketSide,\n    uint256 balanceIncentiveCurve_exponent,\n    int256 balanceIncentiveCurve_equilibriumOffset,\n    uint256 _marketTreasurySplitGradient_e18\n  ) external adminOnly {\n    require(!marketExists[marketIndex], \"already initialized\");\n    require(marketIndex <= latestMarket, \"index too high\");\n\n    marketExists[marketIndex] = true;\n\n    marketTreasurySplitGradient_e18[marketIndex] = _marketTreasurySplitGradient_e18;\n\n    // Set this value to one initially - 0 is a null value and thus potentially bug prone.\n    marketUpdateIndex[marketIndex] = 1;\n\n    // Add new staker funds with fresh synthetic tokens.\n    IStaker(staker).addNewStakingFund(\n      latestMarket,\n      syntheticTokens[latestMarket][true],\n      syntheticTokens[latestMarket][false],\n      kInitialMultiplier,\n      kPeriod,\n      unstakeFee_e18,\n      balanceIncentiveCurve_exponent,\n      balanceIncentiveCurve_equilibriumOffset\n    );\n\n    _seedMarketInitially(initialMarketSeedForEachMarketSide, marketIndex);\n  }\n\n  /*\n           GETTER FUNCTIONS       \n    */\n\n  /// @notice Return the minimum of the 2 parameters. If they are equal return the first parameter.\n  /// @param a Any uint256\n  /// @param b Any uint256\n  /// @return min The minimum of the 2 parameters.\n  function _getMin(uint256 a, uint256 b) internal pure virtual returns (uint256) {\n    if (a > b) {\n      return b;\n    } else {\n      return a;\n    }\n  }\n\n  /// @notice Calculates the conversion rate from synthetic tokens to payment tokens.\n  /// @dev Synth tokens have a fixed 18 decimals.\n  /// @param amountPaymentTokenBackingSynth Amount of payment tokens in that token's lowest denomination.\n  /// @param amountSyntheticToken Amount of synth token in wei.\n  /// @return syntheticTokenPrice The calculated conversion rate in base 1e18.\n  function _getSyntheticTokenPrice(\n    uint256 amountPaymentTokenBackingSynth,\n    uint256 amountSyntheticToken\n  ) internal pure virtual returns (uint256 syntheticTokenPrice) {\n    return (amountPaymentTokenBackingSynth * 1e18) / amountSyntheticToken;\n  }\n\n  /// @notice Converts synth token amounts to payment token amounts at a synth token price.\n  /// @dev Price assumed base 1e18.\n  /// @param amountSyntheticToken Amount of synth token in wei.\n  /// @param syntheticTokenPriceInPaymentTokens The conversion rate from synth to payment tokens in base 1e18.\n  /// @return amountPaymentToken The calculated amount of payment tokens in token's lowest denomination.\n  function _getAmountPaymentToken(\n    uint256 amountSyntheticToken,\n    uint256 syntheticTokenPriceInPaymentTokens\n  ) internal pure virtual returns (uint256 amountPaymentToken) {\n    return (amountSyntheticToken * syntheticTokenPriceInPaymentTokens) / 1e18;\n  }\n\n  /// @notice Converts payment token amounts to synth token amounts at a synth token price.\n  /// @dev  Price assumed base 1e18.\n  /// @param amountPaymentTokenBackingSynth Amount of payment tokens in that token's lowest denomination.\n  /// @param syntheticTokenPriceInPaymentTokens The conversion rate from synth to payment tokens in base 1e18.\n  /// @return amountSyntheticToken The calculated amount of synthetic token in wei.\n  function _getAmountSyntheticToken(\n    uint256 amountPaymentTokenBackingSynth,\n    uint256 syntheticTokenPriceInPaymentTokens\n  ) internal pure virtual returns (uint256 amountSyntheticToken) {\n    return (amountPaymentTokenBackingSynth * 1e18) / syntheticTokenPriceInPaymentTokens;\n  }\n\n  /**\n  @notice Calculate the amount of target side synthetic tokens that are worth the same\n          amount of payment tokens as X many synthetic tokens on origin side.\n          The resulting equation comes from simplifying this function\n\n            _getAmountSyntheticToken(\n              _getAmountPaymentToken(\n                amountOriginSynth,\n                priceOriginSynth\n              ),\n              priceTargetSynth)\n\n            Unpacking the function we get:\n            ((amountOriginSynth * priceOriginSynth) / 1e18) * 1e18 / priceTargetSynth\n              And simplifying this we get:\n            (amountOriginSynth * priceOriginSynth) / priceTargetSynth\n  @param amountSyntheticTokens_originSide Amount of synthetic tokens on origin side\n  @param syntheticTokenPrice_originSide Price of origin side's synthetic token\n  @param syntheticTokenPrice_targetSide Price of target side's synthetic token\n  @return equivalentAmountSyntheticTokensOnTargetSide Amount of synthetic token on target side\n  */\n  function _getEquivalentAmountSyntheticTokensOnTargetSide(\n    uint256 amountSyntheticTokens_originSide,\n    uint256 syntheticTokenPrice_originSide,\n    uint256 syntheticTokenPrice_targetSide\n  ) internal pure virtual returns (uint256 equivalentAmountSyntheticTokensOnTargetSide) {\n    equivalentAmountSyntheticTokensOnTargetSide =\n      (amountSyntheticTokens_originSide * syntheticTokenPrice_originSide) /\n      syntheticTokenPrice_targetSide;\n  }\n\n  /// @notice Given an executed next price shift from tokens on one market side to the other,\n  /// determines how many other side tokens the shift was worth.\n  /// @dev Intended for use primarily by Staker.sol\n  /// @param marketIndex An uint32 which uniquely identifies a market.\n  /// @param amountSyntheticToken_redeemOnOriginSide Amount of synth token in wei.\n  /// @param isShiftFromLong Whether the token shift is from long to short (true), or short to long (false).\n  /// @param priceSnapshotIndex Index which identifies which synth prices to use.\n  /// @return amountSyntheticTokensToMintOnTargetSide The amount in wei of tokens for the other side that the shift was worth.\n  function getAmountSyntheticTokenToMintOnTargetSide(\n    uint32 marketIndex,\n    uint256 amountSyntheticToken_redeemOnOriginSide,\n    bool isShiftFromLong,\n    uint256 priceSnapshotIndex\n  ) public view virtual override returns (uint256 amountSyntheticTokensToMintOnTargetSide) {\n    uint256 syntheticTokenPriceOnOriginSide = syntheticToken_priceSnapshot[marketIndex][\n      isShiftFromLong\n    ][priceSnapshotIndex];\n    uint256 syntheticTokenPriceOnTargetSide = syntheticToken_priceSnapshot[marketIndex][\n      !isShiftFromLong\n    ][priceSnapshotIndex];\n\n    amountSyntheticTokensToMintOnTargetSide = _getEquivalentAmountSyntheticTokensOnTargetSide(\n      amountSyntheticToken_redeemOnOriginSide,\n      syntheticTokenPriceOnOriginSide,\n      syntheticTokenPriceOnTargetSide\n    );\n  }\n\n  /**\n  @notice The amount of a synth token a user is owed following a batch execution.\n    4 possible states for next price actions:\n        - \"Pending\" - means the next price update hasn't happened or been enacted on by the updateSystemState function.\n        - \"Confirmed\" - means the next price has been updated by the updateSystemState function. There is still\n        -               outstanding (lazy) computation that needs to be executed per user in the batch.\n        - \"Settled\" - there is no more computation left for the user.\n        - \"Non-existant\" - user has no next price actions.\n    This function returns a calculated value only in the case of 'confirmed' next price actions.\n    It should return zero for all other types of next price actions.\n  @dev Used in SyntheticToken.sol balanceOf to allow for automatic reflection of next price actions.\n  @param user The address of the user for whom to execute the function for.\n  @param marketIndex An int32 which uniquely identifies a market.\n  @param isLong Whether it is for the long synthetic asset or the short synthetic asset.\n  @return confirmedButNotSettledBalance The amount in wei of tokens that the user is owed.\n  */\n  function getUsersConfirmedButNotSettledSynthBalance(\n    address user,\n    uint32 marketIndex,\n    bool isLong\n  )\n    external\n    view\n    virtual\n    override\n    requireMarketExists(marketIndex)\n    returns (uint256 confirmedButNotSettledBalance)\n  {\n    uint256 currentMarketUpdateIndex = marketUpdateIndex[marketIndex];\n    if (\n      userNextPrice_currentUpdateIndex[marketIndex][user] != 0 &&\n      userNextPrice_currentUpdateIndex[marketIndex][user] <= currentMarketUpdateIndex\n    ) {\n      uint256 amountPaymentTokenDeposited = userNextPrice_paymentToken_depositAmount[marketIndex][\n        isLong\n      ][user];\n\n      if (amountPaymentTokenDeposited > 0) {\n        uint256 syntheticTokenPrice = syntheticToken_priceSnapshot[marketIndex][isLong][\n          currentMarketUpdateIndex\n        ];\n\n        confirmedButNotSettledBalance = _getAmountSyntheticToken(\n          amountPaymentTokenDeposited,\n          syntheticTokenPrice\n        );\n      }\n\n\n        uint256 amountSyntheticTokensToBeShiftedAwayFromOriginSide\n       = userNextPrice_syntheticToken_toShiftAwayFrom_marketSide[marketIndex][!isLong][user];\n\n      if (amountSyntheticTokensToBeShiftedAwayFromOriginSide > 0) {\n        uint256 syntheticTokenPriceOnOriginSide = syntheticToken_priceSnapshot[marketIndex][\n          !isLong\n        ][currentMarketUpdateIndex];\n        uint256 syntheticTokenPriceOnTargetSide = syntheticToken_priceSnapshot[marketIndex][isLong][\n          currentMarketUpdateIndex\n        ];\n\n        confirmedButNotSettledBalance += _getEquivalentAmountSyntheticTokensOnTargetSide(\n          amountSyntheticTokensToBeShiftedAwayFromOriginSide,\n          syntheticTokenPriceOnOriginSide,\n          syntheticTokenPriceOnTargetSide\n        );\n      }\n    }\n  }\n\n  /**\n   @notice Calculates the percentage in base 1e18 of how much of the accrued yield\n   for a market should be allocated to treasury.\n   @dev For gas considerations also returns whether the long side is imbalanced.\n   @dev For gas considerations totalValueLockedInMarket is passed as a parameter as the function\n  calling this function has pre calculated the value\n   @param longValue The current total payment token value of the long side of the market.\n   @param shortValue The current total payment token value of the short side of the market.\n   @param totalValueLockedInMarket Total payment token value of both sides of the market.\n   @return isLongSideUnderbalanced Whether the long side initially had less value than the short side.\n   @return treasuryYieldPercent_e18 The percentage in base 1e18 of how much of the accrued yield\n   for a market should be allocated to treasury.\n   */\n  function _getYieldSplit(\n    uint32 marketIndex,\n    uint256 longValue,\n    uint256 shortValue,\n    uint256 totalValueLockedInMarket\n  ) internal view virtual returns (bool isLongSideUnderbalanced, uint256 treasuryYieldPercent_e18) {\n    isLongSideUnderbalanced = longValue < shortValue;\n    uint256 imbalance;\n\n    if (isLongSideUnderbalanced) {\n      imbalance = shortValue - longValue;\n    } else {\n      imbalance = longValue - shortValue;\n    }\n\n    // marketTreasurySplitGradient_e18 may be adjusted to ensure yield is given\n    // to the market at a desired rate e.g. if a market tends to become imbalanced\n    // frequently then the gradient can be increased to funnel yield to the market\n    // quicker.\n    // See this equation in latex: https://gateway.pinata.cloud/ipfs/QmXsW4cHtxpJ5BFwRcMSUw7s5G11Qkte13NTEfPLTKEx4x\n    // Interact with this equation: https://www.desmos.com/calculator/pnl43tfv5b\n    uint256 marketPercentCalculated_e18 = (imbalance *\n      marketTreasurySplitGradient_e18[marketIndex]) / totalValueLockedInMarket;\n\n    uint256 marketPercent_e18 = _getMin(marketPercentCalculated_e18, 1e18);\n\n    treasuryYieldPercent_e18 = 1e18 - marketPercent_e18;\n  }\n\n  /*\n           HELPER FUNCTIONS       \n    */\n\n  /// @notice First gets yield from the yield manager and allocates it to market and treasury.\n  /// It then allocates the full market yield portion to the underbalanced side of the market.\n  /// NB this function also adjusts the value of the long and short side based on the latest\n  /// price of the underlying asset received from the oracle. This function should ideally be\n  /// called everytime there is an price update from the oracle. We have built a bot that does this.\n  /// The system is still perectly safe if not called every price update, the synthetic will just\n  /// less closely track the underlying asset.\n  /// @dev In one function as yield should be allocated before rebalancing.\n  /// This prevents an attack whereby the user imbalances a side to capture all accrued yield.\n  /// @param marketIndex The market for which to execute the function for.\n  /// @param newAssetPrice The new asset price.\n  /// @param oldAssetPrice The old asset price.\n  /// @return longValue The value of the long side after rebalancing.\n  /// @return shortValue The value of the short side after rebalancing.\n  function _claimAndDistributeYieldThenRebalanceMarket(\n    uint32 marketIndex,\n    int256 newAssetPrice,\n    int256 oldAssetPrice\n  ) internal virtual returns (uint256 longValue, uint256 shortValue) {\n    // Claiming and distributing the yield\n    longValue = marketSideValueInPaymentToken[marketIndex][true];\n    shortValue = marketSideValueInPaymentToken[marketIndex][false];\n    uint256 totalValueLockedInMarket = longValue + shortValue;\n\n    (bool isLongSideUnderbalanced, uint256 treasuryYieldPercent_e18) = _getYieldSplit(\n      marketIndex,\n      longValue,\n      shortValue,\n      totalValueLockedInMarket\n    );\n\n    uint256 marketAmount = IYieldManager(yieldManagers[marketIndex])\n    .distributeYieldForTreasuryAndReturnMarketAllocation(\n      totalValueLockedInMarket,\n      treasuryYieldPercent_e18\n    );\n\n    if (marketAmount > 0) {\n      if (isLongSideUnderbalanced) {\n        longValue += marketAmount;\n      } else {\n        shortValue += marketAmount;\n      }\n    }\n\n    // Adjusting value of long and short pool based on price movement\n    // The side/position with less liquidity has 100% percent exposure to the price movement.\n    // The side/position with more liquidity will have exposure < 100% to the price movement.\n    // I.e. Imagine $100 in longValue and $50 shortValue\n    // long side would have $50/$100 = 50% exposure to price movements based on the liquidity imbalance.\n    // min(longValue, shortValue) = $50 , therefore if the price change was -10% then\n    // $50 * 10% = $5 gained for short side and conversely $5 lost for long side.\n    int256 underbalancedSideValue = int256(_getMin(longValue, shortValue));\n\n    // See this equation in latex: https://gateway.pinata.cloud/ipfs/QmPeJ3SZdn1GfxqCD4GDYyWTJGPMSHkjPJaxrzk2qTTPSE\n    // Interact with this equation: https://www.desmos.com/calculator/t8gr6j5vsq\n    int256 valueChange = ((newAssetPrice - oldAssetPrice) * underbalancedSideValue) / oldAssetPrice;\n\n    if (valueChange > 0) {\n      longValue += uint256(valueChange);\n      shortValue -= uint256(valueChange);\n    } else {\n      longValue -= uint256(-valueChange);\n      shortValue += uint256(-valueChange);\n    }\n  }\n\n  /*\n         UPDATING SYSTEM STATE     \n    */\n\n  /// @notice Updates the value of the long and short sides to account for latest oracle price updates\n  /// and batches all next price actions.\n  /// @dev To prevent front-running only executes on price change from an oracle.\n  /// We assume the function will be called for each market at least once per price update.\n  /// Note Even if not called on every price update, this won't affect security, it will only affect how closely\n  /// the synthetic asset actually tracks the underlying asset.\n  /// @param marketIndex The market index for which to update.\n  function _updateSystemStateInternal(uint32 marketIndex)\n    internal\n    virtual\n    requireMarketExists(marketIndex)\n  {\n    // If a negative int is return this should fail.\n    int256 newAssetPrice = IOracleManager(oracleManagers[marketIndex]).updatePrice();\n    int256 oldAssetPrice = int256(assetPrice[marketIndex]);\n\n    bool assetPriceHasChanged = oldAssetPrice != newAssetPrice;\n\n    if (assetPriceHasChanged || msg.sender == staker) {\n      uint256 syntheticTokenPrice_inPaymentTokens_long = syntheticToken_priceSnapshot[marketIndex][\n        true\n      ][marketUpdateIndex[marketIndex]];\n      uint256 syntheticTokenPrice_inPaymentTokens_short = syntheticToken_priceSnapshot[marketIndex][\n        false\n      ][marketUpdateIndex[marketIndex]];\n      // if there is a price change and the 'staker' contract has pending updates, push the stakers price snapshot index to the staker\n      // (so the staker can handle its internal accounting)\n      if (\n        userNextPrice_currentUpdateIndex[marketIndex][staker] ==\n        marketUpdateIndex[marketIndex] + 1 &&\n        assetPriceHasChanged\n      ) {\n        IStaker(staker).pushUpdatedMarketPricesToUpdateFloatIssuanceCalculations(\n          marketIndex,\n          syntheticTokenPrice_inPaymentTokens_long,\n          syntheticTokenPrice_inPaymentTokens_short,\n          marketSideValueInPaymentToken[marketIndex][true],\n          marketSideValueInPaymentToken[marketIndex][false],\n          // This variable could allow users to do any next price actions in the future (not just synthetic side shifts)\n          userNextPrice_currentUpdateIndex[marketIndex][staker]\n        );\n      } else {\n        IStaker(staker).pushUpdatedMarketPricesToUpdateFloatIssuanceCalculations(\n          marketIndex,\n          syntheticTokenPrice_inPaymentTokens_long,\n          syntheticTokenPrice_inPaymentTokens_short,\n          marketSideValueInPaymentToken[marketIndex][true],\n          marketSideValueInPaymentToken[marketIndex][false],\n          0\n        );\n      }\n\n      // function will return here if the staker called this simply for the\n      // purpose of adding a state point required in staker.sol for our rewards calculation\n      if (!assetPriceHasChanged) {\n        return;\n      }\n\n      (\n        uint256 newLongPoolValue,\n        uint256 newShortPoolValue\n      ) = _claimAndDistributeYieldThenRebalanceMarket(marketIndex, newAssetPrice, oldAssetPrice);\n\n      syntheticTokenPrice_inPaymentTokens_long = _getSyntheticTokenPrice(\n        newLongPoolValue,\n        ISyntheticToken(syntheticTokens[marketIndex][true]).totalSupply()\n      );\n      syntheticTokenPrice_inPaymentTokens_short = _getSyntheticTokenPrice(\n        newShortPoolValue,\n        ISyntheticToken(syntheticTokens[marketIndex][false]).totalSupply()\n      );\n\n      assetPrice[marketIndex] = uint256(newAssetPrice);\n      marketUpdateIndex[marketIndex] += 1;\n\n      syntheticToken_priceSnapshot[marketIndex][true][\n        marketUpdateIndex[marketIndex]\n      ] = syntheticTokenPrice_inPaymentTokens_long;\n\n      syntheticToken_priceSnapshot[marketIndex][false][\n        marketUpdateIndex[marketIndex]\n      ] = syntheticTokenPrice_inPaymentTokens_short;\n\n      (\n        int256 long_changeInMarketValue_inPaymentToken,\n        int256 short_changeInMarketValue_inPaymentToken\n      ) = _batchConfirmOutstandingPendingActions(\n        marketIndex,\n        syntheticTokenPrice_inPaymentTokens_long,\n        syntheticTokenPrice_inPaymentTokens_short\n      );\n\n      newLongPoolValue = uint256(\n        int256(newLongPoolValue) + long_changeInMarketValue_inPaymentToken\n      );\n      newShortPoolValue = uint256(\n        int256(newShortPoolValue) + short_changeInMarketValue_inPaymentToken\n      );\n      marketSideValueInPaymentToken[marketIndex][true] = newLongPoolValue;\n      marketSideValueInPaymentToken[marketIndex][false] = newShortPoolValue;\n\n      emit SystemStateUpdated(\n        marketIndex,\n        marketUpdateIndex[marketIndex],\n        newAssetPrice,\n        newLongPoolValue,\n        newShortPoolValue,\n        syntheticTokenPrice_inPaymentTokens_long,\n        syntheticTokenPrice_inPaymentTokens_short\n      );\n    }\n  }\n\n  /// @notice Updates the state of a market to account for the latest oracle price update.\n  /// @param marketIndex An int32 which uniquely identifies a market.\n  function updateSystemState(uint32 marketIndex) external override {\n    _updateSystemStateInternal(marketIndex);\n  }\n\n  /// @notice Updates the state of multiples markets to account for their latest oracle price updates.\n  /// @param marketIndexes An array of int32s which uniquely identify markets.\n  function updateSystemStateMulti(uint32[] calldata marketIndexes) external override {\n    for (uint256 i = 0; i < marketIndexes.length; i++) {\n      _updateSystemStateInternal(marketIndexes[i]);\n    }\n  }\n\n  /*\n               DEPOSIT              \n    */\n\n  /// @notice Transfers payment tokens for a market from msg.sender to this contract.\n  /// @dev Tokens are transferred directly to this contract to be deposited by the yield manager in the batch to earn yield.\n  ///      Since we check the return value of the transferFrom method, all payment tokens we use must conform to the ERC20 standard.\n  /// @param marketIndex An int32 which uniquely identifies a market.\n  /// @param amount Amount of payment tokens in that token's lowest denominationto deposit.\n  function _transferPaymentTokensFromUserToYieldManager(uint32 marketIndex, uint256 amount)\n    internal\n    virtual\n  {\n    require(\n      IERC20(paymentTokens[marketIndex]).transferFrom(\n        msg.sender,\n        yieldManagers[marketIndex],\n        amount\n      )\n    );\n  }\n\n  /*\n           MINT POSITION       \n    */\n\n  /// @notice Allows users to mint synthetic assets for a market. To prevent front-running these mints are executed on the next price update from the oracle.\n  /// @dev Called by external functions to mint either long or short. If a user mints multiple times before a price update, these are treated as a single mint.\n  /// @param marketIndex An int32 which uniquely identifies a market.\n  /// @param amount Amount of payment tokens in that token's lowest denominationfor which to mint synthetic assets at next price.\n  /// @param isLong Whether the mint is for a long or short synth.\n  function _mintNextPrice(\n    uint32 marketIndex,\n    uint256 amount,\n    bool isLong\n  )\n    internal\n    virtual\n    updateSystemStateMarket(marketIndex)\n    executeOutstandingNextPriceSettlements(msg.sender, marketIndex)\n  {\n    _transferPaymentTokensFromUserToYieldManager(marketIndex, amount);\n\n    batched_amountPaymentToken_deposit[marketIndex][isLong] += amount;\n    userNextPrice_paymentToken_depositAmount[marketIndex][isLong][msg.sender] += amount;\n    userNextPrice_currentUpdateIndex[marketIndex][msg.sender] = marketUpdateIndex[marketIndex] + 1;\n\n    emit NextPriceDeposit(\n      marketIndex,\n      isLong,\n      amount,\n      msg.sender,\n      marketUpdateIndex[marketIndex] + 1\n    );\n  }\n\n  /// @notice Allows users to mint long synthetic assets for a market. To prevent front-running these mints are executed on the next price update from the oracle.\n  /// @param marketIndex An int32 which uniquely identifies a market.\n  /// @param amount Amount of payment tokens in that token's lowest denominationfor which to mint synthetic assets at next price.\n  function mintLongNextPrice(uint32 marketIndex, uint256 amount) external {\n    _mintNextPrice(marketIndex, amount, true);\n  }\n\n  /// @notice Allows users to mint short synthetic assets for a market. To prevent front-running these mints are executed on the next price update from the oracle.\n  /// @param marketIndex An int32 which uniquely identifies a market.\n  /// @param amount Amount of payment tokens in that token's lowest denominationfor which to mint synthetic assets at next price.\n  function mintShortNextPrice(uint32 marketIndex, uint256 amount) external {\n    _mintNextPrice(marketIndex, amount, false);\n  }\n\n  /*\n          REDEEM POSITION      \n    */\n\n  /// @notice Allows users to redeem their synthetic tokens for payment tokens. To prevent front-running these redeems are executed on the next price update from the oracle.\n  /// @dev Called by external functions to redeem either long or short. Payment tokens are actually transferred to the user when executeOutstandingNextPriceSettlements is called from a function call by the user.\n  /// @param marketIndex An int32 which uniquely identifies a market.\n  /// @param tokens_redeem Amount in wei of synth tokens to redeem.\n  /// @param isLong Whether this redeem is for a long or short synth.\n  function _redeemNextPrice(\n    uint32 marketIndex,\n    uint256 tokens_redeem,\n    bool isLong\n  )\n    internal\n    virtual\n    updateSystemStateMarket(marketIndex)\n    executeOutstandingNextPriceSettlements(msg.sender, marketIndex)\n  {\n    require(\n      ISyntheticToken(syntheticTokens[marketIndex][isLong]).transferFrom(\n        msg.sender,\n        address(this),\n        tokens_redeem\n      )\n    );\n\n    userNextPrice_syntheticToken_redeemAmount[marketIndex][isLong][msg.sender] += tokens_redeem;\n    userNextPrice_currentUpdateIndex[marketIndex][msg.sender] = marketUpdateIndex[marketIndex] + 1;\n\n    batched_amountSyntheticToken_redeem[marketIndex][isLong] += tokens_redeem;\n\n    emit NextPriceRedeem(\n      marketIndex,\n      isLong,\n      tokens_redeem,\n      msg.sender,\n      marketUpdateIndex[marketIndex] + 1\n    );\n  }\n\n  /// @notice  Allows users to redeem long synthetic assets for a market. To prevent front-running these redeems are executed on the next price update from the oracle.\n  /// @param marketIndex An int32 which uniquely identifies a market.\n  /// @param tokens_redeem Amount in wei of synth tokens to redeem at the next oracle price.\n  function redeemLongNextPrice(uint32 marketIndex, uint256 tokens_redeem) external {\n    _redeemNextPrice(marketIndex, tokens_redeem, true);\n  }\n\n  /// @notice  Allows users to redeem short synthetic assets for a market. To prevent front-running these redeems are executed on the next price update from the oracle.\n  /// @param marketIndex An int32 which uniquely identifies a market.\n  /// @param tokens_redeem Amount in wei of synth tokens to redeem at the next oracle price.\n  function redeemShortNextPrice(uint32 marketIndex, uint256 tokens_redeem) external {\n    _redeemNextPrice(marketIndex, tokens_redeem, false);\n  }\n\n  /*\n           SHIFT POSITION      \n    */\n\n  /// @notice  Allows users to shift their position from one side of the market to the other in a single transaction. To prevent front-running these shifts are executed on the next price update from the oracle.\n  /// @dev Called by external functions to shift either way. Intended for primary use by Staker.sol\n  /// @param marketIndex An int32 which uniquely identifies a market.\n  /// @param amountSyntheticTokensToShift Amount in wei of synthetic tokens to shift from the one side to the other at the next oracle price update.\n  /// @param isShiftFromLong Whether the token shift is from long to short (true), or short to long (false).\n  function _shiftPositionNextPrice(\n    uint32 marketIndex,\n    uint256 amountSyntheticTokensToShift,\n    bool isShiftFromLong\n  )\n    internal\n    virtual\n    updateSystemStateMarket(marketIndex)\n    executeOutstandingNextPriceSettlements(msg.sender, marketIndex)\n  {\n    require(\n      ISyntheticToken(syntheticTokens[marketIndex][isShiftFromLong]).transferFrom(\n        msg.sender,\n        address(this),\n        amountSyntheticTokensToShift\n      )\n    );\n\n    userNextPrice_syntheticToken_toShiftAwayFrom_marketSide[marketIndex][isShiftFromLong][\n      msg.sender\n    ] += amountSyntheticTokensToShift;\n    userNextPrice_currentUpdateIndex[marketIndex][msg.sender] = marketUpdateIndex[marketIndex] + 1;\n\n    batched_amountSyntheticToken_toShiftAwayFrom_marketSide[marketIndex][\n      isShiftFromLong\n    ] += amountSyntheticTokensToShift;\n\n    emit NextPriceSyntheticPositionShift(\n      marketIndex,\n      isShiftFromLong,\n      amountSyntheticTokensToShift,\n      msg.sender,\n      marketUpdateIndex[marketIndex] + 1\n    );\n  }\n\n  /// @notice Allows users to shift their position from long to short in a single transaction. To prevent front-running these shifts are executed on the next price update from the oracle.\n  /// @param marketIndex An int32 which uniquely identifies a market.\n  /// @param amountSyntheticTokensToShift Amount in wei of synthetic tokens to shift from long to short the next oracle price update.\n  function shiftPositionFromLongNextPrice(uint32 marketIndex, uint256 amountSyntheticTokensToShift)\n    external\n    override\n  {\n    _shiftPositionNextPrice(marketIndex, amountSyntheticTokensToShift, true);\n  }\n\n  /// @notice Allows users to shift their position from short to long in a single transaction. To prevent front-running these shifts are executed on the next price update from the oracle.\n  /// @param marketIndex An int32 which uniquely identifies a market.\n  /// @param amountSyntheticTokensToShift Amount in wei of synthetic tokens to shift from the short to long at the next oracle price update.\n  function shiftPositionFromShortNextPrice(uint32 marketIndex, uint256 amountSyntheticTokensToShift)\n    external\n    override\n  {\n    _shiftPositionNextPrice(marketIndex, amountSyntheticTokensToShift, false);\n  }\n\n  /*\n         NEXT PRICE SETTLEMENTS     \n    */\n\n  /// @notice Transfers outstanding synth tokens from a next price mint to the user.\n  /// @dev The outstanding synths should already be reflected for the user due to balanceOf in SyntheticToken.sol, this just does the accounting.\n  /// @param marketIndex An int32 which uniquely identifies a market.\n  /// @param user The address of the user for whom to execute the function for.\n  /// @param isLong Whether this is for the long or short synth for the market.\n  function _executeOutstandingNextPriceMints(\n    uint32 marketIndex,\n    address user,\n    bool isLong\n  ) internal virtual {\n    uint256 currentPaymentTokenDepositAmount = userNextPrice_paymentToken_depositAmount[\n      marketIndex\n    ][isLong][user];\n    if (currentPaymentTokenDepositAmount > 0) {\n      userNextPrice_paymentToken_depositAmount[marketIndex][isLong][user] = 0;\n      uint256 amountSyntheticTokensToTransferToUser = _getAmountSyntheticToken(\n        currentPaymentTokenDepositAmount,\n        syntheticToken_priceSnapshot[marketIndex][isLong][\n          userNextPrice_currentUpdateIndex[marketIndex][user]\n        ]\n      );\n      require(\n        ISyntheticToken(syntheticTokens[marketIndex][isLong]).transfer(\n          user,\n          amountSyntheticTokensToTransferToUser\n        )\n      );\n\n      emit ExecuteNextPriceMintSettlementUser(\n        user,\n        marketIndex,\n        isLong,\n        amountSyntheticTokensToTransferToUser\n      );\n    }\n  }\n\n  /// @notice Transfers outstanding payment tokens from a next price redemption to the user.\n  /// @param marketIndex An int32 which uniquely identifies a market.\n  /// @param user The address of the user for whom to execute the function for.\n  /// @param isLong Whether this is for the long or short synth for the market.\n  function _executeOutstandingNextPriceRedeems(\n    uint32 marketIndex,\n    address user,\n    bool isLong\n  ) internal virtual {\n    uint256 currentSyntheticTokenRedemptions = userNextPrice_syntheticToken_redeemAmount[\n      marketIndex\n    ][isLong][user];\n    if (currentSyntheticTokenRedemptions > 0) {\n      userNextPrice_syntheticToken_redeemAmount[marketIndex][isLong][user] = 0;\n      uint256 amountPaymentToken_toRedeem = _getAmountPaymentToken(\n        currentSyntheticTokenRedemptions,\n        syntheticToken_priceSnapshot[marketIndex][isLong][\n          userNextPrice_currentUpdateIndex[marketIndex][user]\n        ]\n      );\n\n      IYieldManager(yieldManagers[marketIndex]).transferPaymentTokensToUser(\n        user,\n        amountPaymentToken_toRedeem\n      );\n\n      emit ExecuteNextPriceRedeemSettlementUser(\n        user,\n        marketIndex,\n        isLong,\n        amountPaymentToken_toRedeem\n      );\n    }\n  }\n\n  /// @notice Transfers outstanding synth tokens from a next price position shift to the user.\n  /// @dev The outstanding synths should already be reflected for the user due to balanceOf in SyntheticToken.sol, this just does the accounting.\n  /// @param marketIndex An int32 which uniquely identifies a market.\n  /// @param user The address of the user for whom to execute the function for.\n  /// @param isShiftFromLong Whether the token shift was from long to short (true), or short to long (false).\n  function _executeOutstandingNextPriceTokenShifts(\n    uint32 marketIndex,\n    address user,\n    bool isShiftFromLong\n  ) internal virtual {\n\n      uint256 syntheticToken_toShiftAwayFrom_marketSide\n     = userNextPrice_syntheticToken_toShiftAwayFrom_marketSide[marketIndex][isShiftFromLong][user];\n    if (syntheticToken_toShiftAwayFrom_marketSide > 0) {\n      uint256 syntheticToken_toShiftTowardsTargetSide = getAmountSyntheticTokenToMintOnTargetSide(\n        marketIndex,\n        syntheticToken_toShiftAwayFrom_marketSide,\n        isShiftFromLong,\n        userNextPrice_currentUpdateIndex[marketIndex][user]\n      );\n\n      userNextPrice_syntheticToken_toShiftAwayFrom_marketSide[marketIndex][isShiftFromLong][\n        user\n      ] = 0;\n\n      require(\n        ISyntheticToken(syntheticTokens[marketIndex][!isShiftFromLong]).transfer(\n          user,\n          syntheticToken_toShiftTowardsTargetSide\n        )\n      );\n\n      emit ExecuteNextPriceMarketSideShiftSettlementUser(\n        user,\n        marketIndex,\n        isShiftFromLong,\n        syntheticToken_toShiftTowardsTargetSide\n      );\n    }\n  }\n\n  /// @notice After markets have been batched updated on a new oracle price, transfers any owed tokens to a user from their next price actions for that update to that user.\n  /// @dev Once the market has updated for the next price, should be guaranteed (through modifiers) to execute for a user before user initiation of new next price actions.\n  /// @param user The address of the user for whom to execute the function for.\n  /// @param marketIndex An int32 which uniquely identifies a market.\n  function _executeOutstandingNextPriceSettlements(address user, uint32 marketIndex)\n    internal\n    virtual\n  {\n    uint256 userCurrentUpdateIndex = userNextPrice_currentUpdateIndex[marketIndex][user];\n    if (userCurrentUpdateIndex != 0 && userCurrentUpdateIndex <= marketUpdateIndex[marketIndex]) {\n      _executeOutstandingNextPriceMints(marketIndex, user, true);\n      _executeOutstandingNextPriceMints(marketIndex, user, false);\n      _executeOutstandingNextPriceRedeems(marketIndex, user, true);\n      _executeOutstandingNextPriceRedeems(marketIndex, user, false);\n      _executeOutstandingNextPriceTokenShifts(marketIndex, user, true);\n      _executeOutstandingNextPriceTokenShifts(marketIndex, user, false);\n\n      userNextPrice_currentUpdateIndex[marketIndex][user] = 0;\n\n      emit ExecuteNextPriceSettlementsUser(user, marketIndex);\n    }\n  }\n\n  /// @notice After markets have been batched updated on a new oracle price, transfers any owed tokens to a user from their next price actions for that update to that user.\n  /// @param user The address of the user for whom to execute the function for.\n  /// @param marketIndex An int32 which uniquely identifies a market.\n  function executeOutstandingNextPriceSettlementsUser(address user, uint32 marketIndex)\n    external\n    override\n  {\n    _executeOutstandingNextPriceSettlements(user, marketIndex);\n  }\n\n  /// @notice Executes outstanding next price settlements for a user for multiple markets.\n  /// @param user The address of the user for whom to execute the function for.\n  /// @param marketIndexes An array of int32s which each uniquely identify a market.\n  function executeOutstandingNextPriceSettlementsUserMulti(\n    address user,\n    uint32[] memory marketIndexes\n  ) external {\n    for (uint256 i = 0; i < marketIndexes.length; i++) {\n      _executeOutstandingNextPriceSettlements(user, marketIndexes[i]);\n    }\n  }\n\n  /*\n       BATCHED NEXT PRICE SETTLEMENT ACTIONS   \n    */\n\n  /// @notice Either transfers funds from the yield manager to this contract if redeems > deposits,\n  /// and visa versa. The yield manager handles depositing and withdrawing the funds from a yield market.\n  /// @dev When all batched next price actions are handled the total value in the market can either increase or decrease based on the value of mints and redeems.\n  /// @param marketIndex An int32 which uniquely identifies a market.\n  /// @param totalPaymentTokenValueChangeForMarket An int256 which indicates the magnitude and direction of the change in market value.\n  function _handleTotalPaymentTokenValueChangeForMarketWithYieldManager(\n    uint32 marketIndex,\n    int256 totalPaymentTokenValueChangeForMarket\n  ) internal virtual {\n    if (totalPaymentTokenValueChangeForMarket > 0) {\n      IYieldManager(yieldManagers[marketIndex]).depositPaymentToken(\n        uint256(totalPaymentTokenValueChangeForMarket)\n      );\n    } else if (totalPaymentTokenValueChangeForMarket < 0) {\n      // NB there will be issues here if not enough liquidity exists to withdraw\n      // Boolean should be returned from yield manager and think how to appropriately handle this\n      IYieldManager(yieldManagers[marketIndex]).removePaymentTokenFromMarket(\n        uint256(-totalPaymentTokenValueChangeForMarket)\n      );\n    }\n  }\n\n  /// @notice Given a desired change in synth token supply, either mints or burns tokens to achieve that desired change.\n  /// @dev When all batched next price actions are executed total supply for a synth can either increase or decrease.\n  /// @param marketIndex An int32 which uniquely identifies a market.\n  /// @param isLong Whether this function should execute for the long or short synth for the market.\n  /// @param changeInSyntheticTokensTotalSupply The amount in wei by which synth token supply should change.\n  function _handleChangeInSyntheticTokensTotalSupply(\n    uint32 marketIndex,\n    bool isLong,\n    int256 changeInSyntheticTokensTotalSupply\n  ) internal virtual {\n    if (changeInSyntheticTokensTotalSupply > 0) {\n      ISyntheticToken(syntheticTokens[marketIndex][isLong]).mint(\n        address(this),\n        uint256(changeInSyntheticTokensTotalSupply)\n      );\n    } else if (changeInSyntheticTokensTotalSupply < 0) {\n      ISyntheticToken(syntheticTokens[marketIndex][isLong]).burn(\n        uint256(-changeInSyntheticTokensTotalSupply)\n      );\n    }\n  }\n\n  /**\n  @notice Performs all batched next price actions on an oracle price update.\n  @dev Mints or burns all synthetic tokens for this contract.\n\n    After this function is executed all user actions in that batch are confirmed and can be settled individually by\n      calling _executeOutstandingNexPriceSettlements for a given user.\n\n    The maths here is safe from rounding errors since it always over estimates on the batch with division.\n      (as an example (5/3) + (5/3) = 2 but (5+5)/3 = 10/3 = 3, so the batched action would mint one more)\n  @param marketIndex An int32 which uniquely identifies a market.\n  @param syntheticTokenPrice_inPaymentTokens_long The long synthetic token price for this oracle price update.\n  @param syntheticTokenPrice_inPaymentTokens_short The short synthetic token price for this oracle price update.\n  @return long_changeInMarketValue_inPaymentToken The total value change for the long side after all batched actions are executed.\n  @return short_changeInMarketValue_inPaymentToken The total value change for the short side after all batched actions are executed.\n  */\n  function _batchConfirmOutstandingPendingActions(\n    uint32 marketIndex,\n    uint256 syntheticTokenPrice_inPaymentTokens_long,\n    uint256 syntheticTokenPrice_inPaymentTokens_short\n  )\n    internal\n    virtual\n    returns (\n      int256 long_changeInMarketValue_inPaymentToken,\n      int256 short_changeInMarketValue_inPaymentToken\n    )\n  {\n    int256 changeInSupply_syntheticToken_long;\n    int256 changeInSupply_syntheticToken_short;\n\n    // NOTE: the only reason we are re-uising amountForCurrentAction_workingVariable for all actions (redeemLong, redeemShort, mintLong, mintShort, shiftFromLong, shiftFromShort) is to reduce stack usage\n    uint256 amountForCurrentAction_workingVariable = batched_amountPaymentToken_deposit[\n      marketIndex\n    ][true];\n\n    // Handle batched deposits LONG\n    if (amountForCurrentAction_workingVariable > 0) {\n      long_changeInMarketValue_inPaymentToken = int256(amountForCurrentAction_workingVariable);\n\n      batched_amountPaymentToken_deposit[marketIndex][true] = 0;\n\n      changeInSupply_syntheticToken_long = int256(\n        _getAmountSyntheticToken(\n          amountForCurrentAction_workingVariable,\n          syntheticTokenPrice_inPaymentTokens_long\n        )\n      );\n    }\n\n    // Handle batched deposits SHORT\n    amountForCurrentAction_workingVariable = batched_amountPaymentToken_deposit[marketIndex][false];\n    if (amountForCurrentAction_workingVariable > 0) {\n      short_changeInMarketValue_inPaymentToken = int256(amountForCurrentAction_workingVariable);\n\n      batched_amountPaymentToken_deposit[marketIndex][false] = 0;\n\n      changeInSupply_syntheticToken_short = int256(\n        _getAmountSyntheticToken(\n          amountForCurrentAction_workingVariable,\n          syntheticTokenPrice_inPaymentTokens_short\n        )\n      );\n    }\n\n    // Handle shift tokens from LONG to SHORT\n    amountForCurrentAction_workingVariable = batched_amountSyntheticToken_toShiftAwayFrom_marketSide[\n      marketIndex\n    ][true];\n    if (amountForCurrentAction_workingVariable > 0) {\n      int256 paymentTokenValueChangeForShiftToShort = int256(\n        _getAmountPaymentToken(\n          amountForCurrentAction_workingVariable,\n          syntheticTokenPrice_inPaymentTokens_long\n        )\n      );\n\n      long_changeInMarketValue_inPaymentToken -= paymentTokenValueChangeForShiftToShort;\n      short_changeInMarketValue_inPaymentToken += paymentTokenValueChangeForShiftToShort;\n\n      changeInSupply_syntheticToken_long -= int256(amountForCurrentAction_workingVariable);\n      changeInSupply_syntheticToken_short += int256(\n        _getEquivalentAmountSyntheticTokensOnTargetSide(\n          amountForCurrentAction_workingVariable,\n          syntheticTokenPrice_inPaymentTokens_long,\n          syntheticTokenPrice_inPaymentTokens_short\n        )\n      );\n\n      batched_amountSyntheticToken_toShiftAwayFrom_marketSide[marketIndex][true] = 0;\n    }\n\n    // Handle shift tokens from SHORT to LONG\n    amountForCurrentAction_workingVariable = batched_amountSyntheticToken_toShiftAwayFrom_marketSide[\n      marketIndex\n    ][false];\n    if (amountForCurrentAction_workingVariable > 0) {\n      int256 paymentTokenValueChangeForShiftToLong = int256(\n        _getAmountPaymentToken(\n          amountForCurrentAction_workingVariable,\n          syntheticTokenPrice_inPaymentTokens_short\n        )\n      );\n\n      short_changeInMarketValue_inPaymentToken -= paymentTokenValueChangeForShiftToLong;\n      long_changeInMarketValue_inPaymentToken += paymentTokenValueChangeForShiftToLong;\n\n      changeInSupply_syntheticToken_short -= int256(amountForCurrentAction_workingVariable);\n      changeInSupply_syntheticToken_long += int256(\n        _getEquivalentAmountSyntheticTokensOnTargetSide(\n          amountForCurrentAction_workingVariable,\n          syntheticTokenPrice_inPaymentTokens_short,\n          syntheticTokenPrice_inPaymentTokens_long\n        )\n      );\n\n      batched_amountSyntheticToken_toShiftAwayFrom_marketSide[marketIndex][true] = 0;\n    }\n\n    // Handle batched redeems LONG\n    amountForCurrentAction_workingVariable = batched_amountSyntheticToken_redeem[marketIndex][true];\n    if (amountForCurrentAction_workingVariable > 0) {\n      long_changeInMarketValue_inPaymentToken -= int256(\n        _getAmountPaymentToken(\n          amountForCurrentAction_workingVariable,\n          syntheticTokenPrice_inPaymentTokens_long\n        )\n      );\n      changeInSupply_syntheticToken_long -= int256(amountForCurrentAction_workingVariable);\n\n      batched_amountSyntheticToken_redeem[marketIndex][true] = 0;\n    }\n\n    // Handle batched redeems SHORT\n    amountForCurrentAction_workingVariable = batched_amountSyntheticToken_redeem[marketIndex][\n      false\n    ];\n    if (amountForCurrentAction_workingVariable > 0) {\n      short_changeInMarketValue_inPaymentToken -= int256(\n        _getAmountPaymentToken(\n          amountForCurrentAction_workingVariable,\n          syntheticTokenPrice_inPaymentTokens_short\n        )\n      );\n      changeInSupply_syntheticToken_short -= int256(amountForCurrentAction_workingVariable);\n\n      batched_amountSyntheticToken_redeem[marketIndex][false] = 0;\n    }\n\n    // Batch settle payment tokens\n    _handleTotalPaymentTokenValueChangeForMarketWithYieldManager(\n      marketIndex,\n      long_changeInMarketValue_inPaymentToken + short_changeInMarketValue_inPaymentToken\n    );\n    // Batch settle synthetic tokens\n    _handleChangeInSyntheticTokensTotalSupply(\n      marketIndex,\n      true,\n      changeInSupply_syntheticToken_long\n    );\n    _handleChangeInSyntheticTokensTotalSupply(\n      marketIndex,\n      false,\n      changeInSupply_syntheticToken_short\n    );\n  }\n}\n",
  "sourcePath": "/home/jasoons/Documents/code/monorepo/contracts/contracts/LongShort.sol",
  "compiler": {
    "name": "solc",
    "version": "0.8.3+commit.8d00100c.Emscripten.clang"
  },
  "schemaVersion": "3.3.4",
  "updatedAt": "2021-08-04T10:05:24.461Z",
  "networkType": "ethereum",
  "devdoc": {
    "author": "float.capital",
    "custom:auditors": "This contract balances long and short sides.",
    "details": "All functions in this file are currently `virtual`. This is NOT to encourage inheritance. It is merely for convenince when unit testing.",
    "kind": "dev",
    "methods": {
      "changeAdmin(address)": {
        "details": "Can only be called by the current admin.",
        "params": {
          "_admin": "Address of the new admin."
        }
      },
      "changeTreasury(address)": {
        "details": "Can only be called by the current admin.",
        "params": {
          "_treasury": "Address of the treasury contract"
        }
      },
      "createNewSyntheticMarket(string,string,address,address,address)": {
        "details": "This does not make the market active. The `initializeMarket` function was split out separately to this function to reduce costs.",
        "params": {
          "_oracleManager": "The address of the oracle manager that provides the price feed for this market",
          "_paymentToken": "The address of the erc20 token used to buy this synthetic asset this will likely always be DAI",
          "_yieldManager": "The contract that manages depositing the paymentToken into a yield bearing protocol",
          "syntheticName": "Name of the synthetic asset",
          "syntheticSymbol": "Symbol for the synthetic asset"
        }
      },
      "executeOutstandingNextPriceSettlementsUser(address,uint32)": {
        "params": {
          "marketIndex": "An int32 which uniquely identifies a market.",
          "user": "The address of the user for whom to execute the function for."
        }
      },
      "executeOutstandingNextPriceSettlementsUserMulti(address,uint32[])": {
        "params": {
          "marketIndexes": "An array of int32s which each uniquely identify a market.",
          "user": "The address of the user for whom to execute the function for."
        }
      },
      "getAmountSyntheticTokenToMintOnTargetSide(uint32,uint256,bool,uint256)": {
        "details": "Intended for use primarily by Staker.sol",
        "params": {
          "amountSyntheticToken_redeemOnOriginSide": "Amount of synth token in wei.",
          "isShiftFromLong": "Whether the token shift is from long to short (true), or short to long (false).",
          "marketIndex": "An uint32 which uniquely identifies a market.",
          "priceSnapshotIndex": "Index which identifies which synth prices to use."
        },
        "returns": {
          "amountSyntheticTokensToMintOnTargetSide": "The amount in wei of tokens for the other side that the shift was worth."
        }
      },
      "getUsersConfirmedButNotSettledSynthBalance(address,uint32,bool)": {
        "details": "Used in SyntheticToken.sol balanceOf to allow for automatic reflection of next price actions.",
        "params": {
          "isLong": "Whether it is for the long synthetic asset or the short synthetic asset.",
          "marketIndex": "An int32 which uniquely identifies a market.",
          "user": "The address of the user for whom to execute the function for."
        },
        "returns": {
          "confirmedButNotSettledBalance": "The amount in wei of tokens that the user is owed."
        }
      },
      "initialize(address,address,address,address)": {
        "details": "Calls OpenZeppelin's initializer modifier.",
        "params": {
          "_admin": "Address of the admin role.",
          "_staker": "Address of the contract which handles synthetic asset stakes.",
          "_tokenFactory": "Address of the contract which creates synthetic asset tokens.",
          "_treasury": "Address of the treasury."
        }
      },
      "initializeMarket(uint32,uint256,uint256,uint256,uint256,uint256,int256,uint256)": {
        "details": "Seperated from createNewSyntheticMarket due to gas considerations.",
        "params": {
          "balanceIncentiveCurve_equilibriumOffset": "An offset to account for naturally imbalanced markets when Float token issuance should differ for market sides. See Staker.sol",
          "balanceIncentiveCurve_exponent": "Sets the degree to which Float token issuance differs for market sides in unbalanced markets. See Staker.sol",
          "initialMarketSeedForEachMarketSide": "Amount of payment token that will be deposited in each market side to seed the market.",
          "kInitialMultiplier": "Linearly decreasing multiplier for Float token issuance for the market when staking synths.",
          "kPeriod": "Time which kInitialMultiplier will last",
          "marketIndex": "An int32 which uniquely identifies the market.",
          "unstakeFee_e18": "Base 1e18 percentage fee levied when unstaking for the market."
        }
      },
      "mintLongNextPrice(uint32,uint256)": {
        "params": {
          "amount": "Amount of payment tokens in that token's lowest denominationfor which to mint synthetic assets at next price.",
          "marketIndex": "An int32 which uniquely identifies a market."
        }
      },
      "mintShortNextPrice(uint32,uint256)": {
        "params": {
          "amount": "Amount of payment tokens in that token's lowest denominationfor which to mint synthetic assets at next price.",
          "marketIndex": "An int32 which uniquely identifies a market."
        }
      },
      "redeemLongNextPrice(uint32,uint256)": {
        "params": {
          "marketIndex": "An int32 which uniquely identifies a market.",
          "tokens_redeem": "Amount in wei of synth tokens to redeem at the next oracle price."
        }
      },
      "redeemShortNextPrice(uint32,uint256)": {
        "params": {
          "marketIndex": "An int32 which uniquely identifies a market.",
          "tokens_redeem": "Amount in wei of synth tokens to redeem at the next oracle price."
        }
      },
      "shiftPositionFromLongNextPrice(uint32,uint256)": {
        "params": {
          "amountSyntheticTokensToShift": "Amount in wei of synthetic tokens to shift from long to short the next oracle price update.",
          "marketIndex": "An int32 which uniquely identifies a market."
        }
      },
      "shiftPositionFromShortNextPrice(uint32,uint256)": {
        "params": {
          "amountSyntheticTokensToShift": "Amount in wei of synthetic tokens to shift from the short to long at the next oracle price update.",
          "marketIndex": "An int32 which uniquely identifies a market."
        }
      },
      "updateMarketOracle(uint32,address)": {
        "details": "Can only be called by the current admin.",
        "params": {
          "_newOracleManager": "Address of the replacement oracle manager.",
          "marketIndex": "An int32 which uniquely identifies a market."
        }
      },
      "updateSystemState(uint32)": {
        "params": {
          "marketIndex": "An int32 which uniquely identifies a market."
        }
      },
      "updateSystemStateMulti(uint32[])": {
        "params": {
          "marketIndexes": "An array of int32s which uniquely identify markets."
        }
      }
    },
    "stateVariables": {
      "PERMANENT_INITIAL_LIQUIDITY_HOLDER": {
        "details": "f10a7 spells float in hex - for fun - important part is that the private key for this address in not known."
      }
    },
    "title": "Core logic of Float Protocal markets",
    "version": 1
  },
  "userdoc": {
    "kind": "user",
    "methods": {
      "PERMANENT_INITIAL_LIQUIDITY_HOLDER()": {
        "notice": "this is the address that permanently locked initial liquidity for markets is held by. These tokens will never move so market can never have zero liquidity on a side."
      },
      "changeAdmin(address)": {
        "notice": "Changes the admin address for this contract."
      },
      "changeTreasury(address)": {
        "notice": "Changes the treasury contract address for this contract."
      },
      "createNewSyntheticMarket(string,string,address,address,address)": {
        "notice": "Creates an entirely new long/short market tracking an underlying oracle price.  Make sure the synthetic names/symbols are unique."
      },
      "executeOutstandingNextPriceSettlementsUser(address,uint32)": {
        "notice": "After markets have been batched updated on a new oracle price, transfers any owed tokens to a user from their next price actions for that update to that user."
      },
      "executeOutstandingNextPriceSettlementsUserMulti(address,uint32[])": {
        "notice": "Executes outstanding next price settlements for a user for multiple markets."
      },
      "getAmountSyntheticTokenToMintOnTargetSide(uint32,uint256,bool,uint256)": {
        "notice": "Given an executed next price shift from tokens on one market side to the other, determines how many other side tokens the shift was worth."
      },
      "getUsersConfirmedButNotSettledSynthBalance(address,uint32,bool)": {
        "notice": "The amount of a synth token a user is owed following a batch execution. 4 possible states for next price actions: - \"Pending\" - means the next price update hasn't happened or been enacted on by the updateSystemState function. - \"Confirmed\" - means the next price has been updated by the updateSystemState function. There is still -               outstanding (lazy) computation that needs to be executed per user in the batch. - \"Settled\" - there is no more computation left for the user. - \"Non-existant\" - user has no next price actions. This function returns a calculated value only in the case of 'confirmed' next price actions. It should return zero for all other types of next price actions."
      },
      "initialize(address,address,address,address)": {
        "notice": "Initializes the contract."
      },
      "initializeMarket(uint32,uint256,uint256,uint256,uint256,uint256,int256,uint256)": {
        "notice": "Sets a market as active once it has already been setup by createNewSyntheticMarket."
      },
      "mintLongNextPrice(uint32,uint256)": {
        "notice": "Allows users to mint long synthetic assets for a market. To prevent front-running these mints are executed on the next price update from the oracle."
      },
      "mintShortNextPrice(uint32,uint256)": {
        "notice": "Allows users to mint short synthetic assets for a market. To prevent front-running these mints are executed on the next price update from the oracle."
      },
      "redeemLongNextPrice(uint32,uint256)": {
        "notice": "Allows users to redeem long synthetic assets for a market. To prevent front-running these redeems are executed on the next price update from the oracle."
      },
      "redeemShortNextPrice(uint32,uint256)": {
        "notice": "Allows users to redeem short synthetic assets for a market. To prevent front-running these redeems are executed on the next price update from the oracle."
      },
      "shiftPositionFromLongNextPrice(uint32,uint256)": {
        "notice": "Allows users to shift their position from long to short in a single transaction. To prevent front-running these shifts are executed on the next price update from the oracle."
      },
      "shiftPositionFromShortNextPrice(uint32,uint256)": {
        "notice": "Allows users to shift their position from short to long in a single transaction. To prevent front-running these shifts are executed on the next price update from the oracle."
      },
      "syntheticToken_priceSnapshot(uint32,bool,uint256)": {
        "notice": "synthetic token prices of a given market of a (long/short) at every previous price update"
      },
      "updateMarketOracle(uint32,address)": {
        "notice": "Update oracle for a market"
      },
      "updateSystemState(uint32)": {
        "notice": "Updates the state of a market to account for the latest oracle price update."
      },
      "updateSystemStateMulti(uint32[])": {
        "notice": "Updates the state of multiples markets to account for their latest oracle price updates."
      }
    },
    "notice": "visit https://float.capital for more info",
    "version": 1
  }
}