{
  "contractName": "OracleManagerEthVsBtc",
  "abi": [
    {
      "inputs": [
        {
          "internalType": "address",
          "name": "_admin",
          "type": "address"
        },
        {
          "internalType": "address",
          "name": "_btcOracle",
          "type": "address"
        },
        {
          "internalType": "address",
          "name": "_ethOracle",
          "type": "address"
        }
      ],
      "stateMutability": "nonpayable",
      "type": "constructor"
    },
    {
      "inputs": [],
      "name": "admin",
      "outputs": [
        {
          "internalType": "address",
          "name": "",
          "type": "address"
        }
      ],
      "stateMutability": "view",
      "type": "function"
    },
    {
      "inputs": [],
      "name": "btcOracle",
      "outputs": [
        {
          "internalType": "contract AggregatorV3Interface",
          "name": "",
          "type": "address"
        }
      ],
      "stateMutability": "view",
      "type": "function"
    },
    {
      "inputs": [],
      "name": "ethDominance",
      "outputs": [
        {
          "internalType": "int256",
          "name": "",
          "type": "int256"
        }
      ],
      "stateMutability": "view",
      "type": "function"
    },
    {
      "inputs": [],
      "name": "ethOracle",
      "outputs": [
        {
          "internalType": "contract AggregatorV3Interface",
          "name": "",
          "type": "address"
        }
      ],
      "stateMutability": "view",
      "type": "function"
    },
    {
      "inputs": [
        {
          "internalType": "address",
          "name": "_admin",
          "type": "address"
        }
      ],
      "name": "changeAdmin",
      "outputs": [],
      "stateMutability": "nonpayable",
      "type": "function"
    },
    {
      "inputs": [],
      "name": "updatePrice",
      "outputs": [
        {
          "internalType": "int256",
          "name": "",
          "type": "int256"
        }
      ],
      "stateMutability": "nonpayable",
      "type": "function"
    },
    {
      "inputs": [],
      "name": "getLatestPrice",
      "outputs": [
        {
          "internalType": "int256",
          "name": "",
          "type": "int256"
        }
      ],
      "stateMutability": "view",
      "type": "function"
    }
  ],
  "bytecode": "0x608060405234801561001057600080fd5b506040516106a63803806106a683398101604081905261002f916101f9565b600080546001600160a01b038086166001600160a01b03199283161790925560028054858416908316179055600380549284169290911691909117905561007461007d565b505050506102d5565b600080600360009054906101000a90046001600160a01b03166001600160a01b031663feaf968c6040518163ffffffff1660e01b815260040160a06040518083038186803b1580156100ce57600080fd5b505afa1580156100e2573d6000803e3d6000fd5b505050506040513d601f19601f82011682018060405250810190610106919061023b565b5050509150506000600260009054906101000a90046001600160a01b03166001600160a01b031663feaf968c6040518163ffffffff1660e01b815260040160a06040518083038186803b15801561015c57600080fd5b505afa158015610170573d6000803e3d6000fd5b505050506040513d601f19601f82011682018060405250810190610194919061023b565b505050915050808268056bc75e2d631000006101b091906102aa565b6101ba919061028a565b60018190559250505090565b80516001600160a01b03811681146101dd57600080fd5b919050565b80516001600160501b03811681146101dd57600080fd5b60008060006060848603121561020d578283fd5b610216846101c6565b9250610224602085016101c6565b9150610232604085016101c6565b90509250925092565b600080600080600060a08688031215610252578081fd5b61025b866101e2565b945060208601519350604086015192506060860151915061027e608087016101e2565b90509295509295909350565b6000826102a557634e487b7160e01b81526012600452602481fd5b500490565b60008160001904831182151516156102d057634e487b7160e01b81526011600452602481fd5b500290565b6103c2806102e46000396000f3fe608060405234801561001057600080fd5b506004361061007d5760003560e01c80638f2839701161005b5780638f283970146100d05780639c8762e1146100e55780639d804a62146100f8578063f851a440146101015761007d565b806322a1584814610082578063673a7e28146100b25780638e15f473146100c8575b600080fd5b600254610095906001600160a01b031681565b6040516001600160a01b0390911681526020015b60405180910390f35b6100ba610114565b6040519081526020016100a9565b6001546100ba565b6100e36100de3660046102c4565b610123565b005b600354610095906001600160a01b031681565b6100ba60015481565b600054610095906001600160a01b031681565b600061011e61015c565b905090565b6000546001600160a01b0316331461013a57600080fd5b600080546001600160a01b0319166001600160a01b0392909216919091179055565b600080600360009054906101000a90046001600160a01b03166001600160a01b031663feaf968c6040518163ffffffff1660e01b815260040160a06040518083038186803b1580156101ad57600080fd5b505afa1580156101c1573d6000803e3d6000fd5b505050506040513d601f19601f820116820180604052508101906101e591906102f2565b5050509150506000600260009054906101000a90046001600160a01b03166001600160a01b031663feaf968c6040518163ffffffff1660e01b815260040160a06040518083038186803b15801561023b57600080fd5b505afa15801561024f573d6000803e3d6000fd5b505050506040513d601f19601f8201168201806040525081019061027391906102f2565b505050915050808268056bc75e2d6310000061028f9190610361565b6102999190610341565b60018190559250505090565b805169ffffffffffffffffffff811681146102bf57600080fd5b919050565b6000602082840312156102d5578081fd5b81356001600160a01b03811681146102eb578182fd5b9392505050565b600080600080600060a08688031215610309578081fd5b610312866102a5565b9450602086015193506040860151925060608601519150610335608087016102a5565b90509295509295909350565b60008261035c57634e487b7160e01b81526012600452602481fd5b500490565b600081600019048311821515161561038757634e487b7160e01b81526011600452602481fd5b50029056fea26469706673582212208e9ef89803f645935dcad4e077ce451f4cdd46594587d81cf4559d75bdf3b98564736f6c63430008030033",
  "immutableReferences": {},
  "source": "// SPDX-License-Identifier: BUSL-1.1\n\npragma solidity 0.8.3;\n\nimport \"@chainlink/contracts/src/v0.8/interfaces/AggregatorV3Interface.sol\";\n\nimport \"../interfaces/IOracleManager.sol\";\n\n/**\n  Contract that gives price ration of ETH/BTC\n*/\ncontract OracleManagerEthVsBtc is IOracleManager {\n  address public admin; // This will likely be the Gnosis safe\n\n  int256 public ethDominance;\n\n  // Oracle addresses\n  AggregatorV3Interface public btcOracle;\n  AggregatorV3Interface public ethOracle;\n\n  ////////////////////////////////////\n  /////////// MODIFIERS //////////////\n  ////////////////////////////////////\n\n  modifier adminOnly() {\n    require(msg.sender == admin);\n    _;\n  }\n\n  ////////////////////////////////////\n  ///// CONTRACT SET-UP //////////////\n  ////////////////////////////////////\n\n  constructor(\n    address _admin,\n    address _btcOracle,\n    address _ethOracle\n  ) {\n    admin = _admin;\n\n    btcOracle = AggregatorV3Interface(_btcOracle);\n    ethOracle = AggregatorV3Interface(_ethOracle);\n\n    _updatePrice();\n  }\n\n  ////////////////////////////////////\n  /// MULTISIG ADMIN FUNCTIONS ///////\n  ////////////////////////////////////\n\n  function changeAdmin(address _admin) external adminOnly {\n    admin = _admin;\n  }\n\n  ////////////////////////////////////\n  ///// IMPLEMENTATION ///////////////\n  ////////////////////////////////////\n\n  function _updatePrice() private returns (int256) {\n    (, int256 _ethPrice, , , ) = ethOracle.latestRoundData();\n    (, int256 _btcPrice, , , ) = btcOracle.latestRoundData();\n\n    // 1e20 as 18 decimals but as %\n    ethDominance = int256((uint256(_ethPrice) * 1e20) / (uint256(_btcPrice)));\n\n    return ethDominance;\n  }\n\n  function updatePrice() external override returns (int256) {\n    return _updatePrice();\n  }\n\n  function getLatestPrice() external view override returns (int256) {\n    return ethDominance;\n  }\n}\n",
  "sourcePath": "/home/jasoons/Documents/code/monorepo/contracts/contracts/oracles/OracleManagerEthVsBtc.sol",
  "compiler": {
    "name": "solc",
    "version": "0.8.3+commit.8d00100c.Emscripten.clang"
  },
  "schemaVersion": "3.3.4",
  "updatedAt": "2021-08-04T10:05:03.854Z",
  "devdoc": {
    "kind": "dev",
    "methods": {},
    "version": 1
  },
  "userdoc": {
    "kind": "user",
    "methods": {
      "changeAdmin(address)": {
        "notice": "MULTISIG ADMIN FUNCTIONS ///////"
      }
    },
    "notice": "Contract that gives price ration of ETH/BTC",
    "version": 1
  }
}