{
  "contractName": "OracleManagerEthKiller",
  "abi": [
    {
      "inputs": [
        {
          "internalType": "address",
          "name": "_admin",
          "type": "address"
        },
        {
          "internalType": "address",
          "name": "_bandOracle",
          "type": "address"
        }
      ],
      "stateMutability": "nonpayable",
      "type": "constructor"
    },
    {
      "inputs": [],
      "name": "admin",
      "outputs": [
        {
          "internalType": "address",
          "name": "",
          "type": "address"
        }
      ],
      "stateMutability": "view",
      "type": "function"
    },
    {
      "inputs": [],
      "name": "eosPrice",
      "outputs": [
        {
          "internalType": "uint256",
          "name": "",
          "type": "uint256"
        }
      ],
      "stateMutability": "view",
      "type": "function"
    },
    {
      "inputs": [],
      "name": "indexPrice",
      "outputs": [
        {
          "internalType": "uint256",
          "name": "",
          "type": "uint256"
        }
      ],
      "stateMutability": "view",
      "type": "function"
    },
    {
      "inputs": [],
      "name": "oracle",
      "outputs": [
        {
          "internalType": "contract IBandOracle",
          "name": "",
          "type": "address"
        }
      ],
      "stateMutability": "view",
      "type": "function"
    },
    {
      "inputs": [],
      "name": "tronPrice",
      "outputs": [
        {
          "internalType": "uint256",
          "name": "",
          "type": "uint256"
        }
      ],
      "stateMutability": "view",
      "type": "function"
    },
    {
      "inputs": [],
      "name": "xrpPrice",
      "outputs": [
        {
          "internalType": "uint256",
          "name": "",
          "type": "uint256"
        }
      ],
      "stateMutability": "view",
      "type": "function"
    },
    {
      "inputs": [
        {
          "internalType": "address",
          "name": "_admin",
          "type": "address"
        }
      ],
      "name": "changeAdmin",
      "outputs": [],
      "stateMutability": "nonpayable",
      "type": "function"
    },
    {
      "inputs": [],
      "name": "updatePrice",
      "outputs": [
        {
          "internalType": "int256",
          "name": "",
          "type": "int256"
        }
      ],
      "stateMutability": "nonpayable",
      "type": "function"
    },
    {
      "inputs": [],
      "name": "getLatestPrice",
      "outputs": [
        {
          "internalType": "int256",
          "name": "",
          "type": "int256"
        }
      ],
      "stateMutability": "view",
      "type": "function"
    }
  ],
  "bytecode": "0x60806040523480156200001157600080fd5b5060405162000f2138038062000f218339810160408190526200003491620003ef565b600080546001600160a01b038085166001600160a01b03199283161790925560058054928416929091169190911790556200006e6200008b565b6004556003556002555050670de0b6b3a764000060015562000619565b6040805160038082526080820190925260009182918291829190816020015b6060815260200190600190039081620000aa579050509050604051806040016040528060038152602001620a8a4b60eb1b815250816000815181106200010057634e487b7160e01b600052603260045260246000fd5b602002602001018190525060405180604001604052806003815260200162454f5360e81b815250816001815181106200014957634e487b7160e01b600052603260045260246000fd5b60200260200101819052506040518060400160405280600381526020016205852560ec1b815250816002815181106200019257634e487b7160e01b600052603260045260246000fd5b602090810291909101015260408051600380825260808201909252600091816020015b6060815260200190600190039081620001b557905050905060405180604001604052806004815260200163109554d160e21b815250816000815181106200020c57634e487b7160e01b600052603260045260246000fd5b602002602001018190525060405180604001604052806004815260200163109554d160e21b815250816001815181106200025657634e487b7160e01b600052603260045260246000fd5b602002602001018190525060405180604001604052806004815260200163109554d160e21b81525081600281518110620002a057634e487b7160e01b600052603260045260246000fd5b602090810291909101015260055460405163e42a071b60e01b81526000916001600160a01b03169063e42a071b90620002e090869086906004016200059e565b60006040518083038186803b158015620002f957600080fd5b505afa1580156200030e573d6000803e3d6000fd5b505050506040513d6000823e601f3d908101601f1916820160405262000338919081019062000426565b9050806000815181106200035c57634e487b7160e01b600052603260045260246000fd5b602002602001015160000151816001815181106200038a57634e487b7160e01b600052603260045260246000fd5b60200260200101516000015182600281518110620003b857634e487b7160e01b600052603260045260246000fd5b602002602001015160000151955095509550505050909192565b80516001600160a01b0381168114620003ea57600080fd5b919050565b6000806040838503121562000402578182fd5b6200040d83620003d2565b91506200041d60208401620003d2565b90509250929050565b6000602080838503121562000439578182fd5b82516001600160401b038082111562000450578384fd5b818501915085601f83011262000464578384fd5b81518181111562000479576200047962000603565b62000489848260051b01620005d0565b81815284810192508385016060808402860187018a1015620004a9578788fd5b8795505b83861015620004fd5780828b031215620004c5578788fd5b620004d081620005d0565b825181528783015188820152604080840151908201528552600195909501949386019390810190620004ad565b509098975050505050505050565b600082825180855260208086019550808260051b840101818601855b848110156200059157601f1980878503018a5282518051808652895b818110156200056057828101880151878201890152870162000543565b8181111562000571578a8883890101525b509a86019a601f0190911693909301840192509083019060010162000527565b5090979650505050505050565b600060408252620005b360408301856200050b565b8281036020840152620005c781856200050b565b95945050505050565b604051601f8201601f191681016001600160401b0381118282101715620005fb57620005fb62000603565b604052919050565b634e487b7160e01b600052604160045260246000fd5b6108f880620006296000396000f3fe608060405234801561001057600080fd5b50600436106100935760003560e01c8063673a7e2811610066578063673a7e28146100cf5780637dc0d1d0146100d75780638e15f473146101025780638f2839701461010a578063f851a4401461011f57610093565b80630b42902e1461009857806310bace8c146100b457806322d84372146100bd57806339dae8d2146100c6575b600080fd5b6100a160025481565b6040519081526020015b60405180910390f35b6100a160015481565b6100a160035481565b6100a160045481565b6100a1610132565b6005546100ea906001600160a01b031681565b6040516001600160a01b0390911681526020016100ab565b6001546100a1565b61011d61011836600461056d565b6101ce565b005b6000546100ea906001600160a01b031681565b600080600080610140610207565b92509250925060006729a2241af62c000061015d8360045461053d565b6101698560035461053d565b6101758760025461053d565b61017f9190610759565b6101899190610759565b60015461019691906107d4565b6101a0919061079a565b6002859055600384905560048390556001549091506101c0908290610759565b600181905594505050505090565b6000546001600160a01b031633146101e557600080fd5b600080546001600160a01b0319166001600160a01b0392909216919091179055565b6040805160038082526080820190925260009182918291829190816020015b6060815260200190600190039081610226579050509050604051806040016040528060038152602001620a8a4b60eb1b8152508160008151811061027a57634e487b7160e01b600052603260045260246000fd5b602002602001018190525060405180604001604052806003815260200162454f5360e81b815250816001815181106102c257634e487b7160e01b600052603260045260246000fd5b60200260200101819052506040518060400160405280600381526020016205852560ec1b8152508160028151811061030a57634e487b7160e01b600052603260045260246000fd5b602090810291909101015260408051600380825260808201909252600091816020015b606081526020019060019003908161032d57905050905060405180604001604052806004815260200163109554d160e21b8152508160008151811061038257634e487b7160e01b600052603260045260246000fd5b602002602001018190525060405180604001604052806004815260200163109554d160e21b815250816001815181106103cb57634e487b7160e01b600052603260045260246000fd5b602002602001018190525060405180604001604052806004815260200163109554d160e21b8152508160028151811061041457634e487b7160e01b600052603260045260246000fd5b602090810291909101015260055460405163e42a071b60e01b81526000916001600160a01b03169063e42a071b9061045290869086906004016106fa565b60006040518083038186803b15801561046a57600080fd5b505afa15801561047e573d6000803e3d6000fd5b505050506040513d6000823e601f3d908101601f191682016040526104a69190810190610594565b9050806000815181106104c957634e487b7160e01b600052603260045260246000fd5b602002602001015160000151816001815181106104f657634e487b7160e01b600052603260045260246000fd5b6020026020010151600001518260028151811061052357634e487b7160e01b600052603260045260246000fd5b602002602001015160000151955095509550505050909192565b60008161054a8185610857565b61055c90670de0b6b3a76400006107d4565b610566919061079a565b9392505050565b60006020828403121561057e578081fd5b81356001600160a01b0381168114610566578182fd5b600060208083850312156105a6578182fd5b825167ffffffffffffffff808211156105bd578384fd5b818501915085601f8301126105d0578384fd5b8151818111156105e2576105e26108ac565b6105f0848260051b01610728565b81815284810192508385016060808402860187018a101561060f578788fd5b8795505b8386101561065e5780828b031215610629578788fd5b61063281610728565b825181528783015188820152604080840151908201528552600195909501949386019390810190610613565b509098975050505050505050565b600082825180855260208086019550808260051b840101818601855b848110156106ed57601f1980878503018a5282518051808652895b818110156106be5782810188015187820189015287016106a3565b818111156106ce578a8883890101525b509a86019a601f01909116939093018401925090830190600101610688565b5090979650505050505050565b60006040825261070d604083018561066c565b828103602084015261071f818561066c565b95945050505050565b604051601f8201601f1916810167ffffffffffffffff81118282101715610751576107516108ac565b604052919050565b600080821280156001600160ff1b038490038513161561077b5761077b610896565b600160ff1b839003841281161561079457610794610896565b50500190565b6000826107b557634e487b7160e01b81526012600452602481fd5b600160ff1b8214600019841416156107cf576107cf610896565b500590565b60006001600160ff1b03818413828413808216868404861116156107fa576107fa610896565b600160ff1b8487128281168783058912161561081857610818610896565b85871292508782058712848416161561083357610833610896565b8785058712818416161561084957610849610896565b505050929093029392505050565b60008083128015600160ff1b85018412161561087557610875610896565b6001600160ff1b038401831381161561089057610890610896565b50500390565b634e487b7160e01b600052601160045260246000fd5b634e487b7160e01b600052604160045260246000fdfea26469706673582212206533188e366db81db1ba062a8d9a91a35e9289431d3b89b87804ff5e16f25f9564736f6c63430008030033",
  "immutableReferences": {},
  "source": "// SPDX-License-Identifier: BUSL-1.1\n\npragma solidity 0.8.3;\n\nimport \"@chainlink/contracts/src/v0.6/interfaces/AggregatorV3Interface.sol\";\n\nimport \"../interfaces/IBandOracle.sol\";\nimport \"../interfaces/IOracleManager.sol\";\n\ncontract OracleManagerEthKiller is IOracleManager {\n  address public admin; // This will likely be the Gnosis safe\n\n  // Oracle price, changes by average of the underlying asset changes.\n  uint256 public indexPrice;\n\n  // Underlying asset prices.\n  uint256 public tronPrice;\n  uint256 public eosPrice;\n  uint256 public xrpPrice;\n\n  // Band oracle address.\n  IBandOracle public oracle;\n\n  ////////////////////////////////////\n  /////////// MODIFIERS //////////////\n  ////////////////////////////////////\n\n  modifier adminOnly() {\n    require(msg.sender == admin);\n    _;\n  }\n\n  ////////////////////////////////////\n  ///// CONTRACT SET-UP //////////////\n  ////////////////////////////////////\n\n  constructor(address _admin, address _bandOracle) {\n    admin = _admin;\n    oracle = IBandOracle(_bandOracle);\n\n    // Initial asset prices.\n    (tronPrice, eosPrice, xrpPrice) = _getAssetPrices();\n\n    // Initial base index price.\n    indexPrice = 1e18;\n  }\n\n  ////////////////////////////////////\n  /// MULTISIG ADMIN FUNCTIONS ///////\n  ////////////////////////////////////\n\n  function changeAdmin(address _admin) external adminOnly {\n    admin = _admin;\n  }\n\n  ////////////////////////////////////\n  ///// IMPLEMENTATION ///////////////\n  ////////////////////////////////////\n\n  function _getAssetPrices()\n    internal\n    view\n    returns (\n      uint256,\n      uint256,\n      uint256\n    )\n  {\n    string[] memory baseSymbols = new string[](3);\n    baseSymbols[0] = \"TRX\"; // tron\n    baseSymbols[1] = \"EOS\"; // eos\n    baseSymbols[2] = \"XRP\"; // ripple\n\n    string[] memory quoteSymbols = new string[](3);\n    quoteSymbols[0] = \"BUSD\";\n    quoteSymbols[1] = \"BUSD\";\n    quoteSymbols[2] = \"BUSD\";\n\n    IBandOracle.ReferenceData[] memory data = oracle.getReferenceDataBulk(\n      baseSymbols,\n      quoteSymbols\n    );\n\n    return (data[0].rate, data[1].rate, data[2].rate);\n  }\n\n  function updatePrice() external override returns (int256) {\n    (uint256 newTronPrice, uint256 newEosPrice, uint256 newXrpPrice) = _getAssetPrices();\n\n    int256 valueOfChangeInIndex = (int256(indexPrice) *\n      (_calcAbsolutePercentageChange(newTronPrice, tronPrice) +\n        _calcAbsolutePercentageChange(newEosPrice, eosPrice) +\n        _calcAbsolutePercentageChange(newXrpPrice, xrpPrice))) / (3 * 1e18);\n\n    tronPrice = newTronPrice;\n    eosPrice = newEosPrice;\n    xrpPrice = newXrpPrice;\n\n    indexPrice = uint256(int256(indexPrice) + valueOfChangeInIndex);\n\n    return int256(indexPrice);\n  }\n\n  function _calcAbsolutePercentageChange(uint256 newPrice, uint256 basePrice)\n    internal\n    pure\n    returns (int256)\n  {\n    return ((int256(newPrice) - int256(basePrice)) * (1e18)) / (int256(basePrice));\n  }\n\n  function getLatestPrice() external view override returns (int256) {\n    return int256(indexPrice);\n  }\n}\n",
  "sourcePath": "/home/jasoons/Documents/code/monorepo/contracts/contracts/oracles/OracleManagerEthKiller.sol",
  "compiler": {
    "name": "solc",
    "version": "0.8.3+commit.8d00100c.Emscripten.clang"
  },
  "schemaVersion": "3.3.4",
  "updatedAt": "2021-08-04T10:05:03.836Z",
  "devdoc": {
    "kind": "dev",
    "methods": {},
    "version": 1
  },
  "userdoc": {
    "kind": "user",
    "methods": {
      "changeAdmin(address)": {
        "notice": "MULTISIG ADMIN FUNCTIONS ///////"
      }
    },
    "version": 1
  }
}