{
  "contractName": "OracleManagerBand",
  "abi": [
    {
      "inputs": [
        {
          "internalType": "address",
          "name": "_admin",
          "type": "address"
        },
        {
          "internalType": "address",
          "name": "_bandOracle",
          "type": "address"
        },
        {
          "internalType": "string",
          "name": "_base",
          "type": "string"
        },
        {
          "internalType": "string",
          "name": "_quote",
          "type": "string"
        }
      ],
      "stateMutability": "nonpayable",
      "type": "constructor"
    },
    {
      "inputs": [],
      "name": "admin",
      "outputs": [
        {
          "internalType": "address",
          "name": "",
          "type": "address"
        }
      ],
      "stateMutability": "view",
      "type": "function"
    },
    {
      "inputs": [],
      "name": "bandOracle",
      "outputs": [
        {
          "internalType": "contract IBandOracle",
          "name": "",
          "type": "address"
        }
      ],
      "stateMutability": "view",
      "type": "function"
    },
    {
      "inputs": [],
      "name": "base",
      "outputs": [
        {
          "internalType": "string",
          "name": "",
          "type": "string"
        }
      ],
      "stateMutability": "view",
      "type": "function"
    },
    {
      "inputs": [],
      "name": "quote",
      "outputs": [
        {
          "internalType": "string",
          "name": "",
          "type": "string"
        }
      ],
      "stateMutability": "view",
      "type": "function"
    },
    {
      "inputs": [
        {
          "internalType": "address",
          "name": "_admin",
          "type": "address"
        }
      ],
      "name": "changeAdmin",
      "outputs": [],
      "stateMutability": "nonpayable",
      "type": "function"
    },
    {
      "inputs": [],
      "name": "getLatestPrice",
      "outputs": [
        {
          "internalType": "int256",
          "name": "",
          "type": "int256"
        }
      ],
      "stateMutability": "view",
      "type": "function"
    },
    {
      "inputs": [],
      "name": "updatePrice",
      "outputs": [
        {
          "internalType": "int256",
          "name": "",
          "type": "int256"
        }
      ],
      "stateMutability": "nonpayable",
      "type": "function"
    }
  ],
  "bytecode": "0x608060405234801561001057600080fd5b506040516107b73803806107b783398101604081905261002f916101f9565b600080546001600160a01b0319166001600160a01b038616179055815161005d90600290602085019061009c565b50805161007190600390602084019061009c565b5050600180546001600160a01b0319166001600160a01b039390931692909217909155506102cc9050565b8280546100a89061027b565b90600052602060002090601f0160209004810192826100ca5760008555610110565b82601f106100e357805160ff1916838001178555610110565b82800160010185558215610110579182015b828111156101105782518255916020019190600101906100f5565b5061011c929150610120565b5090565b5b8082111561011c5760008155600101610121565b80516001600160a01b038116811461014c57600080fd5b919050565b600082601f830112610161578081fd5b81516001600160401b038082111561017b5761017b6102b6565b604051601f8301601f19908116603f011681019082821181831017156101a3576101a36102b6565b816040528381526020925086838588010111156101be578485fd5b8491505b838210156101df57858201830151818301840152908201906101c2565b838211156101ef57848385830101525b9695505050505050565b6000806000806080858703121561020e578384fd5b61021785610135565b935061022560208601610135565b60408601519093506001600160401b0380821115610241578384fd5b61024d88838901610151565b93506060870151915080821115610262578283fd5b5061026f87828801610151565b91505092959194509250565b600181811c9082168061028f57607f821691505b602082108114156102b057634e487b7160e01b600052602260045260246000fd5b50919050565b634e487b7160e01b600052604160045260246000fd5b6104dc806102db6000396000f3fe608060405234801561001057600080fd5b506004361061007d5760003560e01c80638f2839701161005b5780638f283970146100b6578063956dcd1f146100cb578063999b93af146100f6578063f851a440146100fe5761007d565b80635001f3b514610082578063673a7e28146100a05780638e15f473146100a0575b600080fd5b61008a610111565b60405161009791906103ea565b60405180910390f35b6100a861019f565b604051908152602001610097565b6100c96100c43660046102b7565b6101ae565b005b6001546100de906001600160a01b031681565b6040516001600160a01b039091168152602001610097565b61008a61021a565b6000546100de906001600160a01b031681565b6002805461011e9061046b565b80601f016020809104026020016040519081016040528092919081815260200182805461014a9061046b565b80156101975780601f1061016c57610100808354040283529160200191610197565b820191906000526020600020905b81548152906001019060200180831161017a57829003601f168201915b505050505081565b60006101a9610227565b905090565b6000546001600160a01b031633146101f85760405162461bcd60e51b81526020600482015260096024820152682737ba1030b236b4b760b91b604482015260640160405180910390fd5b600080546001600160a01b0319166001600160a01b0392909216919091179055565b6003805461011e9061046b565b60015460405163195556f360e21b815260009182916001600160a01b03909116906365555bcc906102609060029060039060040161043d565b60606040518083038186803b15801561027857600080fd5b505afa15801561028c573d6000803e3d6000fd5b505050506040513d601f19601f820116820180604052508101906102b091906102e5565b5191505090565b6000602082840312156102c8578081fd5b81356001600160a01b03811681146102de578182fd5b9392505050565b6000606082840312156102f6578081fd5b6040516060810181811067ffffffffffffffff8211171561032557634e487b7160e01b83526041600452602483fd5b80604052508251815260208301516020820152604083015160408201528091505092915050565b8054600090600181811c908083168061036657607f831692505b602080841082141561038657634e487b7160e01b86526022600452602486fd5b838852602088018280156103a157600181146103b2576103dd565b60ff198716825282820197506103dd565b60008981526020902060005b878110156103d7578154848201529086019084016103be565b83019850505b5050505050505092915050565b6000602080835283518082850152825b81811015610416578581018301518582016040015282016103fa565b818111156104275783604083870101525b50601f01601f1916929092016040019392505050565b600060408252610450604083018561034c565b8281036020840152610462818561034c565b95945050505050565b600181811c9082168061047f57607f821691505b602082108114156104a057634e487b7160e01b600052602260045260246000fd5b5091905056fea2646970667358221220eb566ea45fa206cdb35835337d7ca06922e55645b8ee417354e2d3fdbd5be36264736f6c63430008030033",
  "immutableReferences": {},
  "source": "// SPDX-License-Identifier: BUSL-1.1\n\npragma solidity 0.8.3;\npragma abicoder v2;\n\nimport \"../interfaces/IOracleManager.sol\";\nimport \"../interfaces/IBandOracle.sol\";\n\n/*\n * Implementation of an OracleManager that fetches prices from a band oracle.\n */\ncontract OracleManagerBand is IOracleManager {\n  // Admin addresses.\n  address public admin;\n\n  // Global state.\n  IBandOracle public bandOracle;\n  string public base; // base pair for prices\n  string public quote; // quote pair for prices\n\n  ////////////////////////////////////\n  /////////// MODIFIERS //////////////\n  ////////////////////////////////////\n\n  modifier adminOnly() {\n    require(msg.sender == admin, \"Not admin\");\n    _;\n  }\n\n  ////////////////////////////////////\n  ///// CONTRACT SET-UP //////////////\n  ////////////////////////////////////\n\n  constructor(\n    address _admin,\n    address _bandOracle,\n    string memory _base,\n    string memory _quote\n  ) {\n    admin = _admin;\n    base = _base;\n    quote = _quote;\n\n    bandOracle = IBandOracle(_bandOracle);\n  }\n\n  ////////////////////////////////////\n  /// MULTISIG ADMIN FUNCTIONS ///////\n  ////////////////////////////////////\n\n  function changeAdmin(address _admin) external adminOnly {\n    admin = _admin;\n  }\n\n  ////////////////////////////////////\n  ///// IMPLEMENTATION ///////////////\n  ////////////////////////////////////\n  function _getLatestPrice() internal view returns (int256) {\n    IBandOracle.ReferenceData memory data = bandOracle.getReferenceData(base, quote);\n\n    return int256(data.rate);\n  }\n\n  function getLatestPrice() external view override returns (int256) {\n    return _getLatestPrice();\n  }\n\n  function updatePrice() external override returns (int256) {\n    return _getLatestPrice();\n  }\n}\n",
  "sourcePath": "/home/jasoons/Documents/code/monorepo/contracts/contracts/oracles/OracleManagerBand.sol",
  "compiler": {
    "name": "solc",
    "version": "0.8.3+commit.8d00100c.Emscripten.clang"
  },
  "schemaVersion": "3.3.4",
  "updatedAt": "2021-08-04T10:05:03.829Z",
  "devdoc": {
    "kind": "dev",
    "methods": {},
    "version": 1
  },
  "userdoc": {
    "kind": "user",
    "methods": {
      "changeAdmin(address)": {
        "notice": "MULTISIG ADMIN FUNCTIONS ///////"
      }
    },
    "version": 1
  }
}