{
  "contractName": "OracleManagerEthKillerChainlinkTestnet",
  "abi": [
    {
      "inputs": [
        {
          "internalType": "address",
          "name": "_admin",
          "type": "address"
        },
        {
          "internalType": "address",
          "name": "_tronOracle",
          "type": "address"
        },
        {
          "internalType": "address",
          "name": "_eosOracle",
          "type": "address"
        },
        {
          "internalType": "address",
          "name": "_xrpOracle",
          "type": "address"
        },
        {
          "internalType": "uint256",
          "name": "_maxUpdateIntervalSeconds",
          "type": "uint256"
        }
      ],
      "stateMutability": "nonpayable",
      "type": "constructor"
    },
    {
      "inputs": [],
      "name": "admin",
      "outputs": [
        {
          "internalType": "address",
          "name": "",
          "type": "address"
        }
      ],
      "stateMutability": "view",
      "type": "function"
    },
    {
      "inputs": [
        {
          "internalType": "address",
          "name": "_admin",
          "type": "address"
        }
      ],
      "name": "changeAdmin",
      "outputs": [],
      "stateMutability": "nonpayable",
      "type": "function"
    },
    {
      "inputs": [],
      "name": "eosOracle",
      "outputs": [
        {
          "internalType": "contract AggregatorV3Interface",
          "name": "",
          "type": "address"
        }
      ],
      "stateMutability": "view",
      "type": "function"
    },
    {
      "inputs": [],
      "name": "eosPrice",
      "outputs": [
        {
          "internalType": "int256",
          "name": "",
          "type": "int256"
        }
      ],
      "stateMutability": "view",
      "type": "function"
    },
    {
      "inputs": [],
      "name": "getLatestPrice",
      "outputs": [
        {
          "internalType": "int256",
          "name": "",
          "type": "int256"
        }
      ],
      "stateMutability": "view",
      "type": "function"
    },
    {
      "inputs": [],
      "name": "indexPrice",
      "outputs": [
        {
          "internalType": "int256",
          "name": "",
          "type": "int256"
        }
      ],
      "stateMutability": "view",
      "type": "function"
    },
    {
      "inputs": [],
      "name": "tronOracle",
      "outputs": [
        {
          "internalType": "contract AggregatorV3Interface",
          "name": "",
          "type": "address"
        }
      ],
      "stateMutability": "view",
      "type": "function"
    },
    {
      "inputs": [],
      "name": "tronPrice",
      "outputs": [
        {
          "internalType": "int256",
          "name": "",
          "type": "int256"
        }
      ],
      "stateMutability": "view",
      "type": "function"
    },
    {
      "inputs": [],
      "name": "updatePrice",
      "outputs": [
        {
          "internalType": "int256",
          "name": "",
          "type": "int256"
        }
      ],
      "stateMutability": "nonpayable",
      "type": "function"
    },
    {
      "inputs": [],
      "name": "xrpOracle",
      "outputs": [
        {
          "internalType": "contract AggregatorV3Interface",
          "name": "",
          "type": "address"
        }
      ],
      "stateMutability": "view",
      "type": "function"
    },
    {
      "inputs": [],
      "name": "xrpPrice",
      "outputs": [
        {
          "internalType": "int256",
          "name": "",
          "type": "int256"
        }
      ],
      "stateMutability": "view",
      "type": "function"
    },
    {
      "inputs": [
        {
          "internalType": "uint256",
          "name": "newMaxUpdateIntervalSeconds",
          "type": "uint256"
        }
      ],
      "name": "setMaxUpdateInterval",
      "outputs": [],
      "stateMutability": "nonpayable",
      "type": "function"
    }
  ],
  "bytecode": "0x608060405234801561001057600080fd5b50604051610a9f380380610a9f83398101604081905261002f91610298565b600080546001600160a01b038088166001600160a01b03199283161790925560058054838816908316179055600680548387169083161790556007805492851692909116919091179055848484846100856100ab565b6004556003556002555050670de0b6b3a764000060015550506009555061034492505050565b600080600080600560009054906101000a90046001600160a01b03166001600160a01b031663feaf968c6040518163ffffffff1660e01b815260040160a06040518083038186803b1580156100ff57600080fd5b505afa158015610113573d6000803e3d6000fd5b505050506040513d601f19601f8201168201806040525081019061013791906102f5565b5050509150506000600660009054906101000a90046001600160a01b03166001600160a01b031663feaf968c6040518163ffffffff1660e01b815260040160a06040518083038186803b15801561018d57600080fd5b505afa1580156101a1573d6000803e3d6000fd5b505050506040513d601f19601f820116820180604052508101906101c591906102f5565b5050509150506000600760009054906101000a90046001600160a01b03166001600160a01b031663feaf968c6040518163ffffffff1660e01b815260040160a06040518083038186803b15801561021b57600080fd5b505afa15801561022f573d6000803e3d6000fd5b505050506040513d601f19601f8201168201806040525081019061025391906102f5565b50959850939650945050505050909192565b80516001600160a01b038116811461027c57600080fd5b919050565b80516001600160501b038116811461027c57600080fd5b600080600080600060a086880312156102af578081fd5b6102b886610265565b94506102c660208701610265565b93506102d460408701610265565b92506102e260608701610265565b9150608086015190509295509295909350565b600080600080600060a0868803121561030c578081fd5b61031586610281565b945060208601519350604086015192506060860151915061033860808701610281565b90509295509295909350565b61074c806103536000396000f3fe608060405234801561001057600080fd5b50600436106100b45760003560e01c80635babb132116100715780635babb1321461012e578063673a7e28146101435780638c0d69fe1461014b5780638e15f4731461015e5780638f28397014610166578063f851a44014610179576100b4565b80630b42902e146100b957806310bace8c146100d557806322d84372146100de57806326a16b7f146100e757806339dae8d2146101125780633f37987b1461011b575b600080fd5b6100c260025481565b6040519081526020015b60405180910390f35b6100c260015481565b6100c260035481565b6006546100fa906001600160a01b031681565b6040516001600160a01b0390911681526020016100cc565b6100c260045481565b6007546100fa906001600160a01b031681565b61014161013c366004610526565b61018c565b005b6100c26101a8565b6005546100fa906001600160a01b031681565b6001546100c2565b6101416101743660046104ff565b6101b7565b6000546100fa906001600160a01b031681565b6000546001600160a01b031633146101a357600080fd5b600955565b60006101b26101f0565b905090565b6000546001600160a01b031633146101ce57600080fd5b600080546001600160a01b0319166001600160a01b0392909216919091179055565b600154600090816101ff61025a565b9050808214158061021e57504260095460085461021c91906105ce565b105b15610246576002600a546001610234919061058d565b61023e91906106d6565b600a55426008555b600a54610253908261058d565b9250505090565b6000806000806102686102f6565b92509250925060006729a2241af62c0000610285836004546104b0565b610291856003546104b0565b61029d876002546104b0565b6102a7919061058d565b6102b1919061058d565b6001546102be9190610614565b6102c891906105e6565b6002859055600384905560048390556001549091506102e890829061058d565b600181905594505050505090565b600080600080600560009054906101000a90046001600160a01b03166001600160a01b031663feaf968c6040518163ffffffff1660e01b815260040160a06040518083038186803b15801561034a57600080fd5b505afa15801561035e573d6000803e3d6000fd5b505050506040513d601f19601f82011682018060405250810190610382919061053e565b5050509150506000600660009054906101000a90046001600160a01b03166001600160a01b031663feaf968c6040518163ffffffff1660e01b815260040160a06040518083038186803b1580156103d857600080fd5b505afa1580156103ec573d6000803e3d6000fd5b505050506040513d601f19601f82011682018060405250810190610410919061053e565b5050509150506000600760009054906101000a90046001600160a01b03166001600160a01b031663feaf968c6040518163ffffffff1660e01b815260040160a06040518083038186803b15801561046657600080fd5b505afa15801561047a573d6000803e3d6000fd5b505050506040513d601f19601f8201168201806040525081019061049e919061053e565b50959850939650945050505050909192565b6000816104bd8185610697565b6104cf90670de0b6b3a7640000610614565b6104d991906105e6565b9392505050565b805169ffffffffffffffffffff811681146104fa57600080fd5b919050565b600060208284031215610510578081fd5b81356001600160a01b03811681146104d9578182fd5b600060208284031215610537578081fd5b5035919050565b600080600080600060a08688031215610555578081fd5b61055e866104e0565b9450602086015193506040860151925060608601519150610581608087016104e0565b90509295509295909350565b600080821280156001600160ff1b03849003851316156105af576105af6106ea565b600160ff1b83900384128116156105c8576105c86106ea565b50500190565b600082198211156105e1576105e16106ea565b500190565b6000826105f5576105f5610700565b600160ff1b82146000198414161561060f5761060f6106ea565b500590565b60006001600160ff1b038184138284138082168684048611161561063a5761063a6106ea565b600160ff1b84871282811687830589121615610658576106586106ea565b858712925087820587128484161615610673576106736106ea565b87850587128184161615610689576106896106ea565b505050929093029392505050565b60008083128015600160ff1b8501841216156106b5576106b56106ea565b6001600160ff1b03840183138116156106d0576106d06106ea565b50500390565b6000826106e5576106e5610700565b500790565b634e487b7160e01b600052601160045260246000fd5b634e487b7160e01b600052601260045260246000fdfea2646970667358221220a1afd7476f0991c66b22d83655333c778f4f02cad63edfd7085e96393af0d1bd64736f6c63430008030033",
  "immutableReferences": {},
  "source": "// SPDX-License-Identifier: BUSL-1.1\n\npragma solidity 0.8.3;\n\nimport \"./OracleManagerEthKillerChainlink.sol\";\n\ncontract OracleManagerEthKillerChainlinkTestnet is OracleManagerEthKillerChainlink {\n  uint256 lastUpdate;\n  uint256 maxUpdateIntervalSeconds;\n  int256 forcedPriceAdjustment;\n\n  constructor(\n    address _admin,\n    address _tronOracle,\n    address _eosOracle,\n    address _xrpOracle,\n    uint256 _maxUpdateIntervalSeconds\n  ) OracleManagerEthKillerChainlink(_admin, _tronOracle, _eosOracle, _xrpOracle) {\n    maxUpdateIntervalSeconds = _maxUpdateIntervalSeconds;\n  }\n\n  function setMaxUpdateInterval(uint256 newMaxUpdateIntervalSeconds) external adminOnly {\n    maxUpdateIntervalSeconds = newMaxUpdateIntervalSeconds;\n  }\n\n  function _updatePrice() internal override returns (int256) {\n    int256 previousPrice = indexPrice;\n    int256 latestPrice = super._updatePrice();\n\n    if (previousPrice != latestPrice || lastUpdate + maxUpdateIntervalSeconds < block.timestamp) {\n      forcedPriceAdjustment = (forcedPriceAdjustment + 1) % 2;\n      lastUpdate = block.timestamp;\n    }\n\n    return latestPrice + forcedPriceAdjustment;\n  }\n}\n",
  "sourcePath": "/home/jasoons/Documents/code/monorepo/contracts/contracts/oracles/OracleManagerEthKillerChainlinkTestnet.sol",
  "compiler": {
    "name": "solc",
    "version": "0.8.3+commit.8d00100c.Emscripten.clang"
  },
  "schemaVersion": "3.3.4",
  "updatedAt": "2021-08-04T10:05:24.595Z",
  "networkType": "ethereum",
  "devdoc": {
    "kind": "dev",
    "methods": {},
    "version": 1
  },
  "userdoc": {
    "kind": "user",
    "methods": {
      "changeAdmin(address)": {
        "notice": "MULTISIG ADMIN FUNCTIONS ///////"
      }
    },
    "version": 1
  }
}