{
  "contractName": "OracleManagerChainlink",
  "abi": [
    {
      "inputs": [
        {
          "internalType": "address",
          "name": "_admin",
          "type": "address"
        },
        {
          "internalType": "address",
          "name": "_chainLinkOracle",
          "type": "address"
        }
      ],
      "stateMutability": "nonpayable",
      "type": "constructor"
    },
    {
      "inputs": [],
      "name": "admin",
      "outputs": [
        {
          "internalType": "address",
          "name": "",
          "type": "address"
        }
      ],
      "stateMutability": "view",
      "type": "function"
    },
    {
      "inputs": [],
      "name": "chainlinkOracle",
      "outputs": [
        {
          "internalType": "contract AggregatorV3Interface",
          "name": "",
          "type": "address"
        }
      ],
      "stateMutability": "view",
      "type": "function"
    },
    {
      "inputs": [],
      "name": "oracleDecimals",
      "outputs": [
        {
          "internalType": "uint8",
          "name": "",
          "type": "uint8"
        }
      ],
      "stateMutability": "view",
      "type": "function"
    },
    {
      "inputs": [
        {
          "internalType": "address",
          "name": "_admin",
          "type": "address"
        }
      ],
      "name": "changeAdmin",
      "outputs": [],
      "stateMutability": "nonpayable",
      "type": "function"
    },
    {
      "inputs": [],
      "name": "getLatestPrice",
      "outputs": [
        {
          "internalType": "int256",
          "name": "",
          "type": "int256"
        }
      ],
      "stateMutability": "view",
      "type": "function"
    },
    {
      "inputs": [],
      "name": "updatePrice",
      "outputs": [
        {
          "internalType": "int256",
          "name": "",
          "type": "int256"
        }
      ],
      "stateMutability": "nonpayable",
      "type": "function"
    }
  ],
  "bytecode": "0x608060405234801561001057600080fd5b5060405161044d38038061044d83398101604081905261002f91610108565b600080546001600160a01b038085166001600160a01b0319928316179092556001805492841692909116821790556040805163313ce56760e01b8152905163313ce56791600480820192602092909190829003018186803b15801561009357600080fd5b505afa1580156100a7573d6000803e3d6000fd5b505050506040513d601f19601f820116820180604052508101906100cb919061013a565b600160146101000a81548160ff021916908360ff1602179055505050610162565b80516001600160a01b038116811461010357600080fd5b919050565b6000806040838503121561011a578182fd5b610123836100ec565b9150610131602084016100ec565b90509250929050565b60006020828403121561014b578081fd5b815160ff8116811461015b578182fd5b9392505050565b6102dc806101716000396000f3fe608060405234801561001057600080fd5b50600436106100625760003560e01c8063673a7e28146100675780638e15f473146100675780638f28397014610082578063e68b52e714610097578063ef06e72c146100bd578063f851a440146100e8575b600080fd5b61006f6100fb565b6040519081526020015b60405180910390f35b610095610090366004610229565b61010a565b005b6001546100ab90600160a01b900460ff1681565b60405160ff9091168152602001610079565b6001546100d0906001600160a01b031681565b6040516001600160a01b039091168152602001610079565b6000546100d0906001600160a01b031681565b6000610105610176565b905090565b6000546001600160a01b031633146101545760405162461bcd60e51b81526020600482015260096024820152682737ba1030b236b4b760b91b604482015260640160405180910390fd5b600080546001600160a01b0319166001600160a01b0392909216919091179055565b600080600160009054906101000a90046001600160a01b03166001600160a01b031663feaf968c6040518163ffffffff1660e01b815260040160a06040518083038186803b1580156101c757600080fd5b505afa1580156101db573d6000803e3d6000fd5b505050506040513d601f19601f820116820180604052508101906101ff9190610257565b509194505050505090565b805169ffffffffffffffffffff8116811461022457600080fd5b919050565b60006020828403121561023a578081fd5b81356001600160a01b0381168114610250578182fd5b9392505050565b600080600080600060a0868803121561026e578081fd5b6102778661020a565b945060208601519350604086015192506060860151915061029a6080870161020a565b9050929550929590935056fea26469706673582212201976d35338ddf4a587b269267c52efd061489d9814f80a44b1ee17ccc8191c3e64736f6c63430008030033",
  "immutableReferences": {},
  "source": "// SPDX-License-Identifier: BUSL-1.1\n\npragma solidity 0.8.3;\n\nimport \"../interfaces/IOracleManager.sol\";\nimport \"@chainlink/contracts/src/v0.8/interfaces/AggregatorV3Interface.sol\";\n\n/*\n * Implementation of an OracleManager that fetches prices from a Chainlink aggregate price feed.\n */\ncontract OracleManagerChainlink is IOracleManager {\n  // Admin addresses.\n  address public admin;\n\n  // Global state.\n  AggregatorV3Interface public chainlinkOracle;\n  uint8 public oracleDecimals;\n\n  ////////////////////////////////////\n  /////////// MODIFIERS //////////////\n  ////////////////////////////////////\n\n  modifier adminOnly() {\n    require(msg.sender == admin, \"Not admin\");\n    _;\n  }\n\n  ////////////////////////////////////\n  ///// CONTRACT SET-UP //////////////\n  ////////////////////////////////////\n  constructor(address _admin, address _chainLinkOracle) {\n    admin = _admin;\n    chainlinkOracle = AggregatorV3Interface(_chainLinkOracle);\n    oracleDecimals = chainlinkOracle.decimals();\n  }\n\n  ////////////////////////////////////\n  /// MULTISIG ADMIN FUNCTIONS ///////\n  ////////////////////////////////////\n\n  function changeAdmin(address _admin) external adminOnly {\n    admin = _admin;\n  }\n\n  ////////////////////////////////////\n  ///// IMPLEMENTATION ///////////////\n  ////////////////////////////////////\n  function _getLatestPrice() internal view returns (int256) {\n    (, int256 price, , , ) = chainlinkOracle.latestRoundData();\n    return price;\n  }\n\n  function getLatestPrice() external view override returns (int256) {\n    return _getLatestPrice();\n  }\n\n  function updatePrice() external override returns (int256) {\n    return _getLatestPrice();\n  }\n}\n",
  "sourcePath": "/home/jasoons/Documents/code/monorepo/contracts/contracts/oracles/OracleManagerChainlink.sol",
  "compiler": {
    "name": "solc",
    "version": "0.8.3+commit.8d00100c.Emscripten.clang"
  },
  "schemaVersion": "3.3.4",
  "updatedAt": "2021-08-04T10:05:03.833Z",
  "devdoc": {
    "kind": "dev",
    "methods": {},
    "version": 1
  },
  "userdoc": {
    "kind": "user",
    "methods": {
      "changeAdmin(address)": {
        "notice": "MULTISIG ADMIN FUNCTIONS ///////"
      }
    },
    "version": 1
  }
}