{
  "contractName": "OracleManagerMock",
  "abi": [
    {
      "inputs": [
        {
          "internalType": "address",
          "name": "_admin",
          "type": "address"
        }
      ],
      "stateMutability": "nonpayable",
      "type": "constructor"
    },
    {
      "inputs": [],
      "name": "admin",
      "outputs": [
        {
          "internalType": "address",
          "name": "",
          "type": "address"
        }
      ],
      "stateMutability": "view",
      "type": "function",
      "constant": true
    },
    {
      "inputs": [
        {
          "internalType": "int256",
          "name": "newPrice",
          "type": "int256"
        }
      ],
      "name": "setPrice",
      "outputs": [],
      "stateMutability": "nonpayable",
      "type": "function"
    },
    {
      "inputs": [],
      "name": "updatePrice",
      "outputs": [
        {
          "internalType": "int256",
          "name": "",
          "type": "int256"
        }
      ],
      "stateMutability": "nonpayable",
      "type": "function"
    },
    {
      "inputs": [],
      "name": "getLatestPrice",
      "outputs": [
        {
          "internalType": "int256",
          "name": "",
          "type": "int256"
        }
      ],
      "stateMutability": "view",
      "type": "function",
      "constant": true
    }
  ],
  "bytecode": "0x608060405234801561001057600080fd5b506040516101e13803806101e183398101604081905261002f91610060565b600080546001600160a01b0319166001600160a01b0392909216919091179055670de0b6b3a764000060015561008e565b600060208284031215610071578081fd5b81516001600160a01b0381168114610087578182fd5b9392505050565b6101448061009d6000396000f3fe608060405234801561001057600080fd5b506004361061004c5760003560e01c8063673a7e28146100515780638e15f47314610051578063f7a3080614610067578063f851a4401461007c575b600080fd5b6001546040519081526020015b60405180910390f35b61007a6100753660046100f6565b6100a7565b005b60005461008f906001600160a01b031681565b6040516001600160a01b03909116815260200161005e565b6000546001600160a01b031633146100f15760405162461bcd60e51b81526020600482015260096024820152682737ba1030b236b4b760b91b604482015260640160405180910390fd5b600155565b600060208284031215610107578081fd5b503591905056fea26469706673582212206309cdb8dad2f06441be4df89664537b3432d2d43e2ec83083098f8a365eee5764736f6c63430008030033",
  "immutableReferences": {},
  "source": "// SPDX-License-Identifier: BUSL-1.1\n\npragma solidity 0.8.3;\n\nimport \"../interfaces/IOracleManager.sol\";\n\n/*\n * Mock implementation of an OracleManager with fixed, changeable prices.\n */\ncontract OracleManagerMock is IOracleManager {\n  // Admin contract.\n  address public admin;\n\n  // Global state.\n  int256 currentPrice; // e18\n\n  ////////////////////////////////////\n  /////////// MODIFIERS //////////////\n  ////////////////////////////////////\n\n  modifier adminOnly() {\n    require(msg.sender == admin, \"Not admin\");\n    _;\n  }\n\n  ////////////////////////////////////\n  ///// CONTRACT SET-UP //////////////\n  ////////////////////////////////////\n\n  constructor(address _admin) {\n    admin = _admin;\n\n    // Default to a price of 1.\n    currentPrice = 1e18;\n  }\n\n  ////////////////////////////////////\n  ///// IMPLEMENTATION ///////////////\n  ////////////////////////////////////\n\n  function setPrice(int256 newPrice) public adminOnly {\n    currentPrice = newPrice;\n  }\n\n  function updatePrice() external override returns (int256) {\n    return currentPrice;\n  }\n\n  function getLatestPrice() external view override returns (int256) {\n    return currentPrice;\n  }\n}\n",
  "sourcePath": "/home/jasoons/Documents/code/monorepo/contracts/contracts/mocks/OracleManagerMock.sol",
  "compiler": {
    "name": "solc",
    "version": "0.8.3+commit.8d00100c.Emscripten.clang"
  },
  "schemaVersion": "3.3.4",
  "updatedAt": "2021-08-04T10:05:24.582Z",
  "networkType": "ethereum",
  "devdoc": {
    "kind": "dev",
    "methods": {},
    "version": 1
  },
  "userdoc": {
    "kind": "user",
    "methods": {},
    "version": 1
  }
}