{
  "contractName": "StakerForInternalMocking",
  "abi": [
    {
      "inputs": [],
      "name": "onlyAdminModifierLogicMock",
      "outputs": [],
      "stateMutability": "pure",
      "type": "function"
    },
    {
      "inputs": [
        {
          "internalType": "address",
          "name": "",
          "type": "address"
        }
      ],
      "name": "onlyValidSyntheticModifierLogicMock",
      "outputs": [],
      "stateMutability": "pure",
      "type": "function"
    },
    {
      "inputs": [
        {
          "internalType": "uint32",
          "name": "",
          "type": "uint32"
        }
      ],
      "name": "onlyValidMarketModifierLogicMock",
      "outputs": [],
      "stateMutability": "pure",
      "type": "function"
    },
    {
      "inputs": [],
      "name": "onlyLongShortModifierLogicMock",
      "outputs": [],
      "stateMutability": "pure",
      "type": "function"
    },
    {
      "inputs": [
        {
          "internalType": "address",
          "name": "",
          "type": "address"
        },
        {
          "internalType": "address",
          "name": "",
          "type": "address"
        },
        {
          "internalType": "address",
          "name": "",
          "type": "address"
        },
        {
          "internalType": "address",
          "name": "",
          "type": "address"
        },
        {
          "internalType": "address",
          "name": "",
          "type": "address"
        },
        {
          "internalType": "uint256",
          "name": "",
          "type": "uint256"
        }
      ],
      "name": "initializeMock",
      "outputs": [],
      "stateMutability": "pure",
      "type": "function"
    },
    {
      "inputs": [
        {
          "internalType": "uint256",
          "name": "",
          "type": "uint256"
        }
      ],
      "name": "_changeFloatPercentageMock",
      "outputs": [],
      "stateMutability": "pure",
      "type": "function"
    },
    {
      "inputs": [
        {
          "internalType": "uint32",
          "name": "",
          "type": "uint32"
        },
        {
          "internalType": "uint256",
          "name": "",
          "type": "uint256"
        }
      ],
      "name": "_changeUnstakeFeeMock",
      "outputs": [],
      "stateMutability": "pure",
      "type": "function"
    },
    {
      "inputs": [
        {
          "internalType": "uint32",
          "name": "",
          "type": "uint32"
        },
        {
          "internalType": "uint256",
          "name": "",
          "type": "uint256"
        },
        {
          "internalType": "uint256",
          "name": "",
          "type": "uint256"
        }
      ],
      "name": "_changeMarketLaunchIncentiveParametersMock",
      "outputs": [],
      "stateMutability": "pure",
      "type": "function"
    },
    {
      "inputs": [
        {
          "internalType": "uint32",
          "name": "",
          "type": "uint32"
        },
        {
          "internalType": "uint256",
          "name": "",
          "type": "uint256"
        }
      ],
      "name": "_changeBalanceIncentiveExponentMock",
      "outputs": [],
      "stateMutability": "pure",
      "type": "function"
    },
    {
      "inputs": [
        {
          "internalType": "uint32",
          "name": "",
          "type": "uint32"
        },
        {
          "internalType": "int256",
          "name": "",
          "type": "int256"
        }
      ],
      "name": "_changeBalanceIncentiveEquilibriumOffsetMock",
      "outputs": [],
      "stateMutability": "pure",
      "type": "function"
    },
    {
      "inputs": [
        {
          "internalType": "uint32",
          "name": "",
          "type": "uint32"
        }
      ],
      "name": "_getMarketLaunchIncentiveParametersMock",
      "outputs": [
        {
          "internalType": "uint256",
          "name": "",
          "type": "uint256"
        },
        {
          "internalType": "uint256",
          "name": "",
          "type": "uint256"
        }
      ],
      "stateMutability": "pure",
      "type": "function"
    },
    {
      "inputs": [
        {
          "internalType": "uint32",
          "name": "",
          "type": "uint32"
        }
      ],
      "name": "_getKValueMock",
      "outputs": [
        {
          "internalType": "uint256",
          "name": "",
          "type": "uint256"
        }
      ],
      "stateMutability": "pure",
      "type": "function"
    },
    {
      "inputs": [
        {
          "internalType": "uint32",
          "name": "",
          "type": "uint32"
        },
        {
          "internalType": "uint256",
          "name": "",
          "type": "uint256"
        },
        {
          "internalType": "uint256",
          "name": "",
          "type": "uint256"
        },
        {
          "internalType": "uint256",
          "name": "",
          "type": "uint256"
        },
        {
          "internalType": "uint256",
          "name": "",
          "type": "uint256"
        }
      ],
      "name": "_calculateFloatPerSecondMock",
      "outputs": [
        {
          "internalType": "uint256",
          "name": "longFloatPerSecond",
          "type": "uint256"
        },
        {
          "internalType": "uint256",
          "name": "shortFloatPerSecond",
          "type": "uint256"
        }
      ],
      "stateMutability": "pure",
      "type": "function"
    },
    {
      "inputs": [
        {
          "internalType": "uint32",
          "name": "",
          "type": "uint32"
        }
      ],
      "name": "_calculateTimeDeltaFromLastAccumulativeIssuancePerStakedSynthSnapshotMock",
      "outputs": [
        {
          "internalType": "uint256",
          "name": "",
          "type": "uint256"
        }
      ],
      "stateMutability": "pure",
      "type": "function"
    },
    {
      "inputs": [
        {
          "internalType": "uint32",
          "name": "",
          "type": "uint32"
        },
        {
          "internalType": "uint256",
          "name": "",
          "type": "uint256"
        },
        {
          "internalType": "uint256",
          "name": "",
          "type": "uint256"
        },
        {
          "internalType": "uint256",
          "name": "",
          "type": "uint256"
        },
        {
          "internalType": "uint256",
          "name": "",
          "type": "uint256"
        }
      ],
      "name": "_calculateNewCumulativeIssuancePerStakedSynthMock",
      "outputs": [
        {
          "internalType": "uint256",
          "name": "longCumulativeRates",
          "type": "uint256"
        },
        {
          "internalType": "uint256",
          "name": "shortCumulativeRates",
          "type": "uint256"
        }
      ],
      "stateMutability": "pure",
      "type": "function"
    },
    {
      "inputs": [
        {
          "internalType": "uint32",
          "name": "",
          "type": "uint32"
        },
        {
          "internalType": "uint256",
          "name": "",
          "type": "uint256"
        },
        {
          "internalType": "uint256",
          "name": "",
          "type": "uint256"
        },
        {
          "internalType": "uint256",
          "name": "",
          "type": "uint256"
        },
        {
          "internalType": "uint256",
          "name": "",
          "type": "uint256"
        }
      ],
      "name": "_setCurrentAccumulativeIssuancePerStakeStakedSynthSnapshotMock",
      "outputs": [],
      "stateMutability": "pure",
      "type": "function"
    },
    {
      "inputs": [
        {
          "internalType": "uint32",
          "name": "",
          "type": "uint32"
        },
        {
          "internalType": "uint256",
          "name": "",
          "type": "uint256"
        },
        {
          "internalType": "uint256",
          "name": "",
          "type": "uint256"
        },
        {
          "internalType": "uint256",
          "name": "",
          "type": "uint256"
        },
        {
          "internalType": "uint256",
          "name": "",
          "type": "uint256"
        }
      ],
      "name": "_calculateAccumulatedFloatInRangeMock",
      "outputs": [
        {
          "internalType": "uint256",
          "name": "floatReward",
          "type": "uint256"
        }
      ],
      "stateMutability": "pure",
      "type": "function"
    },
    {
      "inputs": [
        {
          "internalType": "uint32",
          "name": "",
          "type": "uint32"
        },
        {
          "internalType": "address",
          "name": "",
          "type": "address"
        }
      ],
      "name": "_calculateAccumulatedFloatMock",
      "outputs": [
        {
          "internalType": "uint256",
          "name": "floatReward",
          "type": "uint256"
        }
      ],
      "stateMutability": "pure",
      "type": "function"
    },
    {
      "inputs": [
        {
          "internalType": "address",
          "name": "",
          "type": "address"
        },
        {
          "internalType": "uint256",
          "name": "",
          "type": "uint256"
        }
      ],
      "name": "_mintFloatMock",
      "outputs": [],
      "stateMutability": "pure",
      "type": "function"
    },
    {
      "inputs": [
        {
          "internalType": "uint32",
          "name": "",
          "type": "uint32"
        },
        {
          "internalType": "address",
          "name": "",
          "type": "address"
        }
      ],
      "name": "_mintAccumulatedFloatMock",
      "outputs": [],
      "stateMutability": "pure",
      "type": "function"
    },
    {
      "inputs": [
        {
          "internalType": "uint32[]",
          "name": "",
          "type": "uint32[]"
        },
        {
          "internalType": "address",
          "name": "",
          "type": "address"
        }
      ],
      "name": "_mintAccumulatedFloatMultiMock",
      "outputs": [],
      "stateMutability": "pure",
      "type": "function"
    },
    {
      "inputs": [
        {
          "internalType": "address",
          "name": "",
          "type": "address"
        },
        {
          "internalType": "uint256",
          "name": "",
          "type": "uint256"
        }
      ],
      "name": "stakeFromUserMock",
      "outputs": [],
      "stateMutability": "pure",
      "type": "function"
    },
    {
      "inputs": [
        {
          "internalType": "address",
          "name": "",
          "type": "address"
        },
        {
          "internalType": "uint256",
          "name": "",
          "type": "uint256"
        },
        {
          "internalType": "address",
          "name": "",
          "type": "address"
        }
      ],
      "name": "_stakeMock",
      "outputs": [],
      "stateMutability": "pure",
      "type": "function"
    },
    {
      "inputs": [
        {
          "internalType": "uint256",
          "name": "",
          "type": "uint256"
        },
        {
          "internalType": "uint32",
          "name": "",
          "type": "uint32"
        },
        {
          "internalType": "bool",
          "name": "",
          "type": "bool"
        }
      ],
      "name": "shiftTokensMock",
      "outputs": [],
      "stateMutability": "pure",
      "type": "function"
    },
    {
      "inputs": [
        {
          "internalType": "address",
          "name": "",
          "type": "address"
        },
        {
          "internalType": "uint256",
          "name": "",
          "type": "uint256"
        }
      ],
      "name": "_withdrawMock",
      "outputs": [],
      "stateMutability": "pure",
      "type": "function"
    }
  ],
  "bytecode": "0x608060405234801561001057600080fd5b50610749806100206000396000f3fe608060405234801561001057600080fd5b50600436106101735760003560e01c8063c0a38179116100de578063e228b2fa11610097578063e9c7ee1811610071578063e9c7ee181461029f578063ecec9496146102ad578063ed3d0c1b1461027e578063f08d5aca146102bb57610173565b8063e228b2fa1461026b578063e69ba1071461027e578063e92364be1461029157610173565b8063c0a3817914610221578063c6b4766d14610237578063c73fe557146101b8578063cd1a7b2714610248578063cfe7f966146101ca578063e0837e6f1461025657610173565b80635b5a1a8c116101305780635b5a1a8c146101b857806366a9e7c2146101d85780636b2c5c69146101ca5780639dd912f9146101eb578063b33749d7146101d8578063beea77201461021357610173565b806301af204f146101785780631b2614341461018d5780631e3bede5146101925780632de9dac8146101b857806343500c4e1461018d57806347e415f7146101ca575b600080fd5b61018b61018636600461049c565b505050565b005b61018b565b6101a56101a036600461063d565b6102c9565b6040519081526020015b60405180910390f35b61018b6101c6366004610473565b5050565b61018b6101c636600461066f565b6101a56101e6366004610623565b6102ed565b6101fe6101f9366004610623565b610312565b604080519283526020830191909152016101af565b61018b6101c636600461063d565b61018b61022f366004610407565b505050505050565b61018b6102453660046103ed565b50565b61018b6102453660046105b0565b61018b6102643660046106bc565b5050505050565b6101a56102793660046106bc565b610354565b6101fe61028c3660046106bc565b61037b565b61018b6101c63660046104d7565b61018b6101863660046105e0565b61018b61018636600461068a565b61018b610245366004610623565b604080516020810191829052600090819052906102e690806105c8565b9392505050565b6040805160208101918290526000908190529061030a90806105c8565b90505b919050565b60408051602081019182905260009081905290819061033190806105c8565b6040805160208101918290526000905261034b90806105c8565b91509150915091565b6040805160208101918290526000908190529061037190806105c8565b9695505050505050565b60408051602081019182905260009081905290819061039a90806105c8565b604080516020810191829052600090526103b490806105c8565b915091509550959350505050565b80356001600160a01b038116811461030d57600080fd5b803563ffffffff8116811461030d57600080fd5b6000602082840312156103fe578081fd5b6102e6826103c2565b60008060008060008060c0878903121561041f578182fd5b610428876103c2565b9550610436602088016103c2565b9450610444604088016103c2565b9350610452606088016103c2565b9250610460608088016103c2565b915060a087013590509295509295509295565b60008060408385031215610485578182fd5b61048e836103c2565b946020939093013593505050565b6000806000606084860312156104b0578283fd5b6104b9846103c2565b9250602084013591506104ce604085016103c2565b90509250925092565b600080604083850312156104e9578182fd5b823567ffffffffffffffff80821115610500578384fd5b818501915085601f830112610513578384fd5b8135602082821115610527576105276106fd565b8160051b604051601f19603f8301168101818110868211171561054c5761054c6106fd565b604052838152828101945085830182870184018b101561056a578889fd5b8896505b848710156105935761057f816103d9565b86526001969096019594830194830161056e565b5096506105a390508782016103c2565b9450505050509250929050565b6000602082840312156105c1578081fd5b5035919050565b6000602082840312156105d9578081fd5b5051919050565b6000806000606084860312156105f4578283fd5b83359250610604602085016103d9565b915060408401358015158114610618578182fd5b809150509250925092565b600060208284031215610634578081fd5b6102e6826103d9565b6000806040838503121561064f578182fd5b610658836103d9565b9150610666602084016103c2565b90509250929050565b60008060408385031215610681578182fd5b61048e836103d9565b60008060006060848603121561069e578283fd5b6106a7846103d9565b95602085013595506040909401359392505050565b600080600080600060a086880312156106d3578283fd5b6106dc866103d9565b97602087013597506040870135966060810135965060800135945092505050565b634e487b7160e01b600052604160045260246000fdfea264697066735822122031bc6bd5889da96f8a009ea212969f5020990bd5e79cf9430c845a7ce8416aec64736f6c63430008030033",
  "immutableReferences": {},
  "source": "// SPDX-License-Identifier: BUSL-1.1\npragma solidity 0.8.3;\n\nimport \"./StakerMockable.sol\";\n\nimport \"@openzeppelin/contracts-upgradeable/token/ERC20/presets/ERC20PresetMinterPauserUpgradeable.sol\";\nimport \"../../interfaces/IFloatToken.sol\";\nimport \"../../interfaces/ILongShort.sol\";\nimport \"../../interfaces/IStaker.sol\";\nimport \"../../interfaces/ISyntheticToken.sol\";\n\ncontract StakerForInternalMocking {\n  function onlyAdminModifierLogicMock() public pure {\n    return ();\n  }\n\n  function onlyValidSyntheticModifierLogicMock(address) public pure {\n    return ();\n  }\n\n  function onlyValidMarketModifierLogicMock(uint32) public pure {\n    return ();\n  }\n\n  function onlyLongShortModifierLogicMock() public pure {\n    return ();\n  }\n\n  function initializeMock(\n    address,\n    address,\n    address,\n    address,\n    address,\n    uint256\n  ) public pure {\n    return ();\n  }\n\n  function _changeFloatPercentageMock(uint256) public pure {\n    return ();\n  }\n\n  function _changeUnstakeFeeMock(uint32, uint256) public pure {\n    return ();\n  }\n\n  function _changeMarketLaunchIncentiveParametersMock(\n    uint32,\n    uint256,\n    uint256\n  ) public pure {\n    return ();\n  }\n\n  function _changeBalanceIncentiveExponentMock(uint32, uint256) public pure {\n    return ();\n  }\n\n  function _changeBalanceIncentiveEquilibriumOffsetMock(uint32, int256) public pure {\n    return ();\n  }\n\n  function _getMarketLaunchIncentiveParametersMock(uint32) public pure returns (uint256, uint256) {\n    return (abi.decode(\"\", (uint256)), abi.decode(\"\", (uint256)));\n  }\n\n  function _getKValueMock(uint32) public pure returns (uint256) {\n    return (abi.decode(\"\", (uint256)));\n  }\n\n  function _calculateFloatPerSecondMock(\n    uint32,\n    uint256,\n    uint256,\n    uint256,\n    uint256\n  ) public pure returns (uint256 longFloatPerSecond, uint256 shortFloatPerSecond) {\n    return (abi.decode(\"\", (uint256)), abi.decode(\"\", (uint256)));\n  }\n\n  function _calculateTimeDeltaFromLastAccumulativeIssuancePerStakedSynthSnapshotMock(uint32)\n    public\n    pure\n    returns (uint256)\n  {\n    return (abi.decode(\"\", (uint256)));\n  }\n\n  function _calculateNewCumulativeIssuancePerStakedSynthMock(\n    uint32,\n    uint256,\n    uint256,\n    uint256,\n    uint256\n  ) public pure returns (uint256 longCumulativeRates, uint256 shortCumulativeRates) {\n    return (abi.decode(\"\", (uint256)), abi.decode(\"\", (uint256)));\n  }\n\n  function _setCurrentAccumulativeIssuancePerStakeStakedSynthSnapshotMock(\n    uint32,\n    uint256,\n    uint256,\n    uint256,\n    uint256\n  ) public pure {\n    return ();\n  }\n\n  function _calculateAccumulatedFloatInRangeMock(\n    uint32,\n    uint256,\n    uint256,\n    uint256,\n    uint256\n  ) public pure returns (uint256 floatReward) {\n    return (abi.decode(\"\", (uint256)));\n  }\n\n  function _calculateAccumulatedFloatMock(uint32, address)\n    public\n    pure\n    returns (uint256 floatReward)\n  {\n    return (abi.decode(\"\", (uint256)));\n  }\n\n  function _mintFloatMock(address, uint256) public pure {\n    return ();\n  }\n\n  function _mintAccumulatedFloatMock(uint32, address) public pure {\n    return ();\n  }\n\n  function _mintAccumulatedFloatMultiMock(uint32[] memory, address) public pure {\n    return ();\n  }\n\n  function stakeFromUserMock(address, uint256) public pure {\n    return ();\n  }\n\n  function _stakeMock(\n    address,\n    uint256,\n    address\n  ) public pure {\n    return ();\n  }\n\n  function shiftTokensMock(\n    uint256,\n    uint32,\n    bool\n  ) public pure {\n    return ();\n  }\n\n  function _withdrawMock(address, uint256) public pure {\n    return ();\n  }\n}\n",
  "sourcePath": "/home/jasoons/Documents/code/monorepo/contracts/contracts/testing/generated/StakerForInternalMocking.sol",
  "compiler": {
    "name": "solc",
    "version": "0.8.3+commit.8d00100c.Emscripten.clang"
  },
  "schemaVersion": "3.3.4",
  "updatedAt": "2021-08-04T10:05:03.922Z",
  "devdoc": {
    "kind": "dev",
    "methods": {},
    "version": 1
  },
  "userdoc": {
    "kind": "user",
    "methods": {},
    "version": 1
  }
}