{
  "contractName": "StakerMockable",
  "abi": [
    {
      "anonymous": false,
      "inputs": [
        {
          "indexed": false,
          "internalType": "uint32",
          "name": "marketIndex",
          "type": "uint32"
        },
        {
          "indexed": false,
          "internalType": "uint256",
          "name": "accumulativeFloatIssuanceSnapshotIndex",
          "type": "uint256"
        },
        {
          "indexed": false,
          "internalType": "uint256",
          "name": "accumulativeLong",
          "type": "uint256"
        },
        {
          "indexed": false,
          "internalType": "uint256",
          "name": "accumulativeShort",
          "type": "uint256"
        }
      ],
      "name": "AccumulativeIssuancePerStakedSynthSnapshotCreated",
      "type": "event"
    },
    {
      "anonymous": false,
      "inputs": [
        {
          "indexed": false,
          "internalType": "uint32",
          "name": "marketIndex",
          "type": "uint32"
        },
        {
          "indexed": false,
          "internalType": "int256",
          "name": "balanceIncentiveEquilibriumOffset",
          "type": "int256"
        }
      ],
      "name": "BalanceIncentiveEquilibriumOffsetUpdated",
      "type": "event"
    },
    {
      "anonymous": false,
      "inputs": [
        {
          "indexed": false,
          "internalType": "uint32",
          "name": "marketIndex",
          "type": "uint32"
        },
        {
          "indexed": false,
          "internalType": "uint256",
          "name": "balanceIncentiveExponent",
          "type": "uint256"
        }
      ],
      "name": "BalanceIncentiveExponentUpdated",
      "type": "event"
    },
    {
      "anonymous": false,
      "inputs": [
        {
          "indexed": false,
          "internalType": "address",
          "name": "newAdmin",
          "type": "address"
        }
      ],
      "name": "ChangeAdmin",
      "type": "event"
    },
    {
      "anonymous": false,
      "inputs": [
        {
          "indexed": false,
          "internalType": "address",
          "name": "user",
          "type": "address"
        },
        {
          "indexed": false,
          "internalType": "uint32",
          "name": "marketIndex",
          "type": "uint32"
        },
        {
          "indexed": false,
          "internalType": "uint256",
          "name": "amountFloatMinted",
          "type": "uint256"
        }
      ],
      "name": "FloatMinted",
      "type": "event"
    },
    {
      "anonymous": false,
      "inputs": [
        {
          "indexed": false,
          "internalType": "uint256",
          "name": "floatPercentage",
          "type": "uint256"
        }
      ],
      "name": "FloatPercentageUpdated",
      "type": "event"
    },
    {
      "anonymous": false,
      "inputs": [
        {
          "indexed": false,
          "internalType": "uint32",
          "name": "marketIndex",
          "type": "uint32"
        },
        {
          "indexed": false,
          "internalType": "uint256",
          "name": "exitFee_e18",
          "type": "uint256"
        },
        {
          "indexed": false,
          "internalType": "uint256",
          "name": "period",
          "type": "uint256"
        },
        {
          "indexed": false,
          "internalType": "uint256",
          "name": "multiplier",
          "type": "uint256"
        },
        {
          "indexed": false,
          "internalType": "uint256",
          "name": "balanceIncentiveExponent",
          "type": "uint256"
        },
        {
          "indexed": false,
          "internalType": "int256",
          "name": "balanceIncentiveEquilibriumOffset",
          "type": "int256"
        }
      ],
      "name": "MarketAddedToStaker",
      "type": "event"
    },
    {
      "anonymous": false,
      "inputs": [
        {
          "indexed": false,
          "internalType": "uint32",
          "name": "marketIndex",
          "type": "uint32"
        },
        {
          "indexed": false,
          "internalType": "uint256",
          "name": "period",
          "type": "uint256"
        },
        {
          "indexed": false,
          "internalType": "uint256",
          "name": "multiplier",
          "type": "uint256"
        }
      ],
      "name": "MarketLaunchIncentiveParametersChanges",
      "type": "event"
    },
    {
      "anonymous": false,
      "inputs": [
        {
          "indexed": false,
          "internalType": "address",
          "name": "user",
          "type": "address"
        },
        {
          "indexed": false,
          "internalType": "address",
          "name": "token",
          "type": "address"
        },
        {
          "indexed": false,
          "internalType": "uint256",
          "name": "amount",
          "type": "uint256"
        },
        {
          "indexed": false,
          "internalType": "uint256",
          "name": "lastMintIndex",
          "type": "uint256"
        }
      ],
      "name": "StakeAdded",
      "type": "event"
    },
    {
      "anonymous": false,
      "inputs": [
        {
          "indexed": false,
          "internalType": "uint32",
          "name": "marketIndex",
          "type": "uint32"
        },
        {
          "indexed": false,
          "internalType": "uint256",
          "name": "stakeWithdralFee",
          "type": "uint256"
        }
      ],
      "name": "StakeWithdrawalFeeUpdated",
      "type": "event"
    },
    {
      "anonymous": false,
      "inputs": [
        {
          "indexed": false,
          "internalType": "address",
          "name": "user",
          "type": "address"
        },
        {
          "indexed": false,
          "internalType": "address",
          "name": "token",
          "type": "address"
        },
        {
          "indexed": false,
          "internalType": "uint256",
          "name": "amount",
          "type": "uint256"
        }
      ],
      "name": "StakeWithdrawn",
      "type": "event"
    },
    {
      "anonymous": false,
      "inputs": [
        {
          "indexed": false,
          "internalType": "address",
          "name": "admin",
          "type": "address"
        },
        {
          "indexed": false,
          "internalType": "address",
          "name": "floatTreasury",
          "type": "address"
        },
        {
          "indexed": false,
          "internalType": "address",
          "name": "floatCapital",
          "type": "address"
        },
        {
          "indexed": false,
          "internalType": "address",
          "name": "floatToken",
          "type": "address"
        },
        {
          "indexed": false,
          "internalType": "uint256",
          "name": "floatPercentage",
          "type": "uint256"
        }
      ],
      "name": "StakerV1",
      "type": "event"
    },
    {
      "anonymous": false,
      "inputs": [],
      "name": "SyntheticTokensShifted",
      "type": "event"
    },
    {
      "inputs": [],
      "name": "FLOAT_ISSUANCE_FIXED_DECIMAL",
      "outputs": [
        {
          "internalType": "uint256",
          "name": "",
          "type": "uint256"
        }
      ],
      "stateMutability": "view",
      "type": "function"
    },
    {
      "inputs": [
        {
          "internalType": "uint32",
          "name": "",
          "type": "uint32"
        },
        {
          "internalType": "uint256",
          "name": "",
          "type": "uint256"
        }
      ],
      "name": "accumulativeFloatPerSyntheticTokenSnapshots",
      "outputs": [
        {
          "internalType": "uint256",
          "name": "timestamp",
          "type": "uint256"
        },
        {
          "internalType": "uint256",
          "name": "accumulativeFloatPerSyntheticToken_long",
          "type": "uint256"
        },
        {
          "internalType": "uint256",
          "name": "accumulativeFloatPerSyntheticToken_short",
          "type": "uint256"
        }
      ],
      "stateMutability": "view",
      "type": "function"
    },
    {
      "inputs": [
        {
          "internalType": "uint32",
          "name": "marketIndex",
          "type": "uint32"
        },
        {
          "internalType": "address",
          "name": "longToken",
          "type": "address"
        },
        {
          "internalType": "address",
          "name": "shortToken",
          "type": "address"
        },
        {
          "internalType": "uint256",
          "name": "kInitialMultiplier",
          "type": "uint256"
        },
        {
          "internalType": "uint256",
          "name": "kPeriod",
          "type": "uint256"
        },
        {
          "internalType": "uint256",
          "name": "unstakeFee_e18",
          "type": "uint256"
        },
        {
          "internalType": "uint256",
          "name": "_balanceIncentiveCurve_exponent",
          "type": "uint256"
        },
        {
          "internalType": "int256",
          "name": "_balanceIncentiveCurve_equilibriumOffset",
          "type": "int256"
        }
      ],
      "name": "addNewStakingFund",
      "outputs": [],
      "stateMutability": "nonpayable",
      "type": "function"
    },
    {
      "inputs": [],
      "name": "admin",
      "outputs": [
        {
          "internalType": "address",
          "name": "",
          "type": "address"
        }
      ],
      "stateMutability": "view",
      "type": "function"
    },
    {
      "inputs": [
        {
          "internalType": "uint32",
          "name": "",
          "type": "uint32"
        }
      ],
      "name": "balanceIncentiveCurve_equilibriumOffset",
      "outputs": [
        {
          "internalType": "int256",
          "name": "",
          "type": "int256"
        }
      ],
      "stateMutability": "view",
      "type": "function"
    },
    {
      "inputs": [
        {
          "internalType": "uint32",
          "name": "",
          "type": "uint32"
        }
      ],
      "name": "balanceIncentiveCurve_exponent",
      "outputs": [
        {
          "internalType": "uint256",
          "name": "",
          "type": "uint256"
        }
      ],
      "stateMutability": "view",
      "type": "function"
    },
    {
      "inputs": [
        {
          "internalType": "uint32",
          "name": "",
          "type": "uint32"
        }
      ],
      "name": "batched_stakerNextTokenShiftIndex",
      "outputs": [
        {
          "internalType": "uint256",
          "name": "",
          "type": "uint256"
        }
      ],
      "stateMutability": "view",
      "type": "function"
    },
    {
      "inputs": [
        {
          "internalType": "address",
          "name": "_admin",
          "type": "address"
        }
      ],
      "name": "changeAdmin",
      "outputs": [],
      "stateMutability": "nonpayable",
      "type": "function"
    },
    {
      "inputs": [
        {
          "internalType": "uint32",
          "name": "marketIndex",
          "type": "uint32"
        },
        {
          "internalType": "int256",
          "name": "_balanceIncentiveCurve_equilibriumOffset",
          "type": "int256"
        }
      ],
      "name": "changeBalanceIncentiveEquilibriumOffset",
      "outputs": [],
      "stateMutability": "nonpayable",
      "type": "function"
    },
    {
      "inputs": [
        {
          "internalType": "uint32",
          "name": "marketIndex",
          "type": "uint32"
        },
        {
          "internalType": "uint256",
          "name": "_balanceIncentiveCurve_exponent",
          "type": "uint256"
        }
      ],
      "name": "changeBalanceIncentiveExponent",
      "outputs": [],
      "stateMutability": "nonpayable",
      "type": "function"
    },
    {
      "inputs": [
        {
          "internalType": "uint256",
          "name": "newFloatPercentage",
          "type": "uint256"
        }
      ],
      "name": "changeFloatPercentage",
      "outputs": [],
      "stateMutability": "nonpayable",
      "type": "function"
    },
    {
      "inputs": [
        {
          "internalType": "uint32",
          "name": "marketIndex",
          "type": "uint32"
        },
        {
          "internalType": "uint256",
          "name": "period",
          "type": "uint256"
        },
        {
          "internalType": "uint256",
          "name": "initialMultiplier",
          "type": "uint256"
        }
      ],
      "name": "changeMarketLaunchIncentiveParameters",
      "outputs": [],
      "stateMutability": "nonpayable",
      "type": "function"
    },
    {
      "inputs": [
        {
          "internalType": "uint32",
          "name": "marketIndex",
          "type": "uint32"
        },
        {
          "internalType": "uint256",
          "name": "newMarketUnstakeFee_e18",
          "type": "uint256"
        }
      ],
      "name": "changeUnstakeFee",
      "outputs": [],
      "stateMutability": "nonpayable",
      "type": "function"
    },
    {
      "inputs": [
        {
          "internalType": "uint32[]",
          "name": "marketIndexes",
          "type": "uint32[]"
        }
      ],
      "name": "claimFloatCustom",
      "outputs": [],
      "stateMutability": "nonpayable",
      "type": "function"
    },
    {
      "inputs": [
        {
          "internalType": "uint32[]",
          "name": "marketIndexes",
          "type": "uint32[]"
        },
        {
          "internalType": "address",
          "name": "user",
          "type": "address"
        }
      ],
      "name": "claimFloatCustomFor",
      "outputs": [],
      "stateMutability": "nonpayable",
      "type": "function"
    },
    {
      "inputs": [],
      "name": "floatCapital",
      "outputs": [
        {
          "internalType": "address",
          "name": "",
          "type": "address"
        }
      ],
      "stateMutability": "view",
      "type": "function"
    },
    {
      "inputs": [],
      "name": "floatPercentage",
      "outputs": [
        {
          "internalType": "uint256",
          "name": "",
          "type": "uint256"
        }
      ],
      "stateMutability": "view",
      "type": "function"
    },
    {
      "inputs": [],
      "name": "floatToken",
      "outputs": [
        {
          "internalType": "address",
          "name": "",
          "type": "address"
        }
      ],
      "stateMutability": "view",
      "type": "function"
    },
    {
      "inputs": [],
      "name": "floatTreasury",
      "outputs": [
        {
          "internalType": "address",
          "name": "",
          "type": "address"
        }
      ],
      "stateMutability": "view",
      "type": "function"
    },
    {
      "inputs": [
        {
          "internalType": "uint256",
          "name": "number",
          "type": "uint256"
        },
        {
          "internalType": "uint256",
          "name": "exponent",
          "type": "uint256"
        }
      ],
      "name": "getRequiredAmountOfBitShiftForSafeExponentiationPerfect",
      "outputs": [
        {
          "internalType": "uint256",
          "name": "amountOfBitShiftRequired",
          "type": "uint256"
        }
      ],
      "stateMutability": "pure",
      "type": "function"
    },
    {
      "inputs": [
        {
          "internalType": "address",
          "name": "_admin",
          "type": "address"
        },
        {
          "internalType": "address",
          "name": "_longShort",
          "type": "address"
        },
        {
          "internalType": "address",
          "name": "_floatToken",
          "type": "address"
        },
        {
          "internalType": "address",
          "name": "_floatTreasury",
          "type": "address"
        },
        {
          "internalType": "address",
          "name": "_floatCapital",
          "type": "address"
        },
        {
          "internalType": "uint256",
          "name": "_floatPercentage",
          "type": "uint256"
        }
      ],
      "name": "initialize",
      "outputs": [],
      "stateMutability": "nonpayable",
      "type": "function"
    },
    {
      "inputs": [
        {
          "internalType": "uint32",
          "name": "",
          "type": "uint32"
        }
      ],
      "name": "latestRewardIndex",
      "outputs": [
        {
          "internalType": "uint256",
          "name": "",
          "type": "uint256"
        }
      ],
      "stateMutability": "view",
      "type": "function"
    },
    {
      "inputs": [],
      "name": "longShort",
      "outputs": [
        {
          "internalType": "address",
          "name": "",
          "type": "address"
        }
      ],
      "stateMutability": "view",
      "type": "function"
    },
    {
      "inputs": [
        {
          "internalType": "address",
          "name": "",
          "type": "address"
        }
      ],
      "name": "marketIndexOfToken",
      "outputs": [
        {
          "internalType": "uint32",
          "name": "",
          "type": "uint32"
        }
      ],
      "stateMutability": "view",
      "type": "function"
    },
    {
      "inputs": [
        {
          "internalType": "uint32",
          "name": "",
          "type": "uint32"
        }
      ],
      "name": "marketLaunchIncentive_multipliers",
      "outputs": [
        {
          "internalType": "uint256",
          "name": "",
          "type": "uint256"
        }
      ],
      "stateMutability": "view",
      "type": "function"
    },
    {
      "inputs": [
        {
          "internalType": "uint32",
          "name": "",
          "type": "uint32"
        }
      ],
      "name": "marketLaunchIncentive_period",
      "outputs": [
        {
          "internalType": "uint256",
          "name": "",
          "type": "uint256"
        }
      ],
      "stateMutability": "view",
      "type": "function"
    },
    {
      "inputs": [
        {
          "internalType": "uint32",
          "name": "",
          "type": "uint32"
        }
      ],
      "name": "marketUnstakeFee_e18",
      "outputs": [
        {
          "internalType": "uint256",
          "name": "",
          "type": "uint256"
        }
      ],
      "stateMutability": "view",
      "type": "function"
    },
    {
      "inputs": [
        {
          "internalType": "uint32",
          "name": "marketIndex",
          "type": "uint32"
        },
        {
          "internalType": "uint256",
          "name": "longPrice",
          "type": "uint256"
        },
        {
          "internalType": "uint256",
          "name": "shortPrice",
          "type": "uint256"
        },
        {
          "internalType": "uint256",
          "name": "longValue",
          "type": "uint256"
        },
        {
          "internalType": "uint256",
          "name": "shortValue",
          "type": "uint256"
        },
        {
          "internalType": "uint256",
          "name": "stakerTokenShiftIndex_to_longShortMarketPriceSnapshotIndex_mappingIfShiftExecuted",
          "type": "uint256"
        }
      ],
      "name": "pushUpdatedMarketPricesToUpdateFloatIssuanceCalculations",
      "outputs": [],
      "stateMutability": "nonpayable",
      "type": "function"
    },
    {
      "inputs": [],
      "name": "safeExponentBitShifting",
      "outputs": [
        {
          "internalType": "uint256",
          "name": "",
          "type": "uint256"
        }
      ],
      "stateMutability": "view",
      "type": "function"
    },
    {
      "inputs": [
        {
          "internalType": "uint32",
          "name": "marketIndex",
          "type": "uint32"
        },
        {
          "internalType": "address",
          "name": "longToken",
          "type": "address"
        },
        {
          "internalType": "address",
          "name": "shortToken",
          "type": "address"
        },
        {
          "internalType": "address",
          "name": "mockAddress",
          "type": "address"
        },
        {
          "internalType": "address",
          "name": "longShortAddress",
          "type": "address"
        }
      ],
      "name": "setAddNewStakingFundParams",
      "outputs": [],
      "stateMutability": "nonpayable",
      "type": "function"
    },
    {
      "inputs": [
        {
          "internalType": "uint32",
          "name": "marketIndex",
          "type": "uint32"
        },
        {
          "internalType": "uint256",
          "name": "_batched_stakerNextTokenShiftIndex",
          "type": "uint256"
        },
        {
          "internalType": "uint256",
          "name": "_latestRewardIndex",
          "type": "uint256"
        }
      ],
      "name": "setAddNewStateForFloatRewardsGlobals",
      "outputs": [],
      "stateMutability": "nonpayable",
      "type": "function"
    },
    {
      "inputs": [
        {
          "internalType": "uint32",
          "name": "marketIndex",
          "type": "uint32"
        },
        {
          "internalType": "uint256",
          "name": "rewardIndexTo",
          "type": "uint256"
        },
        {
          "internalType": "uint256",
          "name": "rewardIndexFrom",
          "type": "uint256"
        },
        {
          "internalType": "uint256",
          "name": "syntheticRewardToLongToken",
          "type": "uint256"
        },
        {
          "internalType": "uint256",
          "name": "syntheticRewardFromLongToken",
          "type": "uint256"
        },
        {
          "internalType": "uint256",
          "name": "syntheticRewardToShortToken",
          "type": "uint256"
        },
        {
          "internalType": "uint256",
          "name": "syntheticRewardFromShortToken",
          "type": "uint256"
        }
      ],
      "name": "setCalculateAccumulatedFloatInRangeGlobals",
      "outputs": [],
      "stateMutability": "nonpayable",
      "type": "function"
    },
    {
      "inputs": [
        {
          "internalType": "uint32",
          "name": "marketIndex",
          "type": "uint32"
        },
        {
          "internalType": "uint256",
          "name": "latestRewardIndexForMarket",
          "type": "uint256"
        },
        {
          "internalType": "uint256",
          "name": "accumFloatLong",
          "type": "uint256"
        },
        {
          "internalType": "uint256",
          "name": "accumFloatShort",
          "type": "uint256"
        }
      ],
      "name": "setCalculateNewCumulativeRateParams",
      "outputs": [],
      "stateMutability": "nonpayable",
      "type": "function"
    },
    {
      "inputs": [
        {
          "internalType": "uint32",
          "name": "marketIndex",
          "type": "uint32"
        },
        {
          "internalType": "uint256",
          "name": "latestRewardIndexForMarket",
          "type": "uint256"
        },
        {
          "internalType": "uint256",
          "name": "timestamp",
          "type": "uint256"
        }
      ],
      "name": "setCalculateTimeDeltaParams",
      "outputs": [],
      "stateMutability": "nonpayable",
      "type": "function"
    },
    {
      "inputs": [
        {
          "internalType": "uint32",
          "name": "marketIndex",
          "type": "uint32"
        },
        {
          "internalType": "address",
          "name": "longToken",
          "type": "address"
        },
        {
          "internalType": "address",
          "name": "shortToken",
          "type": "address"
        },
        {
          "internalType": "uint256",
          "name": "newLatestRewardIndex",
          "type": "uint256"
        },
        {
          "internalType": "address",
          "name": "user",
          "type": "address"
        },
        {
          "internalType": "uint256",
          "name": "usersLatestClaimedReward",
          "type": "uint256"
        },
        {
          "internalType": "uint256",
          "name": "accumulativeFloatPerTokenLatestLong",
          "type": "uint256"
        },
        {
          "internalType": "uint256",
          "name": "accumulativeFloatPerTokenLatestShort",
          "type": "uint256"
        },
        {
          "internalType": "uint256",
          "name": "accumulativeFloatPerTokenUserLong",
          "type": "uint256"
        },
        {
          "internalType": "uint256",
          "name": "accumulativeFloatPerTokenUserShort",
          "type": "uint256"
        },
        {
          "internalType": "uint256",
          "name": "newUserAmountStakedLong",
          "type": "uint256"
        },
        {
          "internalType": "uint256",
          "name": "newUserAmountStakedShort",
          "type": "uint256"
        }
      ],
      "name": "setFloatRewardCalcParams",
      "outputs": [],
      "stateMutability": "nonpayable",
      "type": "function"
    },
    {
      "inputs": [
        {
          "internalType": "uint32",
          "name": "marketIndex",
          "type": "uint32"
        },
        {
          "internalType": "uint256",
          "name": "timestamp",
          "type": "uint256"
        }
      ],
      "name": "setGetKValueParams",
      "outputs": [],
      "stateMutability": "nonpayable",
      "type": "function"
    },
    {
      "inputs": [
        {
          "internalType": "uint32",
          "name": "marketIndex",
          "type": "uint32"
        },
        {
          "internalType": "uint256",
          "name": "period",
          "type": "uint256"
        },
        {
          "internalType": "uint256",
          "name": "multiplier",
          "type": "uint256"
        }
      ],
      "name": "setGetMarketLaunchIncentiveParametersParams",
      "outputs": [],
      "stateMutability": "nonpayable",
      "type": "function"
    },
    {
      "inputs": [
        {
          "internalType": "address",
          "name": "_longShort",
          "type": "address"
        }
      ],
      "name": "setLongShort",
      "outputs": [],
      "stateMutability": "nonpayable",
      "type": "function"
    },
    {
      "inputs": [
        {
          "internalType": "uint32",
          "name": "marketIndex",
          "type": "uint32"
        },
        {
          "internalType": "uint256",
          "name": "latestRewardIndexForMarket",
          "type": "uint256"
        }
      ],
      "name": "setMintAccumulatedFloatAndClaimFloatParams",
      "outputs": [],
      "stateMutability": "nonpayable",
      "type": "function"
    },
    {
      "inputs": [
        {
          "internalType": "uint32",
          "name": "marketIndex",
          "type": "uint32"
        },
        {
          "internalType": "uint256",
          "name": "latestRewardIndexForMarket",
          "type": "uint256"
        }
      ],
      "name": "setSetRewardObjectsParams",
      "outputs": [],
      "stateMutability": "nonpayable",
      "type": "function"
    },
    {
      "inputs": [
        {
          "internalType": "uint32",
          "name": "marketIndex",
          "type": "uint32"
        },
        {
          "internalType": "address",
          "name": "user",
          "type": "address"
        },
        {
          "internalType": "uint256",
          "name": "shiftAmountLong",
          "type": "uint256"
        },
        {
          "internalType": "uint256",
          "name": "shiftAmountShort",
          "type": "uint256"
        },
        {
          "internalType": "uint256",
          "name": "_userNextPrice_stakedSyntheticTokenShiftIndex",
          "type": "uint256"
        },
        {
          "internalType": "uint256",
          "name": "_batched_stakerNextTokenShiftIndex",
          "type": "uint256"
        },
        {
          "internalType": "uint256",
          "name": "_takerTokenShiftIndex_to_longShortMarketPriceSnapshotIndex_mapping",
          "type": "uint256"
        },
        {
          "internalType": "uint256",
          "name": "_stakerTokenShiftIndex_to_accumulativeFloatIssuanceSnapshotIndex_mapping",
          "type": "uint256"
        }
      ],
      "name": "setShiftParams",
      "outputs": [],
      "stateMutability": "nonpayable",
      "type": "function"
    },
    {
      "inputs": [
        {
          "internalType": "uint32",
          "name": "marketIndex",
          "type": "uint32"
        },
        {
          "internalType": "bool",
          "name": "isShiftFromLong",
          "type": "bool"
        },
        {
          "internalType": "address",
          "name": "user",
          "type": "address"
        },
        {
          "internalType": "uint256",
          "name": "amountSyntheticTokensToShift",
          "type": "uint256"
        },
        {
          "internalType": "uint256",
          "name": "_userAmountStaked",
          "type": "uint256"
        },
        {
          "internalType": "uint256",
          "name": "_userNextPrice_stakedSyntheticTokenShiftIndex",
          "type": "uint256"
        },
        {
          "internalType": "uint256",
          "name": "_batched_stakerNextTokenShiftIndex",
          "type": "uint256"
        },
        {
          "internalType": "address",
          "name": "syntheticToken",
          "type": "address"
        }
      ],
      "name": "setShiftTokensParams",
      "outputs": [],
      "stateMutability": "nonpayable",
      "type": "function"
    },
    {
      "inputs": [
        {
          "internalType": "address",
          "name": "longshort",
          "type": "address"
        },
        {
          "internalType": "address",
          "name": "token",
          "type": "address"
        },
        {
          "internalType": "uint32",
          "name": "marketIndexForToken",
          "type": "uint32"
        }
      ],
      "name": "setStakeFromUserParams",
      "outputs": [],
      "stateMutability": "nonpayable",
      "type": "function"
    },
    {
      "inputs": [
        {
          "internalType": "uint32",
          "name": "marketIndex",
          "type": "uint32"
        },
        {
          "internalType": "address",
          "name": "_longShort",
          "type": "address"
        },
        {
          "internalType": "address",
          "name": "user",
          "type": "address"
        },
        {
          "internalType": "uint256",
          "name": "amountStaked",
          "type": "uint256"
        },
        {
          "internalType": "address",
          "name": "token",
          "type": "address"
        }
      ],
      "name": "setWithdrawAllGlobals",
      "outputs": [],
      "stateMutability": "nonpayable",
      "type": "function"
    },
    {
      "inputs": [
        {
          "internalType": "uint32",
          "name": "marketIndex",
          "type": "uint32"
        },
        {
          "internalType": "address",
          "name": "_longShort",
          "type": "address"
        },
        {
          "internalType": "address",
          "name": "token",
          "type": "address"
        }
      ],
      "name": "setWithdrawGlobals",
      "outputs": [],
      "stateMutability": "nonpayable",
      "type": "function"
    },
    {
      "inputs": [
        {
          "internalType": "address",
          "name": "_floatToken",
          "type": "address"
        },
        {
          "internalType": "uint16",
          "name": "_floatPercentage",
          "type": "uint16"
        }
      ],
      "name": "set_mintFloatParams",
      "outputs": [],
      "stateMutability": "nonpayable",
      "type": "function"
    },
    {
      "inputs": [
        {
          "internalType": "address",
          "name": "user",
          "type": "address"
        },
        {
          "internalType": "uint32",
          "name": "marketIndex",
          "type": "uint32"
        },
        {
          "internalType": "uint256",
          "name": "_latestRewardIndex",
          "type": "uint256"
        },
        {
          "internalType": "address",
          "name": "token",
          "type": "address"
        },
        {
          "internalType": "uint256",
          "name": "_userAmountStaked",
          "type": "uint256"
        },
        {
          "internalType": "uint256",
          "name": "userLastRewardIndex",
          "type": "uint256"
        }
      ],
      "name": "set_stakeParams",
      "outputs": [],
      "stateMutability": "nonpayable",
      "type": "function"
    },
    {
      "inputs": [
        {
          "internalType": "address",
          "name": "_longShort",
          "type": "address"
        },
        {
          "internalType": "address",
          "name": "token",
          "type": "address"
        },
        {
          "internalType": "uint32",
          "name": "tokenMarketIndex",
          "type": "uint32"
        }
      ],
      "name": "set_updateStateParams",
      "outputs": [],
      "stateMutability": "nonpayable",
      "type": "function"
    },
    {
      "inputs": [
        {
          "internalType": "uint32",
          "name": "marketIndex",
          "type": "uint32"
        },
        {
          "internalType": "address",
          "name": "syntheticToken",
          "type": "address"
        },
        {
          "internalType": "address",
          "name": "user",
          "type": "address"
        },
        {
          "internalType": "uint256",
          "name": "amountStaked",
          "type": "uint256"
        },
        {
          "internalType": "uint256",
          "name": "fees",
          "type": "uint256"
        }
      ],
      "name": "set_withdrawGlobals",
      "outputs": [],
      "stateMutability": "nonpayable",
      "type": "function"
    },
    {
      "inputs": [
        {
          "internalType": "uint256",
          "name": "amountSyntheticTokensToShift",
          "type": "uint256"
        },
        {
          "internalType": "uint32",
          "name": "marketIndex",
          "type": "uint32"
        },
        {
          "internalType": "bool",
          "name": "isShiftFromLong",
          "type": "bool"
        }
      ],
      "name": "shiftTokens",
      "outputs": [],
      "stateMutability": "nonpayable",
      "type": "function"
    },
    {
      "inputs": [
        {
          "internalType": "uint256",
          "name": "",
          "type": "uint256"
        }
      ],
      "name": "stakerTokenShiftIndex_to_accumulativeFloatIssuanceSnapshotIndex_mapping",
      "outputs": [
        {
          "internalType": "uint256",
          "name": "",
          "type": "uint256"
        }
      ],
      "stateMutability": "view",
      "type": "function"
    },
    {
      "inputs": [
        {
          "internalType": "uint256",
          "name": "",
          "type": "uint256"
        }
      ],
      "name": "stakerTokenShiftIndex_to_longShortMarketPriceSnapshotIndex_mapping",
      "outputs": [
        {
          "internalType": "uint256",
          "name": "",
          "type": "uint256"
        }
      ],
      "stateMutability": "view",
      "type": "function"
    },
    {
      "inputs": [
        {
          "internalType": "uint32",
          "name": "",
          "type": "uint32"
        },
        {
          "internalType": "bool",
          "name": "",
          "type": "bool"
        }
      ],
      "name": "syntheticTokens",
      "outputs": [
        {
          "internalType": "address",
          "name": "",
          "type": "address"
        }
      ],
      "stateMutability": "view",
      "type": "function"
    },
    {
      "inputs": [
        {
          "internalType": "address",
          "name": "",
          "type": "address"
        },
        {
          "internalType": "address",
          "name": "",
          "type": "address"
        }
      ],
      "name": "userAmountStaked",
      "outputs": [
        {
          "internalType": "uint256",
          "name": "",
          "type": "uint256"
        }
      ],
      "stateMutability": "view",
      "type": "function"
    },
    {
      "inputs": [
        {
          "internalType": "uint32",
          "name": "",
          "type": "uint32"
        },
        {
          "internalType": "address",
          "name": "",
          "type": "address"
        }
      ],
      "name": "userIndexOfLastClaimedReward",
      "outputs": [
        {
          "internalType": "uint256",
          "name": "",
          "type": "uint256"
        }
      ],
      "stateMutability": "view",
      "type": "function"
    },
    {
      "inputs": [
        {
          "internalType": "uint32",
          "name": "",
          "type": "uint32"
        },
        {
          "internalType": "address",
          "name": "",
          "type": "address"
        }
      ],
      "name": "userNextPrice_amountStakedSyntheticToken_toShiftAwayFrom_long",
      "outputs": [
        {
          "internalType": "uint256",
          "name": "",
          "type": "uint256"
        }
      ],
      "stateMutability": "view",
      "type": "function"
    },
    {
      "inputs": [
        {
          "internalType": "uint32",
          "name": "",
          "type": "uint32"
        },
        {
          "internalType": "address",
          "name": "",
          "type": "address"
        }
      ],
      "name": "userNextPrice_amountStakedSyntheticToken_toShiftAwayFrom_short",
      "outputs": [
        {
          "internalType": "uint256",
          "name": "",
          "type": "uint256"
        }
      ],
      "stateMutability": "view",
      "type": "function"
    },
    {
      "inputs": [
        {
          "internalType": "uint32",
          "name": "",
          "type": "uint32"
        },
        {
          "internalType": "address",
          "name": "",
          "type": "address"
        }
      ],
      "name": "userNextPrice_stakedSyntheticTokenShiftIndex",
      "outputs": [
        {
          "internalType": "uint256",
          "name": "",
          "type": "uint256"
        }
      ],
      "stateMutability": "view",
      "type": "function"
    },
    {
      "inputs": [
        {
          "internalType": "address",
          "name": "token",
          "type": "address"
        },
        {
          "internalType": "uint256",
          "name": "amount",
          "type": "uint256"
        }
      ],
      "name": "withdraw",
      "outputs": [],
      "stateMutability": "nonpayable",
      "type": "function"
    },
    {
      "inputs": [
        {
          "internalType": "address",
          "name": "token",
          "type": "address"
        }
      ],
      "name": "withdrawAll",
      "outputs": [],
      "stateMutability": "nonpayable",
      "type": "function"
    },
    {
      "inputs": [
        {
          "internalType": "contract StakerForInternalMocking",
          "name": "_mocker",
          "type": "address"
        }
      ],
      "name": "setMocker",
      "outputs": [],
      "stateMutability": "nonpayable",
      "type": "function"
    },
    {
      "inputs": [
        {
          "internalType": "string",
          "name": "_functionToNotMock",
          "type": "string"
        }
      ],
      "name": "setFunctionToNotMock",
      "outputs": [],
      "stateMutability": "nonpayable",
      "type": "function"
    },
    {
      "inputs": [],
      "name": "onlyAdminModifierLogicExposed",
      "outputs": [],
      "stateMutability": "nonpayable",
      "type": "function"
    },
    {
      "inputs": [
        {
          "internalType": "address",
          "name": "_synth",
          "type": "address"
        }
      ],
      "name": "onlyValidSyntheticModifierLogicExposed",
      "outputs": [],
      "stateMutability": "nonpayable",
      "type": "function"
    },
    {
      "inputs": [
        {
          "internalType": "uint32",
          "name": "marketIndex",
          "type": "uint32"
        }
      ],
      "name": "onlyValidMarketModifierLogicExposed",
      "outputs": [],
      "stateMutability": "nonpayable",
      "type": "function"
    },
    {
      "inputs": [],
      "name": "onlyLongShortModifierLogicExposed",
      "outputs": [],
      "stateMutability": "nonpayable",
      "type": "function"
    },
    {
      "inputs": [
        {
          "internalType": "uint256",
          "name": "newFloatPercentage",
          "type": "uint256"
        }
      ],
      "name": "_changeFloatPercentageExposed",
      "outputs": [],
      "stateMutability": "nonpayable",
      "type": "function"
    },
    {
      "inputs": [
        {
          "internalType": "uint32",
          "name": "marketIndex",
          "type": "uint32"
        },
        {
          "internalType": "uint256",
          "name": "newMarketUnstakeFee_e18",
          "type": "uint256"
        }
      ],
      "name": "_changeUnstakeFeeExposed",
      "outputs": [],
      "stateMutability": "nonpayable",
      "type": "function"
    },
    {
      "inputs": [
        {
          "internalType": "uint32",
          "name": "marketIndex",
          "type": "uint32"
        },
        {
          "internalType": "uint256",
          "name": "period",
          "type": "uint256"
        },
        {
          "internalType": "uint256",
          "name": "initialMultiplier",
          "type": "uint256"
        }
      ],
      "name": "_changeMarketLaunchIncentiveParametersExposed",
      "outputs": [],
      "stateMutability": "nonpayable",
      "type": "function"
    },
    {
      "inputs": [
        {
          "internalType": "uint32",
          "name": "marketIndex",
          "type": "uint32"
        },
        {
          "internalType": "uint256",
          "name": "_balanceIncentiveCurve_exponent",
          "type": "uint256"
        }
      ],
      "name": "_changeBalanceIncentiveExponentExposed",
      "outputs": [],
      "stateMutability": "nonpayable",
      "type": "function"
    },
    {
      "inputs": [
        {
          "internalType": "uint32",
          "name": "marketIndex",
          "type": "uint32"
        },
        {
          "internalType": "int256",
          "name": "_balanceIncentiveCurve_equilibriumOffset",
          "type": "int256"
        }
      ],
      "name": "_changeBalanceIncentiveEquilibriumOffsetExposed",
      "outputs": [],
      "stateMutability": "nonpayable",
      "type": "function"
    },
    {
      "inputs": [
        {
          "internalType": "uint32",
          "name": "marketIndex",
          "type": "uint32"
        }
      ],
      "name": "_getMarketLaunchIncentiveParametersExposed",
      "outputs": [
        {
          "internalType": "uint256",
          "name": "",
          "type": "uint256"
        },
        {
          "internalType": "uint256",
          "name": "",
          "type": "uint256"
        }
      ],
      "stateMutability": "view",
      "type": "function"
    },
    {
      "inputs": [
        {
          "internalType": "uint32",
          "name": "marketIndex",
          "type": "uint32"
        }
      ],
      "name": "_getKValueExposed",
      "outputs": [
        {
          "internalType": "uint256",
          "name": "",
          "type": "uint256"
        }
      ],
      "stateMutability": "view",
      "type": "function"
    },
    {
      "inputs": [
        {
          "internalType": "uint32",
          "name": "marketIndex",
          "type": "uint32"
        },
        {
          "internalType": "uint256",
          "name": "longPrice",
          "type": "uint256"
        },
        {
          "internalType": "uint256",
          "name": "shortPrice",
          "type": "uint256"
        },
        {
          "internalType": "uint256",
          "name": "longValue",
          "type": "uint256"
        },
        {
          "internalType": "uint256",
          "name": "shortValue",
          "type": "uint256"
        }
      ],
      "name": "_calculateFloatPerSecondExposed",
      "outputs": [
        {
          "internalType": "uint256",
          "name": "longFloatPerSecond",
          "type": "uint256"
        },
        {
          "internalType": "uint256",
          "name": "shortFloatPerSecond",
          "type": "uint256"
        }
      ],
      "stateMutability": "view",
      "type": "function"
    },
    {
      "inputs": [
        {
          "internalType": "uint32",
          "name": "marketIndex",
          "type": "uint32"
        }
      ],
      "name": "_calculateTimeDeltaFromLastAccumulativeIssuancePerStakedSynthSnapshotExposed",
      "outputs": [
        {
          "internalType": "uint256",
          "name": "",
          "type": "uint256"
        }
      ],
      "stateMutability": "view",
      "type": "function"
    },
    {
      "inputs": [
        {
          "internalType": "uint32",
          "name": "marketIndex",
          "type": "uint32"
        },
        {
          "internalType": "uint256",
          "name": "longPrice",
          "type": "uint256"
        },
        {
          "internalType": "uint256",
          "name": "shortPrice",
          "type": "uint256"
        },
        {
          "internalType": "uint256",
          "name": "longValue",
          "type": "uint256"
        },
        {
          "internalType": "uint256",
          "name": "shortValue",
          "type": "uint256"
        }
      ],
      "name": "_calculateNewCumulativeIssuancePerStakedSynthExposed",
      "outputs": [
        {
          "internalType": "uint256",
          "name": "longCumulativeRates",
          "type": "uint256"
        },
        {
          "internalType": "uint256",
          "name": "shortCumulativeRates",
          "type": "uint256"
        }
      ],
      "stateMutability": "view",
      "type": "function"
    },
    {
      "inputs": [
        {
          "internalType": "uint32",
          "name": "marketIndex",
          "type": "uint32"
        },
        {
          "internalType": "uint256",
          "name": "longPrice",
          "type": "uint256"
        },
        {
          "internalType": "uint256",
          "name": "shortPrice",
          "type": "uint256"
        },
        {
          "internalType": "uint256",
          "name": "longValue",
          "type": "uint256"
        },
        {
          "internalType": "uint256",
          "name": "shortValue",
          "type": "uint256"
        }
      ],
      "name": "_setCurrentAccumulativeIssuancePerStakeStakedSynthSnapshotExposed",
      "outputs": [],
      "stateMutability": "nonpayable",
      "type": "function"
    },
    {
      "inputs": [
        {
          "internalType": "uint32",
          "name": "marketIndex",
          "type": "uint32"
        },
        {
          "internalType": "uint256",
          "name": "amountStakedLong",
          "type": "uint256"
        },
        {
          "internalType": "uint256",
          "name": "amountStakedShort",
          "type": "uint256"
        },
        {
          "internalType": "uint256",
          "name": "rewardIndexFrom",
          "type": "uint256"
        },
        {
          "internalType": "uint256",
          "name": "rewardIndexTo",
          "type": "uint256"
        }
      ],
      "name": "_calculateAccumulatedFloatInRangeExposed",
      "outputs": [
        {
          "internalType": "uint256",
          "name": "floatReward",
          "type": "uint256"
        }
      ],
      "stateMutability": "view",
      "type": "function"
    },
    {
      "inputs": [
        {
          "internalType": "uint32",
          "name": "marketIndex",
          "type": "uint32"
        },
        {
          "internalType": "address",
          "name": "user",
          "type": "address"
        }
      ],
      "name": "_calculateAccumulatedFloatExposed",
      "outputs": [
        {
          "internalType": "uint256",
          "name": "floatReward",
          "type": "uint256"
        }
      ],
      "stateMutability": "nonpayable",
      "type": "function"
    },
    {
      "inputs": [
        {
          "internalType": "address",
          "name": "user",
          "type": "address"
        },
        {
          "internalType": "uint256",
          "name": "floatToMint",
          "type": "uint256"
        }
      ],
      "name": "_mintFloatExposed",
      "outputs": [],
      "stateMutability": "nonpayable",
      "type": "function"
    },
    {
      "inputs": [
        {
          "internalType": "uint32",
          "name": "marketIndex",
          "type": "uint32"
        },
        {
          "internalType": "address",
          "name": "user",
          "type": "address"
        }
      ],
      "name": "_mintAccumulatedFloatExposed",
      "outputs": [],
      "stateMutability": "nonpayable",
      "type": "function"
    },
    {
      "inputs": [
        {
          "internalType": "uint32[]",
          "name": "marketIndexes",
          "type": "uint32[]"
        },
        {
          "internalType": "address",
          "name": "user",
          "type": "address"
        }
      ],
      "name": "_mintAccumulatedFloatMultiExposed",
      "outputs": [],
      "stateMutability": "nonpayable",
      "type": "function"
    },
    {
      "inputs": [
        {
          "internalType": "address",
          "name": "from",
          "type": "address"
        },
        {
          "internalType": "uint256",
          "name": "amount",
          "type": "uint256"
        }
      ],
      "name": "stakeFromUser",
      "outputs": [],
      "stateMutability": "nonpayable",
      "type": "function"
    },
    {
      "inputs": [
        {
          "internalType": "address",
          "name": "token",
          "type": "address"
        },
        {
          "internalType": "uint256",
          "name": "amount",
          "type": "uint256"
        },
        {
          "internalType": "address",
          "name": "user",
          "type": "address"
        }
      ],
      "name": "_stakeExposed",
      "outputs": [],
      "stateMutability": "nonpayable",
      "type": "function"
    },
    {
      "inputs": [
        {
          "internalType": "address",
          "name": "token",
          "type": "address"
        },
        {
          "internalType": "uint256",
          "name": "amount",
          "type": "uint256"
        }
      ],
      "name": "_withdrawExposed",
      "outputs": [],
      "stateMutability": "nonpayable",
      "type": "function"
    }
  ],
  "bytecode": "0x608060405234801561001057600080fd5b5061599980620000216000396000f3fe608060405234801561001057600080fd5b50600436106104b75760003560e01c8063a620757311610278578063db38187c1161015c578063edb010d7116100ce578063f3fef3a311610092578063f3fef3a314611298578063f851a440146112ab578063f9fe734e146112c4578063fa09e630146112e4578063fbd95c72146112f7578063fdd3c2fd14611346576104b7565b8063edb010d71461121a578063ef9c30521461122d578063ef9ded8e1461124d578063f2c0e6b71461127d578063f344acc914611285576104b7565b8063e39ac04411610120578063e39ac04414610efa578063e68f3dbe14610f1a578063ea2eb29b14610f2d578063eae5a8d914610f40578063eb61f13414610f53578063ebbe542514611207576104b7565b8063db38187c14610ea1578063dc86fe5014610eb4578063dc9a845e14610797578063dd9e7b1914610ed4578063e220f16e14610ee7576104b7565b8063bf6df22d116101f5578063cc1160c5116101b9578063cc1160c514610d72578063cdeb4d9214610d7a578063d31a1e41146108da578063d42c593214610e07578063d84593e514610e39578063d89a1a6914610e4c576104b7565b8063bf6df22d14610d06578063c16199e314610d0e578063c17f8ce914610d21578063c24680a314610d4c578063c955873314610d5f576104b7565b8063b6fc48281161023c578063b6fc482814610c7f578063b80dd32914610cba578063b8f4070214610ccd578063ba89f7b814610ce0578063bda69fd814610cf3576104b7565b8063a620757314610bdf578063a929069614610bf2578063a94f15b114610c25578063b054c4a114610c38578063b0956b5f14610c6c576104b7565b80635ac76ce11161039f57806386cbde1f1161031c5780639e59fd0f116102e05780639e59fd0f146109f85780639e75ef5714610a0b5780639eb7016814610acf578063a0b645da14610b50578063a29431eb14610b63578063a4ba679b14610bcc576104b7565b806386cbde1f146109935780638d128fe4146109ac5780638f283970146109bf57806395b6ef0c146109d257806399fc0791146109e5576104b7565b8063752fe33411610363578063752fe33414610867578063757d2f31146108da5780637c937cf21461092d5780637fcc5e80146109585780637fe581e31461096b576104b7565b80635ac76ce1146107be5780635d02107b146107e95780636a5304df146107fc5780636b7bf5241461081c578063738f4b8e14610854576104b7565b806329949872116104385780633a7d01ee116103fc5780633a7d01ee146106a45780633ebff44f146106b75780634105a5321461070c578063559dd7e2146107635780635892457d1461078e5780635a4a295114610797576104b7565b8063299498721461062d5780632e7dd51b146106585780632fd317cf1461066b578063320d621d1461067e5780633a1ce22b14610691576104b7565b806313e8868a1161047f57806313e8868a1461055d57806315f2081d1461057d5780631bde1d07146105b85780631fff5f55146105ed57806327c795331461060d576104b7565b806302132b3a146104bc5780630a41100b146104e25780630bccc585146105025780630ca5a052146105375780630fce73f21461054a575b600080fd5b6104cf6104ca366004614fd4565b611371565b6040519081526020015b60405180910390f35b6104cf6104f0366004614f12565b60126020526000908152604090205481565b610535610510366004615391565b63ffffffff909216600090815260066020908152604080832093909355600790522055565b005b610535610545366004615376565b611386565b610535610558366004614d5c565b6113dc565b6104cf61056b366004614fba565b60086020526000908152604090205481565b6105a361058b366004614be5565b600c6020526000908152604090205463ffffffff1681565b60405163ffffffff90911681526020016104d9565b6105356105c6366004614be5565b601780546001600160a81b0319166001600160a01b0390921691909117600160a01b179055565b6104cf6105fb366004614f12565b60136020526000908152604090205481565b6104cf61061b366004614fba565b60116020526000908152604090205481565b600454610640906001600160a01b031681565b6040516001600160a01b0390911681526020016104d9565b6104cf610666366004614fba565b6113ec565b610535610679366004614f12565b6113ff565b61053561068c366004615376565b61140b565b61053561069f366004614fd4565b611459565b6105356106b2366004614d31565b611467565b6106f16106c5366004615376565b600e60209081526000928352604080842090915290825290208054600182015460029092015490919083565b604080519384526020840192909252908201526060016104d9565b61053561071a366004614fef565b6001600160a01b039081166000908152600c60205260409020805463ffffffff191663ffffffff9490941693909317909255600480546001600160a01b03191691909216179055565b6104cf610771366004614fd4565b601560209081526000928352604080842090915290825290205481565b6104cf60035481565b6105356107a5366004615376565b63ffffffff9091166000908152600d6020526040902055565b6104cf6107cc366004614fd4565b600f60209081526000928352604080842090915290825290205481565b6104cf6107f73660046153fb565b611471565b6104cf61080a366004614fba565b60066020526000908152604090205481565b61053561082a366004614cfe565b600580546001600160a01b0319166001600160a01b03939093169290921790915561ffff16600355565b610535610862366004614dff565b61148c565b61053561087536600461509a565b6001600160a01b039081166000908152600c60209081526040808320805463ffffffff191663ffffffff9990991698909817909755600480546001600160a01b0319169684169690961790955560108552858120939091168152919092529190912055565b6105356108e8366004614cb8565b600480546001600160a01b0319166001600160a01b0394851617905591166000908152600c60205260409020805463ffffffff191663ffffffff909216919091179055565b6104cf61093b366004614fd4565b601660209081526000928352604080842090915290825290205481565b610535610966366004614d31565b6114fa565b61097e6109793660046153fb565b611504565b604080519283526020830191909152016104d9565b6104cf710b7abc627050305adf14a3d9e4000000000081565b61097e6109ba3660046153fb565b611523565b6105356109cd366004614be5565b611533565b6105356109e0366004614c40565b61159a565b6105356109f3366004614e3f565b611724565b610535610a06366004614f12565b61172f565b610535610a1936600461502c565b600480546001600160a01b03199081166001600160a01b03938416179091559381166000908152600c60209081526040808320805463ffffffff1990811663ffffffff9a909a16998a17909155958416835280832080549096168817909555868252600e8152848220828052815284822082815560018181018190556002909101819055968252600b81528482209682529590955282852080548516929091169182179055838052922080549091169091179055565b610535610add366004614d9d565b6001600160a01b039283166000818152600c60209081526040808320805463ffffffff909a1663ffffffff19909a168a179055888352600d825280832097909755918152601082528581209790941680855296815284842092909255938252600f81528282209482529390935290912055565b6104cf610b5e366004614f42565b611770565b610535610b71366004615195565b6001600160a01b039384166000818152600c60209081526040808320805463ffffffff909a1663ffffffff19909a168a1790559782526008815287822093909355908152601082528581209390941684529190915291902055565b610535610bda366004615376565b6117b4565b610535610bed366004614be5565b6117be565b610535610c00366004615391565b63ffffffff909216600090815260116020908152604080832093909355600d90522055565b610535610c33366004614ea5565b6117c7565b610640610c463660046152c9565b600b6020908152600092835260408084209091529082529020546001600160a01b031681565b610535610c7a3660046151ed565b6117d3565b610535610c8d366004615391565b63ffffffff9092166000908152600d60209081526040808320849055600e82528083209383529290522055565b610535610cc8366004615376565b611971565b61097e610cdb366004614fba565b6119bf565b600154610640906001600160a01b031681565b610535610d0136600461543c565b6119d5565b610535611ab0565b600254610640906001600160a01b031681565b6104cf610d2f366004614c08565b601060209081526000928352604080842090915290825290205481565b610535610d5a3660046153fb565b611aba565b610535610d6d366004615376565b611ace565b610535611ad8565b610535610d88366004615261565b63ffffffff90971660008181526014602090815260408083206001600160a01b03909a16808452998252808320879055838352601582528083208a845282528083209890985582825260168152878220988252978852868120959095558452601186528484209190915590825260138452828220556012909252902055565b610535610e15366004615376565b63ffffffff9091166000908152600e60209081526040808320838052909152902055565b610535610e47366004615391565b611ae0565b610535610e5a366004615485565b63ffffffff969096166000908152600e6020908152604080832097835296905285812060018082019590955560029081019290925593845293909220908101919091550155565b610535610eaf366004615391565b611b40565b6104cf610ec2366004614fba565b600a6020526000908152604090205481565b6104cf610ee2366004614fba565b611b4b565b610535610ef5366004615376565b611b56565b6104cf610f08366004614fba565b600d6020526000908152604090205481565b610535610f28366004614d31565b611b60565b610535610f3b3660046152f4565b611c59565b600554610640906001600160a01b031681565b610535610f613660046150f1565b88600d60008e63ffffffff1663ffffffff1681526020019081526020016000208190555086600f60008e63ffffffff1663ffffffff16815260200190815260200160002060008a6001600160a01b03166001600160a01b03168152602001908152602001600020819055508a600b60008e63ffffffff1663ffffffff1681526020019081526020016000206000600115151515815260200190815260200160002060006101000a8154816001600160a01b0302191690836001600160a01b0316021790555089600b60008e63ffffffff1663ffffffff16815260200190815260200160002060008015151515815260200190815260200160002060006101000a8154816001600160a01b0302191690836001600160a01b0316021790555085600e60008e63ffffffff1663ffffffff16815260200190815260200160002060008b81526020019081526020016000206001018190555083600e60008e63ffffffff1663ffffffff16815260200190815260200160002060008981526020019081526020016000206001018190555084600e60008e63ffffffff1663ffffffff16815260200190815260200160002060008b81526020019081526020016000206002018190555082600e60008e63ffffffff1663ffffffff16815260200190815260200160002060008981526020019081526020016000206002018190555081601060008d6001600160a01b03166001600160a01b0316815260200190815260200160002060008a6001600160a01b03166001600160a01b031681526020019081526020016000208190555080601060008c6001600160a01b03166001600160a01b0316815260200190815260200160002060008a6001600160a01b03166001600160a01b0316815260200190815260200160002081905550505050505050505050505050565b610535611215366004614fba565b611d56565b610535611228366004614f86565b611d5f565b6104cf61123b366004614fba565b60076020526000908152604090205481565b61053561125b366004614be5565b600480546001600160a01b0319166001600160a01b0392909216919091179055565b6104cf603481565b610535611293366004614e3f565b611fce565b6105356112a6366004614d31565b61203c565b600054610640906201000090046001600160a01b031681565b6104cf6112d2366004614fba565b60096020526000908152604090205481565b6105356112f2366004614be5565b6120be565b6105356113053660046153c3565b63ffffffff939093166000908152600d60209081526040808320858155600e8352818420958452949091528082206001019290925591548252902060020155565b6104cf611354366004614fd4565b601460209081526000928352604080842090915290825290205481565b600061137d8383612165565b90505b92915050565b61138e612614565b611398828261270b565b6040805163ffffffff84168152602081018390527feb76801ec75076256b8590fd7c621c2541531e6b9ac568389fa5cdf72e66484491015b60405180910390a15050565b6113e7838383612802565b505050565b60006113f782612956565b90505b919050565b61140881612a17565b50565b611413612614565b61141d8282612a3d565b6040805163ffffffff84168152602081018390527f0430c32559bfcf3b024f216d4e0db41b7b521dcffe63ad1fc25826cf89fc1ced91016113d0565b6114638282612b22565b5050565b6114638282612bbf565b60006114808686868686612da7565b90505b95945050505050565b60048054604051636c8d2b9760e01b81526001600160a01b0390911691636c8d2b97916114bd9186918691016155b5565b600060405180830381600087803b1580156114d757600080fd5b505af11580156114eb573d6000803e3d6000fd5b50505050611463828233612e9c565b6114638282612f61565b600080611514878787878761305d565b915091505b9550959350505050565b6000806115148787878787613325565b61153b612614565b6000805462010000600160b01b031916620100006001600160a01b038416908102919091179091556040519081527f927cc064d7b7fa546fa7706bc01845d27d06f15af3ae90a672cc44735928e961906020015b60405180910390a150565b600054610100900460ff16806115b3575060005460ff16155b61161b5760405162461bcd60e51b815260206004820152602e60248201527f496e697469616c697a61626c653a20636f6e747261637420697320616c72656160448201526d191e481a5b9a5d1a585b1a5e995960921b60648201526084015b60405180910390fd5b600054610100900460ff1615801561163d576000805461ffff19166101011790555b6000805462010000600160b01b031916620100006001600160a01b038a81169190910291909117909155600180546001600160a01b031990811686841617909155600280548216878416179055600480548216898416179055600580549091169187169190911790556116af826133d8565b604080516001600160a01b038981168252868116602083015285811682840152871660608201526080810184905290517faf92ca815edd9a90dc4aa1dfc722fb1624d5b5f914b25ae3cf979ce6600f0a969181900360a00190a1801561171b576000805461ff00191690555b50505050505050565b6113e78383836134c7565b611737612614565b611740816133d8565b6040518181527f062ffcd555faf2b2c81f26010ee6db2e23106941bfed5ae979abd111975d815d9060200161158f565b60008061177f83610101615684565b9050600061178e8260026156de565b90505b808386901c11156117ac576117a5836158df565b9250611791565b505092915050565b6114638282613691565b6114088161371b565b6113e760188383614aee565b6117db613778565b6001600160a01b038088166000818152600c60209081526040808320805463ffffffff8f1663ffffffff199182168117909255958c1680855282852080549097168217909655808452600e8352818420848052835281842042815560018181018690556002909101859055908452600b835281842090845280835281842080546001600160a01b031990811690961790558380529091529020805490911690911790556118888883613854565b6118928882612a3d565b61189d888587613921565b6118a7888461270b565b63ffffffff881660008181526011602090815260409182902060019055815192835282018590528101859052606081018690526080810183905260a081018290527f6bc257e0096888bfe19c27bfedca683fc71f53daaf42d4b9ff8e42ea783d67cf9060c00160405180910390a16040805163ffffffff8a16815260006020820181905291810182905260608101919091527f65663e89e16ccfe470dd659bacdf6fddae8185e108d00bc980d34be7e86466d0906080015b60405180910390a15050505050505050565b611979612614565b6119838282613854565b6040805163ffffffff84168152602081018390527f45029298b28ebd606098e088e84698aad69cbe7d56cec6064a87ab6d85551e1191016113d0565b6000806119cb83613a0c565b915091505b915091565b6119dd613778565b8015611a8a5763ffffffff8616600081815260116020908152604080832054835260138252808320859055928252600d90522054611a1c90600161563e565b63ffffffff8716600081815260116020818152604080842080548552601283529084209590955592825290915281546001929190611a5b90849061563e565b90915550506040517ffcd57474b9332c9108d9254a20e26a0255d04c0be335baa253a6f0cd443d2b9a90600090a15b6000611a9587613a55565b1115611aa857611aa88686868686613bab565b505050505050565b611ab8613cf2565b565b611ac78585858585613d3e565b5050505050565b6114638282613df8565b611ab8613e25565b611ae8612614565b611af3838383613921565b6040805163ffffffff85168152602081018490529081018290527fa1d30e827392d7c605768dc1c77c5dfbf58180ca1bb944ecfc8155765b7f53ca906060015b60405180910390a1505050565b6113e7838383613e70565b60006113f782613ee0565b6114638282613f12565b33611b6a81613fb4565b601754600160a01b900460ff168015611bdb57506040516c39ba30b5b2a33937b6aab9b2b960991b6020820152602d01604051602081830303815290604052805190602001206018604051602001611bc2919061551a565b6040516020818303038152906040528051906020012014155b15611c4a576017546040516305bd3b5960e31b81526001600160a01b0385811660048301526024820185905290911690632de9dac8906044015b60006040518083038186803b158015611c2d57600080fd5b505afa158015611c41573d6000803e3d6000fd5b505050506113e7565b611c548383614075565b6113e7565b63ffffffff881660008181526014602090815260408083206001600160a01b038b168452825280832087905592825260119052208290558615611cc75763ffffffff881660009081526015602090815260408083206001600160a01b038a1684529091529020859055611cf4565b63ffffffff881660009081526016602090815260408083206001600160a01b038a16845290915290208590555b63ffffffff9097166000908152600b60209081526040808320981515835297815287822080546001600160a01b039a8b166001600160a01b03199091168117909155825260108152878220969098168152949096525092909120919091555050565b61140881614100565b63ffffffff82166000908152600b6020908152604080832084151584528252808320546001600160a01b03168084526010835281842033855290925290912054841115611dee5760405162461bcd60e51b815260206004820152601a60248201527f4e6f7420656e6f75676820746f6b656e7320746f2073686966740000000000006044820152606401611612565b63ffffffff8316600090815260146020908152604080832033845290915290205415801590611e44575063ffffffff83166000908152601160209081526040808320546014835281842033855290925290912054105b15611e5357611e53833361416a565b8115611eff576004805460405163775811a960e11b815263ffffffff861692810192909252602482018690526001600160a01b03169063eeb0235290604401600060405180830381600087803b158015611eac57600080fd5b505af1158015611ec0573d6000803e3d6000fd5b5050505063ffffffff8316600090815260156020908152604080832033845290915281208054869290611ef490849061563e565b90915550611fa09050565b60048054604051633415694360e11b815263ffffffff861692810192909252602482018690526001600160a01b03169063682ad28690604401600060405180830381600087803b158015611f5257600080fd5b505af1158015611f66573d6000803e3d6000fd5b5050505063ffffffff8316600090815260166020908152604080832033845290915281208054869290611f9a90849061563e565b90915550505b505063ffffffff16600090815260116020908152604080832054601483528184203385529092529091205550565b60048054604051636c8d2b9760e01b81526001600160a01b0390911691636c8d2b9791611fff9187918791016155b5565b600060405180830381600087803b15801561201957600080fd5b505af115801561202d573d6000803e3d6000fd5b505050506113e7838383612e9c565b600480546001600160a01b038481166000908152600c6020526040908190205490516305c8146f60e01b815263ffffffff9091169381019390935216906305c8146f90602401600060405180830381600087803b15801561209c57600080fd5b505af11580156120b0573d6000803e3d6000fd5b505050506114638282614230565b600480546001600160a01b038381166000908152600c6020526040908190205490516305c8146f60e01b815263ffffffff9091169381019390935216906305c8146f90602401600060405180830381600087803b15801561211e57600080fd5b505af1158015612132573d6000803e3d6000fd5b5050506001600160a01b038216600090815260106020908152604080832033845290915290205461140891508290614230565b63ffffffff82166000818152600b6020908152604080832060018452825280832054838052818420546001600160a01b0391821680865260108086528487208985168089529087528588205494909316808852908652848720838852865284872054888852600f875285882093885292865284872054978752600d90955292852054949592949192909181141561220457600095505050505050611380565b63ffffffff881660009081526014602090815260408083206001600160a01b038b1684529091529020548015801590612251575063ffffffff891660009081526011602052604090205481105b156125d9576122768985858560126000878152602001908152602001600020546142e5565b63ffffffff8a1660009081526015602090815260408083206001600160a01b038d168452909152902054909750156123d5576004805463ffffffff8b1660008181526015602090815260408083206001600160a01b038f8116855290835281842054888552601390935292819020549051630125edfd60e71b815295860193909352602485015260016044850152606484019190915216906392f6fe809060840160206040518083038186803b15801561232f57600080fd5b505afa158015612343573d6000803e3d6000fd5b505050506040513d601f19601f820116820180604052508101906123679190614f2a565b612371908461563e565b63ffffffff8a1660009081526015602090815260408083206001600160a01b038d1684529091529020549093506123a8908561588d565b63ffffffff8a1660009081526015602090815260408083206001600160a01b038d16845290915281205593505b63ffffffff891660009081526016602090815260408083206001600160a01b038c16845290915290205415612531576004805463ffffffff8b1660008181526016602090815260408083206001600160a01b038f81168552908352818420548885526013909352818420549151630125edfd60e71b81529687019490945260248601919091526044850191909152606484015216906392f6fe809060840160206040518083038186803b15801561248b57600080fd5b505afa15801561249f573d6000803e3d6000fd5b505050506040513d601f19601f820116820180604052508101906124c39190614f2a565b6124cd908561563e565b63ffffffff8a1660009081526016602090815260408083206001600160a01b038d168452909152902054909450612504908461588d565b63ffffffff8a1660009081526016602090815260408083206001600160a01b038d16845290915281205592505b6001600160a01b0380871660009081526010602081815260408084208d86168086529083528185208a9055948a168452918152818320938352928352808220869055838252601283528082205463ffffffff8d168352600d90935290205461259e918b91879187916142e5565b6125a8908861563e565b63ffffffff8a1660009081526014602090815260408083206001600160a01b038d1684529091528120559650612608565b61260589858585600d60008f63ffffffff1663ffffffff168152602001908152602001600020546142e5565b96505b50505050505092915050565b601754600160a01b900460ff16801561268e5750604051756f6e6c7941646d696e4d6f6469666965724c6f67696360501b6020820152603601604051602081830303815290604052805190602001206018604051602001612675919061551a565b6040516020818303038152906040528051906020012014155b156126fe57601760009054906101000a90046001600160a01b03166001600160a01b03166343500c4e6040518163ffffffff1660e01b815260040160006040518083038186803b1580156126e157600080fd5b505afa1580156126f5573d6000803e3d6000fd5b50505050611ab8565b612706613cf2565b611ab8565b601754600160a01b900460ff1680156127805750604051705f6368616e6765556e7374616b6546656560781b6020820152603101604051602081830303815290604052805190602001206018604051602001612767919061551a565b6040516020818303038152906040528051906020012014155b156127f357601754604051636b2c5c6960e01b815263ffffffff84166004820152602481018390526001600160a01b0390911690636b2c5c69906044015b60006040518083038186803b1580156127d657600080fd5b505afa1580156127ea573d6000803e3d6000fd5b50505050611463565b6127fd8282613df8565b611463565b6001600160a01b038084166000908152600c602090815260408083205463ffffffff16808452600f835281842094861684529390915290205415801590612879575063ffffffff81166000908152600d6020908152604080832054600f83528184206001600160a01b038716855290925290912054105b1561288857612888818361416a565b6001600160a01b038085166000908152601060209081526040808320938616835292905220546128b990849061563e565b6001600160a01b0385811660008181526010602090815260408083209488168084529482528083209590955563ffffffff86168252600d815284822054600f8252858320858452825291859020829055845193845283019190915291810185905260608101919091527fef7c8dfef14cbefdf829b8f066b068b677992411137321d64b3ed4538c2b3637906080015b60405180910390a150505050565b600080600061296484614430565b91509150670de0b6b3a764000081101561298e57634e487b7160e01b600052600160045260246000fd5b63ffffffff84166000908152600e60209081526040808320838052909152902054826129ba824261588d565b11612a0457826129ca824261588d565b6129dc670de0b6b3a76400008561588d565b6129e6919061582f565b6129f09190615684565b6129fa908361588d565b93505050506113fa565b670de0b6b3a764000093505050506113fa565b670de0b6b3a76400008111158015612a2f5750600081115b612a3857600080fd5b600355565b601754600160a01b900460ff168015612ad65750604051602001612a95907f5f6368616e676542616c616e6365496e63656e74697665457175696c696272698152671d5b53d9999cd95d60c21b602082015260280190565b604051602081830303815290604052805190602001206018604051602001612abd919061551a565b6040516020818303038152906040528051906020012014155b15612b18576017546040516367f3fcb360e11b815263ffffffff84166004820152602481018390526001600160a01b039091169063cfe7f966906044016127be565b6127fd8282613f12565b6000612b2e8383614560565b905080156113e75763ffffffff83166000908152600d6020908152604080832054600f83528184206001600160a01b038716855290925290912055612b738282614683565b604080516001600160a01b038416815263ffffffff851660208201529081018290527f2f0b57f663333228518fca119813fe0f6daeb5f19d087965f56b45fecf2d520590606001611b33565b6001600160a01b0382166000908152600c6020908152604080832054601083528184203385529092529091205463ffffffff90911690612c375760405162461bcd60e51b81526020600482015260136024820152726e6f7468696e6720746f20776974686472617760681b6044820152606401611612565b612c41813361416a565b6001600160a01b0383166000908152601060209081526040808320338452909152902054612c7090839061588d565b6001600160a01b038416600090815260106020908152604080832033845282528083209390935563ffffffff841682526008905290812054670de0b6b3a764000090612cbc908561582f565b612cc69190615684565b90506001600160a01b03841663a9059cbb33612ce2848761588d565b6040516001600160e01b031960e085901b1681526001600160a01b0390921660048301526024820152604401602060405180830381600087803b158015612d2857600080fd5b505af1158015612d3c573d6000803e3d6000fd5b505050506040513d601f19601f82011682018060405250810190612d609190614e89565b50604080513381526001600160a01b03861660208201529081018490527fb7c918e0e249f999e965cafeb6c664271b3f4317d296461500e71da39f0cbda390606001612948565b60008415612e1f5763ffffffff86166000908152600e602090815260408083208684529091528082206001908101548584529183200154612de8919061588d565b9050710b7abc627050305adf14a3d9e40000000000612e07878361582f565b612e119190615684565b612e1b908361563e565b9150505b83156114835763ffffffff86166000908152600e602090815260408083208684529091528082206002908101548584529183200154612e5e919061588d565b9050710b7abc627050305adf14a3d9e40000000000612e7d868361582f565b612e879190615684565b612e91908361563e565b979650505050505050565b601754600160a01b900460ff168015612f1d57506040517f5f6d696e74416363756d756c61746564466c6f61744d756c74690000000000006020820152603a01604051602081830303815290604052805190602001206018604051602001612f04919061551a565b6040516020818303038152906040528051906020012014155b15612f5657601754604051637491b25f60e11b81526001600160a01b039091169063e92364be90611c15908690869086906004016155d1565b611c548383836134c7565b6005546040516340c10f1960e01b81526001600160a01b03848116600483015260248201849052909116906340c10f1990604401600060405180830381600087803b158015612faf57600080fd5b505af1158015612fc3573d6000803e3d6000fd5b50506005546001546003546001600160a01b0392831694506340c10f199350911690670de0b6b3a764000090612ff9908661582f565b6130039190615684565b6040516001600160e01b031960e085901b1681526001600160a01b0390921660048301526024820152604401600060405180830381600087803b15801561304957600080fd5b505af1158015611aa8573d6000803e3d6000fd5b600080831580159061306e57508215155b61308857634e487b7160e01b600052600160045260246000fd5b600061309388614739565b905060006130a1858761563e565b63ffffffff8a166000908152600a602052604081205491925090670de0b6b3a7640000906130d09084906157ac565b6130da9190615656565b9050866130e7828861584e565b12156132175785811261311f5760008861310985670de0b6b3a764000061582f565b613113919061582f565b94509450505050611519565b63ffffffff8a166000908152600960205260408120546131416001603461588d565b61314b848a61584e565b61315692911c6156de565b63ffffffff8c166000908152600960205260408120549192509061317e90603486901c6156de565b9050600081613195846706f05b59d3b2000061582f565b61319f9190615684565b905060006131b582670de0b6b3a764000061588d565b9050670de0b6b3a76400008d6131cb898561582f565b6131d5919061582f565b6131df9190615684565b670de0b6b3a76400008d6131f38a8561582f565b6131fd919061582f565b6132079190615684565b9850985050505050505050611519565b86613221826158fa565b12613251578861323984670de0b6b3a764000061582f565b613243919061582f565b600094509450505050611519565b63ffffffff8a166000908152600960205260408120546132736001603461588d565b61327d848b6155fd565b61328892911c6156de565b63ffffffff8c16600090815260096020526040812054919250906132b090603486901c6156de565b90506000816132c7846706f05b59d3b2000061582f565b6132d19190615684565b905060006132e782670de0b6b3a764000061588d565b9050670de0b6b3a76400008d6132fd898461582f565b613307919061582f565b6133119190615684565b670de0b6b3a76400008d6131f38a8661582f565b60008060008061333889898989896147ee565b9150915060006133478a613a55565b9050613353838261582f565b63ffffffff8b166000908152600e60209081526040808320600d8352818420548452909152902060010154613388919061563e565b613392838361582f565b63ffffffff8c166000908152600e60209081526040808320600d83528184205484529091529020600201546133c7919061563e565b945094505050509550959350505050565b601754600160a01b900460ff1680156134525750604051755f6368616e6765466c6f617450657263656e7461676560501b6020820152603601604051602081830303815290604052805190602001206018604051602001613439919061551a565b6040516020818303038152906040528051906020012014155b156134b95760175460405163cd1a7b2760e01b8152600481018390526001600160a01b039091169063cd1a7b27906024015b60006040518083038186803b15801561349c57600080fd5b505afa1580156134b0573d6000803e3d6000fd5b50505050611408565b6134c281612a17565b611408565b6000805b8381101561367a5760006135138686848181106134f857634e487b7160e01b600052603260045260246000fd5b905060200201602081019061350d9190614fba565b85614560565b9050801561366757600d600087878581811061353f57634e487b7160e01b600052603260045260246000fd5b90506020020160208101906135549190614fba565b63ffffffff1663ffffffff16815260200190815260200160002054600f600088888681811061359357634e487b7160e01b600052603260045260246000fd5b90506020020160208101906135a89190614fba565b63ffffffff168152602080820192909252604090810160009081206001600160a01b03891682529092529020556135df818461563e565b92507f2f0b57f663333228518fca119813fe0f6daeb5f19d087965f56b45fecf2d52058487878581811061362357634e487b7160e01b600052603260045260246000fd5b90506020020160208101906136389190614fba565b604080516001600160a01b03909316835263ffffffff9091166020830152810183905260600160405180910390a15b5080613672816158df565b9150506134cb565b50801561368b5761368b8282614683565b50505050565b6000811180156136a15750600681105b6137025760405162461bcd60e51b815260206004820152602c60248201527f62616c616e6365496e63656e7469766543757276655f6578706f6e656e74206f60448201526b7574206f6620626f756e647360a01b6064820152608401611612565b63ffffffff909116600090815260096020526040902055565b6001600160a01b0381166000908152600c602052604090205463ffffffff166114085760405162461bcd60e51b815260206004820152600f60248201526e0dcdee840ecc2d8d2c840e6f2dce8d608b1b6044820152606401611612565b601754600160a01b900460ff1680156137f957506040517f6f6e6c794c6f6e6753686f72744d6f6469666965724c6f6769630000000000006020820152603a016040516020818303038152906040528051906020012060186040516020016137e0919061551a565b6040516020818303038152906040528051906020012014155b1561384c57601760009054906101000a90046001600160a01b03166001600160a01b0316631b2614346040518163ffffffff1660e01b815260040160006040518083038186803b1580156126e157600080fd5b612706613e25565b601754600160a01b900460ff1680156138d557506040517f5f6368616e676542616c616e6365496e63656e746976654578706f6e656e74006020820152603f016040516020818303038152906040528051906020012060186040516020016138bc919061551a565b6040516020818303038152906040528051906020012014155b15613917576017546040516347e415f760e01b815263ffffffff84166004820152602481018390526001600160a01b03909116906347e415f7906044016127be565b6127fd8282613691565b601754600160a01b900460ff1680156139b85750604051602001613977907f5f6368616e67654d61726b65744c61756e6368496e63656e74697665506172618152656d657465727360d01b602082015260260190565b60405160208183030381529060405280519060200120601860405160200161399f919061551a565b6040516020818303038152906040528051906020012014155b15613a01576017546040516376764a4b60e11b815263ffffffff8516600482015260248101849052604481018390526001600160a01b039091169063ecec949690606401611c15565b611c54838383613e70565b63ffffffff81166000908152600660209081526040808320546007909252822054829190670de0b6b3a7640000811015613a4b5750670de0b6b3a76400005b9092509050915091565b601754600090600160a01b900460ff168015613b145750604051602001613ad3907f5f63616c63756c61746554696d6544656c746146726f6d4c617374416363756d81527f756c617469766549737375616e63655065725374616b656453796e7468536e616020820152641c1cda1bdd60da1b604082015260450190565b604051602081830303815290604052805190602001206018604051602001613afb919061551a565b6040516020818303038152906040528051906020012014155b15613ba25760175460405163b33749d760e01b815263ffffffff841660048201526001600160a01b039091169063b33749d7906024015b60206040518083038186803b158015613b6357600080fd5b505afa158015613b77573d6000803e3d6000fd5b505050506040513d601f19601f82011682018060405250810190613b9b9190614f2a565b90506113fa565b613b9b82613ee0565b601754600160a01b900460ff168015613c595750604051602001613c18907f5f73657443757272656e74416363756d756c617469766549737375616e63655081527f65725374616b655374616b656453796e7468536e617073686f740000000000006020820152603a0190565b604051602081830303815290604052805190602001206018604051602001613c40919061551a565b6040516020818303038152906040528051906020012014155b15613ce05760175460405163e0837e6f60e01b815263ffffffff87166004820152602481018690526044810185905260648101849052608481018390526001600160a01b039091169063e0837e6f9060a40160006040518083038186803b158015613cc357600080fd5b505afa158015613cd7573d6000803e3d6000fd5b50505050611ac7565b613ced8585858585613d3e565b611ac7565b6000546201000090046001600160a01b03163314611ab85760405162461bcd60e51b81526020600482015260096024820152683737ba1030b236b4b760b91b6044820152606401611612565b600080613d4e878787878761492c565b63ffffffff89166000908152600d602052604081205492945090925090613d7690600161563e565b63ffffffff89166000818152600e6020908152604080832085845282528083206001810189905560028101889055429055838352600d825291829020849055815192835282018390528101859052606081018490529091507f65663e89e16ccfe470dd659bacdf6fddae8185e108d00bc980d34be7e86466d09060800161195f565b66b1a2bc2ec50000811115613e0c57600080fd5b63ffffffff909116600090815260086020526040902055565b6004546001600160a01b03163314611ab85760405162461bcd60e51b815260206004820152600e60248201526d1b9bdd081b1bdb99c81cda1bdc9d60921b6044820152606401611612565b670de0b6b3a76400008110156105105760405162461bcd60e51b815260206004820152602f60248201527f6d61726b65744c61756e6368496e63656e746976654d756c7469706c6965722060448201526e0daeae6e840c4ca407c7a4062ca627608b1b6064820152608401611612565b63ffffffff81166000908152600e60209081526040808320600d83528184205484529091528120546113f7904261588d565b670c7d713b49d9ffff1981138015613f315750670c7d713b49da000081125b613f9b5760405162461bcd60e51b815260206004820152603560248201527f62616c616e6365496e63656e7469766543757276655f657175696c69627269756044820152746d4f6666736574206f7574206f6620626f756e647360581b6064820152608401611612565b63ffffffff9091166000908152600a6020526040902055565b601754600160a01b900460ff16801561403557506040517f6f6e6c7956616c696453796e7468657469634d6f6469666965724c6f676963006020820152603f0160405160208183030381529060405280519060200120601860405160200161401c919061551a565b6040516020818303038152906040528051906020012014155b1561406c5760175460405163c6b4766d60e01b81526001600160a01b0383811660048301529091169063c6b4766d90602401613484565b6134c28161371b565b3361407f81613fb4565b60048054336000908152600c6020526040908190205490516305c8146f60e01b815263ffffffff909116928101929092526001600160a01b0316906305c8146f90602401600060405180830381600087803b1580156140dd57600080fd5b505af11580156140f1573d6000803e3d6000fd5b505050506113e7338385614a33565b63ffffffff81166000908152600b60209081526040808320600184529091529020546001600160a01b03166114085760405162461bcd60e51b815260206004820152601060248201526f1b9bdd081d985b1a59081b585c9ad95d60821b6044820152606401611612565b601754600160a01b900460ff1680156141e357506040517417db5a5b9d1058d8dd5b5d5b185d1959119b1bd85d605a1b60208201526035016040516020818303038152906040528051906020012060186040516020016141ca919061551a565b6040516020818303038152906040528051906020012014155b15614226576017546040516305f753b960e51b815263ffffffff841660048201526001600160a01b0383811660248301529091169063beea7720906044016127be565b6127fd8282612b22565b601754600160a01b900460ff16801561429d5750604051685f776974686472617760b81b6020820152602901604051602081830303815290604052805190602001206018604051602001614284919061551a565b6040516020818303038152906040528051906020012014155b156142db576017546040516316d686a360e21b81526001600160a01b0384811660048301526024820184905290911690635b5a1a8c906044016127be565b6127fd8282612bbf565b601754600090600160a01b900460ff16801561437a5750604051602001614339907f5f63616c63756c617465416363756d756c61746564466c6f6174496e52616e678152606560f81b602082015260210190565b604051602081830303815290604052805190602001206018604051602001614361919061551a565b6040516020818303038152906040528051906020012014155b1561442357601754604051637114597d60e11b815263ffffffff88166004820152602481018790526044810186905260648101859052608481018490526001600160a01b039091169063e228b2fa9060a40160206040518083038186803b1580156143e457600080fd5b505afa1580156143f8573d6000803e3d6000fd5b505050506040513d601f19601f8201168201806040525081019061441c9190614f2a565b9050611483565b61441c8686868686612da7565b6017546000908190600160a01b900460ff1680156144c95750604051602001614488907f5f6765744d61726b65744c61756e6368496e63656e74697665506172616d657481526265727360e81b602082015260230190565b6040516020818303038152906040528051906020012060186040516020016144b0919061551a565b6040516020818303038152906040528051906020012014155b1561455757601754604051639dd912f960e01b815263ffffffff851660048201526001600160a01b0390911690639dd912f990602401604080518083038186803b15801561451657600080fd5b505afa15801561452a573d6000803e3d6000fd5b505050506040513d601f19601f8201168201806040525081019061454e9190614f63565b915091506119d0565b61454e83613a0c565b601754600090600160a01b900460ff1680156145e457506040517f5f63616c63756c617465416363756d756c61746564466c6f61740000000000006020820152603a016040516020818303038152906040528051906020012060186040516020016145cb919061551a565b6040516020818303038152906040528051906020012014155b1561467957601754604051631e3bede560e01b815263ffffffff851660048201526001600160a01b03848116602483015290911690631e3bede59060440160206040518083038186803b15801561463a57600080fd5b505afa15801561464e573d6000803e3d6000fd5b505050506040513d601f19601f820116820180604052508101906146729190614f2a565b9050611380565b6146728383612165565b601754600160a01b900460ff1680156146f157506040516917db5a5b9d119b1bd85d60b21b6020820152602a016040516020818303038152906040528051906020012060186040516020016146d8919061551a565b6040516020818303038152906040528051906020012014155b1561472f5760175460405163c73fe55760e01b81526001600160a01b038481166004830152602482018490529091169063c73fe557906044016127be565b6127fd8282612f61565b601754600090600160a01b900460ff1680156147aa5750604051695f6765744b56616c756560b01b6020820152602a01604051602081830303815290604052805190602001206018604051602001614791919061551a565b6040516020818303038152906040528051906020012014155b156147e557601754604051633354f3e160e11b815263ffffffff841660048201526001600160a01b03909116906366a9e7c290602401613b4b565b613b9b82612956565b6017546000908190600160a01b900460ff16801561487457506040517f5f63616c63756c617465466c6f61745065725365636f6e640000000000000000602082015260380160405160208183030381529060405280519060200120601860405160200161485b919061551a565b6040516020818303038152906040528051906020012014155b1561491f5760175460405163e69ba10760e01b815263ffffffff89166004820152602481018890526044810187905260648101869052608481018590526001600160a01b039091169063e69ba1079060a4015b604080518083038186803b1580156148de57600080fd5b505afa1580156148f2573d6000803e3d6000fd5b505050506040513d601f19601f820116820180604052508101906149169190614f63565b91509150611519565b614916878787878761305d565b6017546000908190600160a01b900460ff1680156149cf575060405160200161498e907f5f63616c63756c6174654e657743756d756c617469766549737375616e63655081526c0cae4a6e8c2d6cac8a6f2dce8d609b1b6020820152602d0190565b6040516020818303038152906040528051906020012060186040516020016149b6919061551a565b6040516020818303038152906040528051906020012014155b15614a265760175460405163ed3d0c1b60e01b815263ffffffff89166004820152602481018890526044810187905260648101869052608481018590526001600160a01b039091169063ed3d0c1b9060a4016148c7565b6149168787878787613325565b601754600160a01b900460ff168015614a9d5750604051655f7374616b6560d01b6020820152602601604051602081830303815290604052805190602001206018604051602001614a84919061551a565b6040516020818303038152906040528051906020012014155b15614ae3576017546040516301af204f60e01b81526001600160a01b038581166004830152602482018590528381166044830152909116906301af204f90606401611c15565b611c54838383612802565b828054614afa906158a4565b90600052602060002090601f016020900481019282614b1c5760008555614b62565b82601f10614b355782800160ff19823516178555614b62565b82800160010185558215614b62579182015b82811115614b62578235825591602001919060010190614b47565b50614b6e929150614b72565b5090565b5b80821115614b6e5760008155600101614b73565b60008083601f840112614b98578182fd5b50813567ffffffffffffffff811115614baf578182fd5b6020830191508360208260051b8501011115614bca57600080fd5b9250929050565b803563ffffffff811681146113fa57600080fd5b600060208284031215614bf6578081fd5b8135614c0181615940565b9392505050565b60008060408385031215614c1a578081fd5b8235614c2581615940565b91506020830135614c3581615940565b809150509250929050565b60008060008060008060c08789031215614c58578182fd5b8635614c6381615940565b95506020870135614c7381615940565b94506040870135614c8381615940565b93506060870135614c9381615940565b92506080870135614ca381615940565b8092505060a087013590509295509295509295565b600080600060608486031215614ccc578283fd5b8335614cd781615940565b92506020840135614ce781615940565b9150614cf560408501614bd1565b90509250925092565b60008060408385031215614d10578182fd5b8235614d1b81615940565b9150602083013561ffff81168114614c35578182fd5b60008060408385031215614d43578182fd5b8235614d4e81615940565b946020939093013593505050565b600080600060608486031215614d70578283fd5b8335614d7b81615940565b9250602084013591506040840135614d9281615940565b809150509250925092565b60008060008060008060c08789031215614db5578182fd5b8635614dc081615940565b9550614dce60208801614bd1565b9450604087013593506060870135614de581615940565b9598949750929560808101359460a0909101359350915050565b60008060208385031215614e11578182fd5b823567ffffffffffffffff811115614e27578283fd5b614e3385828601614b87565b90969095509350505050565b600080600060408486031215614e53578283fd5b833567ffffffffffffffff811115614e69578384fd5b614e7586828701614b87565b9094509250506020840135614d9281615940565b600060208284031215614e9a578081fd5b8151614c0181615955565b60008060208385031215614eb7578182fd5b823567ffffffffffffffff80821115614ece578384fd5b818501915085601f830112614ee1578384fd5b813581811115614eef578485fd5b866020828501011115614f00578485fd5b60209290920196919550909350505050565b600060208284031215614f23578081fd5b5035919050565b600060208284031215614f3b578081fd5b5051919050565b60008060408385031215614f54578182fd5b50508035926020909101359150565b60008060408385031215614f75578182fd5b505080516020909101519092909150565b600080600060608486031215614f9a578081fd5b83359250614faa60208501614bd1565b91506040840135614d9281615955565b600060208284031215614fcb578081fd5b61137d82614bd1565b60008060408385031215614fe6578182fd5b614c2583614bd1565b600080600060608486031215615003578081fd5b61500c84614bd1565b9250602084013561501c81615940565b91506040840135614d9281615940565b600080600080600060a08688031215615043578283fd5b61504c86614bd1565b9450602086013561505c81615940565b9350604086013561506c81615940565b9250606086013561507c81615940565b9150608086013561508c81615940565b809150509295509295909350565b600080600080600060a086880312156150b1578283fd5b6150ba86614bd1565b945060208601356150ca81615940565b935060408601356150da81615940565b925060608601359150608086013561508c81615940565b6000806000806000806000806000806000806101808d8f03121561511357898afd5b61511c8d614bd1565b9b5060208d013561512c81615940565b9a5060408d013561513c81615940565b995060608d0135985060808d013561515381615940565b9b9e9a9d50989b979a9960a0890135995060c08901359860e0810135985061010081013597506101208101359650610140810135955061016001359350915050565b600080600080600060a086880312156151ac578283fd5b6151b586614bd1565b945060208601356151c581615940565b935060408601356151d581615940565b94979396509394606081013594506080013592915050565b600080600080600080600080610100898b031215615209578182fd5b61521289614bd1565b9750602089013561522281615940565b9650604089013561523281615940565b979a96995096976060810135975060808101359660a0820135965060c0820135955060e0909101359350915050565b600080600080600080600080610100898b03121561527d578182fd5b61528689614bd1565b9750602089013561529681615940565b979a9799505050506040860135956060810135956080820135955060a0820135945060c0820135935060e0909101359150565b600080604083850312156152db578182fd5b6152e483614bd1565b91506020830135614c3581615955565b600080600080600080600080610100898b031215615310578182fd5b61531989614bd1565b9750602089013561532981615955565b9650604089013561533981615940565b9550606089013594506080890135935060a0890135925060c0890135915060e089013561536581615940565b809150509295985092959890939650565b60008060408385031215615388578182fd5b614d4e83614bd1565b6000806000606084860312156153a5578081fd5b6153ae84614bd1565b95602085013595506040909401359392505050565b600080600080608085870312156153d8578182fd5b6153e185614bd1565b966020860135965060408601359560600135945092505050565b600080600080600060a08688031215615412578283fd5b61541b86614bd1565b97602087013597506040870135966060810135965060800135945092505050565b60008060008060008060c08789031215615454578384fd5b61545d87614bd1565b9860208801359850604088013597606081013597506080810135965060a00135945092505050565b600080600080600080600060e0888a03121561549f578081fd5b6154a888614bd1565b9960208901359950604089013598606081013598506080810135975060a0810135965060c00135945092505050565b60008284526020808501945082825b8581101561550f5763ffffffff6154fc83614bd1565b16875295820195908201906001016154e6565b509495945050505050565b600080835482600182811c91508083168061553657607f831692505b602080841082141561555657634e487b7160e01b87526022600452602487fd5b81801561556a576001811461557b576155a7565b60ff198616895284890196506155a7565b60008a815260209020885b8681101561559f5781548b820152908501908301615586565b505084890196505b509498975050505050505050565b6000602082526155c96020830184866154d7565b949350505050565b6000604082526155e56040830185876154d7565b905060018060a01b0383166020830152949350505050565b600080821280156001600160ff1b038490038513161561561f5761561f615914565b600160ff1b839003841281161561563857615638615914565b50500190565b6000821982111561565157615651615914565b500190565b6000826156655761566561592a565b600160ff1b82146000198414161561567f5761567f615914565b500590565b6000826156935761569361592a565b500490565b80825b60018086116156aa57506156d5565b8187048211156156bc576156bc615914565b808616156156c957918102915b9490941c93800261569b565b94509492505050565b600061137d60001984846000826156f757506001614c01565b8161570457506000614c01565b816001811461571a576002811461572457615751565b6001915050614c01565b60ff84111561573557615735615914565b6001841b91508482111561574b5761574b615914565b50614c01565b5060208310610133831016604e8410600b8410161715615784575081810a8381111561577f5761577f615914565b614c01565b6157918484846001615698565b8086048211156157a3576157a3615914565b02949350505050565b60006001600160ff1b03818413828413808216868404861116156157d2576157d2615914565b600160ff1b848712828116878305891216156157f0576157f0615914565b85871292508782058712848416161561580b5761580b615914565b8785058712818416161561582157615821615914565b505050929093029392505050565b600081600019048311821515161561584957615849615914565b500290565b60008083128015600160ff1b85018412161561586c5761586c615914565b6001600160ff1b038401831381161561588757615887615914565b50500390565b60008282101561589f5761589f615914565b500390565b600181811c908216806158b857607f821691505b602082108114156158d957634e487b7160e01b600052602260045260246000fd5b50919050565b60006000198214156158f3576158f3615914565b5060010190565b6000600160ff1b82141561591057615910615914565b0390565b634e487b7160e01b600052601160045260246000fd5b634e487b7160e01b600052601260045260246000fd5b6001600160a01b038116811461140857600080fd5b801515811461140857600080fdfea26469706673582212201121ff077592f7ddd4b6fe500c0911e906728252036d5423a678d4494c3e76c864736f6c63430008030033",
  "immutableReferences": {},
  "source": "// SPDX-License-Identifier: BUSL-1.1\n\npragma solidity 0.8.3;\n\nimport \"@openzeppelin/contracts-upgradeable/token/ERC20/presets/ERC20PresetMinterPauserUpgradeable.sol\";\nimport \"../../interfaces/IFloatToken.sol\";\nimport \"../../interfaces/ILongShort.sol\";\nimport \"../../interfaces/IStaker.sol\";\nimport \"../../interfaces/ISyntheticToken.sol\";\n\nimport \"./StakerForInternalMocking.sol\";\nimport \"../StakerInternalStateSetters.sol\";\n\ncontract StakerMockable is StakerInternalStateSetters {\n  StakerForInternalMocking mocker;\n  bool shouldUseMock;\n  string functionToNotMock;\n\n  function setMocker(StakerForInternalMocking _mocker) external {\n    mocker = _mocker;\n    shouldUseMock = true;\n  }\n\n  function setFunctionToNotMock(string calldata _functionToNotMock) external {\n    functionToNotMock = _functionToNotMock;\n  }\n\n  function onlyAdminModifierLogicExposed() external {\n    return super.onlyAdminModifierLogic();\n  }\n\n  function onlyAdminModifierLogic() internal override {\n    if (\n      shouldUseMock &&\n      keccak256(abi.encodePacked(functionToNotMock)) !=\n      keccak256(abi.encodePacked(\"onlyAdminModifierLogic\"))\n    ) {\n      return mocker.onlyAdminModifierLogicMock();\n    } else {\n      return super.onlyAdminModifierLogic();\n    }\n  }\n\n  function onlyValidSyntheticModifierLogicExposed(address _synth) external {\n    return super.onlyValidSyntheticModifierLogic(_synth);\n  }\n\n  function onlyValidSyntheticModifierLogic(address _synth) internal override {\n    if (\n      shouldUseMock &&\n      keccak256(abi.encodePacked(functionToNotMock)) !=\n      keccak256(abi.encodePacked(\"onlyValidSyntheticModifierLogic\"))\n    ) {\n      return mocker.onlyValidSyntheticModifierLogicMock(_synth);\n    } else {\n      return super.onlyValidSyntheticModifierLogic(_synth);\n    }\n  }\n\n  function onlyValidMarketModifierLogicExposed(uint32 marketIndex) external {\n    return super.onlyValidMarketModifierLogic(marketIndex);\n  }\n\n  function onlyValidMarketModifierLogic(uint32 marketIndex) internal override {\n    if (\n      shouldUseMock &&\n      keccak256(abi.encodePacked(functionToNotMock)) !=\n      keccak256(abi.encodePacked(\"onlyValidMarketModifierLogic\"))\n    ) {\n      return mocker.onlyValidMarketModifierLogicMock(marketIndex);\n    } else {\n      return super.onlyValidMarketModifierLogic(marketIndex);\n    }\n  }\n\n  function onlyLongShortModifierLogicExposed() external {\n    return super.onlyLongShortModifierLogic();\n  }\n\n  function onlyLongShortModifierLogic() internal override {\n    if (\n      shouldUseMock &&\n      keccak256(abi.encodePacked(functionToNotMock)) !=\n      keccak256(abi.encodePacked(\"onlyLongShortModifierLogic\"))\n    ) {\n      return mocker.onlyLongShortModifierLogicMock();\n    } else {\n      return super.onlyLongShortModifierLogic();\n    }\n  }\n\n  function _changeFloatPercentageExposed(uint256 newFloatPercentage) external {\n    return super._changeFloatPercentage(newFloatPercentage);\n  }\n\n  function _changeFloatPercentage(uint256 newFloatPercentage) internal override {\n    if (\n      shouldUseMock &&\n      keccak256(abi.encodePacked(functionToNotMock)) !=\n      keccak256(abi.encodePacked(\"_changeFloatPercentage\"))\n    ) {\n      return mocker._changeFloatPercentageMock(newFloatPercentage);\n    } else {\n      return super._changeFloatPercentage(newFloatPercentage);\n    }\n  }\n\n  function _changeUnstakeFeeExposed(uint32 marketIndex, uint256 newMarketUnstakeFee_e18) external {\n    return super._changeUnstakeFee(marketIndex, newMarketUnstakeFee_e18);\n  }\n\n  function _changeUnstakeFee(uint32 marketIndex, uint256 newMarketUnstakeFee_e18)\n    internal\n    override\n  {\n    if (\n      shouldUseMock &&\n      keccak256(abi.encodePacked(functionToNotMock)) !=\n      keccak256(abi.encodePacked(\"_changeUnstakeFee\"))\n    ) {\n      return mocker._changeUnstakeFeeMock(marketIndex, newMarketUnstakeFee_e18);\n    } else {\n      return super._changeUnstakeFee(marketIndex, newMarketUnstakeFee_e18);\n    }\n  }\n\n  function _changeMarketLaunchIncentiveParametersExposed(\n    uint32 marketIndex,\n    uint256 period,\n    uint256 initialMultiplier\n  ) external {\n    return super._changeMarketLaunchIncentiveParameters(marketIndex, period, initialMultiplier);\n  }\n\n  function _changeMarketLaunchIncentiveParameters(\n    uint32 marketIndex,\n    uint256 period,\n    uint256 initialMultiplier\n  ) internal override {\n    if (\n      shouldUseMock &&\n      keccak256(abi.encodePacked(functionToNotMock)) !=\n      keccak256(abi.encodePacked(\"_changeMarketLaunchIncentiveParameters\"))\n    ) {\n      return\n        mocker._changeMarketLaunchIncentiveParametersMock(marketIndex, period, initialMultiplier);\n    } else {\n      return super._changeMarketLaunchIncentiveParameters(marketIndex, period, initialMultiplier);\n    }\n  }\n\n  function _changeBalanceIncentiveExponentExposed(\n    uint32 marketIndex,\n    uint256 _balanceIncentiveCurve_exponent\n  ) external {\n    return super._changeBalanceIncentiveExponent(marketIndex, _balanceIncentiveCurve_exponent);\n  }\n\n  function _changeBalanceIncentiveExponent(\n    uint32 marketIndex,\n    uint256 _balanceIncentiveCurve_exponent\n  ) internal override {\n    if (\n      shouldUseMock &&\n      keccak256(abi.encodePacked(functionToNotMock)) !=\n      keccak256(abi.encodePacked(\"_changeBalanceIncentiveExponent\"))\n    ) {\n      return\n        mocker._changeBalanceIncentiveExponentMock(marketIndex, _balanceIncentiveCurve_exponent);\n    } else {\n      return super._changeBalanceIncentiveExponent(marketIndex, _balanceIncentiveCurve_exponent);\n    }\n  }\n\n  function _changeBalanceIncentiveEquilibriumOffsetExposed(\n    uint32 marketIndex,\n    int256 _balanceIncentiveCurve_equilibriumOffset\n  ) external {\n    return\n      super._changeBalanceIncentiveEquilibriumOffset(\n        marketIndex,\n        _balanceIncentiveCurve_equilibriumOffset\n      );\n  }\n\n  function _changeBalanceIncentiveEquilibriumOffset(\n    uint32 marketIndex,\n    int256 _balanceIncentiveCurve_equilibriumOffset\n  ) internal override {\n    if (\n      shouldUseMock &&\n      keccak256(abi.encodePacked(functionToNotMock)) !=\n      keccak256(abi.encodePacked(\"_changeBalanceIncentiveEquilibriumOffset\"))\n    ) {\n      return\n        mocker._changeBalanceIncentiveEquilibriumOffsetMock(\n          marketIndex,\n          _balanceIncentiveCurve_equilibriumOffset\n        );\n    } else {\n      return\n        super._changeBalanceIncentiveEquilibriumOffset(\n          marketIndex,\n          _balanceIncentiveCurve_equilibriumOffset\n        );\n    }\n  }\n\n  function _getMarketLaunchIncentiveParametersExposed(uint32 marketIndex)\n    external\n    view\n    returns (uint256, uint256)\n  {\n    return super._getMarketLaunchIncentiveParameters(marketIndex);\n  }\n\n  function _getMarketLaunchIncentiveParameters(uint32 marketIndex)\n    internal\n    view\n    override\n    returns (uint256, uint256)\n  {\n    if (\n      shouldUseMock &&\n      keccak256(abi.encodePacked(functionToNotMock)) !=\n      keccak256(abi.encodePacked(\"_getMarketLaunchIncentiveParameters\"))\n    ) {\n      return mocker._getMarketLaunchIncentiveParametersMock(marketIndex);\n    } else {\n      return super._getMarketLaunchIncentiveParameters(marketIndex);\n    }\n  }\n\n  function _getKValueExposed(uint32 marketIndex) external view returns (uint256) {\n    return super._getKValue(marketIndex);\n  }\n\n  function _getKValue(uint32 marketIndex) internal view override returns (uint256) {\n    if (\n      shouldUseMock &&\n      keccak256(abi.encodePacked(functionToNotMock)) != keccak256(abi.encodePacked(\"_getKValue\"))\n    ) {\n      return mocker._getKValueMock(marketIndex);\n    } else {\n      return super._getKValue(marketIndex);\n    }\n  }\n\n  function _calculateFloatPerSecondExposed(\n    uint32 marketIndex,\n    uint256 longPrice,\n    uint256 shortPrice,\n    uint256 longValue,\n    uint256 shortValue\n  ) external view returns (uint256 longFloatPerSecond, uint256 shortFloatPerSecond) {\n    return\n      super._calculateFloatPerSecond(marketIndex, longPrice, shortPrice, longValue, shortValue);\n  }\n\n  function _calculateFloatPerSecond(\n    uint32 marketIndex,\n    uint256 longPrice,\n    uint256 shortPrice,\n    uint256 longValue,\n    uint256 shortValue\n  ) internal view override returns (uint256 longFloatPerSecond, uint256 shortFloatPerSecond) {\n    if (\n      shouldUseMock &&\n      keccak256(abi.encodePacked(functionToNotMock)) !=\n      keccak256(abi.encodePacked(\"_calculateFloatPerSecond\"))\n    ) {\n      return\n        mocker._calculateFloatPerSecondMock(\n          marketIndex,\n          longPrice,\n          shortPrice,\n          longValue,\n          shortValue\n        );\n    } else {\n      return\n        super._calculateFloatPerSecond(marketIndex, longPrice, shortPrice, longValue, shortValue);\n    }\n  }\n\n  function _calculateTimeDeltaFromLastAccumulativeIssuancePerStakedSynthSnapshotExposed(\n    uint32 marketIndex\n  ) external view returns (uint256) {\n    return super._calculateTimeDeltaFromLastAccumulativeIssuancePerStakedSynthSnapshot(marketIndex);\n  }\n\n  function _calculateTimeDeltaFromLastAccumulativeIssuancePerStakedSynthSnapshot(uint32 marketIndex)\n    internal\n    view\n    override\n    returns (uint256)\n  {\n    if (\n      shouldUseMock &&\n      keccak256(abi.encodePacked(functionToNotMock)) !=\n      keccak256(\n        abi.encodePacked(\"_calculateTimeDeltaFromLastAccumulativeIssuancePerStakedSynthSnapshot\")\n      )\n    ) {\n      return\n        mocker._calculateTimeDeltaFromLastAccumulativeIssuancePerStakedSynthSnapshotMock(\n          marketIndex\n        );\n    } else {\n      return\n        super._calculateTimeDeltaFromLastAccumulativeIssuancePerStakedSynthSnapshot(marketIndex);\n    }\n  }\n\n  function _calculateNewCumulativeIssuancePerStakedSynthExposed(\n    uint32 marketIndex,\n    uint256 longPrice,\n    uint256 shortPrice,\n    uint256 longValue,\n    uint256 shortValue\n  ) external view returns (uint256 longCumulativeRates, uint256 shortCumulativeRates) {\n    return\n      super._calculateNewCumulativeIssuancePerStakedSynth(\n        marketIndex,\n        longPrice,\n        shortPrice,\n        longValue,\n        shortValue\n      );\n  }\n\n  function _calculateNewCumulativeIssuancePerStakedSynth(\n    uint32 marketIndex,\n    uint256 longPrice,\n    uint256 shortPrice,\n    uint256 longValue,\n    uint256 shortValue\n  ) internal view override returns (uint256 longCumulativeRates, uint256 shortCumulativeRates) {\n    if (\n      shouldUseMock &&\n      keccak256(abi.encodePacked(functionToNotMock)) !=\n      keccak256(abi.encodePacked(\"_calculateNewCumulativeIssuancePerStakedSynth\"))\n    ) {\n      return\n        mocker._calculateNewCumulativeIssuancePerStakedSynthMock(\n          marketIndex,\n          longPrice,\n          shortPrice,\n          longValue,\n          shortValue\n        );\n    } else {\n      return\n        super._calculateNewCumulativeIssuancePerStakedSynth(\n          marketIndex,\n          longPrice,\n          shortPrice,\n          longValue,\n          shortValue\n        );\n    }\n  }\n\n  function _setCurrentAccumulativeIssuancePerStakeStakedSynthSnapshotExposed(\n    uint32 marketIndex,\n    uint256 longPrice,\n    uint256 shortPrice,\n    uint256 longValue,\n    uint256 shortValue\n  ) external {\n    return\n      super._setCurrentAccumulativeIssuancePerStakeStakedSynthSnapshot(\n        marketIndex,\n        longPrice,\n        shortPrice,\n        longValue,\n        shortValue\n      );\n  }\n\n  function _setCurrentAccumulativeIssuancePerStakeStakedSynthSnapshot(\n    uint32 marketIndex,\n    uint256 longPrice,\n    uint256 shortPrice,\n    uint256 longValue,\n    uint256 shortValue\n  ) internal override {\n    if (\n      shouldUseMock &&\n      keccak256(abi.encodePacked(functionToNotMock)) !=\n      keccak256(abi.encodePacked(\"_setCurrentAccumulativeIssuancePerStakeStakedSynthSnapshot\"))\n    ) {\n      return\n        mocker._setCurrentAccumulativeIssuancePerStakeStakedSynthSnapshotMock(\n          marketIndex,\n          longPrice,\n          shortPrice,\n          longValue,\n          shortValue\n        );\n    } else {\n      return\n        super._setCurrentAccumulativeIssuancePerStakeStakedSynthSnapshot(\n          marketIndex,\n          longPrice,\n          shortPrice,\n          longValue,\n          shortValue\n        );\n    }\n  }\n\n  function _calculateAccumulatedFloatInRangeExposed(\n    uint32 marketIndex,\n    uint256 amountStakedLong,\n    uint256 amountStakedShort,\n    uint256 rewardIndexFrom,\n    uint256 rewardIndexTo\n  ) external view returns (uint256 floatReward) {\n    return\n      super._calculateAccumulatedFloatInRange(\n        marketIndex,\n        amountStakedLong,\n        amountStakedShort,\n        rewardIndexFrom,\n        rewardIndexTo\n      );\n  }\n\n  function _calculateAccumulatedFloatInRange(\n    uint32 marketIndex,\n    uint256 amountStakedLong,\n    uint256 amountStakedShort,\n    uint256 rewardIndexFrom,\n    uint256 rewardIndexTo\n  ) internal view override returns (uint256 floatReward) {\n    if (\n      shouldUseMock &&\n      keccak256(abi.encodePacked(functionToNotMock)) !=\n      keccak256(abi.encodePacked(\"_calculateAccumulatedFloatInRange\"))\n    ) {\n      return\n        mocker._calculateAccumulatedFloatInRangeMock(\n          marketIndex,\n          amountStakedLong,\n          amountStakedShort,\n          rewardIndexFrom,\n          rewardIndexTo\n        );\n    } else {\n      return\n        super._calculateAccumulatedFloatInRange(\n          marketIndex,\n          amountStakedLong,\n          amountStakedShort,\n          rewardIndexFrom,\n          rewardIndexTo\n        );\n    }\n  }\n\n  function _calculateAccumulatedFloatExposed(uint32 marketIndex, address user)\n    external\n    returns (uint256 floatReward)\n  {\n    return super._calculateAccumulatedFloat(marketIndex, user);\n  }\n\n  function _calculateAccumulatedFloat(uint32 marketIndex, address user)\n    internal\n    override\n    returns (uint256 floatReward)\n  {\n    if (\n      shouldUseMock &&\n      keccak256(abi.encodePacked(functionToNotMock)) !=\n      keccak256(abi.encodePacked(\"_calculateAccumulatedFloat\"))\n    ) {\n      return mocker._calculateAccumulatedFloatMock(marketIndex, user);\n    } else {\n      return super._calculateAccumulatedFloat(marketIndex, user);\n    }\n  }\n\n  function _mintFloatExposed(address user, uint256 floatToMint) external {\n    return super._mintFloat(user, floatToMint);\n  }\n\n  function _mintFloat(address user, uint256 floatToMint) internal override {\n    if (\n      shouldUseMock &&\n      keccak256(abi.encodePacked(functionToNotMock)) != keccak256(abi.encodePacked(\"_mintFloat\"))\n    ) {\n      return mocker._mintFloatMock(user, floatToMint);\n    } else {\n      return super._mintFloat(user, floatToMint);\n    }\n  }\n\n  function _mintAccumulatedFloatExposed(uint32 marketIndex, address user) external {\n    return super._mintAccumulatedFloat(marketIndex, user);\n  }\n\n  function _mintAccumulatedFloat(uint32 marketIndex, address user) internal override {\n    if (\n      shouldUseMock &&\n      keccak256(abi.encodePacked(functionToNotMock)) !=\n      keccak256(abi.encodePacked(\"_mintAccumulatedFloat\"))\n    ) {\n      return mocker._mintAccumulatedFloatMock(marketIndex, user);\n    } else {\n      return super._mintAccumulatedFloat(marketIndex, user);\n    }\n  }\n\n  function _mintAccumulatedFloatMultiExposed(uint32[] calldata marketIndexes, address user)\n    external\n  {\n    return super._mintAccumulatedFloatMulti(marketIndexes, user);\n  }\n\n  function _mintAccumulatedFloatMulti(uint32[] calldata marketIndexes, address user)\n    internal\n    override\n  {\n    if (\n      shouldUseMock &&\n      keccak256(abi.encodePacked(functionToNotMock)) !=\n      keccak256(abi.encodePacked(\"_mintAccumulatedFloatMulti\"))\n    ) {\n      return mocker._mintAccumulatedFloatMultiMock(marketIndexes, user);\n    } else {\n      return super._mintAccumulatedFloatMulti(marketIndexes, user);\n    }\n  }\n\n  function stakeFromUser(address from, uint256 amount)\n    public\n    override\n    onlyValidSynthetic((msg.sender))\n  {\n    if (\n      shouldUseMock &&\n      keccak256(abi.encodePacked(functionToNotMock)) != keccak256(abi.encodePacked(\"stakeFromUser\"))\n    ) {\n      return mocker.stakeFromUserMock(from, amount);\n    } else {\n      return super.stakeFromUser(from, amount);\n    }\n  }\n\n  function _stakeExposed(\n    address token,\n    uint256 amount,\n    address user\n  ) external {\n    return super._stake(token, amount, user);\n  }\n\n  function _stake(\n    address token,\n    uint256 amount,\n    address user\n  ) internal override {\n    if (\n      shouldUseMock &&\n      keccak256(abi.encodePacked(functionToNotMock)) != keccak256(abi.encodePacked(\"_stake\"))\n    ) {\n      return mocker._stakeMock(token, amount, user);\n    } else {\n      return super._stake(token, amount, user);\n    }\n  }\n\n  function _withdrawExposed(address token, uint256 amount) external {\n    return super._withdraw(token, amount);\n  }\n\n  function _withdraw(address token, uint256 amount) internal override {\n    if (\n      shouldUseMock &&\n      keccak256(abi.encodePacked(functionToNotMock)) != keccak256(abi.encodePacked(\"_withdraw\"))\n    ) {\n      return mocker._withdrawMock(token, amount);\n    } else {\n      return super._withdraw(token, amount);\n    }\n  }\n}\n",
  "sourcePath": "/home/jasoons/Documents/code/monorepo/contracts/contracts/testing/generated/StakerMockable.sol",
  "compiler": {
    "name": "solc",
    "version": "0.8.3+commit.8d00100c.Emscripten.clang"
  },
  "schemaVersion": "3.3.4",
  "updatedAt": "2021-08-04T10:05:03.928Z",
  "devdoc": {
    "kind": "dev",
    "methods": {
      "addNewStakingFund(uint32,address,address,uint256,uint256,uint256,uint256,int256)": {
        "params": {
          "_balanceIncentiveCurve_equilibriumOffset": "Offset for balance curve (see _calculateFloatPerSecond)",
          "_balanceIncentiveCurve_exponent": "Exponent for balance curve (see _calculateFloatPerSecond)",
          "kInitialMultiplier": "Initial boost on float generation for the market.",
          "kPeriod": "Period which the boost should last.",
          "longToken": "Address of the long token for the market.",
          "marketIndex": "Identifies the market.",
          "shortToken": "Address of the short token for the market.",
          "unstakeFee_e18": "Percentage of tokens that are levied on unstaking in base 1e18."
        }
      },
      "changeAdmin(address)": {
        "params": {
          "_admin": "The address of the new admin."
        }
      },
      "changeBalanceIncentiveEquilibriumOffset(uint32,int256)": {
        "params": {
          "_balanceIncentiveCurve_equilibriumOffset": "The new offset.",
          "marketIndex": "Identifies the market."
        }
      },
      "changeBalanceIncentiveExponent(uint32,uint256)": {
        "params": {
          "_balanceIncentiveCurve_exponent": "The new exponent for the curve.",
          "marketIndex": "Identifies the market."
        }
      },
      "changeFloatPercentage(uint256)": {
        "params": {
          "newFloatPercentage": "The new float percentage in base 1e18."
        }
      },
      "changeMarketLaunchIncentiveParameters(uint32,uint256,uint256)": {
        "params": {
          "initialMultiplier": "The new multiplier on Float generation.",
          "marketIndex": "Identifies the market.",
          "period": "The new period for which float token generation should be boosted."
        }
      },
      "changeUnstakeFee(uint32,uint256)": {
        "params": {
          "marketIndex": "Identifies the market.",
          "newMarketUnstakeFee_e18": "The new unstake fee."
        }
      },
      "claimFloatCustom(uint32[])": {
        "params": {
          "marketIndexes": "Identifiers for the markets for which to mint float."
        }
      },
      "claimFloatCustomFor(uint32[],address)": {
        "params": {
          "marketIndexes": "Identifiers for the markets for which to mint float.",
          "user": "The address of the user."
        }
      },
      "initialize(address,address,address,address,address,uint256)": {
        "details": "Calls OpenZeppelin's initializer modifier.",
        "params": {
          "_admin": "Address of the admin role.",
          "_floatCapital": "Address of the contract which earns a fixed percentage of Float.",
          "_floatPercentage": "Determines the float percentage that gets minted for Float Capital, base 1e18.",
          "_floatToken": "Address of the Float token earned by staking.",
          "_longShort": "Address of the LongShort contract, a deployed LongShort.sol"
        }
      },
      "pushUpdatedMarketPricesToUpdateFloatIssuanceCalculations(uint32,uint256,uint256,uint256,uint256,uint256)": {
        "params": {
          "longPrice": "The price of the long token as defined in LongShort.sol",
          "longValue": "The value locked in the long side of the market.",
          "marketIndex": "An identifier for the market.",
          "shortPrice": "The price of the short token as defined in LongShort.sol",
          "shortValue": "The value locked in the short side of the market.",
          "stakerTokenShiftIndex_to_longShortMarketPriceSnapshotIndex_mappingIfShiftExecuted": "Mapping from this contract's shifts to LongShort.sols next price snapshots."
        }
      },
      "shiftTokens(uint256,uint32,bool)": {
        "params": {
          "amountSyntheticTokensToShift": "Amount of tokens to shift.",
          "isShiftFromLong": "Whether the shift is from long to short or short to long.",
          "marketIndex": "Identifier for the market."
        }
      },
      "stakeFromUser(address,uint256)": {
        "params": {
          "amount": "Amount to stake.",
          "from": "Address to stake for."
        }
      },
      "withdraw(address,uint256)": {
        "params": {
          "amount": "Amount to withdraw.",
          "token": "Address of the token for which to withdraw."
        }
      },
      "withdrawAll(address)": {
        "params": {
          "token": "Address of the token for which to withdraw."
        }
      }
    },
    "version": 1
  },
  "userdoc": {
    "kind": "user",
    "methods": {
      "addNewStakingFund(uint32,address,address,uint256,uint256,uint256,uint256,int256)": {
        "notice": "Sets this contract to track staking for a market in LongShort.sol"
      },
      "changeAdmin(address)": {
        "notice": "Changes admin for the contract"
      },
      "changeBalanceIncentiveEquilibriumOffset(uint32,int256)": {
        "notice": "Changes the balance incentive curve equilibrium offset for a market"
      },
      "changeBalanceIncentiveExponent(uint32,uint256)": {
        "notice": "Changes the balance incentive exponent for a market"
      },
      "changeFloatPercentage(uint256)": {
        "notice": "Changes percentage of float that is minted for float capital."
      },
      "changeMarketLaunchIncentiveParameters(uint32,uint256,uint256)": {
        "notice": "Changes the market launch incentive parameters for a market"
      },
      "changeUnstakeFee(uint32,uint256)": {
        "notice": "Changes unstake fee for a market"
      },
      "claimFloatCustom(uint32[])": {
        "notice": "Mints outstanding float for msg.sender."
      },
      "claimFloatCustomFor(uint32[],address)": {
        "notice": "Mints outstanding float on behalf of another user."
      },
      "initialize(address,address,address,address,address,uint256)": {
        "notice": "Initializes the contract."
      },
      "pushUpdatedMarketPricesToUpdateFloatIssuanceCalculations(uint32,uint256,uint256,uint256,uint256,uint256)": {
        "notice": "Adds new accumulativeIssuancePerStakedSynthSnapshots for the given long/short tokens. Called by the ILongShort contract whenever there is a state change for a market."
      },
      "shiftTokens(uint256,uint32,bool)": {
        "notice": "Allows users to shift their staked tokens from one side of the market to  the other at the next price."
      },
      "stakeFromUser(address,uint256)": {
        "notice": "A user with synthetic tokens stakes by calling stake on the token contract which calls this function. We need to first update the state of the LongShort contract for this market before staking to correctly calculate user rewards."
      },
      "stakerTokenShiftIndex_to_accumulativeFloatIssuanceSnapshotIndex_mapping(uint256)": {
        "notice": "Used to link a token shift to a staker state"
      },
      "stakerTokenShiftIndex_to_longShortMarketPriceSnapshotIndex_mapping(uint256)": {
        "notice": "Used to fetch the price from LongShort at that point in time"
      },
      "withdraw(address,uint256)": {
        "notice": "Withdraw function. Allows users to unstake."
      },
      "withdrawAll(address)": {
        "notice": "Allows users to withdraw their entire stake for a token."
      }
    },
    "version": 1
  }
}