{
  "contractName": "Staker",
  "abi": [
    {
      "anonymous": false,
      "inputs": [
        {
          "indexed": false,
          "internalType": "uint32",
          "name": "marketIndex",
          "type": "uint32"
        },
        {
          "indexed": false,
          "internalType": "uint256",
          "name": "accumulativeFloatIssuanceSnapshotIndex",
          "type": "uint256"
        },
        {
          "indexed": false,
          "internalType": "uint256",
          "name": "accumulativeLong",
          "type": "uint256"
        },
        {
          "indexed": false,
          "internalType": "uint256",
          "name": "accumulativeShort",
          "type": "uint256"
        }
      ],
      "name": "AccumulativeIssuancePerStakedSynthSnapshotCreated",
      "type": "event"
    },
    {
      "anonymous": false,
      "inputs": [
        {
          "indexed": false,
          "internalType": "uint32",
          "name": "marketIndex",
          "type": "uint32"
        },
        {
          "indexed": false,
          "internalType": "int256",
          "name": "balanceIncentiveEquilibriumOffset",
          "type": "int256"
        }
      ],
      "name": "BalanceIncentiveEquilibriumOffsetUpdated",
      "type": "event"
    },
    {
      "anonymous": false,
      "inputs": [
        {
          "indexed": false,
          "internalType": "uint32",
          "name": "marketIndex",
          "type": "uint32"
        },
        {
          "indexed": false,
          "internalType": "uint256",
          "name": "balanceIncentiveExponent",
          "type": "uint256"
        }
      ],
      "name": "BalanceIncentiveExponentUpdated",
      "type": "event"
    },
    {
      "anonymous": false,
      "inputs": [
        {
          "indexed": false,
          "internalType": "address",
          "name": "newAdmin",
          "type": "address"
        }
      ],
      "name": "ChangeAdmin",
      "type": "event"
    },
    {
      "anonymous": false,
      "inputs": [
        {
          "indexed": false,
          "internalType": "address",
          "name": "user",
          "type": "address"
        },
        {
          "indexed": false,
          "internalType": "uint32",
          "name": "marketIndex",
          "type": "uint32"
        },
        {
          "indexed": false,
          "internalType": "uint256",
          "name": "amountFloatMinted",
          "type": "uint256"
        }
      ],
      "name": "FloatMinted",
      "type": "event"
    },
    {
      "anonymous": false,
      "inputs": [
        {
          "indexed": false,
          "internalType": "uint256",
          "name": "floatPercentage",
          "type": "uint256"
        }
      ],
      "name": "FloatPercentageUpdated",
      "type": "event"
    },
    {
      "anonymous": false,
      "inputs": [
        {
          "indexed": false,
          "internalType": "uint32",
          "name": "marketIndex",
          "type": "uint32"
        },
        {
          "indexed": false,
          "internalType": "uint256",
          "name": "exitFee_e18",
          "type": "uint256"
        },
        {
          "indexed": false,
          "internalType": "uint256",
          "name": "period",
          "type": "uint256"
        },
        {
          "indexed": false,
          "internalType": "uint256",
          "name": "multiplier",
          "type": "uint256"
        },
        {
          "indexed": false,
          "internalType": "uint256",
          "name": "balanceIncentiveExponent",
          "type": "uint256"
        },
        {
          "indexed": false,
          "internalType": "int256",
          "name": "balanceIncentiveEquilibriumOffset",
          "type": "int256"
        }
      ],
      "name": "MarketAddedToStaker",
      "type": "event"
    },
    {
      "anonymous": false,
      "inputs": [
        {
          "indexed": false,
          "internalType": "uint32",
          "name": "marketIndex",
          "type": "uint32"
        },
        {
          "indexed": false,
          "internalType": "uint256",
          "name": "period",
          "type": "uint256"
        },
        {
          "indexed": false,
          "internalType": "uint256",
          "name": "multiplier",
          "type": "uint256"
        }
      ],
      "name": "MarketLaunchIncentiveParametersChanges",
      "type": "event"
    },
    {
      "anonymous": false,
      "inputs": [
        {
          "indexed": false,
          "internalType": "address",
          "name": "user",
          "type": "address"
        },
        {
          "indexed": false,
          "internalType": "address",
          "name": "token",
          "type": "address"
        },
        {
          "indexed": false,
          "internalType": "uint256",
          "name": "amount",
          "type": "uint256"
        },
        {
          "indexed": false,
          "internalType": "uint256",
          "name": "lastMintIndex",
          "type": "uint256"
        }
      ],
      "name": "StakeAdded",
      "type": "event"
    },
    {
      "anonymous": false,
      "inputs": [
        {
          "indexed": false,
          "internalType": "uint32",
          "name": "marketIndex",
          "type": "uint32"
        },
        {
          "indexed": false,
          "internalType": "uint256",
          "name": "stakeWithdralFee",
          "type": "uint256"
        }
      ],
      "name": "StakeWithdrawalFeeUpdated",
      "type": "event"
    },
    {
      "anonymous": false,
      "inputs": [
        {
          "indexed": false,
          "internalType": "address",
          "name": "user",
          "type": "address"
        },
        {
          "indexed": false,
          "internalType": "address",
          "name": "token",
          "type": "address"
        },
        {
          "indexed": false,
          "internalType": "uint256",
          "name": "amount",
          "type": "uint256"
        }
      ],
      "name": "StakeWithdrawn",
      "type": "event"
    },
    {
      "anonymous": false,
      "inputs": [
        {
          "indexed": false,
          "internalType": "address",
          "name": "admin",
          "type": "address"
        },
        {
          "indexed": false,
          "internalType": "address",
          "name": "floatTreasury",
          "type": "address"
        },
        {
          "indexed": false,
          "internalType": "address",
          "name": "floatCapital",
          "type": "address"
        },
        {
          "indexed": false,
          "internalType": "address",
          "name": "floatToken",
          "type": "address"
        },
        {
          "indexed": false,
          "internalType": "uint256",
          "name": "floatPercentage",
          "type": "uint256"
        }
      ],
      "name": "StakerV1",
      "type": "event"
    },
    {
      "anonymous": false,
      "inputs": [],
      "name": "SyntheticTokensShifted",
      "type": "event"
    },
    {
      "inputs": [],
      "name": "FLOAT_ISSUANCE_FIXED_DECIMAL",
      "outputs": [
        {
          "internalType": "uint256",
          "name": "",
          "type": "uint256"
        }
      ],
      "stateMutability": "view",
      "type": "function",
      "constant": true
    },
    {
      "inputs": [
        {
          "internalType": "uint32",
          "name": "",
          "type": "uint32"
        },
        {
          "internalType": "uint256",
          "name": "",
          "type": "uint256"
        }
      ],
      "name": "accumulativeFloatPerSyntheticTokenSnapshots",
      "outputs": [
        {
          "internalType": "uint256",
          "name": "timestamp",
          "type": "uint256"
        },
        {
          "internalType": "uint256",
          "name": "accumulativeFloatPerSyntheticToken_long",
          "type": "uint256"
        },
        {
          "internalType": "uint256",
          "name": "accumulativeFloatPerSyntheticToken_short",
          "type": "uint256"
        }
      ],
      "stateMutability": "view",
      "type": "function",
      "constant": true
    },
    {
      "inputs": [],
      "name": "admin",
      "outputs": [
        {
          "internalType": "address",
          "name": "",
          "type": "address"
        }
      ],
      "stateMutability": "view",
      "type": "function",
      "constant": true
    },
    {
      "inputs": [
        {
          "internalType": "uint32",
          "name": "",
          "type": "uint32"
        }
      ],
      "name": "balanceIncentiveCurve_equilibriumOffset",
      "outputs": [
        {
          "internalType": "int256",
          "name": "",
          "type": "int256"
        }
      ],
      "stateMutability": "view",
      "type": "function",
      "constant": true
    },
    {
      "inputs": [
        {
          "internalType": "uint32",
          "name": "",
          "type": "uint32"
        }
      ],
      "name": "balanceIncentiveCurve_exponent",
      "outputs": [
        {
          "internalType": "uint256",
          "name": "",
          "type": "uint256"
        }
      ],
      "stateMutability": "view",
      "type": "function",
      "constant": true
    },
    {
      "inputs": [
        {
          "internalType": "uint32",
          "name": "",
          "type": "uint32"
        }
      ],
      "name": "batched_stakerNextTokenShiftIndex",
      "outputs": [
        {
          "internalType": "uint256",
          "name": "",
          "type": "uint256"
        }
      ],
      "stateMutability": "view",
      "type": "function",
      "constant": true
    },
    {
      "inputs": [],
      "name": "floatCapital",
      "outputs": [
        {
          "internalType": "address",
          "name": "",
          "type": "address"
        }
      ],
      "stateMutability": "view",
      "type": "function",
      "constant": true
    },
    {
      "inputs": [],
      "name": "floatPercentage",
      "outputs": [
        {
          "internalType": "uint256",
          "name": "",
          "type": "uint256"
        }
      ],
      "stateMutability": "view",
      "type": "function",
      "constant": true
    },
    {
      "inputs": [],
      "name": "floatToken",
      "outputs": [
        {
          "internalType": "address",
          "name": "",
          "type": "address"
        }
      ],
      "stateMutability": "view",
      "type": "function",
      "constant": true
    },
    {
      "inputs": [],
      "name": "floatTreasury",
      "outputs": [
        {
          "internalType": "address",
          "name": "",
          "type": "address"
        }
      ],
      "stateMutability": "view",
      "type": "function",
      "constant": true
    },
    {
      "inputs": [
        {
          "internalType": "uint32",
          "name": "",
          "type": "uint32"
        }
      ],
      "name": "latestRewardIndex",
      "outputs": [
        {
          "internalType": "uint256",
          "name": "",
          "type": "uint256"
        }
      ],
      "stateMutability": "view",
      "type": "function",
      "constant": true
    },
    {
      "inputs": [],
      "name": "longShort",
      "outputs": [
        {
          "internalType": "address",
          "name": "",
          "type": "address"
        }
      ],
      "stateMutability": "view",
      "type": "function",
      "constant": true
    },
    {
      "inputs": [
        {
          "internalType": "address",
          "name": "",
          "type": "address"
        }
      ],
      "name": "marketIndexOfToken",
      "outputs": [
        {
          "internalType": "uint32",
          "name": "",
          "type": "uint32"
        }
      ],
      "stateMutability": "view",
      "type": "function",
      "constant": true
    },
    {
      "inputs": [
        {
          "internalType": "uint32",
          "name": "",
          "type": "uint32"
        }
      ],
      "name": "marketLaunchIncentive_multipliers",
      "outputs": [
        {
          "internalType": "uint256",
          "name": "",
          "type": "uint256"
        }
      ],
      "stateMutability": "view",
      "type": "function",
      "constant": true
    },
    {
      "inputs": [
        {
          "internalType": "uint32",
          "name": "",
          "type": "uint32"
        }
      ],
      "name": "marketLaunchIncentive_period",
      "outputs": [
        {
          "internalType": "uint256",
          "name": "",
          "type": "uint256"
        }
      ],
      "stateMutability": "view",
      "type": "function",
      "constant": true
    },
    {
      "inputs": [
        {
          "internalType": "uint32",
          "name": "",
          "type": "uint32"
        }
      ],
      "name": "marketUnstakeFee_e18",
      "outputs": [
        {
          "internalType": "uint256",
          "name": "",
          "type": "uint256"
        }
      ],
      "stateMutability": "view",
      "type": "function",
      "constant": true
    },
    {
      "inputs": [],
      "name": "safeExponentBitShifting",
      "outputs": [
        {
          "internalType": "uint256",
          "name": "",
          "type": "uint256"
        }
      ],
      "stateMutability": "view",
      "type": "function",
      "constant": true
    },
    {
      "inputs": [
        {
          "internalType": "uint256",
          "name": "",
          "type": "uint256"
        }
      ],
      "name": "stakerTokenShiftIndex_to_accumulativeFloatIssuanceSnapshotIndex_mapping",
      "outputs": [
        {
          "internalType": "uint256",
          "name": "",
          "type": "uint256"
        }
      ],
      "stateMutability": "view",
      "type": "function",
      "constant": true
    },
    {
      "inputs": [
        {
          "internalType": "uint256",
          "name": "",
          "type": "uint256"
        }
      ],
      "name": "stakerTokenShiftIndex_to_longShortMarketPriceSnapshotIndex_mapping",
      "outputs": [
        {
          "internalType": "uint256",
          "name": "",
          "type": "uint256"
        }
      ],
      "stateMutability": "view",
      "type": "function",
      "constant": true
    },
    {
      "inputs": [
        {
          "internalType": "uint32",
          "name": "",
          "type": "uint32"
        },
        {
          "internalType": "bool",
          "name": "",
          "type": "bool"
        }
      ],
      "name": "syntheticTokens",
      "outputs": [
        {
          "internalType": "address",
          "name": "",
          "type": "address"
        }
      ],
      "stateMutability": "view",
      "type": "function",
      "constant": true
    },
    {
      "inputs": [
        {
          "internalType": "address",
          "name": "",
          "type": "address"
        },
        {
          "internalType": "address",
          "name": "",
          "type": "address"
        }
      ],
      "name": "userAmountStaked",
      "outputs": [
        {
          "internalType": "uint256",
          "name": "",
          "type": "uint256"
        }
      ],
      "stateMutability": "view",
      "type": "function",
      "constant": true
    },
    {
      "inputs": [
        {
          "internalType": "uint32",
          "name": "",
          "type": "uint32"
        },
        {
          "internalType": "address",
          "name": "",
          "type": "address"
        }
      ],
      "name": "userIndexOfLastClaimedReward",
      "outputs": [
        {
          "internalType": "uint256",
          "name": "",
          "type": "uint256"
        }
      ],
      "stateMutability": "view",
      "type": "function",
      "constant": true
    },
    {
      "inputs": [
        {
          "internalType": "uint32",
          "name": "",
          "type": "uint32"
        },
        {
          "internalType": "address",
          "name": "",
          "type": "address"
        }
      ],
      "name": "userNextPrice_amountStakedSyntheticToken_toShiftAwayFrom_long",
      "outputs": [
        {
          "internalType": "uint256",
          "name": "",
          "type": "uint256"
        }
      ],
      "stateMutability": "view",
      "type": "function",
      "constant": true
    },
    {
      "inputs": [
        {
          "internalType": "uint32",
          "name": "",
          "type": "uint32"
        },
        {
          "internalType": "address",
          "name": "",
          "type": "address"
        }
      ],
      "name": "userNextPrice_amountStakedSyntheticToken_toShiftAwayFrom_short",
      "outputs": [
        {
          "internalType": "uint256",
          "name": "",
          "type": "uint256"
        }
      ],
      "stateMutability": "view",
      "type": "function",
      "constant": true
    },
    {
      "inputs": [
        {
          "internalType": "uint32",
          "name": "",
          "type": "uint32"
        },
        {
          "internalType": "address",
          "name": "",
          "type": "address"
        }
      ],
      "name": "userNextPrice_stakedSyntheticTokenShiftIndex",
      "outputs": [
        {
          "internalType": "uint256",
          "name": "",
          "type": "uint256"
        }
      ],
      "stateMutability": "view",
      "type": "function",
      "constant": true
    },
    {
      "inputs": [
        {
          "internalType": "address",
          "name": "_admin",
          "type": "address"
        },
        {
          "internalType": "address",
          "name": "_longShort",
          "type": "address"
        },
        {
          "internalType": "address",
          "name": "_floatToken",
          "type": "address"
        },
        {
          "internalType": "address",
          "name": "_floatTreasury",
          "type": "address"
        },
        {
          "internalType": "address",
          "name": "_floatCapital",
          "type": "address"
        },
        {
          "internalType": "uint256",
          "name": "_floatPercentage",
          "type": "uint256"
        }
      ],
      "name": "initialize",
      "outputs": [],
      "stateMutability": "nonpayable",
      "type": "function"
    },
    {
      "inputs": [
        {
          "internalType": "address",
          "name": "_admin",
          "type": "address"
        }
      ],
      "name": "changeAdmin",
      "outputs": [],
      "stateMutability": "nonpayable",
      "type": "function"
    },
    {
      "inputs": [
        {
          "internalType": "uint256",
          "name": "newFloatPercentage",
          "type": "uint256"
        }
      ],
      "name": "changeFloatPercentage",
      "outputs": [],
      "stateMutability": "nonpayable",
      "type": "function"
    },
    {
      "inputs": [
        {
          "internalType": "uint32",
          "name": "marketIndex",
          "type": "uint32"
        },
        {
          "internalType": "uint256",
          "name": "newMarketUnstakeFee_e18",
          "type": "uint256"
        }
      ],
      "name": "changeUnstakeFee",
      "outputs": [],
      "stateMutability": "nonpayable",
      "type": "function"
    },
    {
      "inputs": [
        {
          "internalType": "uint32",
          "name": "marketIndex",
          "type": "uint32"
        },
        {
          "internalType": "uint256",
          "name": "period",
          "type": "uint256"
        },
        {
          "internalType": "uint256",
          "name": "initialMultiplier",
          "type": "uint256"
        }
      ],
      "name": "changeMarketLaunchIncentiveParameters",
      "outputs": [],
      "stateMutability": "nonpayable",
      "type": "function"
    },
    {
      "inputs": [
        {
          "internalType": "uint32",
          "name": "marketIndex",
          "type": "uint32"
        },
        {
          "internalType": "uint256",
          "name": "_balanceIncentiveCurve_exponent",
          "type": "uint256"
        }
      ],
      "name": "changeBalanceIncentiveExponent",
      "outputs": [],
      "stateMutability": "nonpayable",
      "type": "function"
    },
    {
      "inputs": [
        {
          "internalType": "uint32",
          "name": "marketIndex",
          "type": "uint32"
        },
        {
          "internalType": "int256",
          "name": "_balanceIncentiveCurve_equilibriumOffset",
          "type": "int256"
        }
      ],
      "name": "changeBalanceIncentiveEquilibriumOffset",
      "outputs": [],
      "stateMutability": "nonpayable",
      "type": "function"
    },
    {
      "inputs": [
        {
          "internalType": "uint32",
          "name": "marketIndex",
          "type": "uint32"
        },
        {
          "internalType": "address",
          "name": "longToken",
          "type": "address"
        },
        {
          "internalType": "address",
          "name": "shortToken",
          "type": "address"
        },
        {
          "internalType": "uint256",
          "name": "kInitialMultiplier",
          "type": "uint256"
        },
        {
          "internalType": "uint256",
          "name": "kPeriod",
          "type": "uint256"
        },
        {
          "internalType": "uint256",
          "name": "unstakeFee_e18",
          "type": "uint256"
        },
        {
          "internalType": "uint256",
          "name": "_balanceIncentiveCurve_exponent",
          "type": "uint256"
        },
        {
          "internalType": "int256",
          "name": "_balanceIncentiveCurve_equilibriumOffset",
          "type": "int256"
        }
      ],
      "name": "addNewStakingFund",
      "outputs": [],
      "stateMutability": "nonpayable",
      "type": "function"
    },
    {
      "inputs": [
        {
          "internalType": "uint32",
          "name": "marketIndex",
          "type": "uint32"
        },
        {
          "internalType": "uint256",
          "name": "longPrice",
          "type": "uint256"
        },
        {
          "internalType": "uint256",
          "name": "shortPrice",
          "type": "uint256"
        },
        {
          "internalType": "uint256",
          "name": "longValue",
          "type": "uint256"
        },
        {
          "internalType": "uint256",
          "name": "shortValue",
          "type": "uint256"
        },
        {
          "internalType": "uint256",
          "name": "stakerTokenShiftIndex_to_longShortMarketPriceSnapshotIndex_mappingIfShiftExecuted",
          "type": "uint256"
        }
      ],
      "name": "pushUpdatedMarketPricesToUpdateFloatIssuanceCalculations",
      "outputs": [],
      "stateMutability": "nonpayable",
      "type": "function"
    },
    {
      "inputs": [
        {
          "internalType": "uint32[]",
          "name": "marketIndexes",
          "type": "uint32[]"
        }
      ],
      "name": "claimFloatCustom",
      "outputs": [],
      "stateMutability": "nonpayable",
      "type": "function"
    },
    {
      "inputs": [
        {
          "internalType": "uint32[]",
          "name": "marketIndexes",
          "type": "uint32[]"
        },
        {
          "internalType": "address",
          "name": "user",
          "type": "address"
        }
      ],
      "name": "claimFloatCustomFor",
      "outputs": [],
      "stateMutability": "nonpayable",
      "type": "function"
    },
    {
      "inputs": [
        {
          "internalType": "address",
          "name": "from",
          "type": "address"
        },
        {
          "internalType": "uint256",
          "name": "amount",
          "type": "uint256"
        }
      ],
      "name": "stakeFromUser",
      "outputs": [],
      "stateMutability": "nonpayable",
      "type": "function"
    },
    {
      "inputs": [
        {
          "internalType": "uint256",
          "name": "amountSyntheticTokensToShift",
          "type": "uint256"
        },
        {
          "internalType": "uint32",
          "name": "marketIndex",
          "type": "uint32"
        },
        {
          "internalType": "bool",
          "name": "isShiftFromLong",
          "type": "bool"
        }
      ],
      "name": "shiftTokens",
      "outputs": [],
      "stateMutability": "nonpayable",
      "type": "function"
    },
    {
      "inputs": [
        {
          "internalType": "address",
          "name": "token",
          "type": "address"
        },
        {
          "internalType": "uint256",
          "name": "amount",
          "type": "uint256"
        }
      ],
      "name": "withdraw",
      "outputs": [],
      "stateMutability": "nonpayable",
      "type": "function"
    },
    {
      "inputs": [
        {
          "internalType": "address",
          "name": "token",
          "type": "address"
        }
      ],
      "name": "withdrawAll",
      "outputs": [],
      "stateMutability": "nonpayable",
      "type": "function"
    }
  ],
  "bytecode": "0x608060405234801561001057600080fd5b50612e33806100206000396000f3fe608060405234801561001057600080fd5b50600436106102485760003560e01c8063b0956b5f1161013b578063eae5a8d9116100b8578063f3fef3a31161007c578063f3fef3a314610657578063f851a4401461066a578063f9fe734e14610683578063fa09e630146106a3578063fdd3c2fd146106b657610248565b8063eae5a8d9146105f6578063edb010d714610609578063ef9c30521461061c578063f2c0e6b71461063c578063f344acc91461064457610248565b8063c17f8ce9116100ff578063c17f8ce914610565578063d84593e514610590578063dc86fe50146105a3578063e39ac044146105c3578063e68f3dbe146105e357610248565b8063b0956b5f14610506578063b80dd32914610519578063ba89f7b81461052c578063bda69fd81461053f578063c16199e31461055257610248565b80635892457d116101c957806386cbde1f1161018d57806386cbde1f146104805780638f2839701461049957806395b6ef0c146104ac5780639e59fd0f146104bf578063b054c4a1146104d257610248565b80635892457d146103ee5780635ac76ce1146103f75780636a5304df14610422578063738f4b8e146104425780637c937cf21461045557610248565b806327c795331161021057806327c79533146103105780632994987214610330578063320d621d1461035b5780633ebff44f1461036e578063559dd7e2146103c357610248565b80630a41100b1461024d5780630ca5a0521461028057806313e8868a1461029557806315f2081d146102b55780631fff5f55146102f0575b600080fd5b61026d61025b3660046128be565b60126020526000908152604090205481565b6040519081526020015b60405180910390f35b61029361028e366004612a08565b6106e1565b005b61026d6102a336600461292d565b60086020526000908152604090205481565b6102db6102c3366004612728565b600c6020526000908152604090205463ffffffff1681565b60405163ffffffff9091168152602001610277565b61026d6102fe3660046128be565b60136020526000908152604090205481565b61026d61031e36600461292d565b60116020526000908152604090205481565b600454610343906001600160a01b031681565b6040516001600160a01b039091168152602001610277565b610293610369366004612a08565b610737565b6103a861037c366004612a08565b600e60209081526000928352604080842090915290825290208054600182015460029092015490919083565b60408051938452602084019290925290820152606001610277565b61026d6103d1366004612947565b601560209081526000928352604080842090915290825290205481565b61026d60035481565b61026d610405366004612947565b600f60209081526000928352604080842090915290825290205481565b61026d61043036600461292d565b60066020526000908152604090205481565b610293610450366004612810565b610785565b61026d610463366004612947565b601660209081526000928352604080842090915290825290205481565b61026d710b7abc627050305adf14a3d9e4000000000081565b6102936104a7366004612728565b6107f7565b6102936104ba36600461277b565b61085e565b6102936104cd3660046128be565b6109e8565b6103436104e03660046129d2565b600b6020908152600092835260408084209091529082529020546001600160a01b031681565b610293610514366004612962565b610a29565b610293610527366004612a08565b610bc7565b600154610343906001600160a01b031681565b61029361054d366004612a55565b610c15565b600254610343906001600160a01b031681565b61026d610573366004612749565b601060209081526000928352604080842090915290825290205481565b61029361059e366004612a23565b610cf0565b61026d6105b136600461292d565b600a6020526000908152604090205481565b61026d6105d136600461292d565b600d6020526000908152604090205481565b6102936105f13660046127e7565b610d50565b600554610343906001600160a01b031681565b6102936106173660046128ee565b610de0565b61026d61062a36600461292d565b60076020526000908152604090205481565b61026d603481565b610293610652366004612850565b61104f565b6102936106653660046127e7565b6110bd565b600054610343906201000090046001600160a01b031681565b61026d61069136600461292d565b60096020526000908152604090205481565b6102936106b1366004612728565b61113f565b61026d6106c4366004612947565b601460209081526000928352604080842090915290825290205481565b6106e96111e9565b6106f38282611237565b6040805163ffffffff84168152602081018390527feb76801ec75076256b8590fd7c621c2541531e6b9ac568389fa5cdf72e66484491015b60405180910390a15050565b61073f6111e9565b6107498282611264565b6040805163ffffffff84168152602081018390527f0430c32559bfcf3b024f216d4e0db41b7b521dcffe63ad1fc25826cf89fc1ced910161072b565b60048054604051636c8d2b9760e01b81526001600160a01b0390911691636c8d2b97916107b6918691869101612a9e565b600060405180830381600087803b1580156107d057600080fd5b505af11580156107e4573d6000803e3d6000fd5b505050506107f3828233611306565b5050565b6107ff6111e9565b6000805462010000600160b01b031916620100006001600160a01b038416908102919091179091556040519081527f927cc064d7b7fa546fa7706bc01845d27d06f15af3ae90a672cc44735928e961906020015b60405180910390a150565b600054610100900460ff1680610877575060005460ff16155b6108df5760405162461bcd60e51b815260206004820152602e60248201527f496e697469616c697a61626c653a20636f6e747261637420697320616c72656160448201526d191e481a5b9a5d1a585b1a5e995960921b60648201526084015b60405180910390fd5b600054610100900460ff16158015610901576000805461ffff19166101011790555b6000805462010000600160b01b031916620100006001600160a01b038a81169190910291909117909155600180546001600160a01b03199081168684161790915560028054821687841617905560048054821689841617905560058054909116918716919091179055610973826114d0565b604080516001600160a01b038981168252868116602083015285811682840152871660608201526080810184905290517faf92ca815edd9a90dc4aa1dfc722fb1624d5b5f914b25ae3cf979ce6600f0a969181900360a00190a180156109df576000805461ff00191690555b50505050505050565b6109f06111e9565b6109f9816114d0565b6040518181527f062ffcd555faf2b2c81f26010ee6db2e23106941bfed5ae979abd111975d815d90602001610853565b610a316114f6565b6001600160a01b038088166000818152600c60209081526040808320805463ffffffff8f1663ffffffff199182168117909255958c1680855282852080549097168217909655808452600e8352818420848052835281842042815560018181018690556002909101859055908452600b835281842090845280835281842080546001600160a01b03199081169096179055838052909152902080549091169091179055610ade8883611541565b610ae88882611264565b610af38885876115cb565b610afd8884611237565b63ffffffff881660008181526011602090815260409182902060019055815192835282018590528101859052606081018690526080810183905260a081018290527f6bc257e0096888bfe19c27bfedca683fc71f53daaf42d4b9ff8e42ea783d67cf9060c00160405180910390a16040805163ffffffff8a16815260006020820181905291810182905260608101919091527f65663e89e16ccfe470dd659bacdf6fddae8185e108d00bc980d34be7e86466d0906080015b60405180910390a15050505050505050565b610bcf6111e9565b610bd98282611541565b6040805163ffffffff84168152602081018390527f45029298b28ebd606098e088e84698aad69cbe7d56cec6064a87ab6d85551e11910161072b565b610c1d6114f6565b8015610cca5763ffffffff8616600081815260116020908152604080832054835260138252808320859055928252600d90522054610c5c906001612b28565b63ffffffff8716600081815260116020818152604080842080548552601283529084209590955592825290915281546001929190610c9b908490612b28565b90915550506040517ffcd57474b9332c9108d9254a20e26a0255d04c0be335baa253a6f0cd443d2b9a90600090a15b6000610cd587611660565b1115610ce857610ce8868686868661169a565b505050505050565b610cf86111e9565b610d038383836115cb565b6040805163ffffffff85168152602081018490529081018290527fa1d30e827392d7c605768dc1c77c5dfbf58180ca1bb944ecfc8155765b7f53ca906060015b60405180910390a1505050565b33610d5a81611754565b60048054336000908152600c6020526040908190205490516305c8146f60e01b815263ffffffff909116928101929092526001600160a01b0316906305c8146f90602401600060405180830381600087803b158015610db857600080fd5b505af1158015610dcc573d6000803e3d6000fd5b50505050610ddb3383856117b1565b505050565b63ffffffff82166000908152600b6020908152604080832084151584528252808320546001600160a01b03168084526010835281842033855290925290912054841115610e6f5760405162461bcd60e51b815260206004820152601a60248201527f4e6f7420656e6f75676820746f6b656e7320746f20736869667400000000000060448201526064016108d6565b63ffffffff8316600090815260146020908152604080832033845290915290205415801590610ec5575063ffffffff83166000908152601160209081526040808320546014835281842033855290925290912054105b15610ed457610ed48333611905565b8115610f80576004805460405163775811a960e11b815263ffffffff861692810192909252602482018690526001600160a01b03169063eeb0235290604401600060405180830381600087803b158015610f2d57600080fd5b505af1158015610f41573d6000803e3d6000fd5b5050505063ffffffff8316600090815260156020908152604080832033845290915281208054869290610f75908490612b28565b909155506110219050565b60048054604051633415694360e11b815263ffffffff861692810192909252602482018690526001600160a01b03169063682ad28690604401600060405180830381600087803b158015610fd357600080fd5b505af1158015610fe7573d6000803e3d6000fd5b5050505063ffffffff831660009081526016602090815260408083203384529091528120805486929061101b908490612b28565b90915550505b505063ffffffff16600090815260116020908152604080832054601483528184203385529092529091205550565b60048054604051636c8d2b9760e01b81526001600160a01b0390911691636c8d2b9791611080918791879101612a9e565b600060405180830381600087803b15801561109a57600080fd5b505af11580156110ae573d6000803e3d6000fd5b50505050610ddb838383611306565b600480546001600160a01b038481166000908152600c6020526040908190205490516305c8146f60e01b815263ffffffff9091169381019390935216906305c8146f90602401600060405180830381600087803b15801561111d57600080fd5b505af1158015611131573d6000803e3d6000fd5b505050506107f382826119a2565b600480546001600160a01b038381166000908152600c6020526040908190205490516305c8146f60e01b815263ffffffff9091169381019390935216906305c8146f90602401600060405180830381600087803b15801561119f57600080fd5b505af11580156111b3573d6000803e3d6000fd5b5050506001600160a01b03821660009081526010602090815260408083203384529091529020546111e6915082906119a2565b50565b6000546201000090046001600160a01b031633146112355760405162461bcd60e51b81526020600482015260096024820152683737ba1030b236b4b760b91b60448201526064016108d6565b565b66b1a2bc2ec5000081111561124b57600080fd5b63ffffffff909116600090815260086020526040902055565b670c7d713b49d9ffff19811380156112835750670c7d713b49da000081125b6112ed5760405162461bcd60e51b815260206004820152603560248201527f62616c616e6365496e63656e7469766543757276655f657175696c69627269756044820152746d4f6666736574206f7574206f6620626f756e647360581b60648201526084016108d6565b63ffffffff9091166000908152600a6020526040902055565b6000805b838110156114b957600061135286868481811061133757634e487b7160e01b600052603260045260246000fd5b905060200201602081019061134c919061292d565b85611b8a565b905080156114a657600d600087878581811061137e57634e487b7160e01b600052603260045260246000fd5b9050602002016020810190611393919061292d565b63ffffffff1663ffffffff16815260200190815260200160002054600f60008888868181106113d257634e487b7160e01b600052603260045260246000fd5b90506020020160208101906113e7919061292d565b63ffffffff168152602080820192909252604090810160009081206001600160a01b038916825290925290205561141e8184612b28565b92507f2f0b57f663333228518fca119813fe0f6daeb5f19d087965f56b45fecf2d52058487878581811061146257634e487b7160e01b600052603260045260246000fd5b9050602002016020810190611477919061292d565b604080516001600160a01b03909316835263ffffffff9091166020830152810183905260600160405180910390a15b50806114b181612d8e565b91505061130a565b5080156114ca576114ca828261203a565b50505050565b670de0b6b3a764000081111580156114e85750600081115b6114f157600080fd5b600355565b6004546001600160a01b031633146112355760405162461bcd60e51b815260206004820152600e60248201526d1b9bdd081b1bdb99c81cda1bdc9d60921b60448201526064016108d6565b6000811180156115515750600681105b6115b25760405162461bcd60e51b815260206004820152602c60248201527f62616c616e6365496e63656e7469766543757276655f6578706f6e656e74206f60448201526b7574206f6620626f756e647360a01b60648201526084016108d6565b63ffffffff909116600090815260096020526040902055565b670de0b6b3a764000081101561163b5760405162461bcd60e51b815260206004820152602f60248201527f6d61726b65744c61756e6368496e63656e746976654d756c7469706c6965722060448201526e0daeae6e840c4ca407c7a4062ca627608b1b60648201526084016108d6565b63ffffffff909216600090815260066020908152604080832093909355600790522055565b63ffffffff81166000908152600e60209081526040808320600d83528184205484529091528120546116929042612d77565b90505b919050565b6000806116aa8787878787612136565b63ffffffff89166000908152600d6020526040812054929450909250906116d2906001612b28565b63ffffffff89166000818152600e6020908152604080832085845282528083206001810189905560028101889055429055838352600d825291829020849055815192835282018390528101859052606081018490529091507f65663e89e16ccfe470dd659bacdf6fddae8185e108d00bc980d34be7e86466d090608001610bb5565b6001600160a01b0381166000908152600c602052604090205463ffffffff166111e65760405162461bcd60e51b815260206004820152600f60248201526e0dcdee840ecc2d8d2c840e6f2dce8d608b1b60448201526064016108d6565b6001600160a01b038084166000908152600c602090815260408083205463ffffffff16808452600f835281842094861684529390915290205415801590611828575063ffffffff81166000908152600d6020908152604080832054600f83528184206001600160a01b038716855290925290912054105b15611837576118378183611905565b6001600160a01b03808516600090815260106020908152604080832093861683529290522054611868908490612b28565b6001600160a01b0385811660008181526010602090815260408083209488168084529482528083209590955563ffffffff86168252600d815284822054600f8252858320858452825291859020829055845193845283019190915291810185905260608101919091527fef7c8dfef14cbefdf829b8f066b068b677992411137321d64b3ed4538c2b3637906080015b60405180910390a150505050565b60006119118383611b8a565b90508015610ddb5763ffffffff83166000908152600d6020908152604080832054600f83528184206001600160a01b038716855290925290912055611956828261203a565b604080516001600160a01b038416815263ffffffff851660208201529081018290527f2f0b57f663333228518fca119813fe0f6daeb5f19d087965f56b45fecf2d520590606001610d43565b6001600160a01b0382166000908152600c6020908152604080832054601083528184203385529092529091205463ffffffff90911690611a1a5760405162461bcd60e51b81526020600482015260136024820152726e6f7468696e6720746f20776974686472617760681b60448201526064016108d6565b611a248133611905565b6001600160a01b0383166000908152601060209081526040808320338452909152902054611a53908390612d77565b6001600160a01b038416600090815260106020908152604080832033845282528083209390935563ffffffff841682526008905290812054670de0b6b3a764000090611a9f9085612d19565b611aa99190612b6e565b90506001600160a01b03841663a9059cbb33611ac58487612d77565b6040516001600160e01b031960e085901b1681526001600160a01b0390921660048301526024820152604401602060405180830381600087803b158015611b0b57600080fd5b505af1158015611b1f573d6000803e3d6000fd5b505050506040513d601f19601f82011682018060405250810190611b4391906128a2565b50604080513381526001600160a01b03861660208201529081018490527fb7c918e0e249f999e965cafeb6c664271b3f4317d296461500e71da39f0cbda3906060016118f7565b63ffffffff82166000818152600b6020908152604080832060018452825280832054838052818420546001600160a01b0391821680865260108086528487208985168089529087528588205494909316808852908652848720838852865284872054888852600f875285882093885292865284872054978752600d909552928520549495929491929091811415611c2957600095505050505050612034565b63ffffffff881660009081526014602090815260408083206001600160a01b038b1684529091529020548015801590611c76575063ffffffff891660009081526011602052604090205481105b15611ffe57611c9b8985858560126000878152602001908152602001600020546121ea565b63ffffffff8a1660009081526015602090815260408083206001600160a01b038d16845290915290205490975015611dfa576004805463ffffffff8b1660008181526015602090815260408083206001600160a01b038f8116855290835281842054888552601390935292819020549051630125edfd60e71b815295860193909352602485015260016044850152606484019190915216906392f6fe809060840160206040518083038186803b158015611d5457600080fd5b505afa158015611d68573d6000803e3d6000fd5b505050506040513d601f19601f82011682018060405250810190611d8c91906128d6565b611d969084612b28565b63ffffffff8a1660009081526015602090815260408083206001600160a01b038d168452909152902054909350611dcd9085612d77565b63ffffffff8a1660009081526015602090815260408083206001600160a01b038d16845290915281205593505b63ffffffff891660009081526016602090815260408083206001600160a01b038c16845290915290205415611f56576004805463ffffffff8b1660008181526016602090815260408083206001600160a01b038f81168552908352818420548885526013909352818420549151630125edfd60e71b81529687019490945260248601919091526044850191909152606484015216906392f6fe809060840160206040518083038186803b158015611eb057600080fd5b505afa158015611ec4573d6000803e3d6000fd5b505050506040513d601f19601f82011682018060405250810190611ee891906128d6565b611ef29085612b28565b63ffffffff8a1660009081526016602090815260408083206001600160a01b038d168452909152902054909450611f299084612d77565b63ffffffff8a1660009081526016602090815260408083206001600160a01b038d16845290915281205592505b6001600160a01b0380871660009081526010602081815260408084208d86168086529083528185208a9055948a168452918152818320938352928352808220869055838252601283528082205463ffffffff8d168352600d909352902054611fc3918b91879187916121ea565b611fcd9088612b28565b63ffffffff8a1660009081526014602090815260408083206001600160a01b038d168452909152812055965061202d565b61202a89858585600d60008f63ffffffff1663ffffffff168152602001908152602001600020546121ea565b96505b5050505050505b92915050565b6005546040516340c10f1960e01b81526001600160a01b03848116600483015260248201849052909116906340c10f1990604401600060405180830381600087803b15801561208857600080fd5b505af115801561209c573d6000803e3d6000fd5b50506005546001546003546001600160a01b0392831694506340c10f199350911690670de0b6b3a7640000906120d29086612d19565b6120dc9190612b6e565b6040516001600160e01b031960e085901b1681526001600160a01b0390921660048301526024820152604401600060405180830381600087803b15801561212257600080fd5b505af1158015610ce8573d6000803e3d6000fd5b60008060008061214989898989896122e1565b9150915060006121588a611660565b90506121648382612d19565b63ffffffff8b166000908152600e60209081526040808320600d83528184205484529091529020600101546121999190612b28565b6121a38383612d19565b63ffffffff8c166000908152600e60209081526040808320600d83528184205484529091529020600201546121d89190612b28565b945094505050505b9550959350505050565b600084156122625763ffffffff86166000908152600e60209081526040808320868452909152808220600190810154858452918320015461222b9190612d77565b9050710b7abc627050305adf14a3d9e4000000000061224a8783612d19565b6122549190612b6e565b61225e9083612b28565b9150505b83156122d85763ffffffff86166000908152600e6020908152604080832086845290915280822060029081015485845291832001546122a19190612d77565b9050710b7abc627050305adf14a3d9e400000000006122c08683612d19565b6122ca9190612b6e565b6122d49083612b28565b9150505b95945050505050565b60008083158015906122f257508215155b61230c57634e487b7160e01b600052600160045260246000fd5b6000612317886125a9565b905060006123258587612b28565b63ffffffff8a166000908152600a602052604081205491925090670de0b6b3a764000090612354908490612c96565b61235e9190612b40565b90508661236b8288612d38565b121561249b578581126123a35760008861238d85670de0b6b3a7640000612d19565b6123979190612d19565b945094505050506121e0565b63ffffffff8a166000908152600960205260408120546123c560016034612d77565b6123cf848a612d38565b6123da92911c612bc8565b63ffffffff8c166000908152600960205260408120549192509061240290603486901c612bc8565b9050600081612419846706f05b59d3b20000612d19565b6124239190612b6e565b9050600061243982670de0b6b3a7640000612d77565b9050670de0b6b3a76400008d61244f8985612d19565b6124599190612d19565b6124639190612b6e565b670de0b6b3a76400008d6124778a85612d19565b6124819190612d19565b61248b9190612b6e565b98509850505050505050506121e0565b866124a582612da9565b126124d557886124bd84670de0b6b3a7640000612d19565b6124c79190612d19565b6000945094505050506121e0565b63ffffffff8a166000908152600960205260408120546124f760016034612d77565b612501848b612ae7565b61250c92911c612bc8565b63ffffffff8c166000908152600960205260408120549192509061253490603486901c612bc8565b905060008161254b846706f05b59d3b20000612d19565b6125559190612b6e565b9050600061256b82670de0b6b3a7640000612d77565b9050670de0b6b3a76400008d6125818984612d19565b61258b9190612d19565b6125959190612b6e565b670de0b6b3a76400008d6124778a86612d19565b60008060006125b78461266a565b91509150670de0b6b3a76400008110156125e157634e487b7160e01b600052600160045260246000fd5b63ffffffff84166000908152600e602090815260408083208380529091529020548261260d8242612d77565b11612657578261261d8242612d77565b61262f670de0b6b3a764000085612d77565b6126399190612d19565b6126439190612b6e565b61264d9083612d77565b9350505050611695565b670de0b6b3a76400009350505050611695565b63ffffffff81166000908152600660209081526040808320546007909252822054829190670de0b6b3a76400008110156126a95750670de0b6b3a76400005b9092509050915091565b80356001600160a01b038116811461169557600080fd5b60008083601f8401126126db578182fd5b50813567ffffffffffffffff8111156126f2578182fd5b6020830191508360208260051b850101111561270d57600080fd5b9250929050565b803563ffffffff8116811461169557600080fd5b600060208284031215612739578081fd5b612742826126b3565b9392505050565b6000806040838503121561275b578081fd5b612764836126b3565b9150612772602084016126b3565b90509250929050565b60008060008060008060c08789031215612793578182fd5b61279c876126b3565b95506127aa602088016126b3565b94506127b8604088016126b3565b93506127c6606088016126b3565b92506127d4608088016126b3565b915060a087013590509295509295509295565b600080604083850312156127f9578182fd5b612802836126b3565b946020939093013593505050565b60008060208385031215612822578182fd5b823567ffffffffffffffff811115612838578283fd5b612844858286016126ca565b90969095509350505050565b600080600060408486031215612864578283fd5b833567ffffffffffffffff81111561287a578384fd5b612886868287016126ca565b90945092506128999050602085016126b3565b90509250925092565b6000602082840312156128b3578081fd5b815161274281612def565b6000602082840312156128cf578081fd5b5035919050565b6000602082840312156128e7578081fd5b5051919050565b600080600060608486031215612902578283fd5b8335925061291260208501612714565b9150604084013561292281612def565b809150509250925092565b60006020828403121561293e578081fd5b61274282612714565b60008060408385031215612959578182fd5b61276483612714565b600080600080600080600080610100898b03121561297e578182fd5b61298789612714565b975061299560208a016126b3565b96506129a360408a016126b3565b979a96995096976060810135975060808101359660a0820135965060c0820135955060e0909101359350915050565b600080604083850312156129e4578182fd5b6129ed83612714565b915060208301356129fd81612def565b809150509250929050565b60008060408385031215612a1a578182fd5b61280283612714565b600080600060608486031215612a37578081fd5b612a4084612714565b95602085013595506040909401359392505050565b60008060008060008060c08789031215612a6d578384fd5b612a7687612714565b9860208801359850604088013597606081013597506080810135965060a00135945092505050565b60208082528181018390526000908460408401835b86811015612adc5763ffffffff612ac984612714565b1682529183019190830190600101612ab3565b509695505050505050565b600080821280156001600160ff1b0384900385131615612b0957612b09612dc3565b600160ff1b8390038412811615612b2257612b22612dc3565b50500190565b60008219821115612b3b57612b3b612dc3565b500190565b600082612b4f57612b4f612dd9565b600160ff1b821460001984141615612b6957612b69612dc3565b500590565b600082612b7d57612b7d612dd9565b500490565b80825b6001808611612b945750612bbf565b818704821115612ba657612ba6612dc3565b80861615612bb357918102915b9490941c938002612b85565b94509492505050565b60006127426000198484600082612be157506001612742565b81612bee57506000612742565b8160018114612c045760028114612c0e57612c3b565b6001915050612742565b60ff841115612c1f57612c1f612dc3565b6001841b915084821115612c3557612c35612dc3565b50612742565b5060208310610133831016604e8410600b8410161715612c6e575081810a83811115612c6957612c69612dc3565b612742565b612c7b8484846001612b82565b808604821115612c8d57612c8d612dc3565b02949350505050565b60006001600160ff1b0381841382841380821686840486111615612cbc57612cbc612dc3565b600160ff1b84871282811687830589121615612cda57612cda612dc3565b858712925087820587128484161615612cf557612cf5612dc3565b87850587128184161615612d0b57612d0b612dc3565b505050929093029392505050565b6000816000190483118215151615612d3357612d33612dc3565b500290565b60008083128015600160ff1b850184121615612d5657612d56612dc3565b6001600160ff1b0384018313811615612d7157612d71612dc3565b50500390565b600082821015612d8957612d89612dc3565b500390565b6000600019821415612da257612da2612dc3565b5060010190565b6000600160ff1b821415612dbf57612dbf612dc3565b0390565b634e487b7160e01b600052601160045260246000fd5b634e487b7160e01b600052601260045260246000fd5b80151581146111e657600080fdfea264697066735822122099862f12582f2af71c6e259594de529fd705b58d5114f2af33a371df9fb59e5d64736f6c63430008030033",
  "immutableReferences": {},
  "source": "// SPDX-License-Identifier: BUSL-1.1\n\npragma solidity 0.8.3;\n\nimport \"@openzeppelin/contracts-upgradeable/token/ERC20/presets/ERC20PresetMinterPauserUpgradeable.sol\";\n\nimport \"./interfaces/IFloatToken.sol\";\nimport \"./interfaces/ILongShort.sol\";\nimport \"./interfaces/IStaker.sol\";\nimport \"./interfaces/ISyntheticToken.sol\";\n\ncontract Staker is IStaker, Initializable {\n  /*\n              VARIABLES          \n    */\n\n  // Fixed-precision constants\n  uint256 public constant FLOAT_ISSUANCE_FIXED_DECIMAL = 1e42;\n  // 2^52 ~= 4.5e15\n  // With an exponent of 5, the largest total liquidity possible in a market (to avoid integer overflow on exponentiation) is ~10^31 or 10 Trillion (10^13)\n  // NOTE: this also means if the total market value is less than 2^52 there will be a division by zero error\n  uint256 public constant safeExponentBitShifting = 52;\n\n  // Global state\n  address public admin;\n  address public floatCapital;\n  address public floatTreasury;\n  uint256 public floatPercentage;\n\n  address public longShort;\n  address public floatToken;\n\n  // Market specific\n  mapping(uint32 => uint256) public marketLaunchIncentive_period; // seconds\n  mapping(uint32 => uint256) public marketLaunchIncentive_multipliers; // e18 scale\n  mapping(uint32 => uint256) public marketUnstakeFee_e18;\n  mapping(uint32 => uint256) public balanceIncentiveCurve_exponent;\n  mapping(uint32 => int256) public balanceIncentiveCurve_equilibriumOffset;\n\n  mapping(uint32 => mapping(bool => address)) public syntheticTokens;\n\n  mapping(address => uint32) public marketIndexOfToken;\n\n  // Reward specific\n  mapping(uint32 => uint256) public latestRewardIndex;\n  mapping(uint32 => mapping(uint256 => AccumulativeIssuancePerStakedSynthSnapshot))\n    public accumulativeFloatPerSyntheticTokenSnapshots;\n  struct AccumulativeIssuancePerStakedSynthSnapshot {\n    uint256 timestamp;\n    uint256 accumulativeFloatPerSyntheticToken_long;\n    uint256 accumulativeFloatPerSyntheticToken_short;\n  }\n\n  // User specific\n  mapping(uint32 => mapping(address => uint256)) public userIndexOfLastClaimedReward;\n  mapping(address => mapping(address => uint256)) public userAmountStaked;\n\n  // Token shift management\n  mapping(uint32 => uint256) public batched_stakerNextTokenShiftIndex;\n  /**\n  @notice Used to link a token shift to a staker state\n  @dev tokenShiftIndex => accumulativeFloatIssuanceSnapshotIndex\n    POSSIBLE OPTIMIZATION - could pack stakerTokenShiftIndex_to_accumulativeFloatIssuanceSnapshotIndex_mapping and stakerTokenShiftIndex_to_longShortMarketPriceSnapshotIndex_mapping into a struct of two uint128 for storage space optimization.\n  */\n  mapping(uint256 => uint256)\n    public stakerTokenShiftIndex_to_accumulativeFloatIssuanceSnapshotIndex_mapping;\n  /// @notice Used to fetch the price from LongShort at that point in time\n  /// @dev tokenShiftIndex => longShortMarketPriceSnapshotIndex\n  mapping(uint256 => uint256)\n    public stakerTokenShiftIndex_to_longShortMarketPriceSnapshotIndex_mapping;\n  /// @dev marketIndex => usersAddress => stakerTokenShiftIndex\n  mapping(uint32 => mapping(address => uint256))\n    public userNextPrice_stakedSyntheticTokenShiftIndex;\n  /// @dev marketIndex => usersAddress => amountUserRequestedToShiftAwayFromLongOnNextUpdate\n  mapping(uint32 => mapping(address => uint256))\n    public userNextPrice_amountStakedSyntheticToken_toShiftAwayFrom_long;\n  /// @dev marketIndex => usersAddress => amountUserRequestedToShiftAwayFromShortOnNextUpdate\n  mapping(uint32 => mapping(address => uint256))\n    public userNextPrice_amountStakedSyntheticToken_toShiftAwayFrom_short;\n\n  /*\n               EVENTS           \n    */\n\n  event StakerV1(\n    address admin,\n    address floatTreasury,\n    address floatCapital,\n    address floatToken,\n    uint256 floatPercentage\n  );\n\n  event MarketAddedToStaker(\n    uint32 marketIndex,\n    uint256 exitFee_e18,\n    uint256 period,\n    uint256 multiplier,\n    uint256 balanceIncentiveExponent,\n    int256 balanceIncentiveEquilibriumOffset\n  );\n\n  event AccumulativeIssuancePerStakedSynthSnapshotCreated(\n    uint32 marketIndex,\n    uint256 accumulativeFloatIssuanceSnapshotIndex,\n    uint256 accumulativeLong,\n    uint256 accumulativeShort\n  );\n\n  event StakeAdded(address user, address token, uint256 amount, uint256 lastMintIndex);\n\n  event StakeWithdrawn(address user, address token, uint256 amount);\n\n  // Note: the `amountFloatMinted` isn't strictly needed by the graph, but it is good to add it to validate calculations are accurate.\n  event FloatMinted(address user, uint32 marketIndex, uint256 amountFloatMinted);\n\n  event MarketLaunchIncentiveParametersChanges(\n    uint32 marketIndex,\n    uint256 period,\n    uint256 multiplier\n  );\n\n  event StakeWithdrawalFeeUpdated(uint32 marketIndex, uint256 stakeWithdralFee);\n\n  event BalanceIncentiveExponentUpdated(uint32 marketIndex, uint256 balanceIncentiveExponent);\n\n  event BalanceIncentiveEquilibriumOffsetUpdated(\n    uint32 marketIndex,\n    int256 balanceIncentiveEquilibriumOffset\n  );\n\n  event FloatPercentageUpdated(uint256 floatPercentage);\n\n  event SyntheticTokensShifted();\n\n  event ChangeAdmin(address newAdmin);\n\n  /*\n              MODIFIERS          \n    */\n\n  function onlyAdminModifierLogic() internal virtual {\n    require(msg.sender == admin, \"not admin\");\n  }\n\n  modifier onlyAdmin() {\n    onlyAdminModifierLogic();\n    _;\n  }\n\n  function onlyValidSyntheticModifierLogic(address _synth) internal virtual {\n    require(marketIndexOfToken[_synth] != 0, \"not valid synth\");\n  }\n\n  modifier onlyValidSynthetic(address _synth) {\n    onlyValidSyntheticModifierLogic(_synth);\n    _;\n  }\n\n  function onlyValidMarketModifierLogic(uint32 marketIndex) internal virtual {\n    require(address(syntheticTokens[marketIndex][true]) != address(0), \"not valid market\");\n  }\n\n  modifier onlyValidMarket(uint32 marketIndex) {\n    onlyValidMarketModifierLogic(marketIndex);\n    _;\n  }\n\n  function onlyLongShortModifierLogic() internal virtual {\n    require(msg.sender == address(longShort), \"not long short\");\n  }\n\n  modifier onlyLongShort() {\n    onlyLongShortModifierLogic();\n    _;\n  }\n\n  /*\n           CONTRACT SET-UP       \n    */\n\n  /**\n  @notice Initializes the contract.\n  @dev Calls OpenZeppelin's initializer modifier.\n  @param _admin Address of the admin role.\n  @param _longShort Address of the LongShort contract, a deployed LongShort.sol\n  @param _floatToken Address of the Float token earned by staking.\n  @param _floatCapital Address of the contract which earns a fixed percentage of Float.\n  @param _floatPercentage Determines the float percentage that gets minted for Float Capital, base 1e18.\n  */\n  function initialize(\n    address _admin,\n    address _longShort,\n    address _floatToken,\n    address _floatTreasury,\n    address _floatCapital,\n    uint256 _floatPercentage\n  ) external virtual initializer {\n    admin = _admin;\n    floatCapital = _floatCapital;\n    floatTreasury = _floatTreasury;\n    longShort = _longShort;\n    floatToken = _floatToken;\n\n    _changeFloatPercentage(_floatPercentage);\n\n    emit StakerV1(_admin, _floatTreasury, _floatCapital, _floatToken, _floatPercentage);\n  }\n\n  /*\n           MULTI-SIG ADMIN       \n    */\n\n  /** \n  @notice Changes admin for the contract\n  @param _admin The address of the new admin.\n  */\n  function changeAdmin(address _admin) external onlyAdmin {\n    admin = _admin;\n    emit ChangeAdmin(_admin);\n  }\n\n  /// @dev Logic for changeFloatPercentage\n  function _changeFloatPercentage(uint256 newFloatPercentage) internal virtual {\n    require(newFloatPercentage <= 1e18 && newFloatPercentage > 0); // less than or equal to 100% and greater than 0%\n    floatPercentage = newFloatPercentage;\n  }\n\n  /**\n  @notice Changes percentage of float that is minted for float capital.\n  @param newFloatPercentage The new float percentage in base 1e18.\n  */\n  function changeFloatPercentage(uint256 newFloatPercentage) external onlyAdmin {\n    _changeFloatPercentage(newFloatPercentage);\n    emit FloatPercentageUpdated(newFloatPercentage);\n  }\n\n  /// @dev Logic for changeUnstakeFee\n  function _changeUnstakeFee(uint32 marketIndex, uint256 newMarketUnstakeFee_e18) internal virtual {\n    require(newMarketUnstakeFee_e18 <= 5e16); // Explicitely stating 5% fee as the max fee possible.\n    marketUnstakeFee_e18[marketIndex] = newMarketUnstakeFee_e18;\n  }\n\n  /**\n  @notice Changes unstake fee for a market\n  @param marketIndex Identifies the market.\n  @param newMarketUnstakeFee_e18 The new unstake fee.\n  */\n  function changeUnstakeFee(uint32 marketIndex, uint256 newMarketUnstakeFee_e18)\n    external\n    onlyAdmin\n  {\n    _changeUnstakeFee(marketIndex, newMarketUnstakeFee_e18);\n    emit StakeWithdrawalFeeUpdated(marketIndex, newMarketUnstakeFee_e18);\n  }\n\n  /// @dev Logic for changeMarketLaunchIncentiveParameters\n  function _changeMarketLaunchIncentiveParameters(\n    uint32 marketIndex,\n    uint256 period,\n    uint256 initialMultiplier\n  ) internal virtual {\n    require(initialMultiplier >= 1e18, \"marketLaunchIncentiveMultiplier must be >= 1e18\");\n\n    marketLaunchIncentive_period[marketIndex] = period;\n    marketLaunchIncentive_multipliers[marketIndex] = initialMultiplier;\n  }\n\n  /**\n  @notice Changes the market launch incentive parameters for a market\n  @param marketIndex Identifies the market.\n  @param period The new period for which float token generation should be boosted.\n  @param initialMultiplier The new multiplier on Float generation.\n  */\n  function changeMarketLaunchIncentiveParameters(\n    uint32 marketIndex,\n    uint256 period,\n    uint256 initialMultiplier\n  ) external onlyAdmin {\n    _changeMarketLaunchIncentiveParameters(marketIndex, period, initialMultiplier);\n\n    emit MarketLaunchIncentiveParametersChanges(marketIndex, period, initialMultiplier);\n  }\n\n  /// @dev Logic for changeBalanceIncentiveExponent\n  function _changeBalanceIncentiveExponent(\n    uint32 marketIndex,\n    uint256 _balanceIncentiveCurve_exponent\n  ) internal virtual {\n    require(\n      // The exponent has to be less than 5 in these versions of the contracts.\n      _balanceIncentiveCurve_exponent > 0 && _balanceIncentiveCurve_exponent < 6,\n      \"balanceIncentiveCurve_exponent out of bounds\"\n    );\n\n    balanceIncentiveCurve_exponent[marketIndex] = _balanceIncentiveCurve_exponent;\n  }\n\n  /** \n  @notice Changes the balance incentive exponent for a market\n  @param marketIndex Identifies the market.\n  @param _balanceIncentiveCurve_exponent The new exponent for the curve.\n  */\n  function changeBalanceIncentiveExponent(\n    uint32 marketIndex,\n    uint256 _balanceIncentiveCurve_exponent\n  ) external onlyAdmin {\n    _changeBalanceIncentiveExponent(marketIndex, _balanceIncentiveCurve_exponent);\n\n    emit BalanceIncentiveExponentUpdated(marketIndex, _balanceIncentiveCurve_exponent);\n  }\n\n  /// @dev Logic for changeBalanceIncentiveEquilibriumOffset\n  function _changeBalanceIncentiveEquilibriumOffset(\n    uint32 marketIndex,\n    int256 _balanceIncentiveCurve_equilibriumOffset\n  ) internal virtual {\n    // Unreasonable that we would ever shift this more than 90% either way\n    require(\n      _balanceIncentiveCurve_equilibriumOffset > -9e17 &&\n        _balanceIncentiveCurve_equilibriumOffset < 9e17,\n      \"balanceIncentiveCurve_equilibriumOffset out of bounds\"\n    );\n\n    balanceIncentiveCurve_equilibriumOffset[marketIndex] = _balanceIncentiveCurve_equilibriumOffset;\n  }\n\n  /**\n  @notice Changes the balance incentive curve equilibrium offset for a market\n  @param marketIndex Identifies the market.\n  @param _balanceIncentiveCurve_equilibriumOffset The new offset.\n  */\n  function changeBalanceIncentiveEquilibriumOffset(\n    uint32 marketIndex,\n    int256 _balanceIncentiveCurve_equilibriumOffset\n  ) external onlyAdmin {\n    _changeBalanceIncentiveEquilibriumOffset(marketIndex, _balanceIncentiveCurve_equilibriumOffset);\n\n    emit BalanceIncentiveEquilibriumOffsetUpdated(\n      marketIndex,\n      _balanceIncentiveCurve_equilibriumOffset\n    );\n  }\n\n  /*\n            STAKING SETUP        \n    */\n\n  /**\n  @notice Sets this contract to track staking for a market in LongShort.sol\n  @param marketIndex Identifies the market.\n  @param longToken Address of the long token for the market.\n  @param shortToken Address of the short token for the market.\n  @param kInitialMultiplier Initial boost on float generation for the market.\n  @param kPeriod Period which the boost should last.\n  @param unstakeFee_e18 Percentage of tokens that are levied on unstaking in base 1e18.\n  @param _balanceIncentiveCurve_exponent Exponent for balance curve (see _calculateFloatPerSecond)\n  @param _balanceIncentiveCurve_equilibriumOffset Offset for balance curve (see _calculateFloatPerSecond)\n  */\n  function addNewStakingFund(\n    uint32 marketIndex,\n    address longToken,\n    address shortToken,\n    uint256 kInitialMultiplier,\n    uint256 kPeriod,\n    uint256 unstakeFee_e18,\n    uint256 _balanceIncentiveCurve_exponent,\n    int256 _balanceIncentiveCurve_equilibriumOffset\n  ) external override onlyLongShort {\n    marketIndexOfToken[longToken] = marketIndex;\n    marketIndexOfToken[shortToken] = marketIndex;\n\n    accumulativeFloatPerSyntheticTokenSnapshots[marketIndex][0].timestamp = block.timestamp;\n    accumulativeFloatPerSyntheticTokenSnapshots[marketIndex][0]\n    .accumulativeFloatPerSyntheticToken_long = 0;\n    accumulativeFloatPerSyntheticTokenSnapshots[marketIndex][0]\n    .accumulativeFloatPerSyntheticToken_short = 0;\n\n    syntheticTokens[marketIndex][true] = longToken;\n    syntheticTokens[marketIndex][false] = shortToken;\n\n    _changeBalanceIncentiveExponent(marketIndex, _balanceIncentiveCurve_exponent);\n    _changeBalanceIncentiveEquilibriumOffset(marketIndex, _balanceIncentiveCurve_equilibriumOffset);\n    _changeMarketLaunchIncentiveParameters(marketIndex, kPeriod, kInitialMultiplier);\n\n    _changeUnstakeFee(marketIndex, unstakeFee_e18);\n\n    // Set this value to one initially - 0 is a null value and thus potentially bug prone.\n    batched_stakerNextTokenShiftIndex[marketIndex] = 1;\n\n    emit MarketAddedToStaker(\n      marketIndex,\n      unstakeFee_e18,\n      kPeriod,\n      kInitialMultiplier,\n      _balanceIncentiveCurve_exponent,\n      _balanceIncentiveCurve_equilibriumOffset\n    );\n\n    emit AccumulativeIssuancePerStakedSynthSnapshotCreated(marketIndex, 0, 0, 0);\n  }\n\n  /*\n        GLOBAL FLT REWARD ACCUMULATION CALCULATION AND TRACKING FUNCTIONS    \n    */\n\n  /**\n  @notice Returns the K factor parameters for the given market with sensible\n  defaults if they haven't been set yet.\n  @param marketIndex The market to change the parameters for.\n  @return period The period for which the k factor applies for in seconds.\n  @return multiplier The multiplier on Float generation in this period.\n  */\n  function _getMarketLaunchIncentiveParameters(uint32 marketIndex)\n    internal\n    view\n    virtual\n    returns (uint256, uint256)\n  {\n    uint256 period = marketLaunchIncentive_period[marketIndex];\n    uint256 multiplier = marketLaunchIncentive_multipliers[marketIndex];\n    if (multiplier < 1e18) {\n      multiplier = 1e18; // multiplier of 1 by default\n    }\n\n    return (period, multiplier);\n  }\n\n  // TODO: rename 'k' into 'incentiveMultiplier' or something else more descriptive.\n\n  /** \n  @notice Returns the extent to which a markets float generation should be adjusted\n  based on the market's launch incentive parameters. Should start at multiplier\n  then linearly change to 1e18 over time.\n  @param marketIndex Identifies the market.\n  @return k The calculated modifier for float generation.\n  */\n  function _getKValue(uint32 marketIndex) internal view virtual returns (uint256) {\n    // Parameters controlling the float issuance multiplier.\n    (uint256 kPeriod, uint256 kInitialMultiplier) = _getMarketLaunchIncentiveParameters(\n      marketIndex\n    );\n\n    // Sanity check - under normal circumstances, the multipliers should\n    // *never* be set to a value < 1e18, as there are guards against this.\n    assert(kInitialMultiplier >= 1e18);\n\n    uint256 initialTimestamp = accumulativeFloatPerSyntheticTokenSnapshots[marketIndex][0]\n    .timestamp;\n\n    if (block.timestamp - initialTimestamp <= kPeriod) {\n      return\n        kInitialMultiplier -\n        (((kInitialMultiplier - 1e18) * (block.timestamp - initialTimestamp)) / kPeriod);\n    } else {\n      return 1e18;\n    }\n  }\n\n  /*\n   * Computes the current 'r' value, i.e. the number of float tokens a user\n   * earns per second for every longshort token they've staked. The returned\n   * value has a fixed decimal scale of 1e42 (!!!) for numerical stability.\n   * The return values are float per second per synthetic token (hence the\n   * requirement to multiply by price)\n   *  -- here is the graph of the curve used: https://www.desmos.com/calculator/vg7jlmn4mn\n   */\n  function _calculateFloatPerSecond(\n    uint32 marketIndex,\n    uint256 longPrice,\n    uint256 shortPrice,\n    uint256 longValue,\n    uint256 shortValue\n  ) internal view virtual returns (uint256 longFloatPerSecond, uint256 shortFloatPerSecond) {\n    // Markets cannot be or become empty (since they are seeded with non-withdrawable capital)\n    assert(longValue != 0 && shortValue != 0);\n\n    // A float issuance multiplier that starts high and decreases linearly\n    // over time to a value of 1. This incentivises users to stake early.\n    uint256 k = _getKValue(marketIndex);\n\n    uint256 totalLocked = (longValue + shortValue);\n\n    // we need to scale this number by the totalLocked so that the offset remains consistent accross market size\n\n    int256 equilibriumOffsetMarketScaled = (balanceIncentiveCurve_equilibriumOffset[marketIndex] *\n      int256(totalLocked)) / 1e18;\n\n    // Float is scaled by the percentage of the total market value held in\n    // the opposite position. This incentivises users to stake on the\n    // weaker position.\n    if (int256(shortValue) - equilibriumOffsetMarketScaled < int256(longValue)) {\n      if (equilibriumOffsetMarketScaled >= int256(shortValue)) {\n        // edge case: imbalanced far past the equilibrium offset - full rewards go to short token\n        //            extremeley unlikely to happen in practice\n        return (0, 1e18 * k * shortPrice);\n      }\n\n      uint256 numerator = (uint256(int256(shortValue) - equilibriumOffsetMarketScaled) >>\n        (safeExponentBitShifting - 1))**balanceIncentiveCurve_exponent[marketIndex];\n\n      uint256 denominator = ((totalLocked >> safeExponentBitShifting) **\n        balanceIncentiveCurve_exponent[marketIndex]);\n\n      // NOTE: `x * 5e17` == `(x * 10e18) / 2`\n      uint256 longRewardUnscaled = (numerator * 5e17) / denominator;\n      uint256 shortRewardUnscaled = 1e18 - longRewardUnscaled;\n\n      return (\n        (longRewardUnscaled * k * longPrice) / 1e18,\n        (shortRewardUnscaled * k * shortPrice) / 1e18\n      );\n    } else {\n      if (-equilibriumOffsetMarketScaled >= int256(longValue)) {\n        // edge case: imbalanced far past the equilibrium offset - full rewards go to long token\n        //            extremeley unlikely to happen in practice\n        return (1e18 * k * longPrice, 0);\n      }\n\n      uint256 numerator = (uint256(int256(longValue) + equilibriumOffsetMarketScaled) >>\n        (safeExponentBitShifting - 1))**balanceIncentiveCurve_exponent[marketIndex];\n\n      uint256 denominator = ((totalLocked >> safeExponentBitShifting) **\n        balanceIncentiveCurve_exponent[marketIndex]);\n\n      // NOTE: `x * 5e17` == `(x * 10e18) / 2`\n      uint256 shortRewardUnscaled = (numerator * 5e17) / denominator;\n      uint256 longRewardUnscaled = 1e18 - shortRewardUnscaled;\n\n      return (\n        (longRewardUnscaled * k * longPrice) / 1e18,\n        (shortRewardUnscaled * k * shortPrice) / 1e18\n      );\n    }\n  }\n\n  /**\n  @notice Computes the time since last accumulativeIssuancePerStakedSynthSnapshot for the given market in seconds.\n  @param marketIndex The market referred to.\n  @return The time difference in seconds\n  */\n  function _calculateTimeDeltaFromLastAccumulativeIssuancePerStakedSynthSnapshot(uint32 marketIndex)\n    internal\n    view\n    virtual\n    returns (uint256)\n  {\n    return\n      block.timestamp -\n      accumulativeFloatPerSyntheticTokenSnapshots[marketIndex][latestRewardIndex[marketIndex]]\n      .timestamp;\n  }\n\n  /**\n  @notice Computes new cumulative sum of 'r' value since last accumulativeIssuancePerStakedSynthSnapshot. We use\n  cumulative 'r' value to avoid looping during issuance. Note that the\n  cumulative sum is kept in 1e42 scale (!!!) to avoid numerical issues.\n  @param shortValue The value locked in the short side of the market.\n  @param longValue The value locked in the long side of the market.\n  @param shortPrice The price of the short token as defined in LongShort.sol\n  @param longPrice The price of the long token as defined in LongShort.sol\n  @param marketIndex An identifier for the market.\n  @return longCumulativeRates The long cumulative sum.\n  @return shortCumulativeRates The short cumulative sum.\n  */\n  function _calculateNewCumulativeIssuancePerStakedSynth(\n    uint32 marketIndex,\n    uint256 longPrice,\n    uint256 shortPrice,\n    uint256 longValue,\n    uint256 shortValue\n  ) internal view virtual returns (uint256 longCumulativeRates, uint256 shortCumulativeRates) {\n    // Compute the current 'r' value for float issuance per second.\n    (uint256 longFloatPerSecond, uint256 shortFloatPerSecond) = _calculateFloatPerSecond(\n      marketIndex,\n      longPrice,\n      shortPrice,\n      longValue,\n      shortValue\n    );\n\n    // Compute time since last accumulativeIssuancePerStakedSynthSnapshot for the given token.\n    uint256 timeDelta = _calculateTimeDeltaFromLastAccumulativeIssuancePerStakedSynthSnapshot(\n      marketIndex\n    );\n\n    // Compute new cumulative 'r' value total.\n    return (\n      accumulativeFloatPerSyntheticTokenSnapshots[marketIndex][latestRewardIndex[marketIndex]]\n      .accumulativeFloatPerSyntheticToken_long + (timeDelta * longFloatPerSecond),\n      accumulativeFloatPerSyntheticTokenSnapshots[marketIndex][latestRewardIndex[marketIndex]]\n      .accumulativeFloatPerSyntheticToken_short + (timeDelta * shortFloatPerSecond)\n    );\n  }\n\n  /**\n  @notice Creates a new accumulativeIssuancePerStakedSynthSnapshot for the given token and updates indexes.\n  @param shortValue The value locked in the short side of the market.\n  @param longValue The value locked in the long side of the market.\n  @param shortPrice The price of the short token as defined in LongShort.sol\n  @param longPrice The price of the long token as defined in LongShort.sol\n  @param marketIndex An identifier for the market.\n  */\n  function _setCurrentAccumulativeIssuancePerStakeStakedSynthSnapshot(\n    uint32 marketIndex,\n    uint256 longPrice,\n    uint256 shortPrice,\n    uint256 longValue,\n    uint256 shortValue\n  ) internal virtual {\n    (\n      uint256 newLongAccumulativeValue,\n      uint256 newShortAccumulativeValue\n    ) = _calculateNewCumulativeIssuancePerStakedSynth(\n      marketIndex,\n      longPrice,\n      shortPrice,\n      longValue,\n      shortValue\n    );\n\n    uint256 newIndex = latestRewardIndex[marketIndex] + 1;\n\n    // Set cumulative 'r' value on new accumulativeIssuancePerStakedSynthSnapshot.\n    accumulativeFloatPerSyntheticTokenSnapshots[marketIndex][newIndex]\n    .accumulativeFloatPerSyntheticToken_long = newLongAccumulativeValue;\n    accumulativeFloatPerSyntheticTokenSnapshots[marketIndex][newIndex]\n    .accumulativeFloatPerSyntheticToken_short = newShortAccumulativeValue;\n\n    // Set timestamp on new accumulativeIssuancePerStakedSynthSnapshot.\n    accumulativeFloatPerSyntheticTokenSnapshots[marketIndex][newIndex].timestamp = block.timestamp;\n\n    // Update latest index to point to new accumulativeIssuancePerStakedSynthSnapshot.\n    latestRewardIndex[marketIndex] = newIndex;\n\n    emit AccumulativeIssuancePerStakedSynthSnapshotCreated(\n      marketIndex,\n      newIndex,\n      newLongAccumulativeValue,\n      newShortAccumulativeValue\n    );\n  }\n\n  /**\n  @notice Adds new accumulativeIssuancePerStakedSynthSnapshots for the given long/short tokens. Called by the\n  ILongShort contract whenever there is a state change for a market.\n  @param stakerTokenShiftIndex_to_longShortMarketPriceSnapshotIndex_mappingIfShiftExecuted Mapping from this contract's shifts to LongShort.sols next price snapshots.\n  @param shortValue The value locked in the short side of the market.\n  @param longValue The value locked in the long side of the market.\n  @param shortPrice The price of the short token as defined in LongShort.sol\n  @param longPrice The price of the long token as defined in LongShort.sol\n  @param marketIndex An identifier for the market.\n  */\n  function pushUpdatedMarketPricesToUpdateFloatIssuanceCalculations(\n    uint32 marketIndex,\n    uint256 longPrice,\n    uint256 shortPrice,\n    uint256 longValue,\n    uint256 shortValue,\n    uint256 stakerTokenShiftIndex_to_longShortMarketPriceSnapshotIndex_mappingIfShiftExecuted // This value should be ALWAYS be zero if no shift occured\n  ) external override onlyLongShort {\n    // Only add a new accumulativeIssuancePerStakedSynthSnapshot if some time has passed.\n\n    // the `stakerTokenShiftIndex_to_longShortMarketPriceSnapshotIndex_mappingIfShiftExecuted` value will be 0 if there is no staker related action in an executed batch\n    if (stakerTokenShiftIndex_to_longShortMarketPriceSnapshotIndex_mappingIfShiftExecuted > 0) {\n      stakerTokenShiftIndex_to_longShortMarketPriceSnapshotIndex_mapping[\n        batched_stakerNextTokenShiftIndex[marketIndex]\n      ] = stakerTokenShiftIndex_to_longShortMarketPriceSnapshotIndex_mappingIfShiftExecuted;\n      stakerTokenShiftIndex_to_accumulativeFloatIssuanceSnapshotIndex_mapping[\n        batched_stakerNextTokenShiftIndex[marketIndex]\n      ] = latestRewardIndex[marketIndex] + 1;\n      batched_stakerNextTokenShiftIndex[marketIndex] += 1;\n\n      emit SyntheticTokensShifted();\n    }\n\n    // Time delta is fetched twice in below code, can pass through? Which is less gas?\n    if (_calculateTimeDeltaFromLastAccumulativeIssuancePerStakedSynthSnapshot(marketIndex) > 0) {\n      _setCurrentAccumulativeIssuancePerStakeStakedSynthSnapshot(\n        marketIndex,\n        longPrice,\n        shortPrice,\n        longValue,\n        shortValue\n      );\n    }\n  }\n\n  /*\n        USER REWARD STATE FUNCTIONS    \n    */\n\n  /// @dev Calculates the accumulated float in a specific range of staker snapshots\n  function _calculateAccumulatedFloatInRange(\n    uint32 marketIndex,\n    uint256 amountStakedLong,\n    uint256 amountStakedShort,\n    uint256 rewardIndexFrom,\n    uint256 rewardIndexTo\n  ) internal view virtual returns (uint256 floatReward) {\n    if (amountStakedLong > 0) {\n      uint256 accumDeltaLong = accumulativeFloatPerSyntheticTokenSnapshots[marketIndex][\n        rewardIndexTo\n      ]\n      .accumulativeFloatPerSyntheticToken_long -\n        accumulativeFloatPerSyntheticTokenSnapshots[marketIndex][rewardIndexFrom]\n        .accumulativeFloatPerSyntheticToken_long;\n      floatReward += (accumDeltaLong * amountStakedLong) / FLOAT_ISSUANCE_FIXED_DECIMAL;\n    }\n\n    if (amountStakedShort > 0) {\n      uint256 accumDeltaShort = accumulativeFloatPerSyntheticTokenSnapshots[marketIndex][\n        rewardIndexTo\n      ]\n      .accumulativeFloatPerSyntheticToken_short -\n        accumulativeFloatPerSyntheticTokenSnapshots[marketIndex][rewardIndexFrom]\n        .accumulativeFloatPerSyntheticToken_short;\n      floatReward += (accumDeltaShort * amountStakedShort) / FLOAT_ISSUANCE_FIXED_DECIMAL;\n    }\n  }\n\n  /** \n  @notice Calculates float owed to the user since the user last minted float for a market.\n  @param marketIndex Identifier for the market which the user staked in.\n  @param user The address of the user.\n  @return floatReward The amount of float owed.\n   */\n  function _calculateAccumulatedFloat(uint32 marketIndex, address user)\n    internal\n    virtual\n    returns (uint256 floatReward)\n  {\n    address longToken = syntheticTokens[marketIndex][true];\n    address shortToken = syntheticTokens[marketIndex][false];\n\n    uint256 amountStakedLong = userAmountStaked[longToken][user];\n    uint256 amountStakedShort = userAmountStaked[shortToken][user];\n\n    uint256 usersLastRewardIndex = userIndexOfLastClaimedReward[marketIndex][user];\n\n    // Don't do the calculation and return zero immediately if there is no change\n    if (usersLastRewardIndex == latestRewardIndex[marketIndex]) {\n      return 0;\n    }\n\n    uint256 usersShiftIndex = userNextPrice_stakedSyntheticTokenShiftIndex[marketIndex][user];\n    // if there is a change in the users tokens held due to a token shift (or possibly another action in the future)\n    if (usersShiftIndex > 0 && usersShiftIndex < batched_stakerNextTokenShiftIndex[marketIndex]) {\n      floatReward = _calculateAccumulatedFloatInRange(\n        marketIndex,\n        amountStakedLong,\n        amountStakedShort,\n        usersLastRewardIndex,\n        stakerTokenShiftIndex_to_accumulativeFloatIssuanceSnapshotIndex_mapping[usersShiftIndex]\n      );\n\n      // Update the users balances\n      if (userNextPrice_amountStakedSyntheticToken_toShiftAwayFrom_long[marketIndex][user] > 0) {\n        amountStakedShort += ILongShort(longShort).getAmountSyntheticTokenToMintOnTargetSide(\n          marketIndex,\n          userNextPrice_amountStakedSyntheticToken_toShiftAwayFrom_long[marketIndex][user],\n          true,\n          stakerTokenShiftIndex_to_longShortMarketPriceSnapshotIndex_mapping[usersShiftIndex]\n        );\n\n        amountStakedLong -= userNextPrice_amountStakedSyntheticToken_toShiftAwayFrom_long[\n          marketIndex\n        ][user];\n        userNextPrice_amountStakedSyntheticToken_toShiftAwayFrom_long[marketIndex][user] = 0;\n      }\n\n      if (userNextPrice_amountStakedSyntheticToken_toShiftAwayFrom_short[marketIndex][user] > 0) {\n        amountStakedLong += ILongShort(longShort).getAmountSyntheticTokenToMintOnTargetSide(\n          marketIndex,\n          userNextPrice_amountStakedSyntheticToken_toShiftAwayFrom_short[marketIndex][user],\n          false,\n          stakerTokenShiftIndex_to_longShortMarketPriceSnapshotIndex_mapping[usersShiftIndex]\n        );\n\n        // TODO: investigate how casting negative numbers works in solidity\n        amountStakedShort -= userNextPrice_amountStakedSyntheticToken_toShiftAwayFrom_short[\n          marketIndex\n        ][user];\n        userNextPrice_amountStakedSyntheticToken_toShiftAwayFrom_short[marketIndex][user] = 0;\n      }\n\n      // Save the users updated staked amounts\n      userAmountStaked[longToken][user] = amountStakedLong;\n      userAmountStaked[shortToken][user] = amountStakedShort;\n\n      floatReward += _calculateAccumulatedFloatInRange(\n        marketIndex,\n        amountStakedLong,\n        amountStakedShort,\n        stakerTokenShiftIndex_to_accumulativeFloatIssuanceSnapshotIndex_mapping[usersShiftIndex],\n        latestRewardIndex[marketIndex]\n      );\n\n      userNextPrice_stakedSyntheticTokenShiftIndex[marketIndex][user] = 0;\n    } else {\n      floatReward = _calculateAccumulatedFloatInRange(\n        marketIndex,\n        amountStakedLong,\n        amountStakedShort,\n        usersLastRewardIndex,\n        latestRewardIndex[marketIndex]\n      );\n    }\n  }\n\n  /**\n  @notice Mints float for a user.\n  @dev Mints a fixed percentage for Float capital.\n  @param user The address of the user.\n  @param floatToMint The amount of float to mint.\n   */\n  function _mintFloat(address user, uint256 floatToMint) internal virtual {\n    IFloatToken(floatToken).mint(user, floatToMint);\n    IFloatToken(floatToken).mint(floatCapital, (floatToMint * floatPercentage) / 1e18);\n  }\n\n  /**\n  @notice Mints float owed to a user for a market since they last minted.\n  @param marketIndex An identifier for the market.\n  @param user The address of the user.\n   */\n  function _mintAccumulatedFloat(uint32 marketIndex, address user) internal virtual {\n    uint256 floatToMint = _calculateAccumulatedFloat(marketIndex, user);\n\n    if (floatToMint > 0) {\n      // Set the user has claimed up until now, stops them setting this forward\n      userIndexOfLastClaimedReward[marketIndex][user] = latestRewardIndex[marketIndex];\n\n      _mintFloat(user, floatToMint);\n      emit FloatMinted(user, marketIndex, floatToMint);\n    }\n  }\n\n  /**\n  @notice Mints float owed to a user for multiple markets, since they last minted for those markets.\n  @param marketIndexes Identifiers for the markets.\n  @param user The address of the user.\n   */\n  function _mintAccumulatedFloatMulti(uint32[] calldata marketIndexes, address user)\n    internal\n    virtual\n  {\n    uint256 floatTotal = 0;\n    for (uint256 i = 0; i < marketIndexes.length; i++) {\n      uint256 floatToMint = _calculateAccumulatedFloat(marketIndexes[i], user);\n\n      if (floatToMint > 0) {\n        // Set the user has claimed up until now, stops them setting this forward\n        userIndexOfLastClaimedReward[marketIndexes[i]][user] = latestRewardIndex[marketIndexes[i]];\n\n        floatTotal += floatToMint;\n\n        emit FloatMinted(user, marketIndexes[i], floatToMint);\n      }\n    }\n    if (floatTotal > 0) {\n      _mintFloat(user, floatTotal);\n    }\n  }\n\n  /**\n  @notice Mints outstanding float for msg.sender.\n  @param marketIndexes Identifiers for the markets for which to mint float.\n   */\n  function claimFloatCustom(uint32[] calldata marketIndexes) external {\n    ILongShort(longShort).updateSystemStateMulti(marketIndexes);\n    _mintAccumulatedFloatMulti(marketIndexes, msg.sender);\n  }\n\n  /**\n  @notice Mints outstanding float on behalf of another user.\n  @param marketIndexes Identifiers for the markets for which to mint float.\n  @param user The address of the user.\n   */\n  function claimFloatCustomFor(uint32[] calldata marketIndexes, address user) external {\n    // Unbounded loop - users are responsible for paying their own gas costs on these and it doesn't effect the rest of the system.\n    // No need to imposea limit.\n    ILongShort(longShort).updateSystemStateMulti(marketIndexes);\n    _mintAccumulatedFloatMulti(marketIndexes, user);\n  }\n\n  /*\n            STAKING        \n    */\n\n  /**\n  @notice A user with synthetic tokens stakes by calling stake on the token\n  contract which calls this function. We need to first update the\n  state of the LongShort contract for this market before staking to correctly calculate user rewards.\n  @param amount Amount to stake.\n  @param from Address to stake for.\n  */\n  function stakeFromUser(address from, uint256 amount)\n    public\n    virtual\n    override\n    onlyValidSynthetic((msg.sender))\n  {\n    ILongShort(longShort).updateSystemState(marketIndexOfToken[(msg.sender)]);\n    _stake((msg.sender), amount, from);\n  }\n\n  /**\n  @dev Internal logic for staking.\n  @param token Address of the token for which to stake.\n  @param amount Amount to stake.\n  @param user Address to stake for.\n  */\n  function _stake(\n    address token,\n    uint256 amount,\n    address user\n  ) internal virtual {\n    uint32 marketIndex = marketIndexOfToken[token];\n\n    // If they already have staked and have rewards due, mint these.\n    if (\n      userIndexOfLastClaimedReward[marketIndex][user] != 0 &&\n      userIndexOfLastClaimedReward[marketIndex][user] < latestRewardIndex[marketIndex]\n    ) {\n      _mintAccumulatedFloat(marketIndex, user);\n    }\n\n    userAmountStaked[token][user] = userAmountStaked[token][user] + amount;\n\n    userIndexOfLastClaimedReward[marketIndex][user] = latestRewardIndex[marketIndex];\n\n    emit StakeAdded(user, address(token), amount, userIndexOfLastClaimedReward[marketIndex][user]);\n  }\n\n  /**\n  @notice Allows users to shift their staked tokens from one side of the market to \n  the other at the next price.\n  @param amountSyntheticTokensToShift Amount of tokens to shift.\n  @param marketIndex Identifier for the market.\n  @param isShiftFromLong Whether the shift is from long to short or short to long.\n  */\n  function shiftTokens(\n    uint256 amountSyntheticTokensToShift,\n    uint32 marketIndex,\n    bool isShiftFromLong\n  ) external virtual {\n    address token = syntheticTokens[marketIndex][isShiftFromLong];\n    require(\n      userAmountStaked[token][msg.sender] >= amountSyntheticTokensToShift,\n      \"Not enough tokens to shift\"\n    );\n\n    // If the user has outstanding token shift that have already been confirmed in the LongShort\n    // contract, execute them first.\n    if (\n      userNextPrice_stakedSyntheticTokenShiftIndex[marketIndex][msg.sender] != 0 &&\n      userNextPrice_stakedSyntheticTokenShiftIndex[marketIndex][msg.sender] <\n      batched_stakerNextTokenShiftIndex[marketIndex]\n    ) {\n      _mintAccumulatedFloat(marketIndex, msg.sender);\n    }\n\n    if (isShiftFromLong) {\n      ILongShort(longShort).shiftPositionFromLongNextPrice(\n        marketIndex,\n        amountSyntheticTokensToShift\n      );\n      userNextPrice_amountStakedSyntheticToken_toShiftAwayFrom_long[marketIndex][\n        msg.sender\n      ] += amountSyntheticTokensToShift;\n    } else {\n      ILongShort(longShort).shiftPositionFromShortNextPrice(\n        marketIndex,\n        amountSyntheticTokensToShift\n      );\n      userNextPrice_amountStakedSyntheticToken_toShiftAwayFrom_short[marketIndex][\n        msg.sender\n      ] += amountSyntheticTokensToShift;\n    }\n\n    userNextPrice_stakedSyntheticTokenShiftIndex[marketIndex][\n      msg.sender\n    ] = batched_stakerNextTokenShiftIndex[marketIndex];\n  }\n\n  /*\n        WITHDRAWAL & MINTING    \n    */\n\n  /**\n  @notice Internal logic for withdrawing stakes.\n  @dev Mint user any outstanding float before withdrawing.\n  @param amount Amount to withdraw.\n  @param token Synthetic token that was staked.\n  */\n  function _withdraw(address token, uint256 amount) internal virtual {\n    uint32 marketIndex = marketIndexOfToken[token];\n    require(userAmountStaked[token][msg.sender] > 0, \"nothing to withdraw\");\n    _mintAccumulatedFloat(marketIndex, msg.sender);\n\n    userAmountStaked[token][msg.sender] = userAmountStaked[token][msg.sender] - amount;\n\n    uint256 amountFees = (amount * marketUnstakeFee_e18[marketIndex]) / 1e18;\n\n    IERC20(token).transfer(msg.sender, amount - amountFees);\n\n    emit StakeWithdrawn(msg.sender, token, amount);\n  }\n\n  /**\n  @notice Withdraw function. Allows users to unstake.\n  @param amount Amount to withdraw.\n  @param token Address of the token for which to withdraw.\n  */\n  function withdraw(address token, uint256 amount) external {\n    // TODO: possibly make a 'updateSystemState' (and 'updateSystemStateMulti') modifiers?\n    ILongShort(longShort).updateSystemState(marketIndexOfToken[token]);\n\n    _withdraw(token, amount);\n  }\n\n  /**\n  @notice Allows users to withdraw their entire stake for a token.\n  @param token Address of the token for which to withdraw.\n  */\n  function withdrawAll(address token) external {\n    ILongShort(longShort).updateSystemState(marketIndexOfToken[token]);\n\n    _withdraw(token, userAmountStaked[token][msg.sender]);\n  }\n}\n",
  "sourcePath": "/home/jasoons/Documents/code/monorepo/contracts/contracts/Staker.sol",
  "compiler": {
    "name": "solc",
    "version": "0.8.3+commit.8d00100c.Emscripten.clang"
  },
  "schemaVersion": "3.3.4",
  "updatedAt": "2021-08-04T10:05:24.535Z",
  "networkType": "ethereum",
  "devdoc": {
    "kind": "dev",
    "methods": {
      "addNewStakingFund(uint32,address,address,uint256,uint256,uint256,uint256,int256)": {
        "params": {
          "_balanceIncentiveCurve_equilibriumOffset": "Offset for balance curve (see _calculateFloatPerSecond)",
          "_balanceIncentiveCurve_exponent": "Exponent for balance curve (see _calculateFloatPerSecond)",
          "kInitialMultiplier": "Initial boost on float generation for the market.",
          "kPeriod": "Period which the boost should last.",
          "longToken": "Address of the long token for the market.",
          "marketIndex": "Identifies the market.",
          "shortToken": "Address of the short token for the market.",
          "unstakeFee_e18": "Percentage of tokens that are levied on unstaking in base 1e18."
        }
      },
      "changeAdmin(address)": {
        "params": {
          "_admin": "The address of the new admin."
        }
      },
      "changeBalanceIncentiveEquilibriumOffset(uint32,int256)": {
        "params": {
          "_balanceIncentiveCurve_equilibriumOffset": "The new offset.",
          "marketIndex": "Identifies the market."
        }
      },
      "changeBalanceIncentiveExponent(uint32,uint256)": {
        "params": {
          "_balanceIncentiveCurve_exponent": "The new exponent for the curve.",
          "marketIndex": "Identifies the market."
        }
      },
      "changeFloatPercentage(uint256)": {
        "params": {
          "newFloatPercentage": "The new float percentage in base 1e18."
        }
      },
      "changeMarketLaunchIncentiveParameters(uint32,uint256,uint256)": {
        "params": {
          "initialMultiplier": "The new multiplier on Float generation.",
          "marketIndex": "Identifies the market.",
          "period": "The new period for which float token generation should be boosted."
        }
      },
      "changeUnstakeFee(uint32,uint256)": {
        "params": {
          "marketIndex": "Identifies the market.",
          "newMarketUnstakeFee_e18": "The new unstake fee."
        }
      },
      "claimFloatCustom(uint32[])": {
        "params": {
          "marketIndexes": "Identifiers for the markets for which to mint float."
        }
      },
      "claimFloatCustomFor(uint32[],address)": {
        "params": {
          "marketIndexes": "Identifiers for the markets for which to mint float.",
          "user": "The address of the user."
        }
      },
      "initialize(address,address,address,address,address,uint256)": {
        "details": "Calls OpenZeppelin's initializer modifier.",
        "params": {
          "_admin": "Address of the admin role.",
          "_floatCapital": "Address of the contract which earns a fixed percentage of Float.",
          "_floatPercentage": "Determines the float percentage that gets minted for Float Capital, base 1e18.",
          "_floatToken": "Address of the Float token earned by staking.",
          "_longShort": "Address of the LongShort contract, a deployed LongShort.sol"
        }
      },
      "pushUpdatedMarketPricesToUpdateFloatIssuanceCalculations(uint32,uint256,uint256,uint256,uint256,uint256)": {
        "params": {
          "longPrice": "The price of the long token as defined in LongShort.sol",
          "longValue": "The value locked in the long side of the market.",
          "marketIndex": "An identifier for the market.",
          "shortPrice": "The price of the short token as defined in LongShort.sol",
          "shortValue": "The value locked in the short side of the market.",
          "stakerTokenShiftIndex_to_longShortMarketPriceSnapshotIndex_mappingIfShiftExecuted": "Mapping from this contract's shifts to LongShort.sols next price snapshots."
        }
      },
      "shiftTokens(uint256,uint32,bool)": {
        "params": {
          "amountSyntheticTokensToShift": "Amount of tokens to shift.",
          "isShiftFromLong": "Whether the shift is from long to short or short to long.",
          "marketIndex": "Identifier for the market."
        }
      },
      "stakeFromUser(address,uint256)": {
        "params": {
          "amount": "Amount to stake.",
          "from": "Address to stake for."
        }
      },
      "withdraw(address,uint256)": {
        "params": {
          "amount": "Amount to withdraw.",
          "token": "Address of the token for which to withdraw."
        }
      },
      "withdrawAll(address)": {
        "params": {
          "token": "Address of the token for which to withdraw."
        }
      }
    },
    "stateVariables": {
      "stakerTokenShiftIndex_to_accumulativeFloatIssuanceSnapshotIndex_mapping": {
        "details": "tokenShiftIndex => accumulativeFloatIssuanceSnapshotIndex POSSIBLE OPTIMIZATION - could pack stakerTokenShiftIndex_to_accumulativeFloatIssuanceSnapshotIndex_mapping and stakerTokenShiftIndex_to_longShortMarketPriceSnapshotIndex_mapping into a struct of two uint128 for storage space optimization."
      },
      "stakerTokenShiftIndex_to_longShortMarketPriceSnapshotIndex_mapping": {
        "details": "tokenShiftIndex => longShortMarketPriceSnapshotIndex"
      },
      "userNextPrice_amountStakedSyntheticToken_toShiftAwayFrom_long": {
        "details": "marketIndex => usersAddress => amountUserRequestedToShiftAwayFromLongOnNextUpdate"
      },
      "userNextPrice_amountStakedSyntheticToken_toShiftAwayFrom_short": {
        "details": "marketIndex => usersAddress => amountUserRequestedToShiftAwayFromShortOnNextUpdate"
      },
      "userNextPrice_stakedSyntheticTokenShiftIndex": {
        "details": "marketIndex => usersAddress => stakerTokenShiftIndex"
      }
    },
    "version": 1
  },
  "userdoc": {
    "kind": "user",
    "methods": {
      "addNewStakingFund(uint32,address,address,uint256,uint256,uint256,uint256,int256)": {
        "notice": "Sets this contract to track staking for a market in LongShort.sol"
      },
      "changeAdmin(address)": {
        "notice": "Changes admin for the contract"
      },
      "changeBalanceIncentiveEquilibriumOffset(uint32,int256)": {
        "notice": "Changes the balance incentive curve equilibrium offset for a market"
      },
      "changeBalanceIncentiveExponent(uint32,uint256)": {
        "notice": "Changes the balance incentive exponent for a market"
      },
      "changeFloatPercentage(uint256)": {
        "notice": "Changes percentage of float that is minted for float capital."
      },
      "changeMarketLaunchIncentiveParameters(uint32,uint256,uint256)": {
        "notice": "Changes the market launch incentive parameters for a market"
      },
      "changeUnstakeFee(uint32,uint256)": {
        "notice": "Changes unstake fee for a market"
      },
      "claimFloatCustom(uint32[])": {
        "notice": "Mints outstanding float for msg.sender."
      },
      "claimFloatCustomFor(uint32[],address)": {
        "notice": "Mints outstanding float on behalf of another user."
      },
      "initialize(address,address,address,address,address,uint256)": {
        "notice": "Initializes the contract."
      },
      "pushUpdatedMarketPricesToUpdateFloatIssuanceCalculations(uint32,uint256,uint256,uint256,uint256,uint256)": {
        "notice": "Adds new accumulativeIssuancePerStakedSynthSnapshots for the given long/short tokens. Called by the ILongShort contract whenever there is a state change for a market."
      },
      "shiftTokens(uint256,uint32,bool)": {
        "notice": "Allows users to shift their staked tokens from one side of the market to  the other at the next price."
      },
      "stakeFromUser(address,uint256)": {
        "notice": "A user with synthetic tokens stakes by calling stake on the token contract which calls this function. We need to first update the state of the LongShort contract for this market before staking to correctly calculate user rewards."
      },
      "stakerTokenShiftIndex_to_accumulativeFloatIssuanceSnapshotIndex_mapping(uint256)": {
        "notice": "Used to link a token shift to a staker state"
      },
      "stakerTokenShiftIndex_to_longShortMarketPriceSnapshotIndex_mapping(uint256)": {
        "notice": "Used to fetch the price from LongShort at that point in time"
      },
      "withdraw(address,uint256)": {
        "notice": "Withdraw function. Allows users to unstake."
      },
      "withdrawAll(address)": {
        "notice": "Allows users to withdraw their entire stake for a token."
      }
    },
    "version": 1
  }
}