{
  "contractName": "StakerInternalStateSetters",
  "abi": [
    {
      "anonymous": false,
      "inputs": [
        {
          "indexed": false,
          "internalType": "uint32",
          "name": "marketIndex",
          "type": "uint32"
        },
        {
          "indexed": false,
          "internalType": "uint256",
          "name": "accumulativeFloatIssuanceSnapshotIndex",
          "type": "uint256"
        },
        {
          "indexed": false,
          "internalType": "uint256",
          "name": "accumulativeLong",
          "type": "uint256"
        },
        {
          "indexed": false,
          "internalType": "uint256",
          "name": "accumulativeShort",
          "type": "uint256"
        }
      ],
      "name": "AccumulativeIssuancePerStakedSynthSnapshotCreated",
      "type": "event"
    },
    {
      "anonymous": false,
      "inputs": [
        {
          "indexed": false,
          "internalType": "uint32",
          "name": "marketIndex",
          "type": "uint32"
        },
        {
          "indexed": false,
          "internalType": "int256",
          "name": "balanceIncentiveEquilibriumOffset",
          "type": "int256"
        }
      ],
      "name": "BalanceIncentiveEquilibriumOffsetUpdated",
      "type": "event"
    },
    {
      "anonymous": false,
      "inputs": [
        {
          "indexed": false,
          "internalType": "uint32",
          "name": "marketIndex",
          "type": "uint32"
        },
        {
          "indexed": false,
          "internalType": "uint256",
          "name": "balanceIncentiveExponent",
          "type": "uint256"
        }
      ],
      "name": "BalanceIncentiveExponentUpdated",
      "type": "event"
    },
    {
      "anonymous": false,
      "inputs": [
        {
          "indexed": false,
          "internalType": "address",
          "name": "newAdmin",
          "type": "address"
        }
      ],
      "name": "ChangeAdmin",
      "type": "event"
    },
    {
      "anonymous": false,
      "inputs": [
        {
          "indexed": false,
          "internalType": "address",
          "name": "user",
          "type": "address"
        },
        {
          "indexed": false,
          "internalType": "uint32",
          "name": "marketIndex",
          "type": "uint32"
        },
        {
          "indexed": false,
          "internalType": "uint256",
          "name": "amountFloatMinted",
          "type": "uint256"
        }
      ],
      "name": "FloatMinted",
      "type": "event"
    },
    {
      "anonymous": false,
      "inputs": [
        {
          "indexed": false,
          "internalType": "uint256",
          "name": "floatPercentage",
          "type": "uint256"
        }
      ],
      "name": "FloatPercentageUpdated",
      "type": "event"
    },
    {
      "anonymous": false,
      "inputs": [
        {
          "indexed": false,
          "internalType": "uint32",
          "name": "marketIndex",
          "type": "uint32"
        },
        {
          "indexed": false,
          "internalType": "uint256",
          "name": "exitFee_e18",
          "type": "uint256"
        },
        {
          "indexed": false,
          "internalType": "uint256",
          "name": "period",
          "type": "uint256"
        },
        {
          "indexed": false,
          "internalType": "uint256",
          "name": "multiplier",
          "type": "uint256"
        },
        {
          "indexed": false,
          "internalType": "uint256",
          "name": "balanceIncentiveExponent",
          "type": "uint256"
        },
        {
          "indexed": false,
          "internalType": "int256",
          "name": "balanceIncentiveEquilibriumOffset",
          "type": "int256"
        }
      ],
      "name": "MarketAddedToStaker",
      "type": "event"
    },
    {
      "anonymous": false,
      "inputs": [
        {
          "indexed": false,
          "internalType": "uint32",
          "name": "marketIndex",
          "type": "uint32"
        },
        {
          "indexed": false,
          "internalType": "uint256",
          "name": "period",
          "type": "uint256"
        },
        {
          "indexed": false,
          "internalType": "uint256",
          "name": "multiplier",
          "type": "uint256"
        }
      ],
      "name": "MarketLaunchIncentiveParametersChanges",
      "type": "event"
    },
    {
      "anonymous": false,
      "inputs": [
        {
          "indexed": false,
          "internalType": "address",
          "name": "user",
          "type": "address"
        },
        {
          "indexed": false,
          "internalType": "address",
          "name": "token",
          "type": "address"
        },
        {
          "indexed": false,
          "internalType": "uint256",
          "name": "amount",
          "type": "uint256"
        },
        {
          "indexed": false,
          "internalType": "uint256",
          "name": "lastMintIndex",
          "type": "uint256"
        }
      ],
      "name": "StakeAdded",
      "type": "event"
    },
    {
      "anonymous": false,
      "inputs": [
        {
          "indexed": false,
          "internalType": "uint32",
          "name": "marketIndex",
          "type": "uint32"
        },
        {
          "indexed": false,
          "internalType": "uint256",
          "name": "stakeWithdralFee",
          "type": "uint256"
        }
      ],
      "name": "StakeWithdrawalFeeUpdated",
      "type": "event"
    },
    {
      "anonymous": false,
      "inputs": [
        {
          "indexed": false,
          "internalType": "address",
          "name": "user",
          "type": "address"
        },
        {
          "indexed": false,
          "internalType": "address",
          "name": "token",
          "type": "address"
        },
        {
          "indexed": false,
          "internalType": "uint256",
          "name": "amount",
          "type": "uint256"
        }
      ],
      "name": "StakeWithdrawn",
      "type": "event"
    },
    {
      "anonymous": false,
      "inputs": [
        {
          "indexed": false,
          "internalType": "address",
          "name": "admin",
          "type": "address"
        },
        {
          "indexed": false,
          "internalType": "address",
          "name": "floatTreasury",
          "type": "address"
        },
        {
          "indexed": false,
          "internalType": "address",
          "name": "floatCapital",
          "type": "address"
        },
        {
          "indexed": false,
          "internalType": "address",
          "name": "floatToken",
          "type": "address"
        },
        {
          "indexed": false,
          "internalType": "uint256",
          "name": "floatPercentage",
          "type": "uint256"
        }
      ],
      "name": "StakerV1",
      "type": "event"
    },
    {
      "anonymous": false,
      "inputs": [],
      "name": "SyntheticTokensShifted",
      "type": "event"
    },
    {
      "inputs": [],
      "name": "FLOAT_ISSUANCE_FIXED_DECIMAL",
      "outputs": [
        {
          "internalType": "uint256",
          "name": "",
          "type": "uint256"
        }
      ],
      "stateMutability": "view",
      "type": "function"
    },
    {
      "inputs": [
        {
          "internalType": "uint32",
          "name": "",
          "type": "uint32"
        },
        {
          "internalType": "uint256",
          "name": "",
          "type": "uint256"
        }
      ],
      "name": "accumulativeFloatPerSyntheticTokenSnapshots",
      "outputs": [
        {
          "internalType": "uint256",
          "name": "timestamp",
          "type": "uint256"
        },
        {
          "internalType": "uint256",
          "name": "accumulativeFloatPerSyntheticToken_long",
          "type": "uint256"
        },
        {
          "internalType": "uint256",
          "name": "accumulativeFloatPerSyntheticToken_short",
          "type": "uint256"
        }
      ],
      "stateMutability": "view",
      "type": "function"
    },
    {
      "inputs": [
        {
          "internalType": "uint32",
          "name": "marketIndex",
          "type": "uint32"
        },
        {
          "internalType": "address",
          "name": "longToken",
          "type": "address"
        },
        {
          "internalType": "address",
          "name": "shortToken",
          "type": "address"
        },
        {
          "internalType": "uint256",
          "name": "kInitialMultiplier",
          "type": "uint256"
        },
        {
          "internalType": "uint256",
          "name": "kPeriod",
          "type": "uint256"
        },
        {
          "internalType": "uint256",
          "name": "unstakeFee_e18",
          "type": "uint256"
        },
        {
          "internalType": "uint256",
          "name": "_balanceIncentiveCurve_exponent",
          "type": "uint256"
        },
        {
          "internalType": "int256",
          "name": "_balanceIncentiveCurve_equilibriumOffset",
          "type": "int256"
        }
      ],
      "name": "addNewStakingFund",
      "outputs": [],
      "stateMutability": "nonpayable",
      "type": "function"
    },
    {
      "inputs": [],
      "name": "admin",
      "outputs": [
        {
          "internalType": "address",
          "name": "",
          "type": "address"
        }
      ],
      "stateMutability": "view",
      "type": "function"
    },
    {
      "inputs": [
        {
          "internalType": "uint32",
          "name": "",
          "type": "uint32"
        }
      ],
      "name": "balanceIncentiveCurve_equilibriumOffset",
      "outputs": [
        {
          "internalType": "int256",
          "name": "",
          "type": "int256"
        }
      ],
      "stateMutability": "view",
      "type": "function"
    },
    {
      "inputs": [
        {
          "internalType": "uint32",
          "name": "",
          "type": "uint32"
        }
      ],
      "name": "balanceIncentiveCurve_exponent",
      "outputs": [
        {
          "internalType": "uint256",
          "name": "",
          "type": "uint256"
        }
      ],
      "stateMutability": "view",
      "type": "function"
    },
    {
      "inputs": [
        {
          "internalType": "uint32",
          "name": "",
          "type": "uint32"
        }
      ],
      "name": "batched_stakerNextTokenShiftIndex",
      "outputs": [
        {
          "internalType": "uint256",
          "name": "",
          "type": "uint256"
        }
      ],
      "stateMutability": "view",
      "type": "function"
    },
    {
      "inputs": [
        {
          "internalType": "address",
          "name": "_admin",
          "type": "address"
        }
      ],
      "name": "changeAdmin",
      "outputs": [],
      "stateMutability": "nonpayable",
      "type": "function"
    },
    {
      "inputs": [
        {
          "internalType": "uint32",
          "name": "marketIndex",
          "type": "uint32"
        },
        {
          "internalType": "int256",
          "name": "_balanceIncentiveCurve_equilibriumOffset",
          "type": "int256"
        }
      ],
      "name": "changeBalanceIncentiveEquilibriumOffset",
      "outputs": [],
      "stateMutability": "nonpayable",
      "type": "function"
    },
    {
      "inputs": [
        {
          "internalType": "uint32",
          "name": "marketIndex",
          "type": "uint32"
        },
        {
          "internalType": "uint256",
          "name": "_balanceIncentiveCurve_exponent",
          "type": "uint256"
        }
      ],
      "name": "changeBalanceIncentiveExponent",
      "outputs": [],
      "stateMutability": "nonpayable",
      "type": "function"
    },
    {
      "inputs": [
        {
          "internalType": "uint256",
          "name": "newFloatPercentage",
          "type": "uint256"
        }
      ],
      "name": "changeFloatPercentage",
      "outputs": [],
      "stateMutability": "nonpayable",
      "type": "function"
    },
    {
      "inputs": [
        {
          "internalType": "uint32",
          "name": "marketIndex",
          "type": "uint32"
        },
        {
          "internalType": "uint256",
          "name": "period",
          "type": "uint256"
        },
        {
          "internalType": "uint256",
          "name": "initialMultiplier",
          "type": "uint256"
        }
      ],
      "name": "changeMarketLaunchIncentiveParameters",
      "outputs": [],
      "stateMutability": "nonpayable",
      "type": "function"
    },
    {
      "inputs": [
        {
          "internalType": "uint32",
          "name": "marketIndex",
          "type": "uint32"
        },
        {
          "internalType": "uint256",
          "name": "newMarketUnstakeFee_e18",
          "type": "uint256"
        }
      ],
      "name": "changeUnstakeFee",
      "outputs": [],
      "stateMutability": "nonpayable",
      "type": "function"
    },
    {
      "inputs": [
        {
          "internalType": "uint32[]",
          "name": "marketIndexes",
          "type": "uint32[]"
        }
      ],
      "name": "claimFloatCustom",
      "outputs": [],
      "stateMutability": "nonpayable",
      "type": "function"
    },
    {
      "inputs": [
        {
          "internalType": "uint32[]",
          "name": "marketIndexes",
          "type": "uint32[]"
        },
        {
          "internalType": "address",
          "name": "user",
          "type": "address"
        }
      ],
      "name": "claimFloatCustomFor",
      "outputs": [],
      "stateMutability": "nonpayable",
      "type": "function"
    },
    {
      "inputs": [],
      "name": "floatCapital",
      "outputs": [
        {
          "internalType": "address",
          "name": "",
          "type": "address"
        }
      ],
      "stateMutability": "view",
      "type": "function"
    },
    {
      "inputs": [],
      "name": "floatPercentage",
      "outputs": [
        {
          "internalType": "uint256",
          "name": "",
          "type": "uint256"
        }
      ],
      "stateMutability": "view",
      "type": "function"
    },
    {
      "inputs": [],
      "name": "floatToken",
      "outputs": [
        {
          "internalType": "address",
          "name": "",
          "type": "address"
        }
      ],
      "stateMutability": "view",
      "type": "function"
    },
    {
      "inputs": [],
      "name": "floatTreasury",
      "outputs": [
        {
          "internalType": "address",
          "name": "",
          "type": "address"
        }
      ],
      "stateMutability": "view",
      "type": "function"
    },
    {
      "inputs": [
        {
          "internalType": "address",
          "name": "_admin",
          "type": "address"
        },
        {
          "internalType": "address",
          "name": "_longShort",
          "type": "address"
        },
        {
          "internalType": "address",
          "name": "_floatToken",
          "type": "address"
        },
        {
          "internalType": "address",
          "name": "_floatTreasury",
          "type": "address"
        },
        {
          "internalType": "address",
          "name": "_floatCapital",
          "type": "address"
        },
        {
          "internalType": "uint256",
          "name": "_floatPercentage",
          "type": "uint256"
        }
      ],
      "name": "initialize",
      "outputs": [],
      "stateMutability": "nonpayable",
      "type": "function"
    },
    {
      "inputs": [
        {
          "internalType": "uint32",
          "name": "",
          "type": "uint32"
        }
      ],
      "name": "latestRewardIndex",
      "outputs": [
        {
          "internalType": "uint256",
          "name": "",
          "type": "uint256"
        }
      ],
      "stateMutability": "view",
      "type": "function"
    },
    {
      "inputs": [],
      "name": "longShort",
      "outputs": [
        {
          "internalType": "address",
          "name": "",
          "type": "address"
        }
      ],
      "stateMutability": "view",
      "type": "function"
    },
    {
      "inputs": [
        {
          "internalType": "address",
          "name": "",
          "type": "address"
        }
      ],
      "name": "marketIndexOfToken",
      "outputs": [
        {
          "internalType": "uint32",
          "name": "",
          "type": "uint32"
        }
      ],
      "stateMutability": "view",
      "type": "function"
    },
    {
      "inputs": [
        {
          "internalType": "uint32",
          "name": "",
          "type": "uint32"
        }
      ],
      "name": "marketLaunchIncentive_multipliers",
      "outputs": [
        {
          "internalType": "uint256",
          "name": "",
          "type": "uint256"
        }
      ],
      "stateMutability": "view",
      "type": "function"
    },
    {
      "inputs": [
        {
          "internalType": "uint32",
          "name": "",
          "type": "uint32"
        }
      ],
      "name": "marketLaunchIncentive_period",
      "outputs": [
        {
          "internalType": "uint256",
          "name": "",
          "type": "uint256"
        }
      ],
      "stateMutability": "view",
      "type": "function"
    },
    {
      "inputs": [
        {
          "internalType": "uint32",
          "name": "",
          "type": "uint32"
        }
      ],
      "name": "marketUnstakeFee_e18",
      "outputs": [
        {
          "internalType": "uint256",
          "name": "",
          "type": "uint256"
        }
      ],
      "stateMutability": "view",
      "type": "function"
    },
    {
      "inputs": [
        {
          "internalType": "uint32",
          "name": "marketIndex",
          "type": "uint32"
        },
        {
          "internalType": "uint256",
          "name": "longPrice",
          "type": "uint256"
        },
        {
          "internalType": "uint256",
          "name": "shortPrice",
          "type": "uint256"
        },
        {
          "internalType": "uint256",
          "name": "longValue",
          "type": "uint256"
        },
        {
          "internalType": "uint256",
          "name": "shortValue",
          "type": "uint256"
        },
        {
          "internalType": "uint256",
          "name": "stakerTokenShiftIndex_to_longShortMarketPriceSnapshotIndex_mappingIfShiftExecuted",
          "type": "uint256"
        }
      ],
      "name": "pushUpdatedMarketPricesToUpdateFloatIssuanceCalculations",
      "outputs": [],
      "stateMutability": "nonpayable",
      "type": "function"
    },
    {
      "inputs": [],
      "name": "safeExponentBitShifting",
      "outputs": [
        {
          "internalType": "uint256",
          "name": "",
          "type": "uint256"
        }
      ],
      "stateMutability": "view",
      "type": "function"
    },
    {
      "inputs": [
        {
          "internalType": "uint256",
          "name": "amountSyntheticTokensToShift",
          "type": "uint256"
        },
        {
          "internalType": "uint32",
          "name": "marketIndex",
          "type": "uint32"
        },
        {
          "internalType": "bool",
          "name": "isShiftFromLong",
          "type": "bool"
        }
      ],
      "name": "shiftTokens",
      "outputs": [],
      "stateMutability": "nonpayable",
      "type": "function"
    },
    {
      "inputs": [
        {
          "internalType": "address",
          "name": "from",
          "type": "address"
        },
        {
          "internalType": "uint256",
          "name": "amount",
          "type": "uint256"
        }
      ],
      "name": "stakeFromUser",
      "outputs": [],
      "stateMutability": "nonpayable",
      "type": "function"
    },
    {
      "inputs": [
        {
          "internalType": "uint256",
          "name": "",
          "type": "uint256"
        }
      ],
      "name": "stakerTokenShiftIndex_to_accumulativeFloatIssuanceSnapshotIndex_mapping",
      "outputs": [
        {
          "internalType": "uint256",
          "name": "",
          "type": "uint256"
        }
      ],
      "stateMutability": "view",
      "type": "function"
    },
    {
      "inputs": [
        {
          "internalType": "uint256",
          "name": "",
          "type": "uint256"
        }
      ],
      "name": "stakerTokenShiftIndex_to_longShortMarketPriceSnapshotIndex_mapping",
      "outputs": [
        {
          "internalType": "uint256",
          "name": "",
          "type": "uint256"
        }
      ],
      "stateMutability": "view",
      "type": "function"
    },
    {
      "inputs": [
        {
          "internalType": "uint32",
          "name": "",
          "type": "uint32"
        },
        {
          "internalType": "bool",
          "name": "",
          "type": "bool"
        }
      ],
      "name": "syntheticTokens",
      "outputs": [
        {
          "internalType": "address",
          "name": "",
          "type": "address"
        }
      ],
      "stateMutability": "view",
      "type": "function"
    },
    {
      "inputs": [
        {
          "internalType": "address",
          "name": "",
          "type": "address"
        },
        {
          "internalType": "address",
          "name": "",
          "type": "address"
        }
      ],
      "name": "userAmountStaked",
      "outputs": [
        {
          "internalType": "uint256",
          "name": "",
          "type": "uint256"
        }
      ],
      "stateMutability": "view",
      "type": "function"
    },
    {
      "inputs": [
        {
          "internalType": "uint32",
          "name": "",
          "type": "uint32"
        },
        {
          "internalType": "address",
          "name": "",
          "type": "address"
        }
      ],
      "name": "userIndexOfLastClaimedReward",
      "outputs": [
        {
          "internalType": "uint256",
          "name": "",
          "type": "uint256"
        }
      ],
      "stateMutability": "view",
      "type": "function"
    },
    {
      "inputs": [
        {
          "internalType": "uint32",
          "name": "",
          "type": "uint32"
        },
        {
          "internalType": "address",
          "name": "",
          "type": "address"
        }
      ],
      "name": "userNextPrice_amountStakedSyntheticToken_toShiftAwayFrom_long",
      "outputs": [
        {
          "internalType": "uint256",
          "name": "",
          "type": "uint256"
        }
      ],
      "stateMutability": "view",
      "type": "function"
    },
    {
      "inputs": [
        {
          "internalType": "uint32",
          "name": "",
          "type": "uint32"
        },
        {
          "internalType": "address",
          "name": "",
          "type": "address"
        }
      ],
      "name": "userNextPrice_amountStakedSyntheticToken_toShiftAwayFrom_short",
      "outputs": [
        {
          "internalType": "uint256",
          "name": "",
          "type": "uint256"
        }
      ],
      "stateMutability": "view",
      "type": "function"
    },
    {
      "inputs": [
        {
          "internalType": "uint32",
          "name": "",
          "type": "uint32"
        },
        {
          "internalType": "address",
          "name": "",
          "type": "address"
        }
      ],
      "name": "userNextPrice_stakedSyntheticTokenShiftIndex",
      "outputs": [
        {
          "internalType": "uint256",
          "name": "",
          "type": "uint256"
        }
      ],
      "stateMutability": "view",
      "type": "function"
    },
    {
      "inputs": [
        {
          "internalType": "address",
          "name": "token",
          "type": "address"
        },
        {
          "internalType": "uint256",
          "name": "amount",
          "type": "uint256"
        }
      ],
      "name": "withdraw",
      "outputs": [],
      "stateMutability": "nonpayable",
      "type": "function"
    },
    {
      "inputs": [
        {
          "internalType": "address",
          "name": "token",
          "type": "address"
        }
      ],
      "name": "withdrawAll",
      "outputs": [],
      "stateMutability": "nonpayable",
      "type": "function"
    },
    {
      "inputs": [
        {
          "internalType": "uint32",
          "name": "marketIndex",
          "type": "uint32"
        },
        {
          "internalType": "address",
          "name": "longToken",
          "type": "address"
        },
        {
          "internalType": "address",
          "name": "shortToken",
          "type": "address"
        },
        {
          "internalType": "uint256",
          "name": "newLatestRewardIndex",
          "type": "uint256"
        },
        {
          "internalType": "address",
          "name": "user",
          "type": "address"
        },
        {
          "internalType": "uint256",
          "name": "usersLatestClaimedReward",
          "type": "uint256"
        },
        {
          "internalType": "uint256",
          "name": "accumulativeFloatPerTokenLatestLong",
          "type": "uint256"
        },
        {
          "internalType": "uint256",
          "name": "accumulativeFloatPerTokenLatestShort",
          "type": "uint256"
        },
        {
          "internalType": "uint256",
          "name": "accumulativeFloatPerTokenUserLong",
          "type": "uint256"
        },
        {
          "internalType": "uint256",
          "name": "accumulativeFloatPerTokenUserShort",
          "type": "uint256"
        },
        {
          "internalType": "uint256",
          "name": "newUserAmountStakedLong",
          "type": "uint256"
        },
        {
          "internalType": "uint256",
          "name": "newUserAmountStakedShort",
          "type": "uint256"
        }
      ],
      "name": "setFloatRewardCalcParams",
      "outputs": [],
      "stateMutability": "nonpayable",
      "type": "function"
    },
    {
      "inputs": [
        {
          "internalType": "uint32",
          "name": "marketIndex",
          "type": "uint32"
        },
        {
          "internalType": "uint256",
          "name": "rewardIndexTo",
          "type": "uint256"
        },
        {
          "internalType": "uint256",
          "name": "rewardIndexFrom",
          "type": "uint256"
        },
        {
          "internalType": "uint256",
          "name": "syntheticRewardToLongToken",
          "type": "uint256"
        },
        {
          "internalType": "uint256",
          "name": "syntheticRewardFromLongToken",
          "type": "uint256"
        },
        {
          "internalType": "uint256",
          "name": "syntheticRewardToShortToken",
          "type": "uint256"
        },
        {
          "internalType": "uint256",
          "name": "syntheticRewardFromShortToken",
          "type": "uint256"
        }
      ],
      "name": "setCalculateAccumulatedFloatInRangeGlobals",
      "outputs": [],
      "stateMutability": "nonpayable",
      "type": "function"
    },
    {
      "inputs": [
        {
          "internalType": "uint32",
          "name": "marketIndex",
          "type": "uint32"
        },
        {
          "internalType": "address",
          "name": "user",
          "type": "address"
        },
        {
          "internalType": "uint256",
          "name": "shiftAmountLong",
          "type": "uint256"
        },
        {
          "internalType": "uint256",
          "name": "shiftAmountShort",
          "type": "uint256"
        },
        {
          "internalType": "uint256",
          "name": "_userNextPrice_stakedSyntheticTokenShiftIndex",
          "type": "uint256"
        },
        {
          "internalType": "uint256",
          "name": "_batched_stakerNextTokenShiftIndex",
          "type": "uint256"
        },
        {
          "internalType": "uint256",
          "name": "_takerTokenShiftIndex_to_longShortMarketPriceSnapshotIndex_mapping",
          "type": "uint256"
        },
        {
          "internalType": "uint256",
          "name": "_stakerTokenShiftIndex_to_accumulativeFloatIssuanceSnapshotIndex_mapping",
          "type": "uint256"
        }
      ],
      "name": "setShiftParams",
      "outputs": [],
      "stateMutability": "nonpayable",
      "type": "function"
    },
    {
      "inputs": [
        {
          "internalType": "uint32",
          "name": "marketIndex",
          "type": "uint32"
        },
        {
          "internalType": "bool",
          "name": "isShiftFromLong",
          "type": "bool"
        },
        {
          "internalType": "address",
          "name": "user",
          "type": "address"
        },
        {
          "internalType": "uint256",
          "name": "amountSyntheticTokensToShift",
          "type": "uint256"
        },
        {
          "internalType": "uint256",
          "name": "_userAmountStaked",
          "type": "uint256"
        },
        {
          "internalType": "uint256",
          "name": "_userNextPrice_stakedSyntheticTokenShiftIndex",
          "type": "uint256"
        },
        {
          "internalType": "uint256",
          "name": "_batched_stakerNextTokenShiftIndex",
          "type": "uint256"
        },
        {
          "internalType": "address",
          "name": "syntheticToken",
          "type": "address"
        }
      ],
      "name": "setShiftTokensParams",
      "outputs": [],
      "stateMutability": "nonpayable",
      "type": "function"
    },
    {
      "inputs": [
        {
          "internalType": "address",
          "name": "_longShort",
          "type": "address"
        }
      ],
      "name": "setLongShort",
      "outputs": [],
      "stateMutability": "nonpayable",
      "type": "function"
    },
    {
      "inputs": [
        {
          "internalType": "uint32",
          "name": "marketIndex",
          "type": "uint32"
        },
        {
          "internalType": "address",
          "name": "longToken",
          "type": "address"
        },
        {
          "internalType": "address",
          "name": "shortToken",
          "type": "address"
        },
        {
          "internalType": "address",
          "name": "mockAddress",
          "type": "address"
        },
        {
          "internalType": "address",
          "name": "longShortAddress",
          "type": "address"
        }
      ],
      "name": "setAddNewStakingFundParams",
      "outputs": [],
      "stateMutability": "nonpayable",
      "type": "function"
    },
    {
      "inputs": [
        {
          "internalType": "uint32",
          "name": "marketIndex",
          "type": "uint32"
        },
        {
          "internalType": "uint256",
          "name": "_batched_stakerNextTokenShiftIndex",
          "type": "uint256"
        },
        {
          "internalType": "uint256",
          "name": "_latestRewardIndex",
          "type": "uint256"
        }
      ],
      "name": "setAddNewStateForFloatRewardsGlobals",
      "outputs": [],
      "stateMutability": "nonpayable",
      "type": "function"
    },
    {
      "inputs": [
        {
          "internalType": "uint32",
          "name": "marketIndex",
          "type": "uint32"
        },
        {
          "internalType": "uint256",
          "name": "period",
          "type": "uint256"
        },
        {
          "internalType": "uint256",
          "name": "multiplier",
          "type": "uint256"
        }
      ],
      "name": "setGetMarketLaunchIncentiveParametersParams",
      "outputs": [],
      "stateMutability": "nonpayable",
      "type": "function"
    },
    {
      "inputs": [
        {
          "internalType": "uint32",
          "name": "marketIndex",
          "type": "uint32"
        },
        {
          "internalType": "uint256",
          "name": "timestamp",
          "type": "uint256"
        }
      ],
      "name": "setGetKValueParams",
      "outputs": [],
      "stateMutability": "nonpayable",
      "type": "function"
    },
    {
      "inputs": [
        {
          "internalType": "address",
          "name": "longshort",
          "type": "address"
        },
        {
          "internalType": "address",
          "name": "token",
          "type": "address"
        },
        {
          "internalType": "uint32",
          "name": "marketIndexForToken",
          "type": "uint32"
        }
      ],
      "name": "setStakeFromUserParams",
      "outputs": [],
      "stateMutability": "nonpayable",
      "type": "function"
    },
    {
      "inputs": [
        {
          "internalType": "uint32",
          "name": "marketIndex",
          "type": "uint32"
        },
        {
          "internalType": "uint256",
          "name": "latestRewardIndexForMarket",
          "type": "uint256"
        },
        {
          "internalType": "uint256",
          "name": "timestamp",
          "type": "uint256"
        }
      ],
      "name": "setCalculateTimeDeltaParams",
      "outputs": [],
      "stateMutability": "nonpayable",
      "type": "function"
    },
    {
      "inputs": [
        {
          "internalType": "uint32",
          "name": "marketIndex",
          "type": "uint32"
        },
        {
          "internalType": "uint256",
          "name": "latestRewardIndexForMarket",
          "type": "uint256"
        },
        {
          "internalType": "uint256",
          "name": "accumFloatLong",
          "type": "uint256"
        },
        {
          "internalType": "uint256",
          "name": "accumFloatShort",
          "type": "uint256"
        }
      ],
      "name": "setCalculateNewCumulativeRateParams",
      "outputs": [],
      "stateMutability": "nonpayable",
      "type": "function"
    },
    {
      "inputs": [
        {
          "internalType": "uint32",
          "name": "marketIndex",
          "type": "uint32"
        },
        {
          "internalType": "uint256",
          "name": "latestRewardIndexForMarket",
          "type": "uint256"
        }
      ],
      "name": "setSetRewardObjectsParams",
      "outputs": [],
      "stateMutability": "nonpayable",
      "type": "function"
    },
    {
      "inputs": [
        {
          "internalType": "address",
          "name": "_longShort",
          "type": "address"
        },
        {
          "internalType": "address",
          "name": "token",
          "type": "address"
        },
        {
          "internalType": "uint32",
          "name": "tokenMarketIndex",
          "type": "uint32"
        }
      ],
      "name": "set_updateStateParams",
      "outputs": [],
      "stateMutability": "nonpayable",
      "type": "function"
    },
    {
      "inputs": [
        {
          "internalType": "address",
          "name": "_floatToken",
          "type": "address"
        },
        {
          "internalType": "uint16",
          "name": "_floatPercentage",
          "type": "uint16"
        }
      ],
      "name": "set_mintFloatParams",
      "outputs": [],
      "stateMutability": "nonpayable",
      "type": "function"
    },
    {
      "inputs": [
        {
          "internalType": "uint32",
          "name": "marketIndex",
          "type": "uint32"
        },
        {
          "internalType": "uint256",
          "name": "latestRewardIndexForMarket",
          "type": "uint256"
        }
      ],
      "name": "setMintAccumulatedFloatAndClaimFloatParams",
      "outputs": [],
      "stateMutability": "nonpayable",
      "type": "function"
    },
    {
      "inputs": [
        {
          "internalType": "address",
          "name": "user",
          "type": "address"
        },
        {
          "internalType": "uint32",
          "name": "marketIndex",
          "type": "uint32"
        },
        {
          "internalType": "uint256",
          "name": "_latestRewardIndex",
          "type": "uint256"
        },
        {
          "internalType": "address",
          "name": "token",
          "type": "address"
        },
        {
          "internalType": "uint256",
          "name": "_userAmountStaked",
          "type": "uint256"
        },
        {
          "internalType": "uint256",
          "name": "userLastRewardIndex",
          "type": "uint256"
        }
      ],
      "name": "set_stakeParams",
      "outputs": [],
      "stateMutability": "nonpayable",
      "type": "function"
    },
    {
      "inputs": [
        {
          "internalType": "uint32",
          "name": "marketIndex",
          "type": "uint32"
        },
        {
          "internalType": "address",
          "name": "syntheticToken",
          "type": "address"
        },
        {
          "internalType": "address",
          "name": "user",
          "type": "address"
        },
        {
          "internalType": "uint256",
          "name": "amountStaked",
          "type": "uint256"
        },
        {
          "internalType": "uint256",
          "name": "fees",
          "type": "uint256"
        }
      ],
      "name": "set_withdrawGlobals",
      "outputs": [],
      "stateMutability": "nonpayable",
      "type": "function"
    },
    {
      "inputs": [
        {
          "internalType": "uint32",
          "name": "marketIndex",
          "type": "uint32"
        },
        {
          "internalType": "address",
          "name": "_longShort",
          "type": "address"
        },
        {
          "internalType": "address",
          "name": "token",
          "type": "address"
        }
      ],
      "name": "setWithdrawGlobals",
      "outputs": [],
      "stateMutability": "nonpayable",
      "type": "function"
    },
    {
      "inputs": [
        {
          "internalType": "uint32",
          "name": "marketIndex",
          "type": "uint32"
        },
        {
          "internalType": "address",
          "name": "_longShort",
          "type": "address"
        },
        {
          "internalType": "address",
          "name": "user",
          "type": "address"
        },
        {
          "internalType": "uint256",
          "name": "amountStaked",
          "type": "uint256"
        },
        {
          "internalType": "address",
          "name": "token",
          "type": "address"
        }
      ],
      "name": "setWithdrawAllGlobals",
      "outputs": [],
      "stateMutability": "nonpayable",
      "type": "function"
    },
    {
      "inputs": [
        {
          "internalType": "uint256",
          "name": "number",
          "type": "uint256"
        },
        {
          "internalType": "uint256",
          "name": "exponent",
          "type": "uint256"
        }
      ],
      "name": "getRequiredAmountOfBitShiftForSafeExponentiationPerfect",
      "outputs": [
        {
          "internalType": "uint256",
          "name": "amountOfBitShiftRequired",
          "type": "uint256"
        }
      ],
      "stateMutability": "pure",
      "type": "function"
    }
  ],
  "bytecode": "0x608060405234801561001057600080fd5b50613d23806100206000396000f3fe608060405234801561001057600080fd5b50600436106103af5760003560e01c8063b054c4a1116101f4578063e39ac0441161011a578063f2c0e6b7116100ad578063f9fe734e1161007c578063f9fe734e14610fd3578063fa09e63014610ff3578063fbd95c7214611006578063fdd3c2fd14611055576103af565b8063f2c0e6b714610f8c578063f344acc914610f94578063f3fef3a314610fa7578063f851a44014610fba576103af565b8063eb61f134116100e9578063eb61f13414610c75578063edb010d714610f29578063ef9c305214610f3c578063ef9ded8e14610f5c576103af565b8063e39ac04414610c1c578063e68f3dbe14610c3c578063ea2eb29b14610c4f578063eae5a8d914610c62576103af565b8063c17f8ce911610192578063d84593e511610161578063d84593e514610b94578063d89a1a6914610ba7578063dc86fe5014610bfc578063dc9a845e146105e8576103af565b8063c17f8ce914610aaa578063cdeb4d9214610ad5578063d31a1e4114610718578063d42c593214610b62576103af565b8063b80dd329116101ce578063b80dd32914610a5e578063ba89f7b814610a71578063bda69fd814610a84578063c16199e314610a97576103af565b8063b054c4a1146109dc578063b0956b5f14610a10578063b6fc482814610a23576103af565b80636a5304df116102d95780638f283970116102775780639eb70168116102465780639eb70168146108ac578063a0b645da1461092d578063a29431eb14610940578063a9290696146109a9576103af565b80638f283970146107af57806395b6ef0c146107c25780639e59fd0f146107d55780639e75ef57146107e8576103af565b8063752fe334116102b3578063752fe334146106a5578063757d2f31146107185780637c937cf21461076b57806386cbde1f14610796576103af565b80636a5304df1461063a5780636b7bf5241461065a578063738f4b8e14610692576103af565b80632994987211610351578063559dd7e211610320578063559dd7e2146105b45780635892457d146105df5780635a4a2951146105e85780635ac76ce11461060f576103af565b806329949872146104ca578063320d621d146104f55780633ebff44f146105085780634105a5321461055d576103af565b806313e8868a1161038d57806313e8868a1461042f57806315f2081d1461044f5780631fff5f551461048a57806327c79533146104aa576103af565b80630a41100b146103b45780630bccc585146103e75780630ca5a0521461041c575b600080fd5b6103d46103c236600461344c565b60126020526000908152604090205481565b6040519081526020015b60405180910390f35b61041a6103f5366004613889565b63ffffffff909216600090815260066020908152604080832093909355600790522055565b005b61041a61042a36600461386e565b611080565b6103d461043d3660046134dc565b60086020526000908152604090205481565b61047561045d3660046131e3565b600c6020526000908152604090205463ffffffff1681565b60405163ffffffff90911681526020016103de565b6103d461049836600461344c565b60136020526000908152604090205481565b6103d46104b83660046134dc565b60116020526000908152604090205481565b6004546104dd906001600160a01b031681565b6040516001600160a01b0390911681526020016103de565b61041a61050336600461386e565b6110d6565b61054261051636600461386e565b600e60209081526000928352604080842090915290825290208054600182015460029092015490919083565b604080519384526020840192909252908201526060016103de565b61041a61056b366004613511565b6001600160a01b039081166000908152600c60205260409020805463ffffffff191663ffffffff9490941693909317909255600480546001600160a01b03191691909216179055565b6103d46105c23660046134f6565b601560209081526000928352604080842090915290825290205481565b6103d460035481565b61041a6105f636600461386e565b63ffffffff9091166000908152600d6020526040902055565b6103d461061d3660046134f6565b600f60209081526000928352604080842090915290825290205481565b6103d46106483660046134dc565b60066020526000908152604090205481565b61041a6106683660046132e4565b600580546001600160a01b0319166001600160a01b03939093169290921790915561ffff16600355565b61041a6106a03660046133a7565b611124565b61041a6106b33660046135ae565b6001600160a01b039081166000908152600c60209081526040808320805463ffffffff191663ffffffff9990991698909817909755600480546001600160a01b0319169684169690961790955560108552858120939091168152919092529190912055565b61041a6107263660046132a2565b600480546001600160a01b0319166001600160a01b0394851617905591166000908152600c60205260409020805463ffffffff191663ffffffff909216919091179055565b6103d46107793660046134f6565b601660209081526000928352604080842090915290825290205481565b6103d4710b7abc627050305adf14a3d9e4000000000081565b61041a6107bd3660046131e3565b611196565b61041a6107d0366004613236565b6111fd565b61041a6107e336600461344c565b611387565b61041a6107f636600461354a565b600480546001600160a01b03199081166001600160a01b03938416179091559381166000908152600c60209081526040808320805463ffffffff1990811663ffffffff9a909a16998a17909155958416835280832080549096168817909555868252600e8152848220828052815284822082815560018181018190556002909101819055968252600b81528482209682529590955282852080548516929091169182179055838052922080549091169091179055565b61041a6108ba366004613349565b6001600160a01b039283166000818152600c60209081526040808320805463ffffffff909a1663ffffffff19909a168a179055888352600d825280832097909755918152601082528581209790941680855296815284842092909255938252600f81528282209482529390935290912055565b6103d461093b36600461347c565b6113c8565b61041a61094e36600461369d565b6001600160a01b039384166000818152600c60209081526040808320805463ffffffff909a1663ffffffff19909a168a1790559782526008815287822093909355908152601082528581209390941684529190915291902055565b61041a6109b7366004613889565b63ffffffff909216600090815260116020908152604080832093909355600d90522055565b6104dd6109ea3660046137c7565b600b6020908152600092835260408084209091529082529020546001600160a01b031681565b61041a610a1e3660046136f1565b61140c565b61041a610a31366004613889565b63ffffffff9092166000908152600d60209081526040808320849055600e82528083209383529290522055565b61041a610a6c36600461386e565b6115aa565b6001546104dd906001600160a01b031681565b61041a610a923660046138f3565b6115f8565b6002546104dd906001600160a01b031681565b6103d4610ab8366004613204565b601060209081526000928352604080842090915290825290205481565b61041a610ae3366004613761565b63ffffffff90971660008181526014602090815260408083206001600160a01b03909a16808452998252808320879055838352601582528083208a845282528083209890985582825260168152878220988252978852868120959095558452601186528484209190915590825260138452828220556012909252902055565b61041a610b7036600461386e565b63ffffffff9091166000908152600e60209081526040808320838052909152902055565b61041a610ba2366004613889565b6116d3565b61041a610bb536600461393c565b63ffffffff969096166000908152600e6020908152604080832097835296905285812060018082019590955560029081019290925593845293909220908101919091550155565b6103d4610c0a3660046134dc565b600a6020526000908152604090205481565b6103d4610c2a3660046134dc565b600d6020526000908152604090205481565b61041a610c4a366004613320565b611733565b61041a610c5d3660046137f2565b6117c3565b6005546104dd906001600160a01b031681565b61041a610c833660046135ff565b88600d60008e63ffffffff1663ffffffff1681526020019081526020016000208190555086600f60008e63ffffffff1663ffffffff16815260200190815260200160002060008a6001600160a01b03166001600160a01b03168152602001908152602001600020819055508a600b60008e63ffffffff1663ffffffff1681526020019081526020016000206000600115151515815260200190815260200160002060006101000a8154816001600160a01b0302191690836001600160a01b0316021790555089600b60008e63ffffffff1663ffffffff16815260200190815260200160002060008015151515815260200190815260200160002060006101000a8154816001600160a01b0302191690836001600160a01b0316021790555085600e60008e63ffffffff1663ffffffff16815260200190815260200160002060008b81526020019081526020016000206001018190555083600e60008e63ffffffff1663ffffffff16815260200190815260200160002060008981526020019081526020016000206001018190555084600e60008e63ffffffff1663ffffffff16815260200190815260200160002060008b81526020019081526020016000206002018190555082600e60008e63ffffffff1663ffffffff16815260200190815260200160002060008981526020019081526020016000206002018190555081601060008d6001600160a01b03166001600160a01b0316815260200190815260200160002060008a6001600160a01b03166001600160a01b031681526020019081526020016000208190555080601060008c6001600160a01b03166001600160a01b0316815260200190815260200160002060008a6001600160a01b03166001600160a01b0316815260200190815260200160002081905550505050505050505050505050565b61041a610f3736600461349d565b6118c0565b6103d4610f4a3660046134dc565b60076020526000908152604090205481565b61041a610f6a3660046131e3565b600480546001600160a01b0319166001600160a01b0392909216919091179055565b6103d4603481565b61041a610fa23660046133e7565b611b2f565b61041a610fb5366004613320565b611b9d565b6000546104dd906201000090046001600160a01b031681565b6103d4610fe13660046134dc565b60096020526000908152604090205481565b61041a6110013660046131e3565b611c1f565b61041a6110143660046138bb565b63ffffffff939093166000908152600d60209081526040808320858155600e8352818420958452949091528082206001019290925591548252902060020155565b6103d46110633660046134f6565b601460209081526000928352604080842090915290825290205481565b611088611cc9565b6110928282611d17565b6040805163ffffffff84168152602081018390527feb76801ec75076256b8590fd7c621c2541531e6b9ac568389fa5cdf72e66484491015b60405180910390a15050565b6110de611cc9565b6110e88282611d44565b6040805163ffffffff84168152602081018390527f0430c32559bfcf3b024f216d4e0db41b7b521dcffe63ad1fc25826cf89fc1ced91016110ca565b60048054604051636c8d2b9760e01b81526001600160a01b0390911691636c8d2b979161115591869186910161398e565b600060405180830381600087803b15801561116f57600080fd5b505af1158015611183573d6000803e3d6000fd5b50505050611192828233611de6565b5050565b61119e611cc9565b6000805462010000600160b01b031916620100006001600160a01b038416908102919091179091556040519081527f927cc064d7b7fa546fa7706bc01845d27d06f15af3ae90a672cc44735928e961906020015b60405180910390a150565b600054610100900460ff1680611216575060005460ff16155b61127e5760405162461bcd60e51b815260206004820152602e60248201527f496e697469616c697a61626c653a20636f6e747261637420697320616c72656160448201526d191e481a5b9a5d1a585b1a5e995960921b60648201526084015b60405180910390fd5b600054610100900460ff161580156112a0576000805461ffff19166101011790555b6000805462010000600160b01b031916620100006001600160a01b038a81169190910291909117909155600180546001600160a01b0319908116868416179091556002805482168784161790556004805482168984161790556005805490911691871691909117905561131282611fb0565b604080516001600160a01b038981168252868116602083015285811682840152871660608201526080810184905290517faf92ca815edd9a90dc4aa1dfc722fb1624d5b5f914b25ae3cf979ce6600f0a969181900360a00190a1801561137e576000805461ff00191690555b50505050505050565b61138f611cc9565b61139881611fb0565b6040518181527f062ffcd555faf2b2c81f26010ee6db2e23106941bfed5ae979abd111975d815d906020016111f2565b6000806113d783610101613a5e565b905060006113e6826002613ab8565b90505b808386901c1115611404576113fd83613c7e565b92506113e9565b505092915050565b611414611fd6565b6001600160a01b038088166000818152600c60209081526040808320805463ffffffff8f1663ffffffff199182168117909255958c1680855282852080549097168217909655808452600e8352818420848052835281842042815560018181018690556002909101859055908452600b835281842090845280835281842080546001600160a01b031990811690961790558380529091529020805490911690911790556114c18883612021565b6114cb8882611d44565b6114d68885876120ab565b6114e08884611d17565b63ffffffff881660008181526011602090815260409182902060019055815192835282018590528101859052606081018690526080810183905260a081018290527f6bc257e0096888bfe19c27bfedca683fc71f53daaf42d4b9ff8e42ea783d67cf9060c00160405180910390a16040805163ffffffff8a16815260006020820181905291810182905260608101919091527f65663e89e16ccfe470dd659bacdf6fddae8185e108d00bc980d34be7e86466d0906080015b60405180910390a15050505050505050565b6115b2611cc9565b6115bc8282612021565b6040805163ffffffff84168152602081018390527f45029298b28ebd606098e088e84698aad69cbe7d56cec6064a87ab6d85551e1191016110ca565b611600611fd6565b80156116ad5763ffffffff8616600081815260116020908152604080832054835260138252808320859055928252600d9052205461163f906001613a18565b63ffffffff871660008181526011602081815260408084208054855260128352908420959095559282529091528154600192919061167e908490613a18565b90915550506040517ffcd57474b9332c9108d9254a20e26a0255d04c0be335baa253a6f0cd443d2b9a90600090a15b60006116b88761211b565b11156116cb576116cb8686868686612155565b505050505050565b6116db611cc9565b6116e68383836120ab565b6040805163ffffffff85168152602081018490529081018290527fa1d30e827392d7c605768dc1c77c5dfbf58180ca1bb944ecfc8155765b7f53ca906060015b60405180910390a1505050565b3361173d8161220f565b60048054336000908152600c6020526040908190205490516305c8146f60e01b815263ffffffff909116928101929092526001600160a01b0316906305c8146f90602401600060405180830381600087803b15801561179b57600080fd5b505af11580156117af573d6000803e3d6000fd5b505050506117be33838561226c565b505050565b63ffffffff881660008181526014602090815260408083206001600160a01b038b1684528252808320879055928252601190522082905586156118315763ffffffff881660009081526015602090815260408083206001600160a01b038a168452909152902085905561185e565b63ffffffff881660009081526016602090815260408083206001600160a01b038a16845290915290208590555b63ffffffff9097166000908152600b60209081526040808320981515835297815287822080546001600160a01b039a8b166001600160a01b03199091168117909155825260108152878220969098168152949096525092909120919091555050565b63ffffffff82166000908152600b6020908152604080832084151584528252808320546001600160a01b0316808452601083528184203385529092529091205484111561194f5760405162461bcd60e51b815260206004820152601a60248201527f4e6f7420656e6f75676820746f6b656e7320746f2073686966740000000000006044820152606401611275565b63ffffffff83166000908152601460209081526040808320338452909152902054158015906119a5575063ffffffff83166000908152601160209081526040808320546014835281842033855290925290912054105b156119b4576119b483336123c0565b8115611a60576004805460405163775811a960e11b815263ffffffff861692810192909252602482018690526001600160a01b03169063eeb0235290604401600060405180830381600087803b158015611a0d57600080fd5b505af1158015611a21573d6000803e3d6000fd5b5050505063ffffffff8316600090815260156020908152604080832033845290915281208054869290611a55908490613a18565b90915550611b019050565b60048054604051633415694360e11b815263ffffffff861692810192909252602482018690526001600160a01b03169063682ad28690604401600060405180830381600087803b158015611ab357600080fd5b505af1158015611ac7573d6000803e3d6000fd5b5050505063ffffffff8316600090815260166020908152604080832033845290915281208054869290611afb908490613a18565b90915550505b505063ffffffff16600090815260116020908152604080832054601483528184203385529092529091205550565b60048054604051636c8d2b9760e01b81526001600160a01b0390911691636c8d2b9791611b6091879187910161398e565b600060405180830381600087803b158015611b7a57600080fd5b505af1158015611b8e573d6000803e3d6000fd5b505050506117be838383611de6565b600480546001600160a01b038481166000908152600c6020526040908190205490516305c8146f60e01b815263ffffffff9091169381019390935216906305c8146f90602401600060405180830381600087803b158015611bfd57600080fd5b505af1158015611c11573d6000803e3d6000fd5b50505050611192828261245d565b600480546001600160a01b038381166000908152600c6020526040908190205490516305c8146f60e01b815263ffffffff9091169381019390935216906305c8146f90602401600060405180830381600087803b158015611c7f57600080fd5b505af1158015611c93573d6000803e3d6000fd5b5050506001600160a01b0382166000908152601060209081526040808320338452909152902054611cc69150829061245d565b50565b6000546201000090046001600160a01b03163314611d155760405162461bcd60e51b81526020600482015260096024820152683737ba1030b236b4b760b91b6044820152606401611275565b565b66b1a2bc2ec50000811115611d2b57600080fd5b63ffffffff909116600090815260086020526040902055565b670c7d713b49d9ffff1981138015611d635750670c7d713b49da000081125b611dcd5760405162461bcd60e51b815260206004820152603560248201527f62616c616e6365496e63656e7469766543757276655f657175696c69627269756044820152746d4f6666736574206f7574206f6620626f756e647360581b6064820152608401611275565b63ffffffff9091166000908152600a6020526040902055565b6000805b83811015611f99576000611e32868684818110611e1757634e487b7160e01b600052603260045260246000fd5b9050602002016020810190611e2c91906134dc565b85612645565b90508015611f8657600d6000878785818110611e5e57634e487b7160e01b600052603260045260246000fd5b9050602002016020810190611e7391906134dc565b63ffffffff1663ffffffff16815260200190815260200160002054600f6000888886818110611eb257634e487b7160e01b600052603260045260246000fd5b9050602002016020810190611ec791906134dc565b63ffffffff168152602080820192909252604090810160009081206001600160a01b0389168252909252902055611efe8184613a18565b92507f2f0b57f663333228518fca119813fe0f6daeb5f19d087965f56b45fecf2d520584878785818110611f4257634e487b7160e01b600052603260045260246000fd5b9050602002016020810190611f5791906134dc565b604080516001600160a01b03909316835263ffffffff9091166020830152810183905260600160405180910390a15b5080611f9181613c7e565b915050611dea565b508015611faa57611faa8282612af5565b50505050565b670de0b6b3a76400008111158015611fc85750600081115b611fd157600080fd5b600355565b6004546001600160a01b03163314611d155760405162461bcd60e51b815260206004820152600e60248201526d1b9bdd081b1bdb99c81cda1bdc9d60921b6044820152606401611275565b6000811180156120315750600681105b6120925760405162461bcd60e51b815260206004820152602c60248201527f62616c616e6365496e63656e7469766543757276655f6578706f6e656e74206f60448201526b7574206f6620626f756e647360a01b6064820152608401611275565b63ffffffff909116600090815260096020526040902055565b670de0b6b3a76400008110156103f55760405162461bcd60e51b815260206004820152602f60248201527f6d61726b65744c61756e6368496e63656e746976654d756c7469706c6965722060448201526e0daeae6e840c4ca407c7a4062ca627608b1b6064820152608401611275565b63ffffffff81166000908152600e60209081526040808320600d835281842054845290915281205461214d9042613c67565b90505b919050565b6000806121658787878787612bf1565b63ffffffff89166000908152600d60205260408120549294509092509061218d906001613a18565b63ffffffff89166000818152600e6020908152604080832085845282528083206001810189905560028101889055429055838352600d825291829020849055815192835282018390528101859052606081018490529091507f65663e89e16ccfe470dd659bacdf6fddae8185e108d00bc980d34be7e86466d090608001611598565b6001600160a01b0381166000908152600c602052604090205463ffffffff16611cc65760405162461bcd60e51b815260206004820152600f60248201526e0dcdee840ecc2d8d2c840e6f2dce8d608b1b6044820152606401611275565b6001600160a01b038084166000908152600c602090815260408083205463ffffffff16808452600f8352818420948616845293909152902054158015906122e3575063ffffffff81166000908152600d6020908152604080832054600f83528184206001600160a01b038716855290925290912054105b156122f2576122f281836123c0565b6001600160a01b03808516600090815260106020908152604080832093861683529290522054612323908490613a18565b6001600160a01b0385811660008181526010602090815260408083209488168084529482528083209590955563ffffffff86168252600d815284822054600f8252858320858452825291859020829055845193845283019190915291810185905260608101919091527fef7c8dfef14cbefdf829b8f066b068b677992411137321d64b3ed4538c2b3637906080015b60405180910390a150505050565b60006123cc8383612645565b905080156117be5763ffffffff83166000908152600d6020908152604080832054600f83528184206001600160a01b0387168552909252909120556124118282612af5565b604080516001600160a01b038416815263ffffffff851660208201529081018290527f2f0b57f663333228518fca119813fe0f6daeb5f19d087965f56b45fecf2d520590606001611726565b6001600160a01b0382166000908152600c6020908152604080832054601083528184203385529092529091205463ffffffff909116906124d55760405162461bcd60e51b81526020600482015260136024820152726e6f7468696e6720746f20776974686472617760681b6044820152606401611275565b6124df81336123c0565b6001600160a01b038316600090815260106020908152604080832033845290915290205461250e908390613c67565b6001600160a01b038416600090815260106020908152604080832033845282528083209390935563ffffffff841682526008905290812054670de0b6b3a76400009061255a9085613c09565b6125649190613a5e565b90506001600160a01b03841663a9059cbb336125808487613c67565b6040516001600160e01b031960e085901b1681526001600160a01b0390921660048301526024820152604401602060405180830381600087803b1580156125c657600080fd5b505af11580156125da573d6000803e3d6000fd5b505050506040513d601f19601f820116820180604052508101906125fe9190613430565b50604080513381526001600160a01b03861660208201529081018490527fb7c918e0e249f999e965cafeb6c664271b3f4317d296461500e71da39f0cbda3906060016123b2565b63ffffffff82166000818152600b6020908152604080832060018452825280832054838052818420546001600160a01b0391821680865260108086528487208985168089529087528588205494909316808852908652848720838852865284872054888852600f875285882093885292865284872054978752600d9095529285205494959294919290918114156126e457600095505050505050612aef565b63ffffffff881660009081526014602090815260408083206001600160a01b038b1684529091529020548015801590612731575063ffffffff891660009081526011602052604090205481105b15612ab957612756898585856012600087815260200190815260200160002054612ca5565b63ffffffff8a1660009081526015602090815260408083206001600160a01b038d168452909152902054909750156128b5576004805463ffffffff8b1660008181526015602090815260408083206001600160a01b038f8116855290835281842054888552601390935292819020549051630125edfd60e71b815295860193909352602485015260016044850152606484019190915216906392f6fe809060840160206040518083038186803b15801561280f57600080fd5b505afa158015612823573d6000803e3d6000fd5b505050506040513d601f19601f820116820180604052508101906128479190613464565b6128519084613a18565b63ffffffff8a1660009081526015602090815260408083206001600160a01b038d1684529091529020549093506128889085613c67565b63ffffffff8a1660009081526015602090815260408083206001600160a01b038d16845290915281205593505b63ffffffff891660009081526016602090815260408083206001600160a01b038c16845290915290205415612a11576004805463ffffffff8b1660008181526016602090815260408083206001600160a01b038f81168552908352818420548885526013909352818420549151630125edfd60e71b81529687019490945260248601919091526044850191909152606484015216906392f6fe809060840160206040518083038186803b15801561296b57600080fd5b505afa15801561297f573d6000803e3d6000fd5b505050506040513d601f19601f820116820180604052508101906129a39190613464565b6129ad9085613a18565b63ffffffff8a1660009081526016602090815260408083206001600160a01b038d1684529091529020549094506129e49084613c67565b63ffffffff8a1660009081526016602090815260408083206001600160a01b038d16845290915281205592505b6001600160a01b0380871660009081526010602081815260408084208d86168086529083528185208a9055948a168452918152818320938352928352808220869055838252601283528082205463ffffffff8d168352600d909352902054612a7e918b9187918791612ca5565b612a889088613a18565b63ffffffff8a1660009081526014602090815260408083206001600160a01b038d1684529091528120559650612ae8565b612ae589858585600d60008f63ffffffff1663ffffffff16815260200190815260200160002054612ca5565b96505b5050505050505b92915050565b6005546040516340c10f1960e01b81526001600160a01b03848116600483015260248201849052909116906340c10f1990604401600060405180830381600087803b158015612b4357600080fd5b505af1158015612b57573d6000803e3d6000fd5b50506005546001546003546001600160a01b0392831694506340c10f199350911690670de0b6b3a764000090612b8d9086613c09565b612b979190613a5e565b6040516001600160e01b031960e085901b1681526001600160a01b0390921660048301526024820152604401600060405180830381600087803b158015612bdd57600080fd5b505af11580156116cb573d6000803e3d6000fd5b600080600080612c048989898989612d9c565b915091506000612c138a61211b565b9050612c1f8382613c09565b63ffffffff8b166000908152600e60209081526040808320600d8352818420548452909152902060010154612c549190613a18565b612c5e8383613c09565b63ffffffff8c166000908152600e60209081526040808320600d8352818420548452909152902060020154612c939190613a18565b945094505050505b9550959350505050565b60008415612d1d5763ffffffff86166000908152600e602090815260408083208684529091528082206001908101548584529183200154612ce69190613c67565b9050710b7abc627050305adf14a3d9e40000000000612d058783613c09565b612d0f9190613a5e565b612d199083613a18565b9150505b8315612d935763ffffffff86166000908152600e602090815260408083208684529091528082206002908101548584529183200154612d5c9190613c67565b9050710b7abc627050305adf14a3d9e40000000000612d7b8683613c09565b612d859190613a5e565b612d8f9083613a18565b9150505b95945050505050565b6000808315801590612dad57508215155b612dc757634e487b7160e01b600052600160045260246000fd5b6000612dd288613064565b90506000612de08587613a18565b63ffffffff8a166000908152600a602052604081205491925090670de0b6b3a764000090612e0f908490613b86565b612e199190613a30565b905086612e268288613c28565b1215612f5657858112612e5e57600088612e4885670de0b6b3a7640000613c09565b612e529190613c09565b94509450505050612c9b565b63ffffffff8a16600090815260096020526040812054612e8060016034613c67565b612e8a848a613c28565b612e9592911c613ab8565b63ffffffff8c1660009081526009602052604081205491925090612ebd90603486901c613ab8565b9050600081612ed4846706f05b59d3b20000613c09565b612ede9190613a5e565b90506000612ef482670de0b6b3a7640000613c67565b9050670de0b6b3a76400008d612f0a8985613c09565b612f149190613c09565b612f1e9190613a5e565b670de0b6b3a76400008d612f328a85613c09565b612f3c9190613c09565b612f469190613a5e565b9850985050505050505050612c9b565b86612f6082613c99565b12612f905788612f7884670de0b6b3a7640000613c09565b612f829190613c09565b600094509450505050612c9b565b63ffffffff8a16600090815260096020526040812054612fb260016034613c67565b612fbc848b6139d7565b612fc792911c613ab8565b63ffffffff8c1660009081526009602052604081205491925090612fef90603486901c613ab8565b9050600081613006846706f05b59d3b20000613c09565b6130109190613a5e565b9050600061302682670de0b6b3a7640000613c67565b9050670de0b6b3a76400008d61303c8984613c09565b6130469190613c09565b6130509190613a5e565b670de0b6b3a76400008d612f328a86613c09565b600080600061307284613125565b91509150670de0b6b3a764000081101561309c57634e487b7160e01b600052600160045260246000fd5b63ffffffff84166000908152600e60209081526040808320838052909152902054826130c88242613c67565b1161311257826130d88242613c67565b6130ea670de0b6b3a764000085613c67565b6130f49190613c09565b6130fe9190613a5e565b6131089083613c67565b9350505050612150565b670de0b6b3a76400009350505050612150565b63ffffffff81166000908152600660209081526040808320546007909252822054829190670de0b6b3a76400008110156131645750670de0b6b3a76400005b9092509050915091565b80356001600160a01b038116811461215057600080fd5b60008083601f840112613196578182fd5b50813567ffffffffffffffff8111156131ad578182fd5b6020830191508360208260051b85010111156131c857600080fd5b9250929050565b803563ffffffff8116811461215057600080fd5b6000602082840312156131f4578081fd5b6131fd8261316e565b9392505050565b60008060408385031215613216578081fd5b61321f8361316e565b915061322d6020840161316e565b90509250929050565b60008060008060008060c0878903121561324e578182fd5b6132578761316e565b95506132656020880161316e565b94506132736040880161316e565b93506132816060880161316e565b925061328f6080880161316e565b915060a087013590509295509295509295565b6000806000606084860312156132b6578283fd5b6132bf8461316e565b92506132cd6020850161316e565b91506132db604085016131cf565b90509250925092565b600080604083850312156132f6578182fd5b6132ff8361316e565b9150602083013561ffff81168114613315578182fd5b809150509250929050565b60008060408385031215613332578182fd5b61333b8361316e565b946020939093013593505050565b60008060008060008060c08789031215613361578182fd5b61336a8761316e565b9550613378602088016131cf565b94506040870135935061338d6060880161316e565b92506080870135915060a087013590509295509295509295565b600080602083850312156133b9578182fd5b823567ffffffffffffffff8111156133cf578283fd5b6133db85828601613185565b90969095509350505050565b6000806000604084860312156133fb578283fd5b833567ffffffffffffffff811115613411578384fd5b61341d86828701613185565b90945092506132db90506020850161316e565b600060208284031215613441578081fd5b81516131fd81613cdf565b60006020828403121561345d578081fd5b5035919050565b600060208284031215613475578081fd5b5051919050565b6000806040838503121561348e578182fd5b50508035926020909101359150565b6000806000606084860312156134b1578081fd5b833592506134c1602085016131cf565b915060408401356134d181613cdf565b809150509250925092565b6000602082840312156134ed578081fd5b6131fd826131cf565b60008060408385031215613508578182fd5b61321f836131cf565b600080600060608486031215613525578081fd5b61352e846131cf565b925061353c6020850161316e565b91506132db6040850161316e565b600080600080600060a08688031215613561578283fd5b61356a866131cf565b94506135786020870161316e565b93506135866040870161316e565b92506135946060870161316e565b91506135a26080870161316e565b90509295509295909350565b600080600080600060a086880312156135c5578283fd5b6135ce866131cf565b94506135dc6020870161316e565b93506135ea6040870161316e565b9250606086013591506135a26080870161316e565b6000806000806000806000806000806000806101808d8f03121561362157898afd5b61362a8d6131cf565b9b5061363860208e0161316e565b9a5061364660408e0161316e565b995060608d0135985061365b60808e0161316e565b9b9e9a9d50989b979a9960a0890135995060c08901359860e0810135985061010081013597506101208101359650610140810135955061016001359350915050565b600080600080600060a086880312156136b4578283fd5b6136bd866131cf565b94506136cb6020870161316e565b93506136d96040870161316e565b94979396509394606081013594506080013592915050565b600080600080600080600080610100898b03121561370d578182fd5b613716896131cf565b975061372460208a0161316e565b965061373260408a0161316e565b979a96995096976060810135975060808101359660a0820135965060c0820135955060e0909101359350915050565b600080600080600080600080610100898b03121561377d578182fd5b613786896131cf565b975061379460208a0161316e565b979a9799505050506040860135956060810135956080820135955060a0820135945060c0820135935060e0909101359150565b600080604083850312156137d9578182fd5b6137e2836131cf565b9150602083013561331581613cdf565b600080600080600080600080610100898b03121561380e578182fd5b613817896131cf565b9750602089013561382781613cdf565b965061383560408a0161316e565b9550606089013594506080890135935060a0890135925060c0890135915061385f60e08a0161316e565b90509295985092959890939650565b60008060408385031215613880578182fd5b61333b836131cf565b60008060006060848603121561389d578081fd5b6138a6846131cf565b95602085013595506040909401359392505050565b600080600080608085870312156138d0578182fd5b6138d9856131cf565b966020860135965060408601359560600135945092505050565b60008060008060008060c0878903121561390b578384fd5b613914876131cf565b9860208801359850604088013597606081013597506080810135965060a00135945092505050565b600080600080600080600060e0888a031215613956578081fd5b61395f886131cf565b9960208901359950604089013598606081013598506080810135975060a0810135965060c00135945092505050565b60208082528181018390526000908460408401835b868110156139cc5763ffffffff6139b9846131cf565b16825291830191908301906001016139a3565b509695505050505050565b600080821280156001600160ff1b03849003851316156139f9576139f9613cb3565b600160ff1b8390038412811615613a1257613a12613cb3565b50500190565b60008219821115613a2b57613a2b613cb3565b500190565b600082613a3f57613a3f613cc9565b600160ff1b821460001984141615613a5957613a59613cb3565b500590565b600082613a6d57613a6d613cc9565b500490565b80825b6001808611613a845750613aaf565b818704821115613a9657613a96613cb3565b80861615613aa357918102915b9490941c938002613a75565b94509492505050565b60006131fd6000198484600082613ad1575060016131fd565b81613ade575060006131fd565b8160018114613af45760028114613afe57613b2b565b60019150506131fd565b60ff841115613b0f57613b0f613cb3565b6001841b915084821115613b2557613b25613cb3565b506131fd565b5060208310610133831016604e8410600b8410161715613b5e575081810a83811115613b5957613b59613cb3565b6131fd565b613b6b8484846001613a72565b808604821115613b7d57613b7d613cb3565b02949350505050565b60006001600160ff1b0381841382841380821686840486111615613bac57613bac613cb3565b600160ff1b84871282811687830589121615613bca57613bca613cb3565b858712925087820587128484161615613be557613be5613cb3565b87850587128184161615613bfb57613bfb613cb3565b505050929093029392505050565b6000816000190483118215151615613c2357613c23613cb3565b500290565b60008083128015600160ff1b850184121615613c4657613c46613cb3565b6001600160ff1b0384018313811615613c6157613c61613cb3565b50500390565b600082821015613c7957613c79613cb3565b500390565b6000600019821415613c9257613c92613cb3565b5060010190565b6000600160ff1b821415613caf57613caf613cb3565b0390565b634e487b7160e01b600052601160045260246000fd5b634e487b7160e01b600052601260045260246000fd5b8015158114611cc657600080fdfea2646970667358221220179f086fdf13d7047ca9dd34ebcb21a77cdeee74cd81a0e15c756972e74024f364736f6c63430008030033",
  "immutableReferences": {},
  "source": "// SPDX-License-Identifier: BUSL-1.1\n\npragma solidity 0.8.3;\n\nimport \"../Staker.sol\";\n\n/*\nNOTE: This contract is for testing purposes only!\n*/\n\ncontract StakerInternalStateSetters is Staker {\n  ///////////////////////////////////////////////\n  //////////// Test Helper Functions ////////////\n  ///////////////////////////////////////////////\n  // TODO: remove parts of this function that aren't necessary for the updated `_calculateAccumulatedFloat` funciton\n  function setFloatRewardCalcParams(\n    uint32 marketIndex,\n    address longToken,\n    address shortToken,\n    uint256 newLatestRewardIndex,\n    address user,\n    uint256 usersLatestClaimedReward,\n    uint256 accumulativeFloatPerTokenLatestLong,\n    uint256 accumulativeFloatPerTokenLatestShort,\n    uint256 accumulativeFloatPerTokenUserLong,\n    uint256 accumulativeFloatPerTokenUserShort,\n    uint256 newUserAmountStakedLong,\n    uint256 newUserAmountStakedShort\n  ) public {\n    latestRewardIndex[marketIndex] = newLatestRewardIndex;\n    userIndexOfLastClaimedReward[marketIndex][user] = usersLatestClaimedReward;\n    syntheticTokens[marketIndex][true] = longToken;\n    syntheticTokens[marketIndex][false] = shortToken;\n\n    accumulativeFloatPerSyntheticTokenSnapshots[marketIndex][newLatestRewardIndex]\n    .accumulativeFloatPerSyntheticToken_long = accumulativeFloatPerTokenLatestLong;\n\n    accumulativeFloatPerSyntheticTokenSnapshots[marketIndex][usersLatestClaimedReward]\n    .accumulativeFloatPerSyntheticToken_long = accumulativeFloatPerTokenUserLong;\n\n    accumulativeFloatPerSyntheticTokenSnapshots[marketIndex][newLatestRewardIndex]\n    .accumulativeFloatPerSyntheticToken_short = accumulativeFloatPerTokenLatestShort;\n\n    accumulativeFloatPerSyntheticTokenSnapshots[marketIndex][usersLatestClaimedReward]\n    .accumulativeFloatPerSyntheticToken_short = accumulativeFloatPerTokenUserShort;\n\n    userAmountStaked[longToken][user] = newUserAmountStakedLong;\n    userAmountStaked[shortToken][user] = newUserAmountStakedShort;\n  }\n\n  function setCalculateAccumulatedFloatInRangeGlobals(\n    uint32 marketIndex,\n    uint256 rewardIndexTo,\n    uint256 rewardIndexFrom,\n    uint256 syntheticRewardToLongToken,\n    uint256 syntheticRewardFromLongToken,\n    uint256 syntheticRewardToShortToken,\n    uint256 syntheticRewardFromShortToken\n  ) public {\n    accumulativeFloatPerSyntheticTokenSnapshots[marketIndex][rewardIndexTo]\n    .accumulativeFloatPerSyntheticToken_long = syntheticRewardToLongToken;\n    accumulativeFloatPerSyntheticTokenSnapshots[marketIndex][rewardIndexTo]\n    .accumulativeFloatPerSyntheticToken_short = syntheticRewardToShortToken;\n    accumulativeFloatPerSyntheticTokenSnapshots[marketIndex][rewardIndexFrom]\n    .accumulativeFloatPerSyntheticToken_long = syntheticRewardFromLongToken;\n    accumulativeFloatPerSyntheticTokenSnapshots[marketIndex][rewardIndexFrom]\n    .accumulativeFloatPerSyntheticToken_short = syntheticRewardFromShortToken;\n  }\n\n  function setShiftParams(\n    uint32 marketIndex,\n    address user,\n    uint256 shiftAmountLong,\n    uint256 shiftAmountShort,\n    uint256 _userNextPrice_stakedSyntheticTokenShiftIndex,\n    uint256 _batched_stakerNextTokenShiftIndex,\n    uint256 _takerTokenShiftIndex_to_longShortMarketPriceSnapshotIndex_mapping,\n    uint256 _stakerTokenShiftIndex_to_accumulativeFloatIssuanceSnapshotIndex_mapping\n  ) public {\n    userNextPrice_stakedSyntheticTokenShiftIndex[marketIndex][\n      user\n    ] = _userNextPrice_stakedSyntheticTokenShiftIndex;\n    userNextPrice_amountStakedSyntheticToken_toShiftAwayFrom_long[marketIndex][\n      user\n    ] = shiftAmountLong;\n    userNextPrice_amountStakedSyntheticToken_toShiftAwayFrom_short[marketIndex][\n      user\n    ] = shiftAmountShort;\n    batched_stakerNextTokenShiftIndex[marketIndex] = _batched_stakerNextTokenShiftIndex;\n    stakerTokenShiftIndex_to_longShortMarketPriceSnapshotIndex_mapping[\n      _userNextPrice_stakedSyntheticTokenShiftIndex\n    ] = _takerTokenShiftIndex_to_longShortMarketPriceSnapshotIndex_mapping;\n    stakerTokenShiftIndex_to_accumulativeFloatIssuanceSnapshotIndex_mapping[\n      _userNextPrice_stakedSyntheticTokenShiftIndex\n    ] = _stakerTokenShiftIndex_to_accumulativeFloatIssuanceSnapshotIndex_mapping;\n  }\n\n  function setShiftTokensParams(\n    uint32 marketIndex,\n    bool isShiftFromLong,\n    address user,\n    uint256 amountSyntheticTokensToShift,\n    uint256 _userAmountStaked,\n    uint256 _userNextPrice_stakedSyntheticTokenShiftIndex,\n    uint256 _batched_stakerNextTokenShiftIndex,\n    address syntheticToken\n  ) public {\n    userNextPrice_stakedSyntheticTokenShiftIndex[marketIndex][\n      user\n    ] = _userNextPrice_stakedSyntheticTokenShiftIndex;\n    batched_stakerNextTokenShiftIndex[marketIndex] = _batched_stakerNextTokenShiftIndex;\n\n    if (isShiftFromLong) {\n      userNextPrice_amountStakedSyntheticToken_toShiftAwayFrom_long[marketIndex][\n        user\n      ] = amountSyntheticTokensToShift;\n    } else {\n      userNextPrice_amountStakedSyntheticToken_toShiftAwayFrom_short[marketIndex][\n        user\n      ] = amountSyntheticTokensToShift;\n    }\n\n    syntheticTokens[marketIndex][isShiftFromLong] = syntheticToken;\n    userAmountStaked[syntheticToken][user] = _userAmountStaked;\n  }\n\n  function setLongShort(address _longShort) public {\n    longShort = _longShort;\n  }\n\n  function setAddNewStakingFundParams(\n    uint32 marketIndex,\n    address longToken,\n    address shortToken,\n    address mockAddress,\n    address longShortAddress\n  ) public {\n    longShort = address(longShortAddress);\n    marketIndexOfToken[longToken] = marketIndex;\n    marketIndexOfToken[shortToken] = marketIndex;\n\n    accumulativeFloatPerSyntheticTokenSnapshots[marketIndex][0].timestamp = 0; // don't test with 0\n    accumulativeFloatPerSyntheticTokenSnapshots[marketIndex][0]\n    .accumulativeFloatPerSyntheticToken_long = 1;\n    accumulativeFloatPerSyntheticTokenSnapshots[marketIndex][0]\n    .accumulativeFloatPerSyntheticToken_short = 1;\n\n    syntheticTokens[marketIndex][true] = mockAddress;\n    syntheticTokens[marketIndex][false] = mockAddress;\n  }\n\n  function setAddNewStateForFloatRewardsGlobals(\n    uint32 marketIndex,\n    uint256 _batched_stakerNextTokenShiftIndex,\n    uint256 _latestRewardIndex\n  ) external {\n    batched_stakerNextTokenShiftIndex[marketIndex] = _batched_stakerNextTokenShiftIndex;\n    latestRewardIndex[marketIndex] = _latestRewardIndex;\n  }\n\n  function setGetMarketLaunchIncentiveParametersParams(\n    uint32 marketIndex,\n    uint256 period,\n    uint256 multiplier\n  ) external {\n    marketLaunchIncentive_period[marketIndex] = period;\n    marketLaunchIncentive_multipliers[marketIndex] = multiplier;\n  }\n\n  function setGetKValueParams(uint32 marketIndex, uint256 timestamp) external {\n    accumulativeFloatPerSyntheticTokenSnapshots[marketIndex][0].timestamp = timestamp;\n  }\n\n  function setStakeFromUserParams(\n    address longshort,\n    address token,\n    uint32 marketIndexForToken\n  ) external {\n    longShort = address(longshort);\n    marketIndexOfToken[token] = marketIndexForToken;\n  }\n\n  function setCalculateTimeDeltaParams(\n    uint32 marketIndex,\n    uint256 latestRewardIndexForMarket,\n    uint256 timestamp\n  ) external {\n    latestRewardIndex[marketIndex] = latestRewardIndexForMarket;\n    accumulativeFloatPerSyntheticTokenSnapshots[marketIndex][latestRewardIndexForMarket]\n    .timestamp = timestamp;\n  }\n\n  function setCalculateNewCumulativeRateParams(\n    uint32 marketIndex,\n    uint256 latestRewardIndexForMarket,\n    uint256 accumFloatLong,\n    uint256 accumFloatShort\n  ) external {\n    latestRewardIndex[marketIndex] = latestRewardIndexForMarket;\n    accumulativeFloatPerSyntheticTokenSnapshots[marketIndex][latestRewardIndex[marketIndex]]\n    .accumulativeFloatPerSyntheticToken_long = accumFloatLong;\n\n    accumulativeFloatPerSyntheticTokenSnapshots[marketIndex][latestRewardIndex[marketIndex]]\n    .accumulativeFloatPerSyntheticToken_short = accumFloatShort;\n  }\n\n  function setSetRewardObjectsParams(uint32 marketIndex, uint256 latestRewardIndexForMarket)\n    external\n  {\n    latestRewardIndex[marketIndex] = latestRewardIndexForMarket;\n  }\n\n  function set_updateStateParams(\n    address _longShort,\n    address token,\n    uint32 tokenMarketIndex\n  ) public {\n    longShort = _longShort;\n    marketIndexOfToken[token] = tokenMarketIndex;\n  }\n\n  function set_mintFloatParams(address _floatToken, uint16 _floatPercentage) public {\n    floatToken = _floatToken;\n    floatPercentage = _floatPercentage;\n  }\n\n  function setMintAccumulatedFloatAndClaimFloatParams(\n    uint32 marketIndex,\n    uint256 latestRewardIndexForMarket\n  ) public {\n    latestRewardIndex[marketIndex] = latestRewardIndexForMarket;\n  }\n\n  function set_stakeParams(\n    address user,\n    uint32 marketIndex,\n    uint256 _latestRewardIndex,\n    address token,\n    uint256 _userAmountStaked,\n    uint256 userLastRewardIndex\n  ) external {\n    marketIndexOfToken[token] = marketIndex;\n    latestRewardIndex[marketIndex] = _latestRewardIndex;\n    userAmountStaked[token][user] = _userAmountStaked;\n    userIndexOfLastClaimedReward[marketIndex][user] = userLastRewardIndex;\n  }\n\n  function set_withdrawGlobals(\n    uint32 marketIndex,\n    address syntheticToken,\n    address user,\n    uint256 amountStaked,\n    uint256 fees\n  ) external {\n    marketIndexOfToken[syntheticToken] = marketIndex;\n    marketUnstakeFee_e18[marketIndex] = fees;\n    userAmountStaked[syntheticToken][user] = amountStaked;\n  }\n\n  function setWithdrawGlobals(\n    uint32 marketIndex,\n    address _longShort,\n    address token\n  ) external {\n    marketIndexOfToken[token] = marketIndex;\n    longShort = _longShort;\n  }\n\n  function setWithdrawAllGlobals(\n    uint32 marketIndex,\n    address _longShort,\n    address user,\n    uint256 amountStaked,\n    address token\n  ) external {\n    marketIndexOfToken[token] = marketIndex;\n    longShort = _longShort;\n    userAmountStaked[token][user] = amountStaked;\n  }\n\n  ///////////////////////////////////////////////////////\n  //////////// Functions for Experimentation ////////////\n  ///////////////////////////////////////////////////////\n\n  function getRequiredAmountOfBitShiftForSafeExponentiationPerfect(uint256 number, uint256 exponent)\n    external\n    pure\n    returns (uint256 amountOfBitShiftRequired)\n  {\n    uint256 targetMaxNumberSizeBinaryDigits = 257 / exponent;\n\n    // Note this can be optimised, this gets a quick easy to compute safe upper bound, not the actuall upper bound.\n    uint256 targetMaxNumber = 2**targetMaxNumberSizeBinaryDigits;\n\n    while (number >> amountOfBitShiftRequired > targetMaxNumber) {\n      ++amountOfBitShiftRequired;\n    }\n  }\n}\n",
  "sourcePath": "/home/jasoons/Documents/code/monorepo/contracts/contracts/testing/StakerInternalStateSetters.sol",
  "compiler": {
    "name": "solc",
    "version": "0.8.3+commit.8d00100c.Emscripten.clang"
  },
  "schemaVersion": "3.3.4",
  "updatedAt": "2021-08-04T10:05:03.881Z",
  "devdoc": {
    "kind": "dev",
    "methods": {
      "addNewStakingFund(uint32,address,address,uint256,uint256,uint256,uint256,int256)": {
        "params": {
          "_balanceIncentiveCurve_equilibriumOffset": "Offset for balance curve (see _calculateFloatPerSecond)",
          "_balanceIncentiveCurve_exponent": "Exponent for balance curve (see _calculateFloatPerSecond)",
          "kInitialMultiplier": "Initial boost on float generation for the market.",
          "kPeriod": "Period which the boost should last.",
          "longToken": "Address of the long token for the market.",
          "marketIndex": "Identifies the market.",
          "shortToken": "Address of the short token for the market.",
          "unstakeFee_e18": "Percentage of tokens that are levied on unstaking in base 1e18."
        }
      },
      "changeAdmin(address)": {
        "params": {
          "_admin": "The address of the new admin."
        }
      },
      "changeBalanceIncentiveEquilibriumOffset(uint32,int256)": {
        "params": {
          "_balanceIncentiveCurve_equilibriumOffset": "The new offset.",
          "marketIndex": "Identifies the market."
        }
      },
      "changeBalanceIncentiveExponent(uint32,uint256)": {
        "params": {
          "_balanceIncentiveCurve_exponent": "The new exponent for the curve.",
          "marketIndex": "Identifies the market."
        }
      },
      "changeFloatPercentage(uint256)": {
        "params": {
          "newFloatPercentage": "The new float percentage in base 1e18."
        }
      },
      "changeMarketLaunchIncentiveParameters(uint32,uint256,uint256)": {
        "params": {
          "initialMultiplier": "The new multiplier on Float generation.",
          "marketIndex": "Identifies the market.",
          "period": "The new period for which float token generation should be boosted."
        }
      },
      "changeUnstakeFee(uint32,uint256)": {
        "params": {
          "marketIndex": "Identifies the market.",
          "newMarketUnstakeFee_e18": "The new unstake fee."
        }
      },
      "claimFloatCustom(uint32[])": {
        "params": {
          "marketIndexes": "Identifiers for the markets for which to mint float."
        }
      },
      "claimFloatCustomFor(uint32[],address)": {
        "params": {
          "marketIndexes": "Identifiers for the markets for which to mint float.",
          "user": "The address of the user."
        }
      },
      "initialize(address,address,address,address,address,uint256)": {
        "details": "Calls OpenZeppelin's initializer modifier.",
        "params": {
          "_admin": "Address of the admin role.",
          "_floatCapital": "Address of the contract which earns a fixed percentage of Float.",
          "_floatPercentage": "Determines the float percentage that gets minted for Float Capital, base 1e18.",
          "_floatToken": "Address of the Float token earned by staking.",
          "_longShort": "Address of the LongShort contract, a deployed LongShort.sol"
        }
      },
      "pushUpdatedMarketPricesToUpdateFloatIssuanceCalculations(uint32,uint256,uint256,uint256,uint256,uint256)": {
        "params": {
          "longPrice": "The price of the long token as defined in LongShort.sol",
          "longValue": "The value locked in the long side of the market.",
          "marketIndex": "An identifier for the market.",
          "shortPrice": "The price of the short token as defined in LongShort.sol",
          "shortValue": "The value locked in the short side of the market.",
          "stakerTokenShiftIndex_to_longShortMarketPriceSnapshotIndex_mappingIfShiftExecuted": "Mapping from this contract's shifts to LongShort.sols next price snapshots."
        }
      },
      "shiftTokens(uint256,uint32,bool)": {
        "params": {
          "amountSyntheticTokensToShift": "Amount of tokens to shift.",
          "isShiftFromLong": "Whether the shift is from long to short or short to long.",
          "marketIndex": "Identifier for the market."
        }
      },
      "stakeFromUser(address,uint256)": {
        "params": {
          "amount": "Amount to stake.",
          "from": "Address to stake for."
        }
      },
      "withdraw(address,uint256)": {
        "params": {
          "amount": "Amount to withdraw.",
          "token": "Address of the token for which to withdraw."
        }
      },
      "withdrawAll(address)": {
        "params": {
          "token": "Address of the token for which to withdraw."
        }
      }
    },
    "version": 1
  },
  "userdoc": {
    "kind": "user",
    "methods": {
      "addNewStakingFund(uint32,address,address,uint256,uint256,uint256,uint256,int256)": {
        "notice": "Sets this contract to track staking for a market in LongShort.sol"
      },
      "changeAdmin(address)": {
        "notice": "Changes admin for the contract"
      },
      "changeBalanceIncentiveEquilibriumOffset(uint32,int256)": {
        "notice": "Changes the balance incentive curve equilibrium offset for a market"
      },
      "changeBalanceIncentiveExponent(uint32,uint256)": {
        "notice": "Changes the balance incentive exponent for a market"
      },
      "changeFloatPercentage(uint256)": {
        "notice": "Changes percentage of float that is minted for float capital."
      },
      "changeMarketLaunchIncentiveParameters(uint32,uint256,uint256)": {
        "notice": "Changes the market launch incentive parameters for a market"
      },
      "changeUnstakeFee(uint32,uint256)": {
        "notice": "Changes unstake fee for a market"
      },
      "claimFloatCustom(uint32[])": {
        "notice": "Mints outstanding float for msg.sender."
      },
      "claimFloatCustomFor(uint32[],address)": {
        "notice": "Mints outstanding float on behalf of another user."
      },
      "initialize(address,address,address,address,address,uint256)": {
        "notice": "Initializes the contract."
      },
      "pushUpdatedMarketPricesToUpdateFloatIssuanceCalculations(uint32,uint256,uint256,uint256,uint256,uint256)": {
        "notice": "Adds new accumulativeIssuancePerStakedSynthSnapshots for the given long/short tokens. Called by the ILongShort contract whenever there is a state change for a market."
      },
      "shiftTokens(uint256,uint32,bool)": {
        "notice": "Allows users to shift their staked tokens from one side of the market to  the other at the next price."
      },
      "stakeFromUser(address,uint256)": {
        "notice": "A user with synthetic tokens stakes by calling stake on the token contract which calls this function. We need to first update the state of the LongShort contract for this market before staking to correctly calculate user rewards."
      },
      "stakerTokenShiftIndex_to_accumulativeFloatIssuanceSnapshotIndex_mapping(uint256)": {
        "notice": "Used to link a token shift to a staker state"
      },
      "stakerTokenShiftIndex_to_longShortMarketPriceSnapshotIndex_mapping(uint256)": {
        "notice": "Used to fetch the price from LongShort at that point in time"
      },
      "withdraw(address,uint256)": {
        "notice": "Withdraw function. Allows users to unstake."
      },
      "withdrawAll(address)": {
        "notice": "Allows users to withdraw their entire stake for a token."
      }
    },
    "version": 1
  }
}