{
  "contractName": "YieldManagerAave",
  "abi": [
    {
      "inputs": [
        {
          "internalType": "address",
          "name": "_longShort",
          "type": "address"
        },
        {
          "internalType": "address",
          "name": "_treasury",
          "type": "address"
        },
        {
          "internalType": "address",
          "name": "_paymentToken",
          "type": "address"
        },
        {
          "internalType": "address",
          "name": "_aToken",
          "type": "address"
        },
        {
          "internalType": "address",
          "name": "_lendingPool",
          "type": "address"
        },
        {
          "internalType": "address",
          "name": "_aaveIncentivesController",
          "type": "address"
        },
        {
          "internalType": "uint16",
          "name": "_aaveReferralCode",
          "type": "uint16"
        }
      ],
      "stateMutability": "nonpayable",
      "type": "constructor"
    },
    {
      "anonymous": false,
      "inputs": [
        {
          "indexed": false,
          "internalType": "uint256",
          "name": "amount",
          "type": "uint256"
        }
      ],
      "name": "ClaimAaveRewardTokenToTreasury",
      "type": "event"
    },
    {
      "anonymous": false,
      "inputs": [],
      "name": "WithdrawTreasuryFunds",
      "type": "event"
    },
    {
      "anonymous": false,
      "inputs": [
        {
          "indexed": false,
          "internalType": "uint256",
          "name": "unrealizedYield",
          "type": "uint256"
        },
        {
          "indexed": false,
          "internalType": "uint256",
          "name": "treasuryYieldPercent_e18",
          "type": "uint256"
        }
      ],
      "name": "YieldDistributed",
      "type": "event"
    },
    {
      "inputs": [],
      "name": "aToken",
      "outputs": [
        {
          "internalType": "contract IERC20Upgradeable",
          "name": "",
          "type": "address"
        }
      ],
      "stateMutability": "view",
      "type": "function"
    },
    {
      "inputs": [],
      "name": "aaveIncentivesController",
      "outputs": [
        {
          "internalType": "contract IAaveIncentivesController",
          "name": "",
          "type": "address"
        }
      ],
      "stateMutability": "view",
      "type": "function"
    },
    {
      "inputs": [],
      "name": "amountReservedInCaseOfInsufficientAaveLiquidity",
      "outputs": [
        {
          "internalType": "uint256",
          "name": "",
          "type": "uint256"
        }
      ],
      "stateMutability": "view",
      "type": "function"
    },
    {
      "inputs": [],
      "name": "lendingPool",
      "outputs": [
        {
          "internalType": "contract ILendingPool",
          "name": "",
          "type": "address"
        }
      ],
      "stateMutability": "view",
      "type": "function"
    },
    {
      "inputs": [],
      "name": "longShort",
      "outputs": [
        {
          "internalType": "address",
          "name": "",
          "type": "address"
        }
      ],
      "stateMutability": "view",
      "type": "function"
    },
    {
      "inputs": [],
      "name": "paymentToken",
      "outputs": [
        {
          "internalType": "contract ERC20",
          "name": "",
          "type": "address"
        }
      ],
      "stateMutability": "view",
      "type": "function"
    },
    {
      "inputs": [],
      "name": "totalReservedForTreasury",
      "outputs": [
        {
          "internalType": "uint256",
          "name": "",
          "type": "uint256"
        }
      ],
      "stateMutability": "view",
      "type": "function"
    },
    {
      "inputs": [],
      "name": "treasury",
      "outputs": [
        {
          "internalType": "address",
          "name": "",
          "type": "address"
        }
      ],
      "stateMutability": "view",
      "type": "function"
    },
    {
      "inputs": [
        {
          "internalType": "uint256",
          "name": "amount",
          "type": "uint256"
        }
      ],
      "name": "depositPaymentToken",
      "outputs": [],
      "stateMutability": "nonpayable",
      "type": "function"
    },
    {
      "inputs": [
        {
          "internalType": "address",
          "name": "user",
          "type": "address"
        },
        {
          "internalType": "uint256",
          "name": "amount",
          "type": "uint256"
        }
      ],
      "name": "transferPaymentTokensToUser",
      "outputs": [],
      "stateMutability": "nonpayable",
      "type": "function"
    },
    {
      "inputs": [
        {
          "internalType": "uint256",
          "name": "amount",
          "type": "uint256"
        }
      ],
      "name": "removePaymentTokenFromMarket",
      "outputs": [],
      "stateMutability": "nonpayable",
      "type": "function"
    },
    {
      "inputs": [],
      "name": "claimAaveRewardsToTreasury",
      "outputs": [],
      "stateMutability": "nonpayable",
      "type": "function"
    },
    {
      "inputs": [
        {
          "internalType": "uint256",
          "name": "totalValueRealizedForMarket",
          "type": "uint256"
        },
        {
          "internalType": "uint256",
          "name": "treasuryYieldPercent_e18",
          "type": "uint256"
        }
      ],
      "name": "distributeYieldForTreasuryAndReturnMarketAllocation",
      "outputs": [
        {
          "internalType": "uint256",
          "name": "",
          "type": "uint256"
        }
      ],
      "stateMutability": "nonpayable",
      "type": "function"
    },
    {
      "inputs": [],
      "name": "withdrawTreasuryFunds",
      "outputs": [],
      "stateMutability": "nonpayable",
      "type": "function"
    }
  ],
  "bytecode": "0x60806040523480156200001157600080fd5b5060405162000d3538038062000d3583398101604081905262000034916200015a565b600080546001600160a01b03199081166001600160a01b038a811691909117909255600180548216898416179055600580546002805484168a86169081179091556003805485168a871617905560048054851689871690811782556001600160b01b0319909316600160a01b61ffff891602909516949094179487169490941790915560405163095ea7b360e01b815291820152600019602482015263095ea7b390604401602060405180830381600087803b158015620000f457600080fd5b505af115801562000109573d6000803e3d6000fd5b505050506040513d601f19601f820116820180604052508101906200012f9190620001f7565b505050505050505062000220565b80516001600160a01b03811681146200015557600080fd5b919050565b600080600080600080600060e0888a03121562000175578283fd5b62000180886200013d565b965062000190602089016200013d565b9550620001a0604089016200013d565b9450620001b0606089016200013d565b9350620001c0608089016200013d565b9250620001d060a089016200013d565b915060c088015161ffff81168114620001e7578182fd5b8091505092959891949750929550565b60006020828403121562000209578081fd5b8151801515811462000219578182fd5b9392505050565b610b0580620002306000396000f3fe608060405234801561001057600080fd5b50600436106100ea5760003560e01c80635f2475ca1161008c5780639063ee20116100665780639063ee20146101b0578063a0c1f15e146101c3578063a59a9973146101d6578063eb6bffa2146101e9576100ea565b80635f2475ca1461017757806361d027b31461018a5780638a5599b21461019d576100ea565b80632ae320cb116100c85780632ae320cb1461014b5780633013ce291461015457806334944bb014610167578063447479db1461016f576100ea565b80631c499b55146100ef5780632429e535146101045780632994987214610120575b600080fd5b6101026100fd36600461096f565b6101fc565b005b61010d60065481565b6040519081526020015b60405180910390f35b600054610133906001600160a01b031681565b6040516001600160a01b039091168152602001610117565b61010d60075481565b600254610133906001600160a01b031681565b6101026102dd565b61010261047d565b600554610133906001600160a01b031681565b600154610133906001600160a01b031681565b61010d6101ab36600461099f565b610547565b6101026101be36600461096f565b6106bc565b600354610133906001600160a01b031681565b600454610133906001600160a01b031681565b6101026101f7366004610912565b6107a5565b6000546001600160a01b0316331461022f5760405162461bcd60e51b815260040161022690610a24565b60405180910390fd5b60048054600254604051631a4ca37b60e21b81526001600160a01b03918216938101939093526024830184905230604484015216906369328dec90606401602060405180830381600087803b15801561028757600080fd5b505af19250505080156102b7575060408051601f3d908101601f191682019092526102b491810190610987565b60015b6102d85780600760008282546102cd9190610a4b565b909155506102da9050565b505b50565b600554604051630cc7d40f60e11b81523060048201526000916001600160a01b03169063198fa81e9060240160206040518083038186803b15801561032157600080fd5b505afa158015610335573d6000803e3d6000fd5b505050506040513d601f19601f820116820180604052508101906103599190610987565b6040805160018082528183019092529192506000919060208083019080368337505060025482519293506001600160a01b0316918391506000906103ad57634e487b7160e01b600052603260045260246000fd5b6001600160a01b039283166020918202929092010152600554600154604051633111e7b360e01b815291831692633111e7b3926103f392869288929116906004016109c0565b602060405180830381600087803b15801561040d57600080fd5b505af1158015610421573d6000803e3d6000fd5b505050506040513d601f19601f820116820180604052508101906104459190610987565b506040518281527fbdeb6031c2eac1ba6d1bd54a501b8942cf452ed6eb9f9a58512591a1faea22a49060200160405180910390a15050565b60068054600090915560048054600254600154604051631a4ca37b60e21b81526001600160a01b0392831694810194909452602484018590528116604484015216906369328dec90606401602060405180830381600087803b1580156104e257600080fd5b505af11580156104f6573d6000803e3d6000fd5b505050506040513d601f19601f8201168201806040525081019061051a9190610987565b506040517f5b1d5b57337c7653ccd178787bc6e5aa6f8a6ee09b781e7a624d776e69d044cb90600090a150565b600080546001600160a01b031633146105725760405162461bcd60e51b815260040161022690610a24565b6003546040516370a0823160e01b81523060048201526000916001600160a01b0316906370a082319060240160206040518083038186803b1580156105b657600080fd5b505afa1580156105ca573d6000803e3d6000fd5b505050506040513d601f19601f820116820180604052508101906105ee9190610987565b90506000600754600654866106039190610a4b565b61060d9190610a4b565b905081811415610622576000925050506106b6565b600061062e8284610aa2565b90506000670de0b6b3a76400006106458784610a83565b61064f9190610a63565b9050600061065d8284610aa2565b905081600660008282546106719190610a4b565b909155505060408051848152602081018990527ffe4996cd48c364c468cee70dd6b9061874ff01b05c5ea49311cbcabd9b9cb615910160405180910390a19450505050505b92915050565b6000546001600160a01b031633146106e65760405162461bcd60e51b815260040161022690610a24565b6007541561071f5780600754111561070a5780600760008282546102cd9190610aa2565b6007546107179082610aa2565b600060075590505b6004805460025460055460405163e8eda9df60e01b81526001600160a01b039283169481019490945260248401859052306044850152600160a01b900461ffff166064840152169063e8eda9df90608401600060405180830381600087803b15801561078a57600080fd5b505af115801561079e573d6000803e3d6000fd5b5050505050565b6000546001600160a01b031633146107cf5760405162461bcd60e51b815260040161022690610a24565b60025460405163a9059cbb60e01b81526001600160a01b038481166004830152602482018490529091169063a9059cbb90604401602060405180830381600087803b15801561081d57600080fd5b505af192505050801561084d575060408051601f3d908101601f1916820190925261084a91810190610948565b60015b61085657610864565b801561086257506102d8565b505b80600760008282546108769190610aa2565b909155505060048054600254604051631a4ca37b60e21b81526001600160a01b039182169381019390935260248301849052848116604484015216906369328dec90606401602060405180830381600087803b1580156108d557600080fd5b505af11580156108e9573d6000803e3d6000fd5b505050506040513d601f19601f8201168201806040525081019061090d9190610987565b505050565b60008060408385031215610924578182fd5b82356001600160a01b038116811461093a578283fd5b946020939093013593505050565b600060208284031215610959578081fd5b81518015158114610968578182fd5b9392505050565b600060208284031215610980578081fd5b5035919050565b600060208284031215610998578081fd5b5051919050565b600080604083850312156109b1578182fd5b50508035926020909101359150565b606080825284519082018190526000906020906080840190828801845b82811015610a025781516001600160a01b0316845292840192908401906001016109dd565b50505090830194909452506001600160a01b0391909116604090910152919050565b6020808252600d908201526c139bdd081b1bdb99d4da1bdc9d609a1b604082015260600190565b60008219821115610a5e57610a5e610ab9565b500190565b600082610a7e57634e487b7160e01b81526012600452602481fd5b500490565b6000816000190483118215151615610a9d57610a9d610ab9565b500290565b600082821015610ab457610ab4610ab9565b500390565b634e487b7160e01b600052601160045260246000fdfea2646970667358221220e5eaed15d2b6e663164eb4974a45e58a84dd0ade3c6b5c5f27ba60145e272c2e64736f6c63430008030033",
  "immutableReferences": {},
  "source": "// SPDX-License-Identifier: BUSL-1.1\n\npragma solidity 0.8.3;\n\nimport \"@openzeppelin/contracts/token/ERC20/ERC20.sol\";\nimport \"@openzeppelin/contracts-upgradeable/token/ERC20/IERC20Upgradeable.sol\";\n\nimport \"./interfaces/IYieldManager.sol\";\nimport \"./interfaces/aave/ILendingPool.sol\";\nimport \"./interfaces/aave/IAaveIncentivesController.sol\";\n\n/** @title YieldManagerAave\n  @notice contract is used to manage the yield generated by the underlying tokens. \n  YieldManagerAave is an implementation of a yield manager that earns APY from the Aave protocol. \n  Each fund's payment token (such as DAI) has a corresponding aToken (such as aDAI) that \n  continuously accrues interest based on a lend/borrow liquidity ratio.\n  @dev https://docs.aave.com/portal/\n  */\ncontract YieldManagerAave is IYieldManager {\n  /*\n              VARIABLES          \n    */\n\n  /// @notice address of longShort contract\n  address public longShort;\n  /// @notice address of treasury contract - this is the address that can claim aave incentives rewards\n  address public treasury;\n\n  /// @notice The payment token the yield manager supports\n  /// @dev DAI token\n  ERC20 public paymentToken;\n  /// @notice The token representing the interest accruing payment token position from Aave\n  /// @dev ADAI token\n  IERC20Upgradeable public aToken;\n  /// @notice The specific Aave lending pool contract\n  ILendingPool public lendingPool;\n  /// @notice The specific Aave incentives controller contract\n  IAaveIncentivesController public aaveIncentivesController;\n\n  /// @dev An aave specific referralCode that has been a depricated feature. This will be set to 0 for \"no referral\" at deployment\n  uint16 referralCode;\n\n  /// @notice distributed yield not yet transferred to the treasury\n  uint256 public override totalReservedForTreasury;\n\n  /// @dev This value will likely remain zero forever. It exists to handle the rare edge case that Aave doesn't have enough liquidity for a withdrawal.\n  ///      In this case this variable would keep track of that so that the withdrawal can happen after the fact when liquidity becomes available.\n  uint256 public amountReservedInCaseOfInsufficientAaveLiquidity;\n\n  /*\n               EVENTS            \n    */\n\n  event ClaimAaveRewardTokenToTreasury(uint256 amount);\n\n  /*\n              MODIFIERS          \n    */\n\n  /// @dev only allow longShort contract to execute modified functions\n  modifier longShortOnly() {\n    require(msg.sender == longShort, \"Not longShort\");\n    _;\n  }\n\n  /*\n           CONTRACT SET-UP       \n    */\n\n  /** \n    @notice Constructor for initializing the aave yield manager with a given payment token and corresponding Aave contracts\n    @param _longShort address of the longShort contract\n    @param _treasury address of the treasury contract\n    @param _paymentToken address of the payment token\n    @param _aToken address of the interest accruing token linked to the payment token\n    @param _lendingPool address of the aave lending pool contract\n    @param _aaveReferralCode unique code for aave referrals\n    @dev referral code will be set to 0, depricated Aave feature\n  */\n  constructor(\n    address _longShort,\n    address _treasury,\n    address _paymentToken,\n    address _aToken,\n    address _lendingPool,\n    address _aaveIncentivesController,\n    uint16 _aaveReferralCode\n  ) {\n    longShort = _longShort;\n    treasury = _treasury;\n\n    referralCode = _aaveReferralCode;\n\n    paymentToken = ERC20(_paymentToken);\n    aToken = IERC20Upgradeable(_aToken);\n    lendingPool = ILendingPool(_lendingPool);\n    aaveIncentivesController = IAaveIncentivesController(_aaveIncentivesController);\n\n    // Approve tokens for aave lending pool maximally.\n    paymentToken.approve(address(lendingPool), type(uint256).max);\n  }\n\n  /*\n         IMPLEMENTATION     \n    */\n\n  /** \n   @notice Allows the LongShort contract to deposit tokens into the aave pool\n   @param amount Amount of payment token to deposit\n  */\n  function depositPaymentToken(uint256 amount) external override longShortOnly {\n    // If amountReservedInCaseOfInsufficientAaveLiquidity isn't zero, then efficiently net the difference between the amount\n    //    It basically always be zero besides extreme and unlikely situations with aave.\n    if (amountReservedInCaseOfInsufficientAaveLiquidity != 0) {\n      if (amountReservedInCaseOfInsufficientAaveLiquidity > amount) {\n        amountReservedInCaseOfInsufficientAaveLiquidity -= amount;\n        // Return early, nothing to deposit into the lending pool\n        return;\n      } else {\n        amount -= amountReservedInCaseOfInsufficientAaveLiquidity;\n        amountReservedInCaseOfInsufficientAaveLiquidity = 0;\n      }\n    }\n\n    lendingPool.deposit(address(paymentToken), amount, address(this), referralCode);\n  }\n\n  /// @notice Allows the LongShort pay out a user from tokens already withdrawn from Aave\n  /// @param user User to recieve the payout\n  /// @param amount Amount of payment token to pay to user\n  function transferPaymentTokensToUser(address user, uint256 amount)\n    external\n    override\n    longShortOnly\n  {\n    try paymentToken.transfer(user, amount) returns (bool transferSuccess) {\n      if (transferSuccess) {\n        // If the transfer is successful return early, otherwise try pay the user out with the amountReservedInCaseOfInsufficientAaveLiquidity\n        return;\n      }\n    } catch {}\n\n    amountReservedInCaseOfInsufficientAaveLiquidity -= amount;\n\n    // If this reverts (ie aave unable to make payout), then the whole transaction will revent. User will have to wait until sufficient liquidity available.\n    lendingPool.withdraw(address(paymentToken), amount, user);\n  }\n\n  /// @notice Allows the LongShort contract to redeem aTokens for the payment token\n  /// @param amount Amount of payment token to withdraw\n  /// @dev This will update the amountReservedInCaseOfInsufficientAaveLiquidity if not enough liquidity is avaiable on aave.\n  ///      This means that our system can continue to operate even if there is insufficient liquidity in Aave for any reason.\n  function removePaymentTokenFromMarket(uint256 amount) external override longShortOnly {\n    try lendingPool.withdraw(address(paymentToken), amount, address(this)) {} catch {\n      // In theory we should only catch `VL_CURRENT_AVAILABLE_LIQUIDITY_NOT_ENOUGH` errors.\n      // Safe to revert on all errors, if aave completely blocks withdrawals the amountReservedInCaseOfInsufficientAaveLiquidity can grow until it is fixed without problems.\n      amountReservedInCaseOfInsufficientAaveLiquidity += amount;\n    }\n  }\n\n  /**  \n    @notice Allows for withdrawal of aave rewards to the treasury contract    \n    @dev This is specifically implemented to allow withdrawal of aave reward wMatic tokens accrued    \n  */\n  function claimAaveRewardsToTreasury() external {\n    uint256 amount = IAaveIncentivesController(aaveIncentivesController).getUserUnclaimedRewards(\n      address(this)\n    );\n\n    address[] memory rewardsDepositedAssets = new address[](1);\n    rewardsDepositedAssets[0] = address(paymentToken);\n\n    IAaveIncentivesController(aaveIncentivesController).claimRewards(\n      rewardsDepositedAssets,\n      amount,\n      treasury\n    );\n\n    emit ClaimAaveRewardTokenToTreasury(amount);\n  }\n\n  /**    \n    @notice Calculates and updates the yield allocation to the treasury and the market\n    @dev treasuryPercent = 1 - marketPercent\n    @param totalValueRealizedForMarket total value of long and short side of the market\n    @param treasuryYieldPercent_e18 Percentage of yield in base 1e18 that is allocated to the treasury\n    @return The market allocation of the yield\n  */\n  function distributeYieldForTreasuryAndReturnMarketAllocation(\n    uint256 totalValueRealizedForMarket,\n    uint256 treasuryYieldPercent_e18\n  ) external override longShortOnly returns (uint256) {\n    uint256 totalHeld = aToken.balanceOf(address(this));\n\n    uint256 totalRealized = totalValueRealizedForMarket +\n      totalReservedForTreasury +\n      amountReservedInCaseOfInsufficientAaveLiquidity;\n\n    if (totalRealized == totalHeld) {\n      return 0;\n    }\n\n    // will revert in case totalRealized > totalHeld which should be never.\n    uint256 unrealizedYield = totalHeld - totalRealized;\n\n    uint256 amountForTreasury = (unrealizedYield * treasuryYieldPercent_e18) / 1e18;\n    uint256 amountForMarketIncentives = unrealizedYield - amountForTreasury;\n\n    totalReservedForTreasury += amountForTreasury;\n\n    emit YieldDistributed(unrealizedYield, treasuryYieldPercent_e18);\n\n    return amountForMarketIncentives;\n  }\n\n  /// @notice Withdraw treasury allocated accrued yield from the lending pool to the treasury contract\n  function withdrawTreasuryFunds() external override {\n    uint256 amountToWithdrawForTreasury = totalReservedForTreasury;\n    totalReservedForTreasury = 0;\n\n    // Redeem aToken for payment tokens.\n    lendingPool.withdraw(address(paymentToken), amountToWithdrawForTreasury, treasury);\n\n    emit WithdrawTreasuryFunds();\n  }\n}\n",
  "sourcePath": "/home/jasoons/Documents/code/monorepo/contracts/contracts/YieldManagerAave.sol",
  "compiler": {
    "name": "solc",
    "version": "0.8.3+commit.8d00100c.Emscripten.clang"
  },
  "schemaVersion": "3.3.4",
  "updatedAt": "2021-08-04T10:05:24.588Z",
  "networkType": "ethereum",
  "devdoc": {
    "details": "https://docs.aave.com/portal/",
    "kind": "dev",
    "methods": {
      "claimAaveRewardsToTreasury()": {
        "details": "This is specifically implemented to allow withdrawal of aave reward wMatic tokens accrued    "
      },
      "constructor": {
        "details": "referral code will be set to 0, depricated Aave feature",
        "params": {
          "_aToken": "address of the interest accruing token linked to the payment token",
          "_aaveReferralCode": "unique code for aave referrals",
          "_lendingPool": "address of the aave lending pool contract",
          "_longShort": "address of the longShort contract",
          "_paymentToken": "address of the payment token",
          "_treasury": "address of the treasury contract"
        }
      },
      "depositPaymentToken(uint256)": {
        "params": {
          "amount": "Amount of payment token to deposit"
        }
      },
      "distributeYieldForTreasuryAndReturnMarketAllocation(uint256,uint256)": {
        "details": "treasuryPercent = 1 - marketPercent",
        "params": {
          "totalValueRealizedForMarket": "total value of long and short side of the market",
          "treasuryYieldPercent_e18": "Percentage of yield in base 1e18 that is allocated to the treasury"
        },
        "returns": {
          "_0": "The market allocation of the yield"
        }
      },
      "removePaymentTokenFromMarket(uint256)": {
        "details": "This will update the amountReservedInCaseOfInsufficientAaveLiquidity if not enough liquidity is avaiable on aave.      This means that our system can continue to operate even if there is insufficient liquidity in Aave for any reason.",
        "params": {
          "amount": "Amount of payment token to withdraw"
        }
      },
      "transferPaymentTokensToUser(address,uint256)": {
        "params": {
          "amount": "Amount of payment token to pay to user",
          "user": "User to recieve the payout"
        }
      }
    },
    "stateVariables": {
      "aToken": {
        "details": "ADAI token"
      },
      "amountReservedInCaseOfInsufficientAaveLiquidity": {
        "details": "This value will likely remain zero forever. It exists to handle the rare edge case that Aave doesn't have enough liquidity for a withdrawal.      In this case this variable would keep track of that so that the withdrawal can happen after the fact when liquidity becomes available."
      },
      "paymentToken": {
        "details": "DAI token"
      },
      "referralCode": {
        "details": "An aave specific referralCode that has been a depricated feature. This will be set to 0 for \"no referral\" at deployment"
      }
    },
    "title": "YieldManagerAave",
    "version": 1
  },
  "userdoc": {
    "kind": "user",
    "methods": {
      "aToken()": {
        "notice": "The token representing the interest accruing payment token position from Aave"
      },
      "aaveIncentivesController()": {
        "notice": "The specific Aave incentives controller contract"
      },
      "claimAaveRewardsToTreasury()": {
        "notice": "Allows for withdrawal of aave rewards to the treasury contract    "
      },
      "constructor": {
        "notice": "Constructor for initializing the aave yield manager with a given payment token and corresponding Aave contracts"
      },
      "depositPaymentToken(uint256)": {
        "notice": "Allows the LongShort contract to deposit tokens into the aave pool"
      },
      "distributeYieldForTreasuryAndReturnMarketAllocation(uint256,uint256)": {
        "notice": "Calculates and updates the yield allocation to the treasury and the market"
      },
      "lendingPool()": {
        "notice": "The specific Aave lending pool contract"
      },
      "longShort()": {
        "notice": "address of longShort contract"
      },
      "paymentToken()": {
        "notice": "The payment token the yield manager supports"
      },
      "removePaymentTokenFromMarket(uint256)": {
        "notice": "Allows the LongShort contract to redeem aTokens for the payment token"
      },
      "totalReservedForTreasury()": {
        "notice": "distributed yield not yet transferred to the treasury"
      },
      "transferPaymentTokensToUser(address,uint256)": {
        "notice": "Allows the LongShort pay out a user from tokens already withdrawn from Aave"
      },
      "treasury()": {
        "notice": "address of treasury contract - this is the address that can claim aave incentives rewards"
      },
      "withdrawTreasuryFunds()": {
        "notice": "Withdraw treasury allocated accrued yield from the lending pool to the treasury contract"
      }
    },
    "notice": "contract is used to manage the yield generated by the underlying tokens.  YieldManagerAave is an implementation of a yield manager that earns APY from the Aave protocol.  Each fund's payment token (such as DAI) has a corresponding aToken (such as aDAI) that  continuously accrues interest based on a lend/borrow liquidity ratio.",
    "version": 1
  }
}