{
  "_format": "hh-sol-artifact-1",
  "contractName": "MockERC20",
  "sourceName": "contracts/mocks/MockERC20.sol",
  "abi": [
    {
      "inputs": [
        {
          "internalType": "string",
          "name": "_name",
          "type": "string"
        },
        {
          "internalType": "string",
          "name": "_symbol",
          "type": "string"
        },
        {
          "internalType": "uint8",
          "name": "_decimals",
          "type": "uint8"
        },
        {
          "internalType": "address",
          "name": "_minter",
          "type": "address"
        }
      ],
      "stateMutability": "nonpayable",
      "type": "constructor"
    },
    {
      "inputs": [
        {
          "internalType": "address",
          "name": "",
          "type": "address"
        },
        {
          "internalType": "address",
          "name": "",
          "type": "address"
        }
      ],
      "name": "_allowance",
      "outputs": [
        {
          "internalType": "uint256",
          "name": "",
          "type": "uint256"
        }
      ],
      "stateMutability": "view",
      "type": "function"
    },
    {
      "inputs": [
        {
          "internalType": "address",
          "name": "",
          "type": "address"
        }
      ],
      "name": "_balances",
      "outputs": [
        {
          "internalType": "uint256",
          "name": "",
          "type": "uint256"
        }
      ],
      "stateMutability": "view",
      "type": "function"
    },
    {
      "inputs": [
        {
          "internalType": "address",
          "name": "owner",
          "type": "address"
        },
        {
          "internalType": "address",
          "name": "spender",
          "type": "address"
        }
      ],
      "name": "allowance",
      "outputs": [
        {
          "internalType": "uint256",
          "name": "",
          "type": "uint256"
        }
      ],
      "stateMutability": "view",
      "type": "function"
    },
    {
      "inputs": [
        {
          "internalType": "address",
          "name": "user",
          "type": "address"
        },
        {
          "internalType": "uint256",
          "name": "amount",
          "type": "uint256"
        }
      ],
      "name": "approve",
      "outputs": [
        {
          "internalType": "bool",
          "name": "",
          "type": "bool"
        }
      ],
      "stateMutability": "nonpayable",
      "type": "function"
    },
    {
      "inputs": [
        {
          "internalType": "address",
          "name": "user",
          "type": "address"
        }
      ],
      "name": "balanceOf",
      "outputs": [
        {
          "internalType": "uint256",
          "name": "",
          "type": "uint256"
        }
      ],
      "stateMutability": "view",
      "type": "function"
    },
    {
      "inputs": [
        {
          "internalType": "address",
          "name": "user",
          "type": "address"
        },
        {
          "internalType": "uint256",
          "name": "amount",
          "type": "uint256"
        }
      ],
      "name": "burnFrom",
      "outputs": [],
      "stateMutability": "nonpayable",
      "type": "function"
    },
    {
      "inputs": [
        {
          "internalType": "address",
          "name": "user",
          "type": "address"
        },
        {
          "internalType": "uint256",
          "name": "amount",
          "type": "uint256"
        }
      ],
      "name": "mint",
      "outputs": [
        {
          "internalType": "bool",
          "name": "",
          "type": "bool"
        }
      ],
      "stateMutability": "nonpayable",
      "type": "function"
    },
    {
      "inputs": [],
      "name": "steward",
      "outputs": [
        {
          "internalType": "address",
          "name": "",
          "type": "address"
        }
      ],
      "stateMutability": "view",
      "type": "function"
    },
    {
      "inputs": [
        {
          "internalType": "address",
          "name": "to",
          "type": "address"
        },
        {
          "internalType": "uint256",
          "name": "amount",
          "type": "uint256"
        }
      ],
      "name": "transfer",
      "outputs": [
        {
          "internalType": "bool",
          "name": "",
          "type": "bool"
        }
      ],
      "stateMutability": "nonpayable",
      "type": "function"
    },
    {
      "inputs": [
        {
          "internalType": "address",
          "name": "sender",
          "type": "address"
        },
        {
          "internalType": "address",
          "name": "to",
          "type": "address"
        },
        {
          "internalType": "uint256",
          "name": "amount",
          "type": "uint256"
        }
      ],
      "name": "transferFrom",
      "outputs": [
        {
          "internalType": "bool",
          "name": "",
          "type": "bool"
        }
      ],
      "stateMutability": "nonpayable",
      "type": "function"
    }
  ],
  "bytecode": "0x608060405234801561001057600080fd5b506040516107d33803806107d383398101604081905261002f916101cb565b835161004290600390602087019061008a565b50825161005690600490602086019061008a565b50600580546001600160a01b03909216610100026001600160a81b031990921660ff90931692909217179055506102b29050565b82805461009690610261565b90600052602060002090601f0160209004810192826100b857600085556100fe565b82601f106100d157805160ff19168380011785556100fe565b828001600101855582156100fe579182015b828111156100fe5782518255916020019190600101906100e3565b5061010a92915061010e565b5090565b5b8082111561010a576000815560010161010f565b600082601f830112610133578081fd5b81516001600160401b038082111561014d5761014d61029c565b604051601f8301601f19908116603f011681019082821181831017156101755761017561029c565b81604052838152602092508683858801011115610190578485fd5b8491505b838210156101b15785820183015181830184015290820190610194565b838211156101c157848385830101525b9695505050505050565b600080600080608085870312156101e0578384fd5b84516001600160401b03808211156101f6578586fd5b61020288838901610123565b95506020870151915080821115610217578485fd5b5061022487828801610123565b935050604085015160ff8116811461023a578283fd5b60608601519092506001600160a01b0381168114610256578182fd5b939692955090935050565b600181811c9082168061027557607f821691505b6020821081141561029657634e487b7160e01b600052602260045260246000fd5b50919050565b634e487b7160e01b600052604160045260246000fd5b610512806102c16000396000f3fe608060405234801561001057600080fd5b506004361061009e5760003560e01c806370a082311161006657806370a082311461017257806379cc679014610185578063a9059cbb1461019a578063dd336c12146101ad578063dd62ed3e146101d85761009e565b8063095ea7b3146100a357806323b872dd146100f357806340c10f1914610106578063637eea19146101195780636ebcf60714610144575b600080fd5b6100de6100b136600461046e565b3360009081526002602090815260408083206001600160a01b039590951683529390529190912055600190565b60405190151581526020015b60405180910390f35b6100de610101366004610433565b610211565b6100de61011436600461046e565b6102d3565b60005461012c906001600160a01b031681565b6040516001600160a01b0390911681526020016100ea565b6101646101523660046103e0565b60016020526000908152604090205481565b6040519081526020016100ea565b6101646101803660046103e0565b61031e565b61019861019336600461046e565b61033d565b005b6100de6101a836600461046e565b610381565b6101646101bb366004610401565b600260209081526000928352604080842090915290825290205481565b6101646101e6366004610401565b6001600160a01b03918216600090815260026020908152604080832093909416825291909152205490565b6001600160a01b0383166000908152600160205260408120546102359083906104af565b6001600160a01b038086166000908152600160205260408082209390935590851681522054610265908390610497565b6001600160a01b03808516600081815260016020908152604080832095909555928816815260028352838120918152915220546102a39083906104af565b6001600160a01b038086166000908152600260209081526040808320938816835292905220555060019392505050565b6001600160a01b0382166000908152600160205260408120546102f7908390610497565b6001600160a01b038416600090815260016020819052604090912091909155905092915050565b6001600160a01b0381166000908152600160205260409020545b919050565b6001600160a01b0382166000908152600160205260409020546103619082906104af565b6001600160a01b0390921660009081526001602052604090209190915550565b3360009081526001602052604081205461039c9083906104af565b33600090815260016020526040808220929092556001600160a01b038516815220546102f7908390610497565b80356001600160a01b038116811461033857600080fd5b6000602082840312156103f1578081fd5b6103fa826103c9565b9392505050565b60008060408385031215610413578081fd5b61041c836103c9565b915061042a602084016103c9565b90509250929050565b600080600060608486031215610447578081fd5b610450846103c9565b925061045e602085016103c9565b9150604084013590509250925092565b60008060408385031215610480578182fd5b610489836103c9565b946020939093013593505050565b600082198211156104aa576104aa6104c6565b500190565b6000828210156104c1576104c16104c6565b500390565b634e487b7160e01b600052601160045260246000fdfea264697066735822122089e8ab175a821caccc95d00f817adc62bdeb452161dd4beae99dccc4378753e564736f6c63430008030033",
  "linkReferences": {},
  "deployedLinkReferences": {}
}