{
  "_format": "hh-sol-artifact-1",
  "contractName": "LongShortForInternalMocking",
  "sourceName": "contracts/testing/generated/LongShortForInternalMocking.sol",
  "abi": [
    {
      "inputs": [
        {
          "internalType": "uint32",
          "name": "",
          "type": "uint32"
        },
        {
          "internalType": "uint256",
          "name": "",
          "type": "uint256"
        },
        {
          "internalType": "uint256",
          "name": "",
          "type": "uint256"
        }
      ],
      "name": "_batchConfirmOutstandingPendingActionsMock",
      "outputs": [
        {
          "internalType": "int256",
          "name": "long_changeInMarketValue_inPaymentToken",
          "type": "int256"
        },
        {
          "internalType": "int256",
          "name": "short_changeInMarketValue_inPaymentToken",
          "type": "int256"
        }
      ],
      "stateMutability": "pure",
      "type": "function"
    },
    {
      "inputs": [
        {
          "internalType": "uint32",
          "name": "",
          "type": "uint32"
        },
        {
          "internalType": "int256",
          "name": "",
          "type": "int256"
        },
        {
          "internalType": "int256",
          "name": "",
          "type": "int256"
        }
      ],
      "name": "_claimAndDistributeYieldThenRebalanceMarketMock",
      "outputs": [
        {
          "internalType": "uint256",
          "name": "longValue",
          "type": "uint256"
        },
        {
          "internalType": "uint256",
          "name": "shortValue",
          "type": "uint256"
        }
      ],
      "stateMutability": "pure",
      "type": "function"
    },
    {
      "inputs": [
        {
          "internalType": "uint32",
          "name": "",
          "type": "uint32"
        },
        {
          "internalType": "address",
          "name": "",
          "type": "address"
        },
        {
          "internalType": "bool",
          "name": "",
          "type": "bool"
        }
      ],
      "name": "_executeOutstandingNextPriceMintsMock",
      "outputs": [],
      "stateMutability": "pure",
      "type": "function"
    },
    {
      "inputs": [
        {
          "internalType": "uint32",
          "name": "",
          "type": "uint32"
        },
        {
          "internalType": "address",
          "name": "",
          "type": "address"
        },
        {
          "internalType": "bool",
          "name": "",
          "type": "bool"
        }
      ],
      "name": "_executeOutstandingNextPriceRedeemsMock",
      "outputs": [],
      "stateMutability": "pure",
      "type": "function"
    },
    {
      "inputs": [
        {
          "internalType": "address",
          "name": "",
          "type": "address"
        },
        {
          "internalType": "uint32",
          "name": "",
          "type": "uint32"
        }
      ],
      "name": "_executeOutstandingNextPriceSettlementsMock",
      "outputs": [],
      "stateMutability": "pure",
      "type": "function"
    },
    {
      "inputs": [
        {
          "internalType": "uint32",
          "name": "",
          "type": "uint32"
        },
        {
          "internalType": "address",
          "name": "",
          "type": "address"
        },
        {
          "internalType": "bool",
          "name": "",
          "type": "bool"
        }
      ],
      "name": "_executeOutstandingNextPriceTokenShiftsMock",
      "outputs": [],
      "stateMutability": "pure",
      "type": "function"
    },
    {
      "inputs": [
        {
          "internalType": "uint256",
          "name": "",
          "type": "uint256"
        },
        {
          "internalType": "uint256",
          "name": "",
          "type": "uint256"
        }
      ],
      "name": "_getAmountPaymentTokenMock",
      "outputs": [
        {
          "internalType": "uint256",
          "name": "amountPaymentToken",
          "type": "uint256"
        }
      ],
      "stateMutability": "pure",
      "type": "function"
    },
    {
      "inputs": [
        {
          "internalType": "uint256",
          "name": "",
          "type": "uint256"
        },
        {
          "internalType": "uint256",
          "name": "",
          "type": "uint256"
        }
      ],
      "name": "_getAmountSyntheticTokenMock",
      "outputs": [
        {
          "internalType": "uint256",
          "name": "amountSyntheticToken",
          "type": "uint256"
        }
      ],
      "stateMutability": "pure",
      "type": "function"
    },
    {
      "inputs": [
        {
          "internalType": "uint256",
          "name": "",
          "type": "uint256"
        },
        {
          "internalType": "uint256",
          "name": "",
          "type": "uint256"
        },
        {
          "internalType": "uint256",
          "name": "",
          "type": "uint256"
        }
      ],
      "name": "_getEquivalentAmountSyntheticTokensOnTargetSideMock",
      "outputs": [
        {
          "internalType": "uint256",
          "name": "equivalentAmountSyntheticTokensOnTargetSide",
          "type": "uint256"
        }
      ],
      "stateMutability": "pure",
      "type": "function"
    },
    {
      "inputs": [
        {
          "internalType": "uint256",
          "name": "",
          "type": "uint256"
        },
        {
          "internalType": "uint256",
          "name": "",
          "type": "uint256"
        }
      ],
      "name": "_getMinMock",
      "outputs": [
        {
          "internalType": "uint256",
          "name": "",
          "type": "uint256"
        }
      ],
      "stateMutability": "pure",
      "type": "function"
    },
    {
      "inputs": [
        {
          "internalType": "uint256",
          "name": "",
          "type": "uint256"
        },
        {
          "internalType": "uint256",
          "name": "",
          "type": "uint256"
        }
      ],
      "name": "_getSyntheticTokenPriceMock",
      "outputs": [
        {
          "internalType": "uint256",
          "name": "syntheticTokenPrice",
          "type": "uint256"
        }
      ],
      "stateMutability": "pure",
      "type": "function"
    },
    {
      "inputs": [
        {
          "internalType": "uint32",
          "name": "",
          "type": "uint32"
        },
        {
          "internalType": "uint256",
          "name": "",
          "type": "uint256"
        },
        {
          "internalType": "uint256",
          "name": "",
          "type": "uint256"
        },
        {
          "internalType": "uint256",
          "name": "",
          "type": "uint256"
        }
      ],
      "name": "_getYieldSplitMock",
      "outputs": [
        {
          "internalType": "bool",
          "name": "isLongSideUnderbalanced",
          "type": "bool"
        },
        {
          "internalType": "uint256",
          "name": "treasuryYieldPercent_e18",
          "type": "uint256"
        }
      ],
      "stateMutability": "pure",
      "type": "function"
    },
    {
      "inputs": [
        {
          "internalType": "uint32",
          "name": "",
          "type": "uint32"
        },
        {
          "internalType": "bool",
          "name": "",
          "type": "bool"
        },
        {
          "internalType": "int256",
          "name": "",
          "type": "int256"
        }
      ],
      "name": "_handleChangeInSyntheticTokensTotalSupplyMock",
      "outputs": [],
      "stateMutability": "pure",
      "type": "function"
    },
    {
      "inputs": [
        {
          "internalType": "uint32",
          "name": "",
          "type": "uint32"
        },
        {
          "internalType": "int256",
          "name": "",
          "type": "int256"
        }
      ],
      "name": "_handleTotalPaymentTokenValueChangeForMarketWithYieldManagerMock",
      "outputs": [],
      "stateMutability": "pure",
      "type": "function"
    },
    {
      "inputs": [
        {
          "internalType": "uint32",
          "name": "",
          "type": "uint32"
        },
        {
          "internalType": "uint256",
          "name": "",
          "type": "uint256"
        },
        {
          "internalType": "bool",
          "name": "",
          "type": "bool"
        }
      ],
      "name": "_mintNextPriceMock",
      "outputs": [],
      "stateMutability": "pure",
      "type": "function"
    },
    {
      "inputs": [
        {
          "internalType": "uint32",
          "name": "",
          "type": "uint32"
        },
        {
          "internalType": "uint256",
          "name": "",
          "type": "uint256"
        },
        {
          "internalType": "bool",
          "name": "",
          "type": "bool"
        }
      ],
      "name": "_redeemNextPriceMock",
      "outputs": [],
      "stateMutability": "pure",
      "type": "function"
    },
    {
      "inputs": [
        {
          "internalType": "uint256",
          "name": "",
          "type": "uint256"
        },
        {
          "internalType": "uint32",
          "name": "",
          "type": "uint32"
        }
      ],
      "name": "_seedMarketInitiallyMock",
      "outputs": [],
      "stateMutability": "pure",
      "type": "function"
    },
    {
      "inputs": [
        {
          "internalType": "uint32",
          "name": "",
          "type": "uint32"
        },
        {
          "internalType": "uint256",
          "name": "",
          "type": "uint256"
        },
        {
          "internalType": "bool",
          "name": "",
          "type": "bool"
        }
      ],
      "name": "_shiftPositionNextPriceMock",
      "outputs": [],
      "stateMutability": "pure",
      "type": "function"
    },
    {
      "inputs": [
        {
          "internalType": "uint32",
          "name": "",
          "type": "uint32"
        },
        {
          "internalType": "uint256",
          "name": "",
          "type": "uint256"
        }
      ],
      "name": "_transferPaymentTokensFromUserToYieldManagerMock",
      "outputs": [],
      "stateMutability": "pure",
      "type": "function"
    },
    {
      "inputs": [
        {
          "internalType": "uint32",
          "name": "",
          "type": "uint32"
        }
      ],
      "name": "_updateSystemStateInternalMock",
      "outputs": [],
      "stateMutability": "pure",
      "type": "function"
    },
    {
      "inputs": [],
      "name": "adminOnlyModifierLogicMock",
      "outputs": [],
      "stateMutability": "pure",
      "type": "function"
    },
    {
      "inputs": [
        {
          "internalType": "uint32",
          "name": "",
          "type": "uint32"
        },
        {
          "internalType": "uint256",
          "name": "",
          "type": "uint256"
        },
        {
          "internalType": "bool",
          "name": "",
          "type": "bool"
        },
        {
          "internalType": "uint256",
          "name": "",
          "type": "uint256"
        }
      ],
      "name": "getAmountSyntheticTokenToMintOnTargetSideMock",
      "outputs": [
        {
          "internalType": "uint256",
          "name": "amountSyntheticTokensToMintOnTargetSide",
          "type": "uint256"
        }
      ],
      "stateMutability": "pure",
      "type": "function"
    },
    {
      "inputs": [
        {
          "internalType": "address",
          "name": "",
          "type": "address"
        },
        {
          "internalType": "uint32",
          "name": "",
          "type": "uint32"
        },
        {
          "internalType": "bool",
          "name": "",
          "type": "bool"
        }
      ],
      "name": "getUsersConfirmedButNotSettledSynthBalanceMock",
      "outputs": [
        {
          "internalType": "uint256",
          "name": "confirmedButNotSettledBalance",
          "type": "uint256"
        }
      ],
      "stateMutability": "pure",
      "type": "function"
    },
    {
      "inputs": [
        {
          "internalType": "address",
          "name": "",
          "type": "address"
        },
        {
          "internalType": "address",
          "name": "",
          "type": "address"
        },
        {
          "internalType": "address",
          "name": "",
          "type": "address"
        },
        {
          "internalType": "address",
          "name": "",
          "type": "address"
        }
      ],
      "name": "initializeMock",
      "outputs": [],
      "stateMutability": "pure",
      "type": "function"
    },
    {
      "inputs": [
        {
          "internalType": "uint32",
          "name": "",
          "type": "uint32"
        }
      ],
      "name": "requireMarketExistsModifierLogicMock",
      "outputs": [],
      "stateMutability": "pure",
      "type": "function"
    }
  ],
  "bytecode": "0x608060405234801561001057600080fd5b50610716806100206000396000f3fe608060405234801561001057600080fd5b50600436106101725760003560e01c80636c0a51b7116100de578063a1a42aed11610097578063d04b88f511610071578063d04b88f51461022a578063d822b44f14610290578063e004571c14610238578063e206ea681461024957610172565b8063a1a42aed1461029e578063a2434ca414610204578063b58b0a78146101a657610172565b80636c0a51b7146102695780637588635a1461027d57806387f4dda81461022a5780638fc3d64b146102495780639b5a65f7146102905780639de789a11461020457610172565b806353f8d3551161013057806353f8d355146102255780635b2a1c47146102045780636208973d1461022a578063635e98861461023857806363e2070514610249578063645b60231461025757610172565b806278e592146101775780630eaa05b7146101a6578063106065eb146101ce5780631f0ae56e146101ef578063374cff4e14610204578063509bf54f14610217575b600080fd5b61018a61018536600461069a565b6102ac565b6040805192151583526020830191909152015b60405180910390f35b6101b96101b43660046105ef565b6102f2565b6040805192835260208301919091520161019d565b6101e16101dc36600461045b565b610337565b60405190815260200161019d565b6102026101fd366004610588565b505050565b005b6101e16102123660046104d5565b61035c565b6101e16101dc3660046104f6565b610202565b6102026101fd366004610621565b610202610246366004610543565b50565b6102026101fd36600461055d565b610202610265366004610429565b5050565b6102026102773660046103d6565b50505050565b6101e161028b366004610655565b610380565b6102026102653660046105c6565b610202610265366004610521565b6040805160208101918290526000908190529081906102cb90806104a1565b604080516020810191829052600090526102e590806104bd565b9150915094509492505050565b60408051602081019182905260009081905290819061031190806104bd565b6040805160208101918290526000905261032b90806104bd565b91509150935093915050565b6040805160208101918290526000908190529061035490806104bd565b949350505050565b6040805160208101918290526000908190529061037990806104bd565b9392505050565b6040805160208101918290526000908190529061039d90806104bd565b95945050505050565b80356001600160a01b03811681146103bd57600080fd5b919050565b803563ffffffff811681146103bd57600080fd5b600080600080608085870312156103eb578384fd5b6103f4856103a6565b9350610402602086016103a6565b9250610410604086016103a6565b915061041e606086016103a6565b905092959194509250565b6000806040838503121561043b578182fd5b610444836103a6565b9150610452602084016103c2565b90509250929050565b60008060006060848603121561046f578283fd5b610478846103a6565b9250610486602085016103c2565b91506040840135610496816106d2565b809150509250925092565b6000602082840312156104b2578081fd5b8151610379816106d2565b6000602082840312156104ce578081fd5b5051919050565b600080604083850312156104e7578182fd5b50508035926020909101359150565b60008060006060848603121561050a578283fd5b505081359360208301359350604090920135919050565b60008060408385031215610533578182fd5b82359150610452602084016103c2565b600060208284031215610554578081fd5b610379826103c2565b600080600060608486031215610571578283fd5b61057a846103c2565b9250610486602085016103a6565b60008060006060848603121561059c578283fd5b6105a5846103c2565b925060208401356105b5816106d2565b929592945050506040919091013590565b600080604083850312156105d8578182fd5b6105e1836103c2565b946020939093013593505050565b600080600060608486031215610603578081fd5b61060c846103c2565b95602085013595506040909401359392505050565b600080600060608486031215610635578081fd5b61063e846103c2565b9250602084013591506040840135610496816106d2565b6000806000806080858703121561066a578182fd5b610673856103c2565b935060208501359250604085013561068a816106d2565b9396929550929360600135925050565b600080600080608085870312156106af578182fd5b6106b8856103c2565b966020860135965060408601359560600135945092505050565b801515811461024657600080fdfea264697066735822122082b0b1688724718bd1294b31026d3f80865a425311d4c7e936cea47cb111789a64736f6c63430008030033",
  "linkReferences": {},
  "deployedLinkReferences": {}
}