{
  "_format": "hh-sol-artifact-1",
  "contractName": "YieldManagerMock",
  "sourceName": "contracts/mocks/YieldManagerMock.sol",
  "abi": [
    {
      "inputs": [
        {
          "internalType": "address",
          "name": "_longShort",
          "type": "address"
        },
        {
          "internalType": "address",
          "name": "_treasury",
          "type": "address"
        },
        {
          "internalType": "address",
          "name": "_token",
          "type": "address"
        }
      ],
      "stateMutability": "nonpayable",
      "type": "constructor"
    },
    {
      "anonymous": false,
      "inputs": [
        {
          "indexed": false,
          "internalType": "uint256",
          "name": "amount",
          "type": "uint256"
        }
      ],
      "name": "ClaimAaveRewardTokenToTreasury",
      "type": "event"
    },
    {
      "anonymous": false,
      "inputs": [],
      "name": "WithdrawTreasuryFunds",
      "type": "event"
    },
    {
      "anonymous": false,
      "inputs": [
        {
          "indexed": false,
          "internalType": "uint256",
          "name": "unrealizedYield",
          "type": "uint256"
        },
        {
          "indexed": false,
          "internalType": "uint256",
          "name": "treasuryYieldPercent_e18",
          "type": "uint256"
        }
      ],
      "name": "YieldDistributed",
      "type": "event"
    },
    {
      "inputs": [],
      "name": "TEN_TO_THE_18",
      "outputs": [
        {
          "internalType": "uint256",
          "name": "",
          "type": "uint256"
        }
      ],
      "stateMutability": "view",
      "type": "function"
    },
    {
      "inputs": [],
      "name": "admin",
      "outputs": [
        {
          "internalType": "address",
          "name": "",
          "type": "address"
        }
      ],
      "stateMutability": "view",
      "type": "function"
    },
    {
      "inputs": [
        {
          "internalType": "uint256",
          "name": "amount",
          "type": "uint256"
        }
      ],
      "name": "depositPaymentToken",
      "outputs": [],
      "stateMutability": "nonpayable",
      "type": "function"
    },
    {
      "inputs": [
        {
          "internalType": "uint256",
          "name": "totalValueRealizedForMarket",
          "type": "uint256"
        },
        {
          "internalType": "uint256",
          "name": "treasuryYieldPercent_e18",
          "type": "uint256"
        }
      ],
      "name": "distributeYieldForTreasuryAndReturnMarketAllocation",
      "outputs": [
        {
          "internalType": "uint256",
          "name": "",
          "type": "uint256"
        }
      ],
      "stateMutability": "nonpayable",
      "type": "function"
    },
    {
      "inputs": [],
      "name": "lastSettled",
      "outputs": [
        {
          "internalType": "uint256",
          "name": "",
          "type": "uint256"
        }
      ],
      "stateMutability": "view",
      "type": "function"
    },
    {
      "inputs": [],
      "name": "longShort",
      "outputs": [
        {
          "internalType": "address",
          "name": "",
          "type": "address"
        }
      ],
      "stateMutability": "view",
      "type": "function"
    },
    {
      "inputs": [
        {
          "internalType": "uint256",
          "name": "amount",
          "type": "uint256"
        }
      ],
      "name": "removePaymentTokenFromMarket",
      "outputs": [],
      "stateMutability": "nonpayable",
      "type": "function"
    },
    {
      "inputs": [
        {
          "internalType": "uint256",
          "name": "_yieldRate",
          "type": "uint256"
        }
      ],
      "name": "setYieldRate",
      "outputs": [],
      "stateMutability": "nonpayable",
      "type": "function"
    },
    {
      "inputs": [],
      "name": "settle",
      "outputs": [],
      "stateMutability": "nonpayable",
      "type": "function"
    },
    {
      "inputs": [
        {
          "internalType": "uint256",
          "name": "totalYield",
          "type": "uint256"
        }
      ],
      "name": "settleWithYieldAbsolute",
      "outputs": [],
      "stateMutability": "nonpayable",
      "type": "function"
    },
    {
      "inputs": [
        {
          "internalType": "uint256",
          "name": "yieldPercent",
          "type": "uint256"
        }
      ],
      "name": "settleWithYieldPercent",
      "outputs": [],
      "stateMutability": "nonpayable",
      "type": "function"
    },
    {
      "inputs": [],
      "name": "token",
      "outputs": [
        {
          "internalType": "contract ERC20PresetMinterPauser",
          "name": "",
          "type": "address"
        }
      ],
      "stateMutability": "view",
      "type": "function"
    },
    {
      "inputs": [],
      "name": "tokenOtherRewardERC20",
      "outputs": [
        {
          "internalType": "contract ERC20PresetMinterPauser",
          "name": "",
          "type": "address"
        }
      ],
      "stateMutability": "view",
      "type": "function"
    },
    {
      "inputs": [],
      "name": "totalHeld",
      "outputs": [
        {
          "internalType": "uint256",
          "name": "",
          "type": "uint256"
        }
      ],
      "stateMutability": "view",
      "type": "function"
    },
    {
      "inputs": [],
      "name": "totalReservedForTreasury",
      "outputs": [
        {
          "internalType": "uint256",
          "name": "",
          "type": "uint256"
        }
      ],
      "stateMutability": "view",
      "type": "function"
    },
    {
      "inputs": [
        {
          "internalType": "address",
          "name": "user",
          "type": "address"
        },
        {
          "internalType": "uint256",
          "name": "amount",
          "type": "uint256"
        }
      ],
      "name": "transferPaymentTokensToUser",
      "outputs": [],
      "stateMutability": "nonpayable",
      "type": "function"
    },
    {
      "inputs": [],
      "name": "treasury",
      "outputs": [
        {
          "internalType": "address",
          "name": "",
          "type": "address"
        }
      ],
      "stateMutability": "view",
      "type": "function"
    },
    {
      "inputs": [],
      "name": "withdrawTreasuryFunds",
      "outputs": [],
      "stateMutability": "nonpayable",
      "type": "function"
    },
    {
      "inputs": [],
      "name": "yieldRate",
      "outputs": [
        {
          "internalType": "uint256",
          "name": "",
          "type": "uint256"
        }
      ],
      "stateMutability": "view",
      "type": "function"
    }
  ],
  "bytecode": "0x608060405234801561001057600080fd5b506040516108b73803806108b783398101604081905261002f91610091565b600180546001600160a01b039485166001600160a01b031991821617909155600280549385169382169390931790925560038054919093169116179055426008556100d3565b80516001600160a01b038116811461008c57600080fd5b919050565b6000806000606084860312156100a5578283fd5b6100ae84610075565b92506100bc60208501610075565b91506100ca60408501610075565b90509250925092565b6107d5806100e26000396000f3fe608060405234801561001057600080fd5b50600436106101215760003560e01c80638a5599b2116100ad578063e332478411610071578063e332478414610225578063eb6bffa214610238578063f43cc7731461024b578063f851a44014610254578063fc0c546a1461026757610121565b80638a5599b2146101ca5780639063ee20146101dd578063b9720642146101f0578063cbcb4d9d14610203578063d2d2ef761461021657610121565b806329949872116100f45780632994987214610172578063447479db1461019d578063509f5c32146101a557806361d027b3146101ae5780636999ac93146101c157610121565b806311da60b4146101265780631411dab0146101305780631c499b55146101435780632429e53514610156575b600080fd5b61012e61027a565b005b61012e61013e3660046106bb565b600755565b61012e6101513660046106bb565b610344565b61015f60055481565b6040519081526020015b60405180910390f35b600154610185906001600160a01b031681565b6040516001600160a01b039091168152602001610169565b61012e6103a2565b61015f60085481565b600254610185906001600160a01b031681565b61015f60075481565b61015f6101d83660046106d3565b6103ce565b61012e6101eb3660046106bb565b61047b565b61012e6101fe3660046106bb565b6104bb565b61012e6102113660046106bb565b610537565b61015f670de0b6b3a764000081565b600454610185906001600160a01b031681565b61012e61024636600461065e565b6105a9565b61015f60065481565b600054610185906001600160a01b031681565b600354610185906001600160a01b031681565b60006008544261028a9190610772565b6007546102979190610753565b90506000670de0b6b3a7640000826006546102b29190610753565b6102bc9190610733565b426008556006549091506102d190829061071b565b6006558015610340576003546040516340c10f1960e01b8152306004820152602481018390526001600160a01b03909116906340c10f19906044015b600060405180830381600087803b15801561032757600080fd5b505af115801561033b573d6000803e3d6000fd5b505050505b5050565b6001546001600160a01b031633146103775760405162461bcd60e51b815260040161036e906106f4565b60405180910390fd5b61037f61027a565b60065481111561038e57600080fd5b8060065461039c9190610772565b60065550565b6001546001600160a01b031633146103cc5760405162461bcd60e51b815260040161036e906106f4565b565b6001546000906001600160a01b031633146103fb5760405162461bcd60e51b815260040161036e906106f4565b60006005548460065461040e9190610772565b6104189190610772565b905080610429576000915050610475565b6000670de0b6b3a764000061043e8584610753565b6104489190610733565b905060006104568284610772565b9050816005600082825461046a919061071b565b909155509093505050505b92915050565b6001546001600160a01b031633146104a55760405162461bcd60e51b815260040161036e906106f4565b6104ad61027a565b8060065461039c919061071b565b426008556006546104cd90829061071b565b6006556003546040516340c10f1960e01b8152306004820152602481018390526001600160a01b03909116906340c10f1990604401600060405180830381600087803b15801561051c57600080fd5b505af1158015610530573d6000803e3d6000fd5b5050505050565b6000670de0b6b3a7640000826006546105509190610753565b61055a9190610733565b4260085560065490915061056f90829061071b565b6006556003546040516340c10f1960e01b8152306004820152602481018390526001600160a01b03909116906340c10f199060440161030d565b6001546001600160a01b031633146105d35760405162461bcd60e51b815260040161036e906106f4565b60035460405163a9059cbb60e01b81526001600160a01b038481166004830152602482018490529091169063a9059cbb90604401602060405180830381600087803b15801561062157600080fd5b505af1158015610635573d6000803e3d6000fd5b505050506040513d601f19601f820116820180604052508101906106599190610694565b505050565b60008060408385031215610670578182fd5b82356001600160a01b0381168114610686578283fd5b946020939093013593505050565b6000602082840312156106a5578081fd5b815180151581146106b4578182fd5b9392505050565b6000602082840312156106cc578081fd5b5035919050565b600080604083850312156106e5578182fd5b50508035926020909101359150565b6020808252600d908201526c139bdd081b1bdb99d4da1bdc9d609a1b604082015260600190565b6000821982111561072e5761072e610789565b500190565b60008261074e57634e487b7160e01b81526012600452602481fd5b500490565b600081600019048311821515161561076d5761076d610789565b500290565b60008282101561078457610784610789565b500390565b634e487b7160e01b600052601160045260246000fdfea2646970667358221220528dc046eb8c4c9b16df7024884b49bbfc92b132ef6c666b086cb77d85ee8cda64736f6c63430008030033",
  "linkReferences": {},
  "deployedLinkReferences": {}
}