{
  "contracts/mocks/LendingPoolAaveMock.sol": {
    "LendingPoolAaveMock": {
      "abi": [
        {
          "inputs": [
            {
              "internalType": "address",
              "name": "asset",
              "type": "address"
            },
            {
              "internalType": "uint256",
              "name": "amount",
              "type": "uint256"
            },
            {
              "internalType": "address",
              "name": "onBehalfOf",
              "type": "address"
            },
            {
              "internalType": "uint16",
              "name": "referralCode",
              "type": "uint16"
            }
          ],
          "name": "deposit",
          "outputs": [],
          "stateMutability": "pure",
          "type": "function"
        },
        {
          "inputs": [
            {
              "internalType": "address",
              "name": "asset",
              "type": "address"
            },
            {
              "internalType": "uint256",
              "name": "amount",
              "type": "uint256"
            },
            {
              "internalType": "address",
              "name": "to",
              "type": "address"
            }
          ],
          "name": "withdraw",
          "outputs": [
            {
              "internalType": "uint256",
              "name": "",
              "type": "uint256"
            }
          ],
          "stateMutability": "pure",
          "type": "function"
        }
      ],
      "devdoc": {
        "kind": "dev",
        "methods": {},
        "version": 1
      },
      "evm": {
        "bytecode": {
          "linkReferences": {},
          "object": "608060405234801561001057600080fd5b50610194806100206000396000f3fe608060405234801561001057600080fd5b50600436106100365760003560e01c806369328dec1461003b578063e8eda9df14610060575b600080fd5b61004e6100493660046100b7565b610076565b60405190815260200160405180910390f35b61007461006e3660046100f2565b50505050565b005b604080516020810191829052600090819052906100939080610146565b949350505050565b80356001600160a01b03811681146100b257600080fd5b919050565b6000806000606084860312156100cb578283fd5b6100d48461009b565b9250602084013591506100e96040850161009b565b90509250925092565b60008060008060808587031215610107578081fd5b6101108561009b565b9350602085013592506101256040860161009b565b9150606085013561ffff8116811461013b578182fd5b939692955090935050565b600060208284031215610157578081fd5b505191905056fea2646970667358221220d171a120a8259be62d8e8d6d0cd531ffbef2b728b85f87a11becb203a96e58cb64736f6c63430008030033",
          "opcodes": "PUSH1 0x80 PUSH1 0x40 MSTORE CALLVALUE DUP1 ISZERO PUSH2 0x10 JUMPI PUSH1 0x0 DUP1 REVERT JUMPDEST POP PUSH2 0x194 DUP1 PUSH2 0x20 PUSH1 0x0 CODECOPY PUSH1 0x0 RETURN INVALID PUSH1 0x80 PUSH1 0x40 MSTORE CALLVALUE DUP1 ISZERO PUSH2 0x10 JUMPI PUSH1 0x0 DUP1 REVERT JUMPDEST POP PUSH1 0x4 CALLDATASIZE LT PUSH2 0x36 JUMPI PUSH1 0x0 CALLDATALOAD PUSH1 0xE0 SHR DUP1 PUSH4 0x69328DEC EQ PUSH2 0x3B JUMPI DUP1 PUSH4 0xE8EDA9DF EQ PUSH2 0x60 JUMPI JUMPDEST PUSH1 0x0 DUP1 REVERT JUMPDEST PUSH2 0x4E PUSH2 0x49 CALLDATASIZE PUSH1 0x4 PUSH2 0xB7 JUMP JUMPDEST PUSH2 0x76 JUMP JUMPDEST PUSH1 0x40 MLOAD SWAP1 DUP2 MSTORE PUSH1 0x20 ADD PUSH1 0x40 MLOAD DUP1 SWAP2 SUB SWAP1 RETURN JUMPDEST PUSH2 0x74 PUSH2 0x6E CALLDATASIZE PUSH1 0x4 PUSH2 0xF2 JUMP JUMPDEST POP POP POP POP JUMP JUMPDEST STOP JUMPDEST PUSH1 0x40 DUP1 MLOAD PUSH1 0x20 DUP2 ADD SWAP2 DUP3 SWAP1 MSTORE PUSH1 0x0 SWAP1 DUP2 SWAP1 MSTORE SWAP1 PUSH2 0x93 SWAP1 DUP1 PUSH2 0x146 JUMP JUMPDEST SWAP5 SWAP4 POP POP POP POP JUMP JUMPDEST DUP1 CALLDATALOAD PUSH1 0x1 PUSH1 0x1 PUSH1 0xA0 SHL SUB DUP2 AND DUP2 EQ PUSH2 0xB2 JUMPI PUSH1 0x0 DUP1 REVERT JUMPDEST SWAP2 SWAP1 POP JUMP JUMPDEST PUSH1 0x0 DUP1 PUSH1 0x0 PUSH1 0x60 DUP5 DUP7 SUB SLT ISZERO PUSH2 0xCB JUMPI DUP3 DUP4 REVERT JUMPDEST PUSH2 0xD4 DUP5 PUSH2 0x9B JUMP JUMPDEST SWAP3 POP PUSH1 0x20 DUP5 ADD CALLDATALOAD SWAP2 POP PUSH2 0xE9 PUSH1 0x40 DUP6 ADD PUSH2 0x9B JUMP JUMPDEST SWAP1 POP SWAP3 POP SWAP3 POP SWAP3 JUMP JUMPDEST PUSH1 0x0 DUP1 PUSH1 0x0 DUP1 PUSH1 0x80 DUP6 DUP8 SUB SLT ISZERO PUSH2 0x107 JUMPI DUP1 DUP2 REVERT JUMPDEST PUSH2 0x110 DUP6 PUSH2 0x9B JUMP JUMPDEST SWAP4 POP PUSH1 0x20 DUP6 ADD CALLDATALOAD SWAP3 POP PUSH2 0x125 PUSH1 0x40 DUP7 ADD PUSH2 0x9B JUMP JUMPDEST SWAP2 POP PUSH1 0x60 DUP6 ADD CALLDATALOAD PUSH2 0xFFFF DUP2 AND DUP2 EQ PUSH2 0x13B JUMPI DUP2 DUP3 REVERT JUMPDEST SWAP4 SWAP7 SWAP3 SWAP6 POP SWAP1 SWAP4 POP POP JUMP JUMPDEST PUSH1 0x0 PUSH1 0x20 DUP3 DUP5 SUB SLT ISZERO PUSH2 0x157 JUMPI DUP1 DUP2 REVERT JUMPDEST POP MLOAD SWAP2 SWAP1 POP JUMP INVALID LOG2 PUSH5 0x6970667358 0x22 SLT KECCAK256 0xD1 PUSH18 0xA120A8259BE62D8E8D6D0CD531FFBEF2B728 0xB8 0x5F DUP8 LOG1 SHL 0xEC 0xB2 SUB 0xA9 PUSH15 0x58CB64736F6C634300080300330000 "
        },
        "methodIdentifiers": {
          "deposit(address,uint256,address,uint16)": "e8eda9df",
          "withdraw(address,uint256,address)": "69328dec"
        }
      },
      "userdoc": {
        "kind": "user",
        "methods": {},
        "version": 1
      }
    }
  }
}