{
  "_format": "hh-sol-artifact-1",
  "contractName": "OracleManagerFlippening_V0",
  "sourceName": "contracts/oracles/OracleManagerFlippening_V0.sol",
  "abi": [
    {
      "inputs": [
        {
          "internalType": "address",
          "name": "_admin",
          "type": "address"
        },
        {
          "internalType": "address",
          "name": "_btcOracle",
          "type": "address"
        },
        {
          "internalType": "address",
          "name": "_ethOracle",
          "type": "address"
        },
        {
          "internalType": "uint256",
          "name": "_ethSupply",
          "type": "uint256"
        },
        {
          "internalType": "uint256",
          "name": "_btcSupply",
          "type": "uint256"
        },
        {
          "internalType": "uint256",
          "name": "_btcBlocksPerDay",
          "type": "uint256"
        },
        {
          "internalType": "uint256",
          "name": "_ethBlocksPerDay",
          "type": "uint256"
        },
        {
          "internalType": "uint256",
          "name": "_ethUnclesPerDay",
          "type": "uint256"
        },
        {
          "internalType": "uint256",
          "name": "_btcBlockReward",
          "type": "uint256"
        },
        {
          "internalType": "uint256",
          "name": "_ethBlockReward",
          "type": "uint256"
        },
        {
          "internalType": "uint256",
          "name": "_ethUncleReward",
          "type": "uint256"
        },
        {
          "internalType": "uint256",
          "name": "_ethNephewReward",
          "type": "uint256"
        }
      ],
      "stateMutability": "nonpayable",
      "type": "constructor"
    },
    {
      "inputs": [],
      "name": "admin",
      "outputs": [
        {
          "internalType": "address",
          "name": "",
          "type": "address"
        }
      ],
      "stateMutability": "view",
      "type": "function"
    },
    {
      "inputs": [],
      "name": "btcBlockReward",
      "outputs": [
        {
          "internalType": "uint256",
          "name": "",
          "type": "uint256"
        }
      ],
      "stateMutability": "view",
      "type": "function"
    },
    {
      "inputs": [],
      "name": "btcBlocksPerDay",
      "outputs": [
        {
          "internalType": "uint256",
          "name": "",
          "type": "uint256"
        }
      ],
      "stateMutability": "view",
      "type": "function"
    },
    {
      "inputs": [],
      "name": "btcOracle",
      "outputs": [
        {
          "internalType": "contract AggregatorV3Interface",
          "name": "",
          "type": "address"
        }
      ],
      "stateMutability": "view",
      "type": "function"
    },
    {
      "inputs": [],
      "name": "btcSupply",
      "outputs": [
        {
          "internalType": "uint256",
          "name": "",
          "type": "uint256"
        }
      ],
      "stateMutability": "view",
      "type": "function"
    },
    {
      "inputs": [
        {
          "internalType": "address",
          "name": "_admin",
          "type": "address"
        }
      ],
      "name": "changeAdmin",
      "outputs": [],
      "stateMutability": "nonpayable",
      "type": "function"
    },
    {
      "inputs": [
        {
          "internalType": "uint256",
          "name": "reward",
          "type": "uint256"
        }
      ],
      "name": "changeBtcBlockReward",
      "outputs": [],
      "stateMutability": "nonpayable",
      "type": "function"
    },
    {
      "inputs": [
        {
          "internalType": "uint256",
          "name": "blocks",
          "type": "uint256"
        }
      ],
      "name": "changeBtcBlocksPerDay",
      "outputs": [],
      "stateMutability": "nonpayable",
      "type": "function"
    },
    {
      "inputs": [
        {
          "internalType": "uint256",
          "name": "supply",
          "type": "uint256"
        }
      ],
      "name": "changeBtcSupply",
      "outputs": [],
      "stateMutability": "nonpayable",
      "type": "function"
    },
    {
      "inputs": [
        {
          "internalType": "uint256",
          "name": "reward",
          "type": "uint256"
        }
      ],
      "name": "changeEthBlockReward",
      "outputs": [],
      "stateMutability": "nonpayable",
      "type": "function"
    },
    {
      "inputs": [
        {
          "internalType": "uint256",
          "name": "blocks",
          "type": "uint256"
        }
      ],
      "name": "changeEthBlocksPerDay",
      "outputs": [],
      "stateMutability": "nonpayable",
      "type": "function"
    },
    {
      "inputs": [
        {
          "internalType": "uint256",
          "name": "reward",
          "type": "uint256"
        }
      ],
      "name": "changeEthNephewReward",
      "outputs": [],
      "stateMutability": "nonpayable",
      "type": "function"
    },
    {
      "inputs": [
        {
          "internalType": "uint256",
          "name": "supply",
          "type": "uint256"
        }
      ],
      "name": "changeEthSupply",
      "outputs": [],
      "stateMutability": "nonpayable",
      "type": "function"
    },
    {
      "inputs": [
        {
          "internalType": "uint256",
          "name": "reward",
          "type": "uint256"
        }
      ],
      "name": "changeEthUncleReward",
      "outputs": [],
      "stateMutability": "nonpayable",
      "type": "function"
    },
    {
      "inputs": [
        {
          "internalType": "uint256",
          "name": "uncles",
          "type": "uint256"
        }
      ],
      "name": "changeEthUnclesPerDay",
      "outputs": [],
      "stateMutability": "nonpayable",
      "type": "function"
    },
    {
      "inputs": [],
      "name": "ethBlockReward",
      "outputs": [
        {
          "internalType": "uint256",
          "name": "",
          "type": "uint256"
        }
      ],
      "stateMutability": "view",
      "type": "function"
    },
    {
      "inputs": [],
      "name": "ethBlocksPerDay",
      "outputs": [
        {
          "internalType": "uint256",
          "name": "",
          "type": "uint256"
        }
      ],
      "stateMutability": "view",
      "type": "function"
    },
    {
      "inputs": [],
      "name": "ethDominance",
      "outputs": [
        {
          "internalType": "int256",
          "name": "",
          "type": "int256"
        }
      ],
      "stateMutability": "view",
      "type": "function"
    },
    {
      "inputs": [],
      "name": "ethNephewReward",
      "outputs": [
        {
          "internalType": "uint256",
          "name": "",
          "type": "uint256"
        }
      ],
      "stateMutability": "view",
      "type": "function"
    },
    {
      "inputs": [],
      "name": "ethOracle",
      "outputs": [
        {
          "internalType": "contract AggregatorV3Interface",
          "name": "",
          "type": "address"
        }
      ],
      "stateMutability": "view",
      "type": "function"
    },
    {
      "inputs": [],
      "name": "ethSupply",
      "outputs": [
        {
          "internalType": "uint256",
          "name": "",
          "type": "uint256"
        }
      ],
      "stateMutability": "view",
      "type": "function"
    },
    {
      "inputs": [],
      "name": "ethUncleReward",
      "outputs": [
        {
          "internalType": "uint256",
          "name": "",
          "type": "uint256"
        }
      ],
      "stateMutability": "view",
      "type": "function"
    },
    {
      "inputs": [],
      "name": "ethUnclesPerDay",
      "outputs": [
        {
          "internalType": "uint256",
          "name": "",
          "type": "uint256"
        }
      ],
      "stateMutability": "view",
      "type": "function"
    },
    {
      "inputs": [],
      "name": "getLatestPrice",
      "outputs": [
        {
          "internalType": "int256",
          "name": "",
          "type": "int256"
        }
      ],
      "stateMutability": "view",
      "type": "function"
    },
    {
      "inputs": [],
      "name": "updatePrice",
      "outputs": [
        {
          "internalType": "int256",
          "name": "",
          "type": "int256"
        }
      ],
      "stateMutability": "nonpayable",
      "type": "function"
    }
  ],
  "bytecode": "0x60806040523480156200001157600080fd5b5060405162000ceb38038062000ceb833981016040819052620000349162000367565b600080546001600160a01b03808f166001600160a01b031992831617909255600c80548e8416908316179055600d8054928d169290911691909117905560028990556003889055600487905560058690556008859055600684905560078390556009829055600a81905542600b55620000ac620000bf565b50505050505050505050505050620004ec565b600080600d60009054906101000a90046001600160a01b03166001600160a01b031663feaf968c6040518163ffffffff1660e01b815260040160a06040518083038186803b1580156200011157600080fd5b505afa15801562000126573d6000803e3d6000fd5b505050506040513d601f19601f820116820180604052508101906200014c91906200040a565b5050509150506000600c60009054906101000a90046001600160a01b03166001600160a01b031663feaf968c6040518163ffffffff1660e01b815260040160a06040518083038186803b158015620001a357600080fd5b505afa158015620001b8573d6000803e3d6000fd5b505050506040513d601f19601f82011682018060405250810190620001de91906200040a565b505050915050620001f46200026360201b60201c565b60025562000201620002e3565b600381905542600b556200021690826200049a565b62000227906402540be4006200049a565b6002546200023690846200049a565b6200024b9068056bc75e2d631000006200049a565b62000257919062000479565b60018190559250505090565b600062015180600954600a546200027b91906200045e565b6008546200028a91906200049a565b6007546005546200029c91906200049a565b620002a891906200045e565b600b54620002b79042620004bc565b620002c391906200049a565b620002cf919062000479565b600254620002de91906200045e565b905090565b600062015180600654600454600b5442620002ff9190620004bc565b6200030b91906200049a565b6200031791906200049a565b62000323919062000479565b600354620002de91906200045e565b80516001600160a01b03811681146200034a57600080fd5b919050565b80516001600160501b03811681146200034a57600080fd5b6000806000806000806000806000806000806101808d8f0312156200038a578788fd5b620003958d62000332565b9b50620003a560208e0162000332565b9a50620003b560408e0162000332565b995060608d0151985060808d0151975060a08d0151965060c08d0151955060e08d015194506101008d015193506101208d015192506101408d015191506101608d015190509295989b509295989b509295989b565b600080600080600060a0868803121562000422578081fd5b6200042d866200034f565b945060208601519350604086015192506060860151915062000452608087016200034f565b90509295509295909350565b60008219821115620004745762000474620004d6565b500190565b6000826200049557634e487b7160e01b81526012600452602481fd5b500490565b6000816000190483118215151615620004b757620004b7620004d6565b500290565b600082821015620004d157620004d1620004d6565b500390565b634e487b7160e01b600052601160045260246000fd5b6107ef80620004fc6000396000f3fe608060405234801561001057600080fd5b50600436106101725760003560e01c806399f58c42116100de578063b799708211610097578063c8b9335711610071578063c8b93357146102c3578063cec38919146102d6578063f851a440146102df578063fc3eb77a146102f257610172565b8063b79970821461029e578063be56ddf1146102a7578063c190de3a146102b057610172565b806399f58c421461024a5780639c8762e1146102535780639d804a6214610266578063a5e3da081461026f578063a60ef35e14610278578063aa06f2001461028b57610172565b8063673a7e2811610130578063673a7e28146102025780638b338e741461020a5780638e15f473146102135780638f2839701461021b57806394bd29e21461022e5780639985495d1461024157610172565b806286cd571461017757806322a158481461018c57806330ee83ee146101bc5780634d6a3cfb146101d35780635a0a8a3a146101dc5780635b153311146101ef575b600080fd5b61018a6101853660046106ce565b610305565b005b600c5461019f906001600160a01b031681565b6040516001600160a01b0390911681526020015b60405180910390f35b6101c560095481565b6040519081526020016101b3565b6101c560025481565b61018a6101ea3660046106ce565b610321565b61018a6101fd3660046106ce565b61033d565b6101c5610359565b6101c560085481565b6001546101c5565b61018a6102293660046106a0565b610368565b61018a61023c3660046106ce565b6103a1565b6101c560075481565b6101c560045481565b600d5461019f906001600160a01b031681565b6101c560015481565b6101c560035481565b61018a6102863660046106ce565b6103bd565b61018a6102993660046106ce565b6103d9565b6101c560065481565b6101c560055481565b61018a6102be3660046106ce565b6103f5565b61018a6102d13660046106ce565b610411565b6101c5600a5481565b60005461019f906001600160a01b031681565b61018a6103003660046106ce565b61042d565b6000546001600160a01b0316331461031c57600080fd5b600755565b6000546001600160a01b0316331461033857600080fd5b600355565b6000546001600160a01b0316331461035457600080fd5b600955565b6000610363610449565b905090565b6000546001600160a01b0316331461037f57600080fd5b600080546001600160a01b0319166001600160a01b0392909216919091179055565b6000546001600160a01b031633146103b857600080fd5b600255565b6000546001600160a01b031633146103d457600080fd5b600555565b6000546001600160a01b031633146103f057600080fd5b600455565b6000546001600160a01b0316331461040c57600080fd5b600655565b6000546001600160a01b0316331461042857600080fd5b600a55565b6000546001600160a01b0316331461044457600080fd5b600855565b600080600d60009054906101000a90046001600160a01b03166001600160a01b031663feaf968c6040518163ffffffff1660e01b815260040160a06040518083038186803b15801561049a57600080fd5b505afa1580156104ae573d6000803e3d6000fd5b505050506040513d601f19601f820116820180604052508101906104d291906106e6565b5050509150506000600c60009054906101000a90046001600160a01b03166001600160a01b031663feaf968c6040518163ffffffff1660e01b815260040160a06040518083038186803b15801561052857600080fd5b505afa15801561053c573d6000803e3d6000fd5b505050506040513d601f19601f8201168201806040525081019061056091906106e6565b50505091505061056e6105d1565b60025561057961063c565b600381905542600b5561058c908261076d565b61059b906402540be40061076d565b6002546105a8908461076d565b6105bb9068056bc75e2d6310000061076d565b6105c5919061074d565b60018190559250505090565b600062015180600954600a546105e79190610735565b6008546105f4919061076d565b600754600554610604919061076d565b61060e9190610735565b600b5461061b904261078c565b610625919061076d565b61062f919061074d565b6002546103639190610735565b600062015180600654600454600b5442610656919061078c565b610660919061076d565b61066a919061076d565b610674919061074d565b6003546103639190610735565b805169ffffffffffffffffffff8116811461069b57600080fd5b919050565b6000602082840312156106b1578081fd5b81356001600160a01b03811681146106c7578182fd5b9392505050565b6000602082840312156106df578081fd5b5035919050565b600080600080600060a086880312156106fd578081fd5b61070686610681565b945060208601519350604086015192506060860151915061072960808701610681565b90509295509295909350565b60008219821115610748576107486107a3565b500190565b60008261076857634e487b7160e01b81526012600452602481fd5b500490565b6000816000190483118215151615610787576107876107a3565b500290565b60008282101561079e5761079e6107a3565b500390565b634e487b7160e01b600052601160045260246000fdfea2646970667358221220759817c2c7e6f51cfaa59f4ad245d4510d01a129f2d993b99ce0f642595bd4b164736f6c63430008030033",
  "linkReferences": {},
  "deployedLinkReferences": {}
}