{
  "_format": "hh-sol-artifact-1",
  "contractName": "SyntheticToken",
  "sourceName": "contracts/SyntheticToken.sol",
  "abi": [
    {
      "inputs": [
        {
          "internalType": "string",
          "name": "name",
          "type": "string"
        },
        {
          "internalType": "string",
          "name": "symbol",
          "type": "string"
        },
        {
          "internalType": "address",
          "name": "_longShort",
          "type": "address"
        },
        {
          "internalType": "address",
          "name": "_staker",
          "type": "address"
        },
        {
          "internalType": "uint32",
          "name": "_marketIndex",
          "type": "uint32"
        },
        {
          "internalType": "bool",
          "name": "_isLong",
          "type": "bool"
        }
      ],
      "stateMutability": "nonpayable",
      "type": "constructor"
    },
    {
      "anonymous": false,
      "inputs": [
        {
          "indexed": true,
          "internalType": "address",
          "name": "owner",
          "type": "address"
        },
        {
          "indexed": true,
          "internalType": "address",
          "name": "spender",
          "type": "address"
        },
        {
          "indexed": false,
          "internalType": "uint256",
          "name": "value",
          "type": "uint256"
        }
      ],
      "name": "Approval",
      "type": "event"
    },
    {
      "anonymous": false,
      "inputs": [
        {
          "indexed": false,
          "internalType": "address",
          "name": "account",
          "type": "address"
        }
      ],
      "name": "Paused",
      "type": "event"
    },
    {
      "anonymous": false,
      "inputs": [
        {
          "indexed": true,
          "internalType": "bytes32",
          "name": "role",
          "type": "bytes32"
        },
        {
          "indexed": true,
          "internalType": "bytes32",
          "name": "previousAdminRole",
          "type": "bytes32"
        },
        {
          "indexed": true,
          "internalType": "bytes32",
          "name": "newAdminRole",
          "type": "bytes32"
        }
      ],
      "name": "RoleAdminChanged",
      "type": "event"
    },
    {
      "anonymous": false,
      "inputs": [
        {
          "indexed": true,
          "internalType": "bytes32",
          "name": "role",
          "type": "bytes32"
        },
        {
          "indexed": true,
          "internalType": "address",
          "name": "account",
          "type": "address"
        },
        {
          "indexed": true,
          "internalType": "address",
          "name": "sender",
          "type": "address"
        }
      ],
      "name": "RoleGranted",
      "type": "event"
    },
    {
      "anonymous": false,
      "inputs": [
        {
          "indexed": true,
          "internalType": "bytes32",
          "name": "role",
          "type": "bytes32"
        },
        {
          "indexed": true,
          "internalType": "address",
          "name": "account",
          "type": "address"
        },
        {
          "indexed": true,
          "internalType": "address",
          "name": "sender",
          "type": "address"
        }
      ],
      "name": "RoleRevoked",
      "type": "event"
    },
    {
      "anonymous": false,
      "inputs": [
        {
          "indexed": true,
          "internalType": "address",
          "name": "from",
          "type": "address"
        },
        {
          "indexed": true,
          "internalType": "address",
          "name": "to",
          "type": "address"
        },
        {
          "indexed": false,
          "internalType": "uint256",
          "name": "value",
          "type": "uint256"
        }
      ],
      "name": "Transfer",
      "type": "event"
    },
    {
      "anonymous": false,
      "inputs": [
        {
          "indexed": false,
          "internalType": "address",
          "name": "account",
          "type": "address"
        }
      ],
      "name": "Unpaused",
      "type": "event"
    },
    {
      "inputs": [],
      "name": "DEFAULT_ADMIN_ROLE",
      "outputs": [
        {
          "internalType": "bytes32",
          "name": "",
          "type": "bytes32"
        }
      ],
      "stateMutability": "view",
      "type": "function"
    },
    {
      "inputs": [],
      "name": "MINTER_ROLE",
      "outputs": [
        {
          "internalType": "bytes32",
          "name": "",
          "type": "bytes32"
        }
      ],
      "stateMutability": "view",
      "type": "function"
    },
    {
      "inputs": [],
      "name": "PAUSER_ROLE",
      "outputs": [
        {
          "internalType": "bytes32",
          "name": "",
          "type": "bytes32"
        }
      ],
      "stateMutability": "view",
      "type": "function"
    },
    {
      "inputs": [
        {
          "internalType": "address",
          "name": "owner",
          "type": "address"
        },
        {
          "internalType": "address",
          "name": "spender",
          "type": "address"
        }
      ],
      "name": "allowance",
      "outputs": [
        {
          "internalType": "uint256",
          "name": "",
          "type": "uint256"
        }
      ],
      "stateMutability": "view",
      "type": "function"
    },
    {
      "inputs": [
        {
          "internalType": "address",
          "name": "spender",
          "type": "address"
        },
        {
          "internalType": "uint256",
          "name": "amount",
          "type": "uint256"
        }
      ],
      "name": "approve",
      "outputs": [
        {
          "internalType": "bool",
          "name": "",
          "type": "bool"
        }
      ],
      "stateMutability": "nonpayable",
      "type": "function"
    },
    {
      "inputs": [
        {
          "internalType": "address",
          "name": "account",
          "type": "address"
        }
      ],
      "name": "balanceOf",
      "outputs": [
        {
          "internalType": "uint256",
          "name": "",
          "type": "uint256"
        }
      ],
      "stateMutability": "view",
      "type": "function"
    },
    {
      "inputs": [
        {
          "internalType": "uint256",
          "name": "amount",
          "type": "uint256"
        }
      ],
      "name": "burn",
      "outputs": [],
      "stateMutability": "nonpayable",
      "type": "function"
    },
    {
      "inputs": [
        {
          "internalType": "address",
          "name": "account",
          "type": "address"
        },
        {
          "internalType": "uint256",
          "name": "amount",
          "type": "uint256"
        }
      ],
      "name": "burnFrom",
      "outputs": [],
      "stateMutability": "nonpayable",
      "type": "function"
    },
    {
      "inputs": [],
      "name": "decimals",
      "outputs": [
        {
          "internalType": "uint8",
          "name": "",
          "type": "uint8"
        }
      ],
      "stateMutability": "view",
      "type": "function"
    },
    {
      "inputs": [
        {
          "internalType": "address",
          "name": "spender",
          "type": "address"
        },
        {
          "internalType": "uint256",
          "name": "subtractedValue",
          "type": "uint256"
        }
      ],
      "name": "decreaseAllowance",
      "outputs": [
        {
          "internalType": "bool",
          "name": "",
          "type": "bool"
        }
      ],
      "stateMutability": "nonpayable",
      "type": "function"
    },
    {
      "inputs": [
        {
          "internalType": "bytes32",
          "name": "role",
          "type": "bytes32"
        }
      ],
      "name": "getRoleAdmin",
      "outputs": [
        {
          "internalType": "bytes32",
          "name": "",
          "type": "bytes32"
        }
      ],
      "stateMutability": "view",
      "type": "function"
    },
    {
      "inputs": [
        {
          "internalType": "bytes32",
          "name": "role",
          "type": "bytes32"
        },
        {
          "internalType": "uint256",
          "name": "index",
          "type": "uint256"
        }
      ],
      "name": "getRoleMember",
      "outputs": [
        {
          "internalType": "address",
          "name": "",
          "type": "address"
        }
      ],
      "stateMutability": "view",
      "type": "function"
    },
    {
      "inputs": [
        {
          "internalType": "bytes32",
          "name": "role",
          "type": "bytes32"
        }
      ],
      "name": "getRoleMemberCount",
      "outputs": [
        {
          "internalType": "uint256",
          "name": "",
          "type": "uint256"
        }
      ],
      "stateMutability": "view",
      "type": "function"
    },
    {
      "inputs": [
        {
          "internalType": "bytes32",
          "name": "role",
          "type": "bytes32"
        },
        {
          "internalType": "address",
          "name": "account",
          "type": "address"
        }
      ],
      "name": "grantRole",
      "outputs": [],
      "stateMutability": "nonpayable",
      "type": "function"
    },
    {
      "inputs": [
        {
          "internalType": "bytes32",
          "name": "role",
          "type": "bytes32"
        },
        {
          "internalType": "address",
          "name": "account",
          "type": "address"
        }
      ],
      "name": "hasRole",
      "outputs": [
        {
          "internalType": "bool",
          "name": "",
          "type": "bool"
        }
      ],
      "stateMutability": "view",
      "type": "function"
    },
    {
      "inputs": [
        {
          "internalType": "address",
          "name": "spender",
          "type": "address"
        },
        {
          "internalType": "uint256",
          "name": "addedValue",
          "type": "uint256"
        }
      ],
      "name": "increaseAllowance",
      "outputs": [
        {
          "internalType": "bool",
          "name": "",
          "type": "bool"
        }
      ],
      "stateMutability": "nonpayable",
      "type": "function"
    },
    {
      "inputs": [],
      "name": "isLong",
      "outputs": [
        {
          "internalType": "bool",
          "name": "",
          "type": "bool"
        }
      ],
      "stateMutability": "view",
      "type": "function"
    },
    {
      "inputs": [],
      "name": "longShort",
      "outputs": [
        {
          "internalType": "address",
          "name": "",
          "type": "address"
        }
      ],
      "stateMutability": "view",
      "type": "function"
    },
    {
      "inputs": [],
      "name": "marketIndex",
      "outputs": [
        {
          "internalType": "uint32",
          "name": "",
          "type": "uint32"
        }
      ],
      "stateMutability": "view",
      "type": "function"
    },
    {
      "inputs": [
        {
          "internalType": "address",
          "name": "to",
          "type": "address"
        },
        {
          "internalType": "uint256",
          "name": "amount",
          "type": "uint256"
        }
      ],
      "name": "mint",
      "outputs": [],
      "stateMutability": "nonpayable",
      "type": "function"
    },
    {
      "inputs": [],
      "name": "name",
      "outputs": [
        {
          "internalType": "string",
          "name": "",
          "type": "string"
        }
      ],
      "stateMutability": "view",
      "type": "function"
    },
    {
      "inputs": [],
      "name": "pause",
      "outputs": [],
      "stateMutability": "nonpayable",
      "type": "function"
    },
    {
      "inputs": [],
      "name": "paused",
      "outputs": [
        {
          "internalType": "bool",
          "name": "",
          "type": "bool"
        }
      ],
      "stateMutability": "view",
      "type": "function"
    },
    {
      "inputs": [
        {
          "internalType": "bytes32",
          "name": "role",
          "type": "bytes32"
        },
        {
          "internalType": "address",
          "name": "account",
          "type": "address"
        }
      ],
      "name": "renounceRole",
      "outputs": [],
      "stateMutability": "nonpayable",
      "type": "function"
    },
    {
      "inputs": [
        {
          "internalType": "bytes32",
          "name": "role",
          "type": "bytes32"
        },
        {
          "internalType": "address",
          "name": "account",
          "type": "address"
        }
      ],
      "name": "revokeRole",
      "outputs": [],
      "stateMutability": "nonpayable",
      "type": "function"
    },
    {
      "inputs": [
        {
          "internalType": "uint256",
          "name": "amount",
          "type": "uint256"
        }
      ],
      "name": "stake",
      "outputs": [],
      "stateMutability": "nonpayable",
      "type": "function"
    },
    {
      "inputs": [],
      "name": "staker",
      "outputs": [
        {
          "internalType": "address",
          "name": "",
          "type": "address"
        }
      ],
      "stateMutability": "view",
      "type": "function"
    },
    {
      "inputs": [
        {
          "internalType": "bytes4",
          "name": "interfaceId",
          "type": "bytes4"
        }
      ],
      "name": "supportsInterface",
      "outputs": [
        {
          "internalType": "bool",
          "name": "",
          "type": "bool"
        }
      ],
      "stateMutability": "view",
      "type": "function"
    },
    {
      "inputs": [],
      "name": "symbol",
      "outputs": [
        {
          "internalType": "string",
          "name": "",
          "type": "string"
        }
      ],
      "stateMutability": "view",
      "type": "function"
    },
    {
      "inputs": [],
      "name": "totalSupply",
      "outputs": [
        {
          "internalType": "uint256",
          "name": "",
          "type": "uint256"
        }
      ],
      "stateMutability": "view",
      "type": "function"
    },
    {
      "inputs": [
        {
          "internalType": "address",
          "name": "recipient",
          "type": "address"
        },
        {
          "internalType": "uint256",
          "name": "amount",
          "type": "uint256"
        }
      ],
      "name": "transfer",
      "outputs": [
        {
          "internalType": "bool",
          "name": "",
          "type": "bool"
        }
      ],
      "stateMutability": "nonpayable",
      "type": "function"
    },
    {
      "inputs": [
        {
          "internalType": "address",
          "name": "sender",
          "type": "address"
        },
        {
          "internalType": "address",
          "name": "recipient",
          "type": "address"
        },
        {
          "internalType": "uint256",
          "name": "amount",
          "type": "uint256"
        }
      ],
      "name": "transferFrom",
      "outputs": [
        {
          "internalType": "bool",
          "name": "",
          "type": "bool"
        }
      ],
      "stateMutability": "nonpayable",
      "type": "function"
    },
    {
      "inputs": [],
      "name": "unpause",
      "outputs": [],
      "stateMutability": "nonpayable",
      "type": "function"
    }
  ],
  "bytecode": "0x60806040523480156200001157600080fd5b50604051620022783803806200227883398101604081905262000034916200041f565b85858181816005908051906020019062000050929190620002a9565b50805162000066906006906020840190620002a9565b50506007805460ff1916905550620000816000335b62000144565b620000ad7f9f2df0fed2c77648de5860a4cc508cd0818c85b8b8a1ab4ceeef8d981c8956a6336200007b565b620000d97f65d7a28e3265b37a6474929f336521b332c1681b933f6cb9f3376673440d862a336200007b565b5050600780546001600160a01b0395861661010002610100600160a81b031990911617905560088054911515600160c01b0260ff60c01b1963ffffffff909416600160a01b026001600160c01b03199093169490951693909317171691909117905550620005339050565b6200015b82826200018760201b62000af81760201c565b60008281526001602090815260409091206200018291839062000b0262000197821b17901c565b505050565b620001938282620001b7565b5050565b6000620001ae836001600160a01b03841662000257565b90505b92915050565b6000828152602081815260408083206001600160a01b038516845290915290205460ff1662000193576000828152602081815260408083206001600160a01b03851684529091529020805460ff19166001179055620002133390565b6001600160a01b0316816001600160a01b0316837f2f8788117e7eff1d82e926ec794901d17c78024a50270940304540a733656f0d60405160405180910390a45050565b6000818152600183016020526040812054620002a057508154600181810184556000848152602080822090930184905584548482528286019093526040902091909155620001b1565b506000620001b1565b828054620002b790620004e0565b90600052602060002090601f016020900481019282620002db576000855562000326565b82601f10620002f657805160ff191683800117855562000326565b8280016001018555821562000326579182015b828111156200032657825182559160200191906001019062000309565b506200033492915062000338565b5090565b5b8082111562000334576000815560010162000339565b80516001600160a01b03811681146200036757600080fd5b919050565b600082601f8301126200037d578081fd5b81516001600160401b03808211156200039a576200039a6200051d565b604051601f8301601f19908116603f01168101908282118183101715620003c557620003c56200051d565b81604052838152602092508683858801011115620003e1578485fd5b8491505b83821015620004045785820183015181830184015290820190620003e5565b838211156200041557848385830101525b9695505050505050565b60008060008060008060c0878903121562000438578182fd5b86516001600160401b03808211156200044f578384fd5b6200045d8a838b016200036c565b9750602089015191508082111562000473578384fd5b506200048289828a016200036c565b95505062000493604088016200034f565b9350620004a3606088016200034f565b9250608087015163ffffffff81168114620004bc578283fd5b60a08801519092508015158114620004d2578182fd5b809150509295509295509295565b600181811c90821680620004f557607f821691505b602082108114156200051757634e487b7160e01b600052602260045260246000fd5b50919050565b634e487b7160e01b600052604160045260246000fd5b611d3580620005436000396000f3fe608060405234801561001057600080fd5b50600436106101fb5760003560e01c80635ebaf1db1161011a578063a217fddf116100ad578063ca15c8731161007c578063ca15c8731461043b578063d53913931461044e578063d547741f14610475578063dd62ed3e14610488578063e63ab1e9146104c1576101fb565b8063a217fddf146103fa578063a457c2d714610402578063a694fc3a14610415578063a9059cbb14610428576101fb565b80638c7adc15116100e95780638c7adc15146103a05780639010d07c146103cc57806391d14854146103df57806395d89b41146103f2576101fb565b80635ebaf1db1461035f57806370a082311461037257806379cc6790146103855780638456cb5914610398576101fb565b80632f2ff15d116101925780633f4ba83a116101615780633f4ba83a1461032657806340c10f191461032e57806342966c68146103415780635c975abb14610354576101fb565b80632f2ff15d146102dc578063313ce567146102f157806336568abe146103005780633950935114610313576101fb565b8063202a61a1116101ce578063202a61a11461026257806323b872dd14610276578063248a9ca31461028957806329949872146102ac576101fb565b806301ffc9a71461020057806306fdde0314610228578063095ea7b31461023d57806318160ddd14610250575b600080fd5b61021361020e366004611b31565b6104e8565b60405190151581526020015b60405180910390f35b610230610515565b60405161021f9190611be6565b61021361024b366004611aad565b6105a7565b6004545b60405190815260200161021f565b60085461021390600160c01b900460ff1681565b610213610284366004611a72565b6105be565b610254610297366004611ad6565b60009081526020819052604090206001015490565b6007546102c49061010090046001600160a01b031681565b6040516001600160a01b03909116815260200161021f565b6102ef6102ea366004611aee565b61061f565b005b6040516012815260200161021f565b6102ef61030e366004611aee565b610646565b610213610321366004611aad565b610668565b6102ef6106a4565b6102ef61033c366004611aad565b61074f565b6102ef61034f366004611ad6565b61075d565b60075460ff16610213565b6008546102c4906001600160a01b031681565b610254610380366004611a26565b61076a565b6102ef610393366004611aad565b610839565b6102ef6108bc565b6008546103b790600160a01b900463ffffffff1681565b60405163ffffffff909116815260200161021f565b6102c46103da366004611b10565b610960565b6102136103ed366004611aee565b610978565b6102306109a1565b610254600081565b610213610410366004611aad565b6109b0565b6102ef610423366004611ad6565b610a4b565b610213610436366004611aad565b610aca565b610254610449366004611ad6565b610ad7565b6102547f9f2df0fed2c77648de5860a4cc508cd0818c85b8b8a1ab4ceeef8d981c8956a681565b6102ef610483366004611aee565b610aee565b610254610496366004611a40565b6001600160a01b03918216600090815260036020908152604080832093909416825291909152205490565b6102547f65d7a28e3265b37a6474929f336521b332c1681b933f6cb9f3376673440d862a81565b60006001600160e01b03198216635a05180f60e01b148061050d575061050d82610b17565b90505b919050565b60606005805461052490611cae565b80601f016020809104026020016040519081016040528092919081815260200182805461055090611cae565b801561059d5780601f106105725761010080835404028352916020019161059d565b820191906000526020600020905b81548152906001019060200180831161058057829003601f168201915b5050505050905090565b60006105b4338484610b4c565b5060015b92915050565b6007546000906001600160a01b03848116610100909204161480156105f2575060075461010090046001600160a01b031633145b1561060a57610602848484610c71565b506001610618565b610615848484610e54565b90505b9392505050565b6106298282610f00565b60008281526001602052604090206106419082610b02565b505050565b6106508282610f27565b60008281526001602052604090206106419082610fa1565b3360008181526003602090815260408083206001600160a01b038716845290915281205490916105b491859061069f908690611c19565b610b4c565b6106ce7f65d7a28e3265b37a6474929f336521b332c1681b933f6cb9f3376673440d862a336103ed565b6107455760405162461bcd60e51b815260206004820152603960248201527f45524332305072657365744d696e7465725061757365723a206d75737420686160448201527f76652070617573657220726f6c6520746f20756e70617573650000000000000060648201526084015b60405180910390fd5b61074d610fb6565b565b6107598282611049565b5050565b61076733826110e8565b50565b60075460085460405163f68a327f60e01b81526001600160a01b038481166004830152600160a01b830463ffffffff166024830152600160c01b90920460ff161515604482015260009261010090049091169063f68a327f9060640160206040518083038186803b1580156107de57600080fd5b505afa1580156107f2573d6000803e3d6000fd5b505050506040513d601f19601f820116820180604052508101906108169190611b59565b6001600160a01b03831660009081526002602052604090205461050d9190611c19565b60006108458333610496565b9050818110156108a35760405162461bcd60e51b8152602060048201526024808201527f45524332303a206275726e20616d6f756e74206578636565647320616c6c6f77604482015263616e636560e01b606482015260840161073c565b6108b2833361069f8585611c50565b61064183836110e8565b6108e67f65d7a28e3265b37a6474929f336521b332c1681b933f6cb9f3376673440d862a336103ed565b6109585760405162461bcd60e51b815260206004820152603760248201527f45524332305072657365744d696e7465725061757365723a206d75737420686160448201527f76652070617573657220726f6c6520746f207061757365000000000000000000606482015260840161073c565b61074d611151565b600082815260016020526040812061061890836111cc565b6000918252602082815260408084206001600160a01b0393909316845291905290205460ff1690565b60606006805461052490611cae565b3360009081526003602090815260408083206001600160a01b038616845290915281205482811015610a325760405162461bcd60e51b815260206004820152602560248201527f45524332303a2064656372656173656420616c6c6f77616e63652062656c6f77604482015264207a65726f60d81b606482015260840161073c565b610a41338561069f8685611c50565b5060019392505050565b600854610a639033906001600160a01b031683610c71565b6008546040516373479edf60e11b8152336004820152602481018390526001600160a01b039091169063e68f3dbe90604401600060405180830381600087803b158015610aaf57600080fd5b505af1158015610ac3573d6000803e3d6000fd5b5050505050565b60006105b4338484610c71565b600081815260016020526040812061050d906111d8565b61065082826111e2565b6107598282611208565b6000610618836001600160a01b03841661128c565b60006001600160e01b03198216637965db0b60e01b148061050d57506301ffc9a760e01b6001600160e01b031983161461050d565b6001600160a01b038316610bae5760405162461bcd60e51b8152602060048201526024808201527f45524332303a20617070726f76652066726f6d20746865207a65726f206164646044820152637265737360e01b606482015260840161073c565b6001600160a01b038216610c0f5760405162461bcd60e51b815260206004820152602260248201527f45524332303a20617070726f766520746f20746865207a65726f206164647265604482015261737360f01b606482015260840161073c565b6001600160a01b0383811660008181526003602090815260408083209487168084529482529182902085905590518481527f8c5be1e5ebec7d5bd14f71427d1e84f3dd0314c0f7b2291e5b200ac8c7c3b92591015b60405180910390a3505050565b6001600160a01b038316610cd55760405162461bcd60e51b815260206004820152602560248201527f45524332303a207472616e736665722066726f6d20746865207a65726f206164604482015264647265737360d81b606482015260840161073c565b6001600160a01b038216610d375760405162461bcd60e51b815260206004820152602360248201527f45524332303a207472616e7366657220746f20746865207a65726f206164647260448201526265737360e81b606482015260840161073c565b610d428383836112db565b6001600160a01b03831660009081526002602052604090205481811015610dba5760405162461bcd60e51b815260206004820152602660248201527f45524332303a207472616e7366657220616d6f756e7420657863656564732062604482015265616c616e636560d01b606482015260840161073c565b610dc48282611c50565b6001600160a01b038086166000908152600260205260408082209390935590851681529081208054849290610dfa908490611c19565b92505081905550826001600160a01b0316846001600160a01b03167fddf252ad1be2c89b69c2b068fc378daa952ba7f163c4a11628f55a4df523b3ef84604051610e4691815260200190565b60405180910390a350505050565b6000610e61848484610c71565b6001600160a01b038416600090815260036020908152604080832033845290915290205482811015610ee65760405162461bcd60e51b815260206004820152602860248201527f45524332303a207472616e7366657220616d6f756e74206578636565647320616044820152676c6c6f77616e636560c01b606482015260840161073c565b610ef5853361069f8685611c50565b506001949350505050565b600082815260208190526040902060010154610f1d81335b611373565b6106418383611208565b6001600160a01b0381163314610f975760405162461bcd60e51b815260206004820152602f60248201527f416363657373436f6e74726f6c3a2063616e206f6e6c792072656e6f756e636560448201526e103937b632b9903337b91039b2b63360891b606482015260840161073c565b61075982826113d7565b6000610618836001600160a01b03841661143c565b60075460ff16610fff5760405162461bcd60e51b815260206004820152601460248201527314185d5cd8589b194e881b9bdd081c185d5cd95960621b604482015260640161073c565b6007805460ff191690557f5db9ee0a495bf2e6ff9c91a7834c1ba4fdd244a5e8aa4e537bd38aeae4b073aa335b6040516001600160a01b03909116815260200160405180910390a1565b6110737f9f2df0fed2c77648de5860a4cc508cd0818c85b8b8a1ab4ceeef8d981c8956a6336103ed565b6110de5760405162461bcd60e51b815260206004820152603660248201527f45524332305072657365744d696e7465725061757365723a206d7573742068616044820152751d99481b5a5b9d195c881c9bdb19481d1bc81b5a5b9d60521b606482015260840161073c565b6107598282611553565b60075461010090046001600160a01b031633146111475760405162461bcd60e51b815260206004820152601760248201527f4f6e6c79204c6f6e6753686f727420636f6e7472616374000000000000000000604482015260640161073c565b610759828261163e565b60075460ff16156111975760405162461bcd60e51b815260206004820152601060248201526f14185d5cd8589b194e881c185d5cd95960821b604482015260640161073c565b6007805460ff191660011790557f62e78cea01bee320cd4e420270b5ea74000d11b0c9f74754ebdbfc544b05a25861102c3390565b60006106188383611799565b600061050d825490565b6000828152602081905260409020600101546111fe8133610f18565b61064183836113d7565b6112128282610978565b610759576000828152602081815260408083206001600160a01b03851684529091529020805460ff191660011790556112483390565b6001600160a01b0316816001600160a01b0316837f2f8788117e7eff1d82e926ec794901d17c78024a50270940304540a733656f0d60405160405180910390a45050565b60008181526001830160205260408120546112d3575081546001818101845560008481526020808220909301849055845484825282860190935260409020919091556105b8565b5060006105b8565b6007546001600160a01b038481166101009092041614610641576007546008546040516344bd03c360e11b81526001600160a01b038681166004830152600160a01b90920463ffffffff166024820152610100909204169063897a078690604401600060405180830381600087803b15801561135657600080fd5b505af115801561136a573d6000803e3d6000fd5b50505050505050565b61137d8282610978565b61075957611395816001600160a01b0316601461182d565b6113a083602061182d565b6040516020016113b1929190611b71565b60408051601f198184030181529082905262461bcd60e51b825261073c91600401611be6565b6113e18282610978565b15610759576000828152602081815260408083206001600160a01b0385168085529252808320805460ff1916905551339285917ff6391f5c32d9c69d2a47ea670b442974b53935d1edc7fd64eb21e047a839171b9190a45050565b60008181526001830160205260408120548015611549576000611460600183611c50565b855490915060009061147490600190611c50565b9050600086600001828154811061149b57634e487b7160e01b600052603260045260246000fd5b90600052602060002001549050808760000184815481106114cc57634e487b7160e01b600052603260045260246000fd5b60009182526020808320909101929092558281526001890190915260409020849055865487908061150d57634e487b7160e01b600052603160045260246000fd5b600190038181906000526020600020016000905590558660010160008781526020019081526020016000206000905560019450505050506105b8565b60009150506105b8565b6001600160a01b0382166115a95760405162461bcd60e51b815260206004820152601f60248201527f45524332303a206d696e7420746f20746865207a65726f206164647265737300604482015260640161073c565b6115b5600083836112db565b80600460008282546115c79190611c19565b90915550506001600160a01b038216600090815260026020526040812080548392906115f4908490611c19565b90915550506040518181526001600160a01b038316906000907fddf252ad1be2c89b69c2b068fc378daa952ba7f163c4a11628f55a4df523b3ef9060200160405180910390a35050565b6001600160a01b03821661169e5760405162461bcd60e51b815260206004820152602160248201527f45524332303a206275726e2066726f6d20746865207a65726f206164647265736044820152607360f81b606482015260840161073c565b6116aa826000836112db565b6001600160a01b0382166000908152600260205260409020548181101561171e5760405162461bcd60e51b815260206004820152602260248201527f45524332303a206275726e20616d6f756e7420657863656564732062616c616e604482015261636560f01b606482015260840161073c565b6117288282611c50565b6001600160a01b03841660009081526002602052604081209190915560048054849290611756908490611c50565b90915550506040518281526000906001600160a01b038516907fddf252ad1be2c89b69c2b068fc378daa952ba7f163c4a11628f55a4df523b3ef90602001610c64565b815460009082106117f75760405162461bcd60e51b815260206004820152602260248201527f456e756d657261626c655365743a20696e646578206f7574206f6620626f756e604482015261647360f01b606482015260840161073c565b82600001828154811061181a57634e487b7160e01b600052603260045260246000fd5b9060005260206000200154905092915050565b6060600061183c836002611c31565b611847906002611c19565b67ffffffffffffffff81111561186d57634e487b7160e01b600052604160045260246000fd5b6040519080825280601f01601f191660200182016040528015611897576020820181803683370190505b509050600360fc1b816000815181106118c057634e487b7160e01b600052603260045260246000fd5b60200101906001600160f81b031916908160001a905350600f60fb1b816001815181106118fd57634e487b7160e01b600052603260045260246000fd5b60200101906001600160f81b031916908160001a9053506000611921846002611c31565b61192c906001611c19565b90505b60018111156119c0576f181899199a1a9b1b9c1cb0b131b232b360811b85600f166010811061196e57634e487b7160e01b600052603260045260246000fd5b1a60f81b82828151811061199257634e487b7160e01b600052603260045260246000fd5b60200101906001600160f81b031916908160001a90535060049490941c936119b981611c97565b905061192f565b5083156106185760405162461bcd60e51b815260206004820181905260248201527f537472696e67733a20686578206c656e67746820696e73756666696369656e74604482015260640161073c565b80356001600160a01b038116811461051057600080fd5b600060208284031215611a37578081fd5b61061882611a0f565b60008060408385031215611a52578081fd5b611a5b83611a0f565b9150611a6960208401611a0f565b90509250929050565b600080600060608486031215611a86578081fd5b611a8f84611a0f565b9250611a9d60208501611a0f565b9150604084013590509250925092565b60008060408385031215611abf578182fd5b611ac883611a0f565b946020939093013593505050565b600060208284031215611ae7578081fd5b5035919050565b60008060408385031215611b00578182fd5b82359150611a6960208401611a0f565b60008060408385031215611b22578182fd5b50508035926020909101359150565b600060208284031215611b42578081fd5b81356001600160e01b031981168114610618578182fd5b600060208284031215611b6a578081fd5b5051919050565b60007f416363657373436f6e74726f6c3a206163636f756e742000000000000000000082528351611ba9816017850160208801611c67565b7001034b99036b4b9b9b4b733903937b6329607d1b6017918401918201528351611bda816028840160208801611c67565b01602801949350505050565b6000602082528251806020840152611c05816040850160208701611c67565b601f01601f19169190910160400192915050565b60008219821115611c2c57611c2c611ce9565b500190565b6000816000190483118215151615611c4b57611c4b611ce9565b500290565b600082821015611c6257611c62611ce9565b500390565b60005b83811015611c82578181015183820152602001611c6a565b83811115611c91576000848401525b50505050565b600081611ca657611ca6611ce9565b506000190190565b600181811c90821680611cc257607f821691505b60208210811415611ce357634e487b7160e01b600052602260045260246000fd5b50919050565b634e487b7160e01b600052601160045260246000fdfea2646970667358221220cc55444727d1b7aa0b3e3bba94649b9225a4ca88da74dd27c2789f7dca40642464736f6c63430008030033",
  "linkReferences": {},
  "deployedLinkReferences": {}
}