{
  "_format": "hh-sol-artifact-1",
  "contractName": "AggregatorV3Mock",
  "sourceName": "contracts/mocks/AggregatorV3Mock.sol",
  "abi": [
    {
      "inputs": [],
      "name": "admin",
      "outputs": [
        {
          "internalType": "address",
          "name": "",
          "type": "address"
        }
      ],
      "stateMutability": "view",
      "type": "function"
    },
    {
      "inputs": [],
      "name": "decimals",
      "outputs": [
        {
          "internalType": "uint8",
          "name": "",
          "type": "uint8"
        }
      ],
      "stateMutability": "view",
      "type": "function"
    },
    {
      "inputs": [],
      "name": "description",
      "outputs": [
        {
          "internalType": "string",
          "name": "",
          "type": "string"
        }
      ],
      "stateMutability": "view",
      "type": "function"
    },
    {
      "inputs": [
        {
          "internalType": "uint80",
          "name": "_roundId",
          "type": "uint80"
        }
      ],
      "name": "getRoundData",
      "outputs": [
        {
          "internalType": "uint80",
          "name": "roundId",
          "type": "uint80"
        },
        {
          "internalType": "int256",
          "name": "answer",
          "type": "int256"
        },
        {
          "internalType": "uint256",
          "name": "startedAt",
          "type": "uint256"
        },
        {
          "internalType": "uint256",
          "name": "updatedAt",
          "type": "uint256"
        },
        {
          "internalType": "uint80",
          "name": "answeredInRound",
          "type": "uint80"
        }
      ],
      "stateMutability": "view",
      "type": "function"
    },
    {
      "inputs": [],
      "name": "latestRoundData",
      "outputs": [
        {
          "internalType": "uint80",
          "name": "roundId",
          "type": "uint80"
        },
        {
          "internalType": "int256",
          "name": "answer",
          "type": "int256"
        },
        {
          "internalType": "uint256",
          "name": "startedAt",
          "type": "uint256"
        },
        {
          "internalType": "uint256",
          "name": "updatedAt",
          "type": "uint256"
        },
        {
          "internalType": "uint80",
          "name": "answeredInRound",
          "type": "uint80"
        }
      ],
      "stateMutability": "view",
      "type": "function"
    },
    {
      "inputs": [
        {
          "internalType": "uint80",
          "name": "",
          "type": "uint80"
        }
      ],
      "name": "roundData",
      "outputs": [
        {
          "internalType": "uint80",
          "name": "answeredInRound",
          "type": "uint80"
        },
        {
          "internalType": "int256",
          "name": "answer",
          "type": "int256"
        },
        {
          "internalType": "uint256",
          "name": "setAt",
          "type": "uint256"
        }
      ],
      "stateMutability": "view",
      "type": "function"
    },
    {
      "inputs": [
        {
          "internalType": "int256",
          "name": "_price",
          "type": "int256"
        }
      ],
      "name": "setPrice",
      "outputs": [],
      "stateMutability": "nonpayable",
      "type": "function"
    },
    {
      "inputs": [
        {
          "internalType": "address",
          "name": "_admin",
          "type": "address"
        },
        {
          "internalType": "int256",
          "name": "_price",
          "type": "int256"
        },
        {
          "internalType": "uint8",
          "name": "_decimals",
          "type": "uint8"
        }
      ],
      "name": "setup",
      "outputs": [],
      "stateMutability": "nonpayable",
      "type": "function"
    },
    {
      "inputs": [],
      "name": "version",
      "outputs": [
        {
          "internalType": "uint256",
          "name": "",
          "type": "uint256"
        }
      ],
      "stateMutability": "view",
      "type": "function"
    }
  ],
  "bytecode": "0x60c0604052601f60808190527f546869732069732061206d6f636b20636861696e6c696e6b206f7261636c650060a090815261003e9160029190610051565b5034801561004b57600080fd5b50610125565b82805461005d906100ea565b90600052602060002090601f01602090048101928261007f57600085556100c5565b82601f1061009857805160ff19168380011785556100c5565b828001600101855582156100c5579182015b828111156100c55782518255916020019190600101906100aa565b506100d19291506100d5565b5090565b5b808211156100d157600081556001016100d6565b600181811c908216806100fe57607f821691505b6020821081141561011f57634e487b7160e01b600052602260045260246000fd5b50919050565b6106b2806101346000396000f3fe608060405234801561001057600080fd5b50600436106100935760003560e01c80639a6fc8f5116100665780639a6fc8f514610104578063bc81bae814610174578063f7a30806146101d2578063f851a440146101e5578063feaf968c1461021657610093565b8063313ce5671461009857806354fd4d50146100c357806368c6e914146100da5780637284e416146100ef575b600080fd5b6000546100ac90600160b01b900460ff1681565b60405160ff90911681526020015b60405180910390f35b6100cc60015481565b6040519081526020016100ba565b6100ed6100e8366004610520565b610244565b005b6100f761040f565b6040516100ba91906105b7565b610140610112366004610589565b6001600160501b03811660009081526003602052604090206001808201546002909201549293919291829190565b604080516001600160501b03968716815260208101959095528401929092526060830152909116608082015260a0016100ba565b6101ad610182366004610589565b6003602052600090815260409020805460018201546002909201546001600160501b03909116919083565b604080516001600160501b0390941684526020840192909252908201526060016100ba565b6100ed6101e0366004610571565b61049d565b6000546101fe906201000090046001600160a01b031681565b6040516001600160a01b0390911681526020016100ba565b6004546001600160501b03166000818152600360205260409020600180820154600290920154908190610140565b600054610100900460ff168061025d575060005460ff16155b6102c45760405162461bcd60e51b815260206004820152602e60248201527f496e697469616c697a61626c653a20636f6e747261637420697320616c72656160448201526d191e481a5b9a5d1a585b1a5e995960921b606482015260840160405180910390fd5b600054610100900460ff161580156102e6576000805461ffff19166101011790555b6000805462010000600160b01b031916620100006001600160a01b0387160217905560ff8216610317576012610319565b815b6000805460ff60b01b1916600160b01b60ff939093169290920291909117815560018080556004805469ffffffffffffffffffff1990811683179091556040805160608101825283815260208082018981524293830193845294909552600390945292517fa15bc60c955c405d20d9149c709e2460f1c2d9a497496a7f46004d1772c3054c80549092166001600160501b03909116179055517fa15bc60c955c405d20d9149c709e2460f1c2d9a497496a7f46004d1772c3054d55517fa15bc60c955c405d20d9149c709e2460f1c2d9a497496a7f46004d1772c3054e558015610409576000805461ff00191690555b50505050565b6002805461041c90610641565b80601f016020809104026020016040519081016040528092919081815260200182805461044890610641565b80156104955780601f1061046a57610100808354040283529160200191610495565b820191906000526020600020905b81548152906001019060200180831161047857829003601f168201915b505050505081565b6004546104b4906001600160501b0316600161060a565b6004805469ffffffffffffffffffff199081166001600160501b0393841690811790925560408051606081018252838152602080820196875242828401908152600095865260039091529190932092518354909216919093161781559151600183015551600290910155565b600080600060608486031215610534578283fd5b83356001600160a01b038116811461054a578384fd5b925060208401359150604084013560ff81168114610566578182fd5b809150509250925092565b600060208284031215610582578081fd5b5035919050565b60006020828403121561059a578081fd5b81356001600160501b03811681146105b0578182fd5b9392505050565b6000602080835283518082850152825b818110156105e3578581018301518582016040015282016105c7565b818111156105f45783604083870101525b50601f01601f1916929092016040019392505050565b60006001600160501b0380831681851680830382111561063857634e487b7160e01b84526011600452602484fd5b01949350505050565b600181811c9082168061065557607f821691505b6020821081141561067657634e487b7160e01b600052602260045260246000fd5b5091905056fea26469706673582212201aa4e7ed10c14d8b467a90d6abf060ca34b682e122e114089c66316701d77bed64736f6c63430008030033",
  "linkReferences": {},
  "deployedLinkReferences": {}
}