{
  "_format": "hh-sol-artifact-1",
  "contractName": "OracleManagerEthKillerChainlink",
  "sourceName": "contracts/oracles/OracleManagerEthKillerChainlink.sol",
  "abi": [
    {
      "inputs": [
        {
          "internalType": "address",
          "name": "_admin",
          "type": "address"
        },
        {
          "internalType": "address",
          "name": "_tronOracle",
          "type": "address"
        },
        {
          "internalType": "address",
          "name": "_eosOracle",
          "type": "address"
        },
        {
          "internalType": "address",
          "name": "_xrpOracle",
          "type": "address"
        }
      ],
      "stateMutability": "nonpayable",
      "type": "constructor"
    },
    {
      "inputs": [],
      "name": "admin",
      "outputs": [
        {
          "internalType": "address",
          "name": "",
          "type": "address"
        }
      ],
      "stateMutability": "view",
      "type": "function"
    },
    {
      "inputs": [
        {
          "internalType": "address",
          "name": "_admin",
          "type": "address"
        }
      ],
      "name": "changeAdmin",
      "outputs": [],
      "stateMutability": "nonpayable",
      "type": "function"
    },
    {
      "inputs": [],
      "name": "eosOracle",
      "outputs": [
        {
          "internalType": "contract AggregatorV3Interface",
          "name": "",
          "type": "address"
        }
      ],
      "stateMutability": "view",
      "type": "function"
    },
    {
      "inputs": [],
      "name": "eosPrice",
      "outputs": [
        {
          "internalType": "int256",
          "name": "",
          "type": "int256"
        }
      ],
      "stateMutability": "view",
      "type": "function"
    },
    {
      "inputs": [],
      "name": "getLatestPrice",
      "outputs": [
        {
          "internalType": "int256",
          "name": "",
          "type": "int256"
        }
      ],
      "stateMutability": "view",
      "type": "function"
    },
    {
      "inputs": [],
      "name": "indexPrice",
      "outputs": [
        {
          "internalType": "int256",
          "name": "",
          "type": "int256"
        }
      ],
      "stateMutability": "view",
      "type": "function"
    },
    {
      "inputs": [],
      "name": "tronOracle",
      "outputs": [
        {
          "internalType": "contract AggregatorV3Interface",
          "name": "",
          "type": "address"
        }
      ],
      "stateMutability": "view",
      "type": "function"
    },
    {
      "inputs": [],
      "name": "tronPrice",
      "outputs": [
        {
          "internalType": "int256",
          "name": "",
          "type": "int256"
        }
      ],
      "stateMutability": "view",
      "type": "function"
    },
    {
      "inputs": [],
      "name": "updatePrice",
      "outputs": [
        {
          "internalType": "int256",
          "name": "",
          "type": "int256"
        }
      ],
      "stateMutability": "nonpayable",
      "type": "function"
    },
    {
      "inputs": [],
      "name": "xrpOracle",
      "outputs": [
        {
          "internalType": "contract AggregatorV3Interface",
          "name": "",
          "type": "address"
        }
      ],
      "stateMutability": "view",
      "type": "function"
    },
    {
      "inputs": [],
      "name": "xrpPrice",
      "outputs": [
        {
          "internalType": "int256",
          "name": "",
          "type": "int256"
        }
      ],
      "stateMutability": "view",
      "type": "function"
    }
  ],
  "bytecode": "0x608060405234801561001057600080fd5b5060405161099838038061099883398101604081905261002f9161028d565b600080546001600160a01b038087166001600160a01b031992831617909255600580548684169083161790556006805485841690831617905560078054928416929091169190911790556100816100a0565b6004556003556002555050670de0b6b3a76400006001555061032f9050565b600080600080600560009054906101000a90046001600160a01b03166001600160a01b031663feaf968c6040518163ffffffff1660e01b815260040160a06040518083038186803b1580156100f457600080fd5b505afa158015610108573d6000803e3d6000fd5b505050506040513d601f19601f8201168201806040525081019061012c91906102e0565b5050509150506000600660009054906101000a90046001600160a01b03166001600160a01b031663feaf968c6040518163ffffffff1660e01b815260040160a06040518083038186803b15801561018257600080fd5b505afa158015610196573d6000803e3d6000fd5b505050506040513d601f19601f820116820180604052508101906101ba91906102e0565b5050509150506000600760009054906101000a90046001600160a01b03166001600160a01b031663feaf968c6040518163ffffffff1660e01b815260040160a06040518083038186803b15801561021057600080fd5b505afa158015610224573d6000803e3d6000fd5b505050506040513d601f19601f8201168201806040525081019061024891906102e0565b50959850939650945050505050909192565b80516001600160a01b038116811461027157600080fd5b919050565b80516001600160501b038116811461027157600080fd5b600080600080608085870312156102a2578384fd5b6102ab8561025a565b93506102b96020860161025a565b92506102c76040860161025a565b91506102d56060860161025a565b905092959194509250565b600080600080600060a086880312156102f7578081fd5b61030086610276565b945060208601519350604086015192506060860151915061032360808701610276565b90509295509295909350565b61065a8061033e6000396000f3fe608060405234801561001057600080fd5b50600436106100a95760003560e01c80633f37987b116100715780633f37987b14610110578063673a7e28146101235780638c0d69fe1461012b5780638e15f4731461013e5780638f28397014610146578063f851a4401461015b576100a9565b80630b42902e146100ae57806310bace8c146100ca57806322d84372146100d357806326a16b7f146100dc57806339dae8d214610107575b600080fd5b6100b760025481565b6040519081526020015b60405180910390f35b6100b760015481565b6100b760035481565b6006546100ef906001600160a01b031681565b6040516001600160a01b0390911681526020016100c1565b6100b760045481565b6007546100ef906001600160a01b031681565b6100b761016e565b6005546100ef906001600160a01b031681565b6001546100b7565b61015961015436600461045b565b61017d565b005b6000546100ef906001600160a01b031681565b60006101786101b6565b905090565b6000546001600160a01b0316331461019457600080fd5b600080546001600160a01b0319166001600160a01b0392909216919091179055565b6000806000806101c4610252565b92509250925060006729a2241af62c00006101e18360045461040c565b6101ed8560035461040c565b6101f98760025461040c565b61020391906104d1565b61020d91906104d1565b60015461021a919061054c565b6102249190610512565b6002859055600384905560048390556001549091506102449082906104d1565b600181905594505050505090565b600080600080600560009054906101000a90046001600160a01b03166001600160a01b031663feaf968c6040518163ffffffff1660e01b815260040160a06040518083038186803b1580156102a657600080fd5b505afa1580156102ba573d6000803e3d6000fd5b505050506040513d601f19601f820116820180604052508101906102de9190610482565b5050509150506000600660009054906101000a90046001600160a01b03166001600160a01b031663feaf968c6040518163ffffffff1660e01b815260040160a06040518083038186803b15801561033457600080fd5b505afa158015610348573d6000803e3d6000fd5b505050506040513d601f19601f8201168201806040525081019061036c9190610482565b5050509150506000600760009054906101000a90046001600160a01b03166001600160a01b031663feaf968c6040518163ffffffff1660e01b815260040160a06040518083038186803b1580156103c257600080fd5b505afa1580156103d6573d6000803e3d6000fd5b505050506040513d601f19601f820116820180604052508101906103fa9190610482565b50959850939650945050505050909192565b60008161041981856105cf565b61042b90670de0b6b3a764000061054c565b6104359190610512565b9392505050565b805169ffffffffffffffffffff8116811461045657600080fd5b919050565b60006020828403121561046c578081fd5b81356001600160a01b0381168114610435578182fd5b600080600080600060a08688031215610499578081fd5b6104a28661043c565b94506020860151935060408601519250606086015191506104c56080870161043c565b90509295509295909350565b600080821280156001600160ff1b03849003851316156104f3576104f361060e565b600160ff1b839003841281161561050c5761050c61060e565b50500190565b60008261052d57634e487b7160e01b81526012600452602481fd5b600160ff1b8214600019841416156105475761054761060e565b500590565b60006001600160ff1b03818413828413808216868404861116156105725761057261060e565b600160ff1b848712828116878305891216156105905761059061060e565b8587129250878205871284841616156105ab576105ab61060e565b878505871281841616156105c1576105c161060e565b505050929093029392505050565b60008083128015600160ff1b8501841216156105ed576105ed61060e565b6001600160ff1b03840183138116156106085761060861060e565b50500390565b634e487b7160e01b600052601160045260246000fdfea26469706673582212207cfb8662a64d73cbd2f3b04a7f1b5678f52d99c416de34cbc725e233a69b1a4764736f6c63430008030033",
  "linkReferences": {},
  "deployedLinkReferences": {}
}