{
  "_format": "hh-sol-artifact-1",
  "contractName": "LendingPoolAaveMock",
  "sourceName": "contracts/mocks/LendingPoolAaveMock.sol",
  "abi": [
    {
      "inputs": [
        {
          "internalType": "address",
          "name": "asset",
          "type": "address"
        },
        {
          "internalType": "uint256",
          "name": "amount",
          "type": "uint256"
        },
        {
          "internalType": "address",
          "name": "onBehalfOf",
          "type": "address"
        },
        {
          "internalType": "uint16",
          "name": "referralCode",
          "type": "uint16"
        }
      ],
      "name": "deposit",
      "outputs": [],
      "stateMutability": "pure",
      "type": "function"
    },
    {
      "inputs": [
        {
          "internalType": "address",
          "name": "asset",
          "type": "address"
        },
        {
          "internalType": "uint256",
          "name": "amount",
          "type": "uint256"
        },
        {
          "internalType": "address",
          "name": "to",
          "type": "address"
        }
      ],
      "name": "withdraw",
      "outputs": [
        {
          "internalType": "uint256",
          "name": "",
          "type": "uint256"
        }
      ],
      "stateMutability": "pure",
      "type": "function"
    }
  ],
  "bytecode": "0x608060405234801561001057600080fd5b50610194806100206000396000f3fe608060405234801561001057600080fd5b50600436106100365760003560e01c806369328dec1461003b578063e8eda9df14610060575b600080fd5b61004e6100493660046100b7565b610076565b60405190815260200160405180910390f35b61007461006e3660046100f2565b50505050565b005b604080516020810191829052600090819052906100939080610146565b949350505050565b80356001600160a01b03811681146100b257600080fd5b919050565b6000806000606084860312156100cb578283fd5b6100d48461009b565b9250602084013591506100e96040850161009b565b90509250925092565b60008060008060808587031215610107578081fd5b6101108561009b565b9350602085013592506101256040860161009b565b9150606085013561ffff8116811461013b578182fd5b939692955090935050565b600060208284031215610157578081fd5b505191905056fea2646970667358221220d171a120a8259be62d8e8d6d0cd531ffbef2b728b85f87a11becb203a96e58cb64736f6c63430008030033",
  "linkReferences": {},
  "deployedLinkReferences": {}
}