{
  "_format": "hh-sol-artifact-1",
  "contractName": "Staker",
  "sourceName": "contracts/Staker.sol",
  "abi": [
    {
      "anonymous": false,
      "inputs": [
        {
          "indexed": false,
          "internalType": "uint32",
          "name": "marketIndex",
          "type": "uint32"
        },
        {
          "indexed": false,
          "internalType": "uint256",
          "name": "accumulativeFloatIssuanceSnapshotIndex",
          "type": "uint256"
        },
        {
          "indexed": false,
          "internalType": "uint256",
          "name": "accumulativeLong",
          "type": "uint256"
        },
        {
          "indexed": false,
          "internalType": "uint256",
          "name": "accumulativeShort",
          "type": "uint256"
        }
      ],
      "name": "AccumulativeIssuancePerStakedSynthSnapshotCreated",
      "type": "event"
    },
    {
      "anonymous": false,
      "inputs": [
        {
          "indexed": false,
          "internalType": "uint32",
          "name": "marketIndex",
          "type": "uint32"
        },
        {
          "indexed": false,
          "internalType": "int256",
          "name": "balanceIncentiveEquilibriumOffset",
          "type": "int256"
        }
      ],
      "name": "BalanceIncentiveEquilibriumOffsetUpdated",
      "type": "event"
    },
    {
      "anonymous": false,
      "inputs": [
        {
          "indexed": false,
          "internalType": "uint32",
          "name": "marketIndex",
          "type": "uint32"
        },
        {
          "indexed": false,
          "internalType": "uint256",
          "name": "balanceIncentiveExponent",
          "type": "uint256"
        }
      ],
      "name": "BalanceIncentiveExponentUpdated",
      "type": "event"
    },
    {
      "anonymous": false,
      "inputs": [
        {
          "indexed": false,
          "internalType": "address",
          "name": "newAdmin",
          "type": "address"
        }
      ],
      "name": "ChangeAdmin",
      "type": "event"
    },
    {
      "anonymous": false,
      "inputs": [
        {
          "indexed": false,
          "internalType": "address",
          "name": "user",
          "type": "address"
        },
        {
          "indexed": false,
          "internalType": "uint32",
          "name": "marketIndex",
          "type": "uint32"
        },
        {
          "indexed": false,
          "internalType": "uint256",
          "name": "amountFloatMinted",
          "type": "uint256"
        }
      ],
      "name": "FloatMinted",
      "type": "event"
    },
    {
      "anonymous": false,
      "inputs": [
        {
          "indexed": false,
          "internalType": "uint256",
          "name": "floatPercentage",
          "type": "uint256"
        }
      ],
      "name": "FloatPercentageUpdated",
      "type": "event"
    },
    {
      "anonymous": false,
      "inputs": [
        {
          "indexed": false,
          "internalType": "uint32",
          "name": "marketIndex",
          "type": "uint32"
        },
        {
          "indexed": false,
          "internalType": "uint256",
          "name": "exitFee_e18",
          "type": "uint256"
        },
        {
          "indexed": false,
          "internalType": "uint256",
          "name": "period",
          "type": "uint256"
        },
        {
          "indexed": false,
          "internalType": "uint256",
          "name": "multiplier",
          "type": "uint256"
        },
        {
          "indexed": false,
          "internalType": "uint256",
          "name": "balanceIncentiveExponent",
          "type": "uint256"
        },
        {
          "indexed": false,
          "internalType": "int256",
          "name": "balanceIncentiveEquilibriumOffset",
          "type": "int256"
        }
      ],
      "name": "MarketAddedToStaker",
      "type": "event"
    },
    {
      "anonymous": false,
      "inputs": [
        {
          "indexed": false,
          "internalType": "uint32",
          "name": "marketIndex",
          "type": "uint32"
        },
        {
          "indexed": false,
          "internalType": "uint256",
          "name": "period",
          "type": "uint256"
        },
        {
          "indexed": false,
          "internalType": "uint256",
          "name": "multiplier",
          "type": "uint256"
        }
      ],
      "name": "MarketLaunchIncentiveParametersChanges",
      "type": "event"
    },
    {
      "anonymous": false,
      "inputs": [
        {
          "indexed": false,
          "internalType": "address",
          "name": "user",
          "type": "address"
        },
        {
          "indexed": false,
          "internalType": "address",
          "name": "token",
          "type": "address"
        },
        {
          "indexed": false,
          "internalType": "uint256",
          "name": "amount",
          "type": "uint256"
        },
        {
          "indexed": false,
          "internalType": "uint256",
          "name": "lastMintIndex",
          "type": "uint256"
        }
      ],
      "name": "StakeAdded",
      "type": "event"
    },
    {
      "anonymous": false,
      "inputs": [
        {
          "indexed": false,
          "internalType": "uint32",
          "name": "marketIndex",
          "type": "uint32"
        },
        {
          "indexed": false,
          "internalType": "uint256",
          "name": "stakeWithdralFee",
          "type": "uint256"
        }
      ],
      "name": "StakeWithdrawalFeeUpdated",
      "type": "event"
    },
    {
      "anonymous": false,
      "inputs": [
        {
          "indexed": false,
          "internalType": "address",
          "name": "user",
          "type": "address"
        },
        {
          "indexed": false,
          "internalType": "address",
          "name": "token",
          "type": "address"
        },
        {
          "indexed": false,
          "internalType": "uint256",
          "name": "amount",
          "type": "uint256"
        }
      ],
      "name": "StakeWithdrawn",
      "type": "event"
    },
    {
      "anonymous": false,
      "inputs": [
        {
          "indexed": false,
          "internalType": "address",
          "name": "admin",
          "type": "address"
        },
        {
          "indexed": false,
          "internalType": "address",
          "name": "floatTreasury",
          "type": "address"
        },
        {
          "indexed": false,
          "internalType": "address",
          "name": "floatCapital",
          "type": "address"
        },
        {
          "indexed": false,
          "internalType": "address",
          "name": "floatToken",
          "type": "address"
        },
        {
          "indexed": false,
          "internalType": "uint256",
          "name": "floatPercentage",
          "type": "uint256"
        }
      ],
      "name": "StakerV1",
      "type": "event"
    },
    {
      "anonymous": false,
      "inputs": [],
      "name": "SyntheticTokensShifted",
      "type": "event"
    },
    {
      "inputs": [],
      "name": "FLOAT_ISSUANCE_FIXED_DECIMAL",
      "outputs": [
        {
          "internalType": "uint256",
          "name": "",
          "type": "uint256"
        }
      ],
      "stateMutability": "view",
      "type": "function"
    },
    {
      "inputs": [
        {
          "internalType": "uint32",
          "name": "",
          "type": "uint32"
        },
        {
          "internalType": "uint256",
          "name": "",
          "type": "uint256"
        }
      ],
      "name": "accumulativeFloatPerSyntheticTokenSnapshots",
      "outputs": [
        {
          "internalType": "uint256",
          "name": "timestamp",
          "type": "uint256"
        },
        {
          "internalType": "uint256",
          "name": "accumulativeFloatPerSyntheticToken_long",
          "type": "uint256"
        },
        {
          "internalType": "uint256",
          "name": "accumulativeFloatPerSyntheticToken_short",
          "type": "uint256"
        }
      ],
      "stateMutability": "view",
      "type": "function"
    },
    {
      "inputs": [
        {
          "internalType": "uint32",
          "name": "marketIndex",
          "type": "uint32"
        },
        {
          "internalType": "address",
          "name": "longToken",
          "type": "address"
        },
        {
          "internalType": "address",
          "name": "shortToken",
          "type": "address"
        },
        {
          "internalType": "uint256",
          "name": "kInitialMultiplier",
          "type": "uint256"
        },
        {
          "internalType": "uint256",
          "name": "kPeriod",
          "type": "uint256"
        },
        {
          "internalType": "uint256",
          "name": "unstakeFee_e18",
          "type": "uint256"
        },
        {
          "internalType": "uint256",
          "name": "_balanceIncentiveCurve_exponent",
          "type": "uint256"
        },
        {
          "internalType": "int256",
          "name": "_balanceIncentiveCurve_equilibriumOffset",
          "type": "int256"
        }
      ],
      "name": "addNewStakingFund",
      "outputs": [],
      "stateMutability": "nonpayable",
      "type": "function"
    },
    {
      "inputs": [],
      "name": "admin",
      "outputs": [
        {
          "internalType": "address",
          "name": "",
          "type": "address"
        }
      ],
      "stateMutability": "view",
      "type": "function"
    },
    {
      "inputs": [
        {
          "internalType": "uint32",
          "name": "",
          "type": "uint32"
        }
      ],
      "name": "balanceIncentiveCurve_equilibriumOffset",
      "outputs": [
        {
          "internalType": "int256",
          "name": "",
          "type": "int256"
        }
      ],
      "stateMutability": "view",
      "type": "function"
    },
    {
      "inputs": [
        {
          "internalType": "uint32",
          "name": "",
          "type": "uint32"
        }
      ],
      "name": "balanceIncentiveCurve_exponent",
      "outputs": [
        {
          "internalType": "uint256",
          "name": "",
          "type": "uint256"
        }
      ],
      "stateMutability": "view",
      "type": "function"
    },
    {
      "inputs": [
        {
          "internalType": "uint32",
          "name": "",
          "type": "uint32"
        }
      ],
      "name": "batched_stakerNextTokenShiftIndex",
      "outputs": [
        {
          "internalType": "uint256",
          "name": "",
          "type": "uint256"
        }
      ],
      "stateMutability": "view",
      "type": "function"
    },
    {
      "inputs": [
        {
          "internalType": "address",
          "name": "_admin",
          "type": "address"
        }
      ],
      "name": "changeAdmin",
      "outputs": [],
      "stateMutability": "nonpayable",
      "type": "function"
    },
    {
      "inputs": [
        {
          "internalType": "uint32",
          "name": "marketIndex",
          "type": "uint32"
        },
        {
          "internalType": "int256",
          "name": "_balanceIncentiveCurve_equilibriumOffset",
          "type": "int256"
        }
      ],
      "name": "changeBalanceIncentiveEquilibriumOffset",
      "outputs": [],
      "stateMutability": "nonpayable",
      "type": "function"
    },
    {
      "inputs": [
        {
          "internalType": "uint32",
          "name": "marketIndex",
          "type": "uint32"
        },
        {
          "internalType": "uint256",
          "name": "_balanceIncentiveCurve_exponent",
          "type": "uint256"
        }
      ],
      "name": "changeBalanceIncentiveExponent",
      "outputs": [],
      "stateMutability": "nonpayable",
      "type": "function"
    },
    {
      "inputs": [
        {
          "internalType": "uint256",
          "name": "newFloatPercentage",
          "type": "uint256"
        }
      ],
      "name": "changeFloatPercentage",
      "outputs": [],
      "stateMutability": "nonpayable",
      "type": "function"
    },
    {
      "inputs": [
        {
          "internalType": "uint32",
          "name": "marketIndex",
          "type": "uint32"
        },
        {
          "internalType": "uint256",
          "name": "period",
          "type": "uint256"
        },
        {
          "internalType": "uint256",
          "name": "initialMultiplier",
          "type": "uint256"
        }
      ],
      "name": "changeMarketLaunchIncentiveParameters",
      "outputs": [],
      "stateMutability": "nonpayable",
      "type": "function"
    },
    {
      "inputs": [
        {
          "internalType": "uint32",
          "name": "marketIndex",
          "type": "uint32"
        },
        {
          "internalType": "uint256",
          "name": "newMarketUnstakeFee_e18",
          "type": "uint256"
        }
      ],
      "name": "changeUnstakeFee",
      "outputs": [],
      "stateMutability": "nonpayable",
      "type": "function"
    },
    {
      "inputs": [
        {
          "internalType": "uint32[]",
          "name": "marketIndexes",
          "type": "uint32[]"
        }
      ],
      "name": "claimFloatCustom",
      "outputs": [],
      "stateMutability": "nonpayable",
      "type": "function"
    },
    {
      "inputs": [
        {
          "internalType": "uint32[]",
          "name": "marketIndexes",
          "type": "uint32[]"
        },
        {
          "internalType": "address",
          "name": "user",
          "type": "address"
        }
      ],
      "name": "claimFloatCustomFor",
      "outputs": [],
      "stateMutability": "nonpayable",
      "type": "function"
    },
    {
      "inputs": [],
      "name": "floatCapital",
      "outputs": [
        {
          "internalType": "address",
          "name": "",
          "type": "address"
        }
      ],
      "stateMutability": "view",
      "type": "function"
    },
    {
      "inputs": [],
      "name": "floatPercentage",
      "outputs": [
        {
          "internalType": "uint256",
          "name": "",
          "type": "uint256"
        }
      ],
      "stateMutability": "view",
      "type": "function"
    },
    {
      "inputs": [],
      "name": "floatToken",
      "outputs": [
        {
          "internalType": "address",
          "name": "",
          "type": "address"
        }
      ],
      "stateMutability": "view",
      "type": "function"
    },
    {
      "inputs": [],
      "name": "floatTreasury",
      "outputs": [
        {
          "internalType": "address",
          "name": "",
          "type": "address"
        }
      ],
      "stateMutability": "view",
      "type": "function"
    },
    {
      "inputs": [
        {
          "internalType": "address",
          "name": "_admin",
          "type": "address"
        },
        {
          "internalType": "address",
          "name": "_longShort",
          "type": "address"
        },
        {
          "internalType": "address",
          "name": "_floatToken",
          "type": "address"
        },
        {
          "internalType": "address",
          "name": "_floatTreasury",
          "type": "address"
        },
        {
          "internalType": "address",
          "name": "_floatCapital",
          "type": "address"
        },
        {
          "internalType": "uint256",
          "name": "_floatPercentage",
          "type": "uint256"
        }
      ],
      "name": "initialize",
      "outputs": [],
      "stateMutability": "nonpayable",
      "type": "function"
    },
    {
      "inputs": [
        {
          "internalType": "uint32",
          "name": "",
          "type": "uint32"
        }
      ],
      "name": "latestRewardIndex",
      "outputs": [
        {
          "internalType": "uint256",
          "name": "",
          "type": "uint256"
        }
      ],
      "stateMutability": "view",
      "type": "function"
    },
    {
      "inputs": [],
      "name": "longShort",
      "outputs": [
        {
          "internalType": "address",
          "name": "",
          "type": "address"
        }
      ],
      "stateMutability": "view",
      "type": "function"
    },
    {
      "inputs": [
        {
          "internalType": "address",
          "name": "",
          "type": "address"
        }
      ],
      "name": "marketIndexOfToken",
      "outputs": [
        {
          "internalType": "uint32",
          "name": "",
          "type": "uint32"
        }
      ],
      "stateMutability": "view",
      "type": "function"
    },
    {
      "inputs": [
        {
          "internalType": "uint32",
          "name": "",
          "type": "uint32"
        }
      ],
      "name": "marketLaunchIncentive_multipliers",
      "outputs": [
        {
          "internalType": "uint256",
          "name": "",
          "type": "uint256"
        }
      ],
      "stateMutability": "view",
      "type": "function"
    },
    {
      "inputs": [
        {
          "internalType": "uint32",
          "name": "",
          "type": "uint32"
        }
      ],
      "name": "marketLaunchIncentive_period",
      "outputs": [
        {
          "internalType": "uint256",
          "name": "",
          "type": "uint256"
        }
      ],
      "stateMutability": "view",
      "type": "function"
    },
    {
      "inputs": [
        {
          "internalType": "uint32",
          "name": "",
          "type": "uint32"
        }
      ],
      "name": "marketUnstakeFee_e18",
      "outputs": [
        {
          "internalType": "uint256",
          "name": "",
          "type": "uint256"
        }
      ],
      "stateMutability": "view",
      "type": "function"
    },
    {
      "inputs": [
        {
          "internalType": "uint32",
          "name": "marketIndex",
          "type": "uint32"
        },
        {
          "internalType": "uint256",
          "name": "longPrice",
          "type": "uint256"
        },
        {
          "internalType": "uint256",
          "name": "shortPrice",
          "type": "uint256"
        },
        {
          "internalType": "uint256",
          "name": "longValue",
          "type": "uint256"
        },
        {
          "internalType": "uint256",
          "name": "shortValue",
          "type": "uint256"
        },
        {
          "internalType": "uint256",
          "name": "stakerTokenShiftIndex_to_longShortMarketPriceSnapshotIndex_mappingIfShiftExecuted",
          "type": "uint256"
        }
      ],
      "name": "pushUpdatedMarketPricesToUpdateFloatIssuanceCalculations",
      "outputs": [],
      "stateMutability": "nonpayable",
      "type": "function"
    },
    {
      "inputs": [],
      "name": "safeExponentBitShifting",
      "outputs": [
        {
          "internalType": "uint256",
          "name": "",
          "type": "uint256"
        }
      ],
      "stateMutability": "view",
      "type": "function"
    },
    {
      "inputs": [
        {
          "internalType": "uint256",
          "name": "amountSyntheticTokensToShift",
          "type": "uint256"
        },
        {
          "internalType": "uint32",
          "name": "marketIndex",
          "type": "uint32"
        },
        {
          "internalType": "bool",
          "name": "isShiftFromLong",
          "type": "bool"
        }
      ],
      "name": "shiftTokens",
      "outputs": [],
      "stateMutability": "nonpayable",
      "type": "function"
    },
    {
      "inputs": [
        {
          "internalType": "address",
          "name": "from",
          "type": "address"
        },
        {
          "internalType": "uint256",
          "name": "amount",
          "type": "uint256"
        }
      ],
      "name": "stakeFromUser",
      "outputs": [],
      "stateMutability": "nonpayable",
      "type": "function"
    },
    {
      "inputs": [
        {
          "internalType": "uint256",
          "name": "",
          "type": "uint256"
        }
      ],
      "name": "stakerTokenShiftIndex_to_accumulativeFloatIssuanceSnapshotIndex_mapping",
      "outputs": [
        {
          "internalType": "uint256",
          "name": "",
          "type": "uint256"
        }
      ],
      "stateMutability": "view",
      "type": "function"
    },
    {
      "inputs": [
        {
          "internalType": "uint256",
          "name": "",
          "type": "uint256"
        }
      ],
      "name": "stakerTokenShiftIndex_to_longShortMarketPriceSnapshotIndex_mapping",
      "outputs": [
        {
          "internalType": "uint256",
          "name": "",
          "type": "uint256"
        }
      ],
      "stateMutability": "view",
      "type": "function"
    },
    {
      "inputs": [
        {
          "internalType": "uint32",
          "name": "",
          "type": "uint32"
        },
        {
          "internalType": "bool",
          "name": "",
          "type": "bool"
        }
      ],
      "name": "syntheticTokens",
      "outputs": [
        {
          "internalType": "address",
          "name": "",
          "type": "address"
        }
      ],
      "stateMutability": "view",
      "type": "function"
    },
    {
      "inputs": [
        {
          "internalType": "address",
          "name": "",
          "type": "address"
        },
        {
          "internalType": "address",
          "name": "",
          "type": "address"
        }
      ],
      "name": "userAmountStaked",
      "outputs": [
        {
          "internalType": "uint256",
          "name": "",
          "type": "uint256"
        }
      ],
      "stateMutability": "view",
      "type": "function"
    },
    {
      "inputs": [
        {
          "internalType": "uint32",
          "name": "",
          "type": "uint32"
        },
        {
          "internalType": "address",
          "name": "",
          "type": "address"
        }
      ],
      "name": "userIndexOfLastClaimedReward",
      "outputs": [
        {
          "internalType": "uint256",
          "name": "",
          "type": "uint256"
        }
      ],
      "stateMutability": "view",
      "type": "function"
    },
    {
      "inputs": [
        {
          "internalType": "uint32",
          "name": "",
          "type": "uint32"
        },
        {
          "internalType": "address",
          "name": "",
          "type": "address"
        }
      ],
      "name": "userNextPrice_amountStakedSyntheticToken_toShiftAwayFrom_long",
      "outputs": [
        {
          "internalType": "uint256",
          "name": "",
          "type": "uint256"
        }
      ],
      "stateMutability": "view",
      "type": "function"
    },
    {
      "inputs": [
        {
          "internalType": "uint32",
          "name": "",
          "type": "uint32"
        },
        {
          "internalType": "address",
          "name": "",
          "type": "address"
        }
      ],
      "name": "userNextPrice_amountStakedSyntheticToken_toShiftAwayFrom_short",
      "outputs": [
        {
          "internalType": "uint256",
          "name": "",
          "type": "uint256"
        }
      ],
      "stateMutability": "view",
      "type": "function"
    },
    {
      "inputs": [
        {
          "internalType": "uint32",
          "name": "",
          "type": "uint32"
        },
        {
          "internalType": "address",
          "name": "",
          "type": "address"
        }
      ],
      "name": "userNextPrice_stakedSyntheticTokenShiftIndex",
      "outputs": [
        {
          "internalType": "uint256",
          "name": "",
          "type": "uint256"
        }
      ],
      "stateMutability": "view",
      "type": "function"
    },
    {
      "inputs": [
        {
          "internalType": "address",
          "name": "token",
          "type": "address"
        },
        {
          "internalType": "uint256",
          "name": "amount",
          "type": "uint256"
        }
      ],
      "name": "withdraw",
      "outputs": [],
      "stateMutability": "nonpayable",
      "type": "function"
    },
    {
      "inputs": [
        {
          "internalType": "address",
          "name": "token",
          "type": "address"
        }
      ],
      "name": "withdrawAll",
      "outputs": [],
      "stateMutability": "nonpayable",
      "type": "function"
    }
  ],
  "bytecode": "0x608060405234801561001057600080fd5b5061308f806100206000396000f3fe608060405234801561001057600080fd5b50600436106102485760003560e01c8063b0956b5f1161013b578063eae5a8d9116100b8578063f3fef3a31161007c578063f3fef3a314610657578063f851a4401461066a578063f9fe734e14610683578063fa09e630146106a3578063fdd3c2fd146106b657610248565b8063eae5a8d9146105f6578063edb010d714610609578063ef9c30521461061c578063f2c0e6b71461063c578063f344acc91461064457610248565b8063c17f8ce9116100ff578063c17f8ce914610565578063d84593e514610590578063dc86fe50146105a3578063e39ac044146105c3578063e68f3dbe146105e357610248565b8063b0956b5f14610506578063b80dd32914610519578063ba89f7b81461052c578063bda69fd81461053f578063c16199e31461055257610248565b80635892457d116101c957806386cbde1f1161018d57806386cbde1f146104805780638f2839701461049957806395b6ef0c146104ac5780639e59fd0f146104bf578063b054c4a1146104d257610248565b80635892457d146103ee5780635ac76ce1146103f75780636a5304df14610422578063738f4b8e146104425780637c937cf21461045557610248565b806327c795331161021057806327c79533146103105780632994987214610330578063320d621d1461035b5780633ebff44f1461036e578063559dd7e2146103c357610248565b80630a41100b1461024d5780630ca5a0521461028057806313e8868a1461029557806315f2081d146102b55780631fff5f55146102f0575b600080fd5b61026d61025b366004612b1a565b60126020526000908152604090205481565b6040519081526020015b60405180910390f35b61029361028e366004612c64565b6106e1565b005b61026d6102a3366004612b89565b60086020526000908152604090205481565b6102db6102c3366004612984565b600c6020526000908152604090205463ffffffff1681565b60405163ffffffff9091168152602001610277565b61026d6102fe366004612b1a565b60136020526000908152604090205481565b61026d61031e366004612b89565b60116020526000908152604090205481565b600454610343906001600160a01b031681565b6040516001600160a01b039091168152602001610277565b610293610369366004612c64565b610737565b6103a861037c366004612c64565b600e60209081526000928352604080842090915290825290208054600182015460029092015490919083565b60408051938452602084019290925290820152606001610277565b61026d6103d1366004612ba3565b601560209081526000928352604080842090915290825290205481565b61026d60035481565b61026d610405366004612ba3565b600f60209081526000928352604080842090915290825290205481565b61026d610430366004612b89565b60066020526000908152604090205481565b610293610450366004612a6c565b610785565b61026d610463366004612ba3565b601660209081526000928352604080842090915290825290205481565b61026d710b7abc627050305adf14a3d9e4000000000081565b6102936104a7366004612984565b6107f7565b6102936104ba3660046129d7565b61085e565b6102936104cd366004612b1a565b6109e8565b6103436104e0366004612c2e565b600b6020908152600092835260408084209091529082529020546001600160a01b031681565b610293610514366004612bbe565b610a29565b610293610527366004612c64565b610bc7565b600154610343906001600160a01b031681565b61029361054d366004612cb1565b610c15565b600254610343906001600160a01b031681565b61026d6105733660046129a5565b601060209081526000928352604080842090915290825290205481565b61029361059e366004612c7f565b610cf0565b61026d6105b1366004612b89565b600a6020526000908152604090205481565b61026d6105d1366004612b89565b600d6020526000908152604090205481565b6102936105f1366004612a43565b610d50565b600554610343906001600160a01b031681565b610293610617366004612b4a565b610de0565b61026d61062a366004612b89565b60076020526000908152604090205481565b61026d603481565b610293610652366004612aac565b61104f565b610293610665366004612a43565b6110bd565b600054610343906201000090046001600160a01b031681565b61026d610691366004612b89565b60096020526000908152604090205481565b6102936106b1366004612984565b611293565b61026d6106c4366004612ba3565b601460209081526000928352604080842090915290825290205481565b6106e96113d3565b6106f38282611421565b6040805163ffffffff84168152602081018390527feb76801ec75076256b8590fd7c621c2541531e6b9ac568389fa5cdf72e66484491015b60405180910390a15050565b61073f6113d3565b610749828261144e565b6040805163ffffffff84168152602081018390527f0430c32559bfcf3b024f216d4e0db41b7b521dcffe63ad1fc25826cf89fc1ced910161072b565b60048054604051636c8d2b9760e01b81526001600160a01b0390911691636c8d2b97916107b6918691869101612cfa565b600060405180830381600087803b1580156107d057600080fd5b505af11580156107e4573d6000803e3d6000fd5b505050506107f38282336114f0565b5050565b6107ff6113d3565b6000805462010000600160b01b031916620100006001600160a01b038416908102919091179091556040519081527f927cc064d7b7fa546fa7706bc01845d27d06f15af3ae90a672cc44735928e961906020015b60405180910390a150565b600054610100900460ff1680610877575060005460ff16155b6108df5760405162461bcd60e51b815260206004820152602e60248201527f496e697469616c697a61626c653a20636f6e747261637420697320616c72656160448201526d191e481a5b9a5d1a585b1a5e995960921b60648201526084015b60405180910390fd5b600054610100900460ff16158015610901576000805461ffff19166101011790555b6000805462010000600160b01b031916620100006001600160a01b038a81169190910291909117909155600180546001600160a01b03199081168684161790915560028054821687841617905560048054821689841617905560058054909116918716919091179055610973826116b4565b604080516001600160a01b038981168252868116602083015285811682840152871660608201526080810184905290517faf92ca815edd9a90dc4aa1dfc722fb1624d5b5f914b25ae3cf979ce6600f0a969181900360a00190a180156109df576000805461ff00191690555b50505050505050565b6109f06113d3565b6109f9816116b4565b6040518181527f062ffcd555faf2b2c81f26010ee6db2e23106941bfed5ae979abd111975d815d90602001610853565b610a316116da565b6001600160a01b038088166000818152600c60209081526040808320805463ffffffff8f1663ffffffff199182168117909255958c1680855282852080549097168217909655808452600e8352818420848052835281842042815560018181018690556002909101859055908452600b835281842090845280835281842080546001600160a01b03199081169096179055838052909152902080549091169091179055610ade8883611725565b610ae8888261144e565b610af38885876117af565b610afd8884611421565b63ffffffff881660008181526011602090815260409182902060019055815192835282018590528101859052606081018690526080810183905260a081018290527f6bc257e0096888bfe19c27bfedca683fc71f53daaf42d4b9ff8e42ea783d67cf9060c00160405180910390a16040805163ffffffff8a16815260006020820181905291810182905260608101919091527f65663e89e16ccfe470dd659bacdf6fddae8185e108d00bc980d34be7e86466d0906080015b60405180910390a15050505050505050565b610bcf6113d3565b610bd98282611725565b6040805163ffffffff84168152602081018390527f45029298b28ebd606098e088e84698aad69cbe7d56cec6064a87ab6d85551e11910161072b565b610c1d6116da565b8015610cca5763ffffffff8616600081815260116020908152604080832054835260138252808320859055928252600d90522054610c5c906001612d84565b63ffffffff8716600081815260116020818152604080842080548552601283529084209590955592825290915281546001929190610c9b908490612d84565b90915550506040517ffcd57474b9332c9108d9254a20e26a0255d04c0be335baa253a6f0cd443d2b9a90600090a15b6000610cd587611844565b1115610ce857610ce8868686868661187e565b505050505050565b610cf86113d3565b610d038383836117af565b6040805163ffffffff85168152602081018490529081018290527fa1d30e827392d7c605768dc1c77c5dfbf58180ca1bb944ecfc8155765b7f53ca906060015b60405180910390a1505050565b33610d5a81611938565b60048054336000908152600c6020526040908190205490516305c8146f60e01b815263ffffffff909116928101929092526001600160a01b0316906305c8146f90602401600060405180830381600087803b158015610db857600080fd5b505af1158015610dcc573d6000803e3d6000fd5b50505050610ddb338385611998565b505050565b63ffffffff82166000908152600b6020908152604080832084151584528252808320546001600160a01b03168084526010835281842033855290925290912054841115610e6f5760405162461bcd60e51b815260206004820152601a60248201527f4e6f7420656e6f75676820746f6b656e7320746f20736869667400000000000060448201526064016108d6565b63ffffffff8316600090815260146020908152604080832033845290915290205415801590610ec5575063ffffffff83166000908152601160209081526040808320546014835281842033855290925290912054105b15610ed457610ed48333611aec565b8115610f80576004805460405163775811a960e11b815263ffffffff861692810192909252602482018690526001600160a01b03169063eeb0235290604401600060405180830381600087803b158015610f2d57600080fd5b505af1158015610f41573d6000803e3d6000fd5b5050505063ffffffff8316600090815260156020908152604080832033845290915281208054869290610f75908490612d84565b909155506110219050565b60048054604051633415694360e11b815263ffffffff861692810192909252602482018690526001600160a01b03169063682ad28690604401600060405180830381600087803b158015610fd357600080fd5b505af1158015610fe7573d6000803e3d6000fd5b5050505063ffffffff831660009081526016602090815260408083203384529091528120805486929061101b908490612d84565b90915550505b505063ffffffff16600090815260116020908152604080832054601483528184203385529092529091205550565b60048054604051636c8d2b9760e01b81526001600160a01b0390911691636c8d2b9791611080918791879101612cfa565b600060405180830381600087803b15801561109a57600080fd5b505af11580156110ae573d6000803e3d6000fd5b50505050610ddb8383836114f0565b600480546001600160a01b038481166000908152600c6020526040908190205490516305c8146f60e01b815263ffffffff9091169381019390935216906305c8146f90602401600060405180830381600087803b15801561111d57600080fd5b505af1158015611131573d6000803e3d6000fd5b505050506001600160a01b0382166000908152600c602052604090205463ffffffff1661115f818484611b89565b63ffffffff8116600090815260146020908152604080832033845290915290205415610ddb5763ffffffff81166000908152600b60209081526040808320600184529091528120546001600160a01b038581169116146111df5763ffffffff82166000908152601660209081526040808320338452909152902054611201565b63ffffffff821660009081526015602090815260408083203384529091529020545b6001600160a01b038516600090815260106020908152604080832033845290915290205490915081111561128d5760405162461bcd60e51b815260206004820152602d60248201527f4f75747374616e64696e67206e657874207072696365207374616b652073686960448201526c199d1cc81d1bdbc819dc99585d609a1b60648201526084016108d6565b50505050565b600480546001600160a01b038381166000908152600c6020526040908190205490516305c8146f60e01b815263ffffffff9091169381019390935216906305c8146f90602401600060405180830381600087803b1580156112f357600080fd5b505af1158015611307573d6000803e3d6000fd5b5050506001600160a01b038083166000818152600c602090815260408083205463ffffffff16808452600b835281842060018552909252822054909450909216146113725763ffffffff82166000908152601660209081526040808320338452909152902054611394565b63ffffffff821660009081526015602090815260408083203384529091529020545b6001600160a01b0384166000908152601060209081526040808320338452909152902054909150610ddb90839085906113ce908590612fd3565b611b89565b6000546201000090046001600160a01b0316331461141f5760405162461bcd60e51b81526020600482015260096024820152683737ba1030b236b4b760b91b60448201526064016108d6565b565b66b1a2bc2ec5000081111561143557600080fd5b63ffffffff909116600090815260086020526040902055565b670c7d713b49d9ffff198113801561146d5750670c7d713b49da000081125b6114d75760405162461bcd60e51b815260206004820152603560248201527f62616c616e6365496e63656e7469766543757276655f657175696c69627269756044820152746d4f6666736574206f7574206f6620626f756e647360581b60648201526084016108d6565b63ffffffff9091166000908152600a6020526040902055565b6000805b838110156116a357600061153c86868481811061152157634e487b7160e01b600052603260045260246000fd5b90506020020160208101906115369190612b89565b85611de6565b9050801561169057600d600087878581811061156857634e487b7160e01b600052603260045260246000fd5b905060200201602081019061157d9190612b89565b63ffffffff1663ffffffff16815260200190815260200160002054600f60008888868181106115bc57634e487b7160e01b600052603260045260246000fd5b90506020020160208101906115d19190612b89565b63ffffffff168152602080820192909252604090810160009081206001600160a01b03891682529092529020556116088184612d84565b92507f2f0b57f663333228518fca119813fe0f6daeb5f19d087965f56b45fecf2d52058487878581811061164c57634e487b7160e01b600052603260045260246000fd5b90506020020160208101906116619190612b89565b604080516001600160a01b03909316835263ffffffff9091166020830152810183905260600160405180910390a15b508061169b81612fea565b9150506114f4565b50801561128d5761128d8282612296565b670de0b6b3a764000081111580156116cc5750600081115b6116d557600080fd5b600355565b6004546001600160a01b0316331461141f5760405162461bcd60e51b815260206004820152600e60248201526d1b9bdd081b1bdb99c81cda1bdc9d60921b60448201526064016108d6565b6000811180156117355750600681105b6117965760405162461bcd60e51b815260206004820152602c60248201527f62616c616e6365496e63656e7469766543757276655f6578706f6e656e74206f60448201526b7574206f6620626f756e647360a01b60648201526084016108d6565b63ffffffff909116600090815260096020526040902055565b670de0b6b3a764000081101561181f5760405162461bcd60e51b815260206004820152602f60248201527f6d61726b65744c61756e6368496e63656e746976654d756c7469706c6965722060448201526e0daeae6e840c4ca407c7a4062ca627608b1b60648201526084016108d6565b63ffffffff909216600090815260066020908152604080832093909355600790522055565b63ffffffff81166000908152600e60209081526040808320600d83528184205484529091528120546118769042612fd3565b90505b919050565b60008061188e8787878787612392565b63ffffffff89166000908152600d6020526040812054929450909250906118b6906001612d84565b63ffffffff89166000818152600e6020908152604080832085845282528083206001810189905560028101889055429055838352600d825291829020849055815192835282018390528101859052606081018490529091507f65663e89e16ccfe470dd659bacdf6fddae8185e108d00bc980d34be7e86466d090608001610bb5565b6001600160a01b0381166000908152600c602052604090205463ffffffff166119955760405162461bcd60e51b815260206004820152600f60248201526e0dcdee840ecc2d8d2c840e6f2dce8d608b1b60448201526064016108d6565b50565b6001600160a01b038084166000908152600c602090815260408083205463ffffffff16808452600f835281842094861684529390915290205415801590611a0f575063ffffffff81166000908152600d6020908152604080832054600f83528184206001600160a01b038716855290925290912054105b15611a1e57611a1e8183611aec565b6001600160a01b03808516600090815260106020908152604080832093861683529290522054611a4f908490612d84565b6001600160a01b0385811660008181526010602090815260408083209488168084529482528083209590955563ffffffff86168252600d815284822054600f8252858320858452825291859020829055845193845283019190915291810185905260608101919091527fef7c8dfef14cbefdf829b8f066b068b677992411137321d64b3ed4538c2b3637906080015b60405180910390a150505050565b6000611af88383611de6565b90508015610ddb5763ffffffff83166000908152600d6020908152604080832054600f83528184206001600160a01b038716855290925290912055611b3d8282612296565b604080516001600160a01b038416815263ffffffff851660208201529081018290527f2f0b57f663333228518fca119813fe0f6daeb5f19d087965f56b45fecf2d520590606001610d43565b6001600160a01b0382166000908152601060209081526040808320338452909152902054611bef5760405162461bcd60e51b81526020600482015260136024820152726e6f7468696e6720746f20776974686472617760681b60448201526064016108d6565b611bf98333611aec565b6001600160a01b0382166000908152601060209081526040808320338452909152902054611c28908290612fd3565b6001600160a01b038316600090815260106020908152604080832033845282528083209390935563ffffffff861682526008905290812054670de0b6b3a764000090611c749084612f75565b611c7e9190612dca565b60025460405163a9059cbb60e01b81526001600160a01b0391821660048201526024810183905291925084169063a9059cbb90604401602060405180830381600087803b158015611cce57600080fd5b505af1158015611ce2573d6000803e3d6000fd5b505050506040513d601f19601f82011682018060405250810190611d069190612afe565b506001600160a01b03831663a9059cbb33611d218486612fd3565b6040516001600160e01b031960e085901b1681526001600160a01b0390921660048301526024820152604401602060405180830381600087803b158015611d6757600080fd5b505af1158015611d7b573d6000803e3d6000fd5b505050506040513d601f19601f82011682018060405250810190611d9f9190612afe565b50604080513381526001600160a01b03851660208201529081018390527fb7c918e0e249f999e965cafeb6c664271b3f4317d296461500e71da39f0cbda390606001611ade565b63ffffffff82166000818152600b6020908152604080832060018452825280832054838052818420546001600160a01b0391821680865260108086528487208985168089529087528588205494909316808852908652848720838852865284872054888852600f875285882093885292865284872054978752600d909552928520549495929491929091811415611e8557600095505050505050612290565b63ffffffff881660009081526014602090815260408083206001600160a01b038b1684529091529020548015801590611ed2575063ffffffff891660009081526011602052604090205481105b1561225a57611ef7898585856012600087815260200190815260200160002054612446565b63ffffffff8a1660009081526015602090815260408083206001600160a01b038d16845290915290205490975015612056576004805463ffffffff8b1660008181526015602090815260408083206001600160a01b038f8116855290835281842054888552601390935292819020549051630125edfd60e71b815295860193909352602485015260016044850152606484019190915216906392f6fe809060840160206040518083038186803b158015611fb057600080fd5b505afa158015611fc4573d6000803e3d6000fd5b505050506040513d601f19601f82011682018060405250810190611fe89190612b32565b611ff29084612d84565b63ffffffff8a1660009081526015602090815260408083206001600160a01b038d1684529091529020549093506120299085612fd3565b63ffffffff8a1660009081526015602090815260408083206001600160a01b038d16845290915281205593505b63ffffffff891660009081526016602090815260408083206001600160a01b038c168452909152902054156121b2576004805463ffffffff8b1660008181526016602090815260408083206001600160a01b038f81168552908352818420548885526013909352818420549151630125edfd60e71b81529687019490945260248601919091526044850191909152606484015216906392f6fe809060840160206040518083038186803b15801561210c57600080fd5b505afa158015612120573d6000803e3d6000fd5b505050506040513d601f19601f820116820180604052508101906121449190612b32565b61214e9085612d84565b63ffffffff8a1660009081526016602090815260408083206001600160a01b038d1684529091529020549094506121859084612fd3565b63ffffffff8a1660009081526016602090815260408083206001600160a01b038d16845290915281205592505b6001600160a01b0380871660009081526010602081815260408084208d86168086529083528185208a9055948a168452918152818320938352928352808220869055838252601283528082205463ffffffff8d168352600d90935290205461221f918b9187918791612446565b6122299088612d84565b63ffffffff8a1660009081526014602090815260408083206001600160a01b038d1684529091528120559650612289565b61228689858585600d60008f63ffffffff1663ffffffff16815260200190815260200160002054612446565b96505b5050505050505b92915050565b6005546040516340c10f1960e01b81526001600160a01b03848116600483015260248201849052909116906340c10f1990604401600060405180830381600087803b1580156122e457600080fd5b505af11580156122f8573d6000803e3d6000fd5b50506005546001546003546001600160a01b0392831694506340c10f199350911690670de0b6b3a76400009061232e9086612f75565b6123389190612dca565b6040516001600160e01b031960e085901b1681526001600160a01b0390921660048301526024820152604401600060405180830381600087803b15801561237e57600080fd5b505af1158015610ce8573d6000803e3d6000fd5b6000806000806123a5898989898961253d565b9150915060006123b48a611844565b90506123c08382612f75565b63ffffffff8b166000908152600e60209081526040808320600d83528184205484529091529020600101546123f59190612d84565b6123ff8383612f75565b63ffffffff8c166000908152600e60209081526040808320600d83528184205484529091529020600201546124349190612d84565b945094505050505b9550959350505050565b600084156124be5763ffffffff86166000908152600e6020908152604080832086845290915280822060019081015485845291832001546124879190612fd3565b9050710b7abc627050305adf14a3d9e400000000006124a68783612f75565b6124b09190612dca565b6124ba9083612d84565b9150505b83156125345763ffffffff86166000908152600e6020908152604080832086845290915280822060029081015485845291832001546124fd9190612fd3565b9050710b7abc627050305adf14a3d9e4000000000061251c8683612f75565b6125269190612dca565b6125309083612d84565b9150505b95945050505050565b600080831580159061254e57508215155b61256857634e487b7160e01b600052600160045260246000fd5b600061257388612805565b905060006125818587612d84565b63ffffffff8a166000908152600a602052604081205491925090670de0b6b3a7640000906125b0908490612ef2565b6125ba9190612d9c565b9050866125c78288612f94565b12156126f7578581126125ff576000886125e985670de0b6b3a7640000612f75565b6125f39190612f75565b9450945050505061243c565b63ffffffff8a1660009081526009602052604081205461262160016034612fd3565b61262b848a612f94565b61263692911c612e24565b63ffffffff8c166000908152600960205260408120549192509061265e90603486901c612e24565b9050600081612675846706f05b59d3b20000612f75565b61267f9190612dca565b9050600061269582670de0b6b3a7640000612fd3565b9050670de0b6b3a76400008d6126ab8985612f75565b6126b59190612f75565b6126bf9190612dca565b670de0b6b3a76400008d6126d38a85612f75565b6126dd9190612f75565b6126e79190612dca565b985098505050505050505061243c565b8661270182613005565b12612731578861271984670de0b6b3a7640000612f75565b6127239190612f75565b60009450945050505061243c565b63ffffffff8a1660009081526009602052604081205461275360016034612fd3565b61275d848b612d43565b61276892911c612e24565b63ffffffff8c166000908152600960205260408120549192509061279090603486901c612e24565b90506000816127a7846706f05b59d3b20000612f75565b6127b19190612dca565b905060006127c782670de0b6b3a7640000612fd3565b9050670de0b6b3a76400008d6127dd8984612f75565b6127e79190612f75565b6127f19190612dca565b670de0b6b3a76400008d6126d38a86612f75565b6000806000612813846128c6565b91509150670de0b6b3a764000081101561283d57634e487b7160e01b600052600160045260246000fd5b63ffffffff84166000908152600e60209081526040808320838052909152902054826128698242612fd3565b116128b357826128798242612fd3565b61288b670de0b6b3a764000085612fd3565b6128959190612f75565b61289f9190612dca565b6128a99083612fd3565b9350505050611879565b670de0b6b3a76400009350505050611879565b63ffffffff81166000908152600660209081526040808320546007909252822054829190670de0b6b3a76400008110156129055750670de0b6b3a76400005b9092509050915091565b80356001600160a01b038116811461187957600080fd5b60008083601f840112612937578182fd5b50813567ffffffffffffffff81111561294e578182fd5b6020830191508360208260051b850101111561296957600080fd5b9250929050565b803563ffffffff8116811461187957600080fd5b600060208284031215612995578081fd5b61299e8261290f565b9392505050565b600080604083850312156129b7578081fd5b6129c08361290f565b91506129ce6020840161290f565b90509250929050565b60008060008060008060c087890312156129ef578182fd5b6129f88761290f565b9550612a066020880161290f565b9450612a146040880161290f565b9350612a226060880161290f565b9250612a306080880161290f565b915060a087013590509295509295509295565b60008060408385031215612a55578182fd5b612a5e8361290f565b946020939093013593505050565b60008060208385031215612a7e578182fd5b823567ffffffffffffffff811115612a94578283fd5b612aa085828601612926565b90969095509350505050565b600080600060408486031215612ac0578283fd5b833567ffffffffffffffff811115612ad6578384fd5b612ae286828701612926565b9094509250612af590506020850161290f565b90509250925092565b600060208284031215612b0f578081fd5b815161299e8161304b565b600060208284031215612b2b578081fd5b5035919050565b600060208284031215612b43578081fd5b5051919050565b600080600060608486031215612b5e578283fd5b83359250612b6e60208501612970565b91506040840135612b7e8161304b565b809150509250925092565b600060208284031215612b9a578081fd5b61299e82612970565b60008060408385031215612bb5578182fd5b6129c083612970565b600080600080600080600080610100898b031215612bda578182fd5b612be389612970565b9750612bf160208a0161290f565b9650612bff60408a0161290f565b979a96995096976060810135975060808101359660a0820135965060c0820135955060e0909101359350915050565b60008060408385031215612c40578182fd5b612c4983612970565b91506020830135612c598161304b565b809150509250929050565b60008060408385031215612c76578182fd5b612a5e83612970565b600080600060608486031215612c93578081fd5b612c9c84612970565b95602085013595506040909401359392505050565b60008060008060008060c08789031215612cc9578384fd5b612cd287612970565b9860208801359850604088013597606081013597506080810135965060a00135945092505050565b60208082528181018390526000908460408401835b86811015612d385763ffffffff612d2584612970565b1682529183019190830190600101612d0f565b509695505050505050565b600080821280156001600160ff1b0384900385131615612d6557612d6561301f565b600160ff1b8390038412811615612d7e57612d7e61301f565b50500190565b60008219821115612d9757612d9761301f565b500190565b600082612dab57612dab613035565b600160ff1b821460001984141615612dc557612dc561301f565b500590565b600082612dd957612dd9613035565b500490565b80825b6001808611612df05750612e1b565b818704821115612e0257612e0261301f565b80861615612e0f57918102915b9490941c938002612de1565b94509492505050565b600061299e6000198484600082612e3d5750600161299e565b81612e4a5750600061299e565b8160018114612e605760028114612e6a57612e97565b600191505061299e565b60ff841115612e7b57612e7b61301f565b6001841b915084821115612e9157612e9161301f565b5061299e565b5060208310610133831016604e8410600b8410161715612eca575081810a83811115612ec557612ec561301f565b61299e565b612ed78484846001612dde565b808604821115612ee957612ee961301f565b02949350505050565b60006001600160ff1b0381841382841380821686840486111615612f1857612f1861301f565b600160ff1b84871282811687830589121615612f3657612f3661301f565b858712925087820587128484161615612f5157612f5161301f565b87850587128184161615612f6757612f6761301f565b505050929093029392505050565b6000816000190483118215151615612f8f57612f8f61301f565b500290565b60008083128015600160ff1b850184121615612fb257612fb261301f565b6001600160ff1b0384018313811615612fcd57612fcd61301f565b50500390565b600082821015612fe557612fe561301f565b500390565b6000600019821415612ffe57612ffe61301f565b5060010190565b6000600160ff1b82141561301b5761301b61301f565b0390565b634e487b7160e01b600052601160045260246000fd5b634e487b7160e01b600052601260045260246000fd5b801515811461199557600080fdfea2646970667358221220d7480bde835b6307480921ec3c479a0b7f74f932bba5e2af82ce352646168e9664736f6c63430008030033",
  "linkReferences": {},
  "deployedLinkReferences": {}
}