{
  "_format": "hh-sol-artifact-1",
  "contractName": "LongShort",
  "sourceName": "contracts/LongShort.sol",
  "abi": [
    {
      "anonymous": false,
      "inputs": [
        {
          "indexed": false,
          "internalType": "address",
          "name": "user",
          "type": "address"
        },
        {
          "indexed": false,
          "internalType": "uint32",
          "name": "marketIndex",
          "type": "uint32"
        },
        {
          "indexed": false,
          "internalType": "bool",
          "name": "isShiftFromLong",
          "type": "bool"
        },
        {
          "indexed": false,
          "internalType": "uint256",
          "name": "amount",
          "type": "uint256"
        }
      ],
      "name": "ExecuteNextPriceMarketSideShiftSettlementUser",
      "type": "event"
    },
    {
      "anonymous": false,
      "inputs": [
        {
          "indexed": false,
          "internalType": "address",
          "name": "user",
          "type": "address"
        },
        {
          "indexed": false,
          "internalType": "uint32",
          "name": "marketIndex",
          "type": "uint32"
        },
        {
          "indexed": false,
          "internalType": "bool",
          "name": "isLong",
          "type": "bool"
        },
        {
          "indexed": false,
          "internalType": "uint256",
          "name": "amount",
          "type": "uint256"
        }
      ],
      "name": "ExecuteNextPriceMintSettlementUser",
      "type": "event"
    },
    {
      "anonymous": false,
      "inputs": [
        {
          "indexed": false,
          "internalType": "address",
          "name": "user",
          "type": "address"
        },
        {
          "indexed": false,
          "internalType": "uint32",
          "name": "marketIndex",
          "type": "uint32"
        },
        {
          "indexed": false,
          "internalType": "bool",
          "name": "isLong",
          "type": "bool"
        },
        {
          "indexed": false,
          "internalType": "uint256",
          "name": "amount",
          "type": "uint256"
        }
      ],
      "name": "ExecuteNextPriceRedeemSettlementUser",
      "type": "event"
    },
    {
      "anonymous": false,
      "inputs": [
        {
          "indexed": false,
          "internalType": "address",
          "name": "user",
          "type": "address"
        },
        {
          "indexed": false,
          "internalType": "uint32",
          "name": "marketIndex",
          "type": "uint32"
        }
      ],
      "name": "ExecuteNextPriceSettlementsUser",
      "type": "event"
    },
    {
      "anonymous": false,
      "inputs": [
        {
          "indexed": false,
          "internalType": "address",
          "name": "admin",
          "type": "address"
        },
        {
          "indexed": false,
          "internalType": "address",
          "name": "treasury",
          "type": "address"
        },
        {
          "indexed": false,
          "internalType": "address",
          "name": "tokenFactory",
          "type": "address"
        },
        {
          "indexed": false,
          "internalType": "address",
          "name": "staker",
          "type": "address"
        }
      ],
      "name": "LongShortV1",
      "type": "event"
    },
    {
      "anonymous": false,
      "inputs": [
        {
          "indexed": false,
          "internalType": "uint32",
          "name": "marketIndex",
          "type": "uint32"
        },
        {
          "indexed": false,
          "internalType": "uint256",
          "name": "initialSeed",
          "type": "uint256"
        }
      ],
      "name": "NewMarketLaunchedAndSeeded",
      "type": "event"
    },
    {
      "anonymous": false,
      "inputs": [
        {
          "indexed": false,
          "internalType": "uint32",
          "name": "marketIndex",
          "type": "uint32"
        },
        {
          "indexed": false,
          "internalType": "bool",
          "name": "isLong",
          "type": "bool"
        },
        {
          "indexed": false,
          "internalType": "uint256",
          "name": "depositAdded",
          "type": "uint256"
        },
        {
          "indexed": false,
          "internalType": "address",
          "name": "user",
          "type": "address"
        },
        {
          "indexed": false,
          "internalType": "uint256",
          "name": "oracleUpdateIndex",
          "type": "uint256"
        }
      ],
      "name": "NextPriceDeposit",
      "type": "event"
    },
    {
      "anonymous": false,
      "inputs": [
        {
          "indexed": false,
          "internalType": "uint32",
          "name": "marketIndex",
          "type": "uint32"
        },
        {
          "indexed": false,
          "internalType": "bool",
          "name": "isLong",
          "type": "bool"
        },
        {
          "indexed": false,
          "internalType": "uint256",
          "name": "synthRedeemed",
          "type": "uint256"
        },
        {
          "indexed": false,
          "internalType": "address",
          "name": "user",
          "type": "address"
        },
        {
          "indexed": false,
          "internalType": "uint256",
          "name": "oracleUpdateIndex",
          "type": "uint256"
        }
      ],
      "name": "NextPriceRedeem",
      "type": "event"
    },
    {
      "anonymous": false,
      "inputs": [
        {
          "indexed": false,
          "internalType": "uint32",
          "name": "marketIndex",
          "type": "uint32"
        },
        {
          "indexed": false,
          "internalType": "bool",
          "name": "isShiftFromLong",
          "type": "bool"
        },
        {
          "indexed": false,
          "internalType": "uint256",
          "name": "synthShifted",
          "type": "uint256"
        },
        {
          "indexed": false,
          "internalType": "address",
          "name": "user",
          "type": "address"
        },
        {
          "indexed": false,
          "internalType": "uint256",
          "name": "oracleUpdateIndex",
          "type": "uint256"
        }
      ],
      "name": "NextPriceSyntheticPositionShift",
      "type": "event"
    },
    {
      "anonymous": false,
      "inputs": [
        {
          "indexed": false,
          "internalType": "uint32",
          "name": "marketIndex",
          "type": "uint32"
        },
        {
          "indexed": false,
          "internalType": "address",
          "name": "oldOracleAddress",
          "type": "address"
        },
        {
          "indexed": false,
          "internalType": "address",
          "name": "newOracleAddress",
          "type": "address"
        }
      ],
      "name": "OracleUpdated",
      "type": "event"
    },
    {
      "anonymous": false,
      "inputs": [
        {
          "indexed": false,
          "internalType": "uint32",
          "name": "marketIndex",
          "type": "uint32"
        },
        {
          "indexed": false,
          "internalType": "address",
          "name": "longTokenAddress",
          "type": "address"
        },
        {
          "indexed": false,
          "internalType": "address",
          "name": "shortTokenAddress",
          "type": "address"
        },
        {
          "indexed": false,
          "internalType": "address",
          "name": "paymentToken",
          "type": "address"
        },
        {
          "indexed": false,
          "internalType": "uint256",
          "name": "initialAssetPrice",
          "type": "uint256"
        },
        {
          "indexed": false,
          "internalType": "string",
          "name": "name",
          "type": "string"
        },
        {
          "indexed": false,
          "internalType": "string",
          "name": "symbol",
          "type": "string"
        },
        {
          "indexed": false,
          "internalType": "address",
          "name": "oracleAddress",
          "type": "address"
        },
        {
          "indexed": false,
          "internalType": "address",
          "name": "yieldManagerAddress",
          "type": "address"
        }
      ],
      "name": "SyntheticMarketCreated",
      "type": "event"
    },
    {
      "anonymous": false,
      "inputs": [
        {
          "indexed": false,
          "internalType": "uint32",
          "name": "marketIndex",
          "type": "uint32"
        },
        {
          "indexed": false,
          "internalType": "uint256",
          "name": "updateIndex",
          "type": "uint256"
        },
        {
          "indexed": false,
          "internalType": "int256",
          "name": "underlyingAssetPrice",
          "type": "int256"
        },
        {
          "indexed": false,
          "internalType": "uint256",
          "name": "longValue",
          "type": "uint256"
        },
        {
          "indexed": false,
          "internalType": "uint256",
          "name": "shortValue",
          "type": "uint256"
        },
        {
          "indexed": false,
          "internalType": "uint256",
          "name": "longPrice",
          "type": "uint256"
        },
        {
          "indexed": false,
          "internalType": "uint256",
          "name": "shortPrice",
          "type": "uint256"
        }
      ],
      "name": "SystemStateUpdated",
      "type": "event"
    },
    {
      "inputs": [],
      "name": "PERMANENT_INITIAL_LIQUIDITY_HOLDER",
      "outputs": [
        {
          "internalType": "address",
          "name": "",
          "type": "address"
        }
      ],
      "stateMutability": "view",
      "type": "function"
    },
    {
      "inputs": [],
      "name": "admin",
      "outputs": [
        {
          "internalType": "address",
          "name": "",
          "type": "address"
        }
      ],
      "stateMutability": "view",
      "type": "function"
    },
    {
      "inputs": [
        {
          "internalType": "uint32",
          "name": "",
          "type": "uint32"
        }
      ],
      "name": "assetPrice",
      "outputs": [
        {
          "internalType": "uint256",
          "name": "",
          "type": "uint256"
        }
      ],
      "stateMutability": "view",
      "type": "function"
    },
    {
      "inputs": [
        {
          "internalType": "uint32",
          "name": "",
          "type": "uint32"
        },
        {
          "internalType": "bool",
          "name": "",
          "type": "bool"
        }
      ],
      "name": "batched_amountPaymentToken_deposit",
      "outputs": [
        {
          "internalType": "uint256",
          "name": "",
          "type": "uint256"
        }
      ],
      "stateMutability": "view",
      "type": "function"
    },
    {
      "inputs": [
        {
          "internalType": "uint32",
          "name": "",
          "type": "uint32"
        },
        {
          "internalType": "bool",
          "name": "",
          "type": "bool"
        }
      ],
      "name": "batched_amountSyntheticToken_redeem",
      "outputs": [
        {
          "internalType": "uint256",
          "name": "",
          "type": "uint256"
        }
      ],
      "stateMutability": "view",
      "type": "function"
    },
    {
      "inputs": [
        {
          "internalType": "uint32",
          "name": "",
          "type": "uint32"
        },
        {
          "internalType": "bool",
          "name": "",
          "type": "bool"
        }
      ],
      "name": "batched_amountSyntheticToken_toShiftAwayFrom_marketSide",
      "outputs": [
        {
          "internalType": "uint256",
          "name": "",
          "type": "uint256"
        }
      ],
      "stateMutability": "view",
      "type": "function"
    },
    {
      "inputs": [
        {
          "internalType": "address",
          "name": "_admin",
          "type": "address"
        }
      ],
      "name": "changeAdmin",
      "outputs": [],
      "stateMutability": "nonpayable",
      "type": "function"
    },
    {
      "inputs": [
        {
          "internalType": "uint32",
          "name": "marketIndex",
          "type": "uint32"
        },
        {
          "internalType": "uint256",
          "name": "_marketTreasurySplitGradient_e18",
          "type": "uint256"
        }
      ],
      "name": "changeMarketTreasurySplitGradient",
      "outputs": [],
      "stateMutability": "nonpayable",
      "type": "function"
    },
    {
      "inputs": [
        {
          "internalType": "address",
          "name": "_treasury",
          "type": "address"
        }
      ],
      "name": "changeTreasury",
      "outputs": [],
      "stateMutability": "nonpayable",
      "type": "function"
    },
    {
      "inputs": [
        {
          "internalType": "string",
          "name": "syntheticName",
          "type": "string"
        },
        {
          "internalType": "string",
          "name": "syntheticSymbol",
          "type": "string"
        },
        {
          "internalType": "address",
          "name": "_paymentToken",
          "type": "address"
        },
        {
          "internalType": "address",
          "name": "_oracleManager",
          "type": "address"
        },
        {
          "internalType": "address",
          "name": "_yieldManager",
          "type": "address"
        }
      ],
      "name": "createNewSyntheticMarket",
      "outputs": [],
      "stateMutability": "nonpayable",
      "type": "function"
    },
    {
      "inputs": [
        {
          "internalType": "address",
          "name": "user",
          "type": "address"
        },
        {
          "internalType": "uint32",
          "name": "marketIndex",
          "type": "uint32"
        }
      ],
      "name": "executeOutstandingNextPriceSettlementsUser",
      "outputs": [],
      "stateMutability": "nonpayable",
      "type": "function"
    },
    {
      "inputs": [
        {
          "internalType": "address",
          "name": "user",
          "type": "address"
        },
        {
          "internalType": "uint32[]",
          "name": "marketIndexes",
          "type": "uint32[]"
        }
      ],
      "name": "executeOutstandingNextPriceSettlementsUserMulti",
      "outputs": [],
      "stateMutability": "nonpayable",
      "type": "function"
    },
    {
      "inputs": [
        {
          "internalType": "uint32",
          "name": "marketIndex",
          "type": "uint32"
        },
        {
          "internalType": "uint256",
          "name": "amountSyntheticToken_redeemOnOriginSide",
          "type": "uint256"
        },
        {
          "internalType": "bool",
          "name": "isShiftFromLong",
          "type": "bool"
        },
        {
          "internalType": "uint256",
          "name": "priceSnapshotIndex",
          "type": "uint256"
        }
      ],
      "name": "getAmountSyntheticTokenToMintOnTargetSide",
      "outputs": [
        {
          "internalType": "uint256",
          "name": "amountSyntheticTokensToMintOnTargetSide",
          "type": "uint256"
        }
      ],
      "stateMutability": "view",
      "type": "function"
    },
    {
      "inputs": [
        {
          "internalType": "address",
          "name": "user",
          "type": "address"
        },
        {
          "internalType": "uint32",
          "name": "marketIndex",
          "type": "uint32"
        },
        {
          "internalType": "bool",
          "name": "isLong",
          "type": "bool"
        }
      ],
      "name": "getUsersConfirmedButNotSettledSynthBalance",
      "outputs": [
        {
          "internalType": "uint256",
          "name": "confirmedButNotSettledBalance",
          "type": "uint256"
        }
      ],
      "stateMutability": "view",
      "type": "function"
    },
    {
      "inputs": [
        {
          "internalType": "address",
          "name": "_admin",
          "type": "address"
        },
        {
          "internalType": "address",
          "name": "_treasury",
          "type": "address"
        },
        {
          "internalType": "address",
          "name": "_tokenFactory",
          "type": "address"
        },
        {
          "internalType": "address",
          "name": "_staker",
          "type": "address"
        }
      ],
      "name": "initialize",
      "outputs": [],
      "stateMutability": "nonpayable",
      "type": "function"
    },
    {
      "inputs": [
        {
          "internalType": "uint32",
          "name": "marketIndex",
          "type": "uint32"
        },
        {
          "internalType": "uint256",
          "name": "kInitialMultiplier",
          "type": "uint256"
        },
        {
          "internalType": "uint256",
          "name": "kPeriod",
          "type": "uint256"
        },
        {
          "internalType": "uint256",
          "name": "unstakeFee_e18",
          "type": "uint256"
        },
        {
          "internalType": "uint256",
          "name": "initialMarketSeedForEachMarketSide",
          "type": "uint256"
        },
        {
          "internalType": "uint256",
          "name": "balanceIncentiveCurve_exponent",
          "type": "uint256"
        },
        {
          "internalType": "int256",
          "name": "balanceIncentiveCurve_equilibriumOffset",
          "type": "int256"
        },
        {
          "internalType": "uint256",
          "name": "_marketTreasurySplitGradient_e18",
          "type": "uint256"
        }
      ],
      "name": "initializeMarket",
      "outputs": [],
      "stateMutability": "nonpayable",
      "type": "function"
    },
    {
      "inputs": [],
      "name": "latestMarket",
      "outputs": [
        {
          "internalType": "uint32",
          "name": "",
          "type": "uint32"
        }
      ],
      "stateMutability": "view",
      "type": "function"
    },
    {
      "inputs": [
        {
          "internalType": "uint32",
          "name": "",
          "type": "uint32"
        }
      ],
      "name": "marketExists",
      "outputs": [
        {
          "internalType": "bool",
          "name": "",
          "type": "bool"
        }
      ],
      "stateMutability": "view",
      "type": "function"
    },
    {
      "inputs": [
        {
          "internalType": "uint32",
          "name": "",
          "type": "uint32"
        },
        {
          "internalType": "bool",
          "name": "",
          "type": "bool"
        }
      ],
      "name": "marketSideValueInPaymentToken",
      "outputs": [
        {
          "internalType": "uint256",
          "name": "",
          "type": "uint256"
        }
      ],
      "stateMutability": "view",
      "type": "function"
    },
    {
      "inputs": [
        {
          "internalType": "uint32",
          "name": "",
          "type": "uint32"
        }
      ],
      "name": "marketTreasurySplitGradient_e18",
      "outputs": [
        {
          "internalType": "uint256",
          "name": "",
          "type": "uint256"
        }
      ],
      "stateMutability": "view",
      "type": "function"
    },
    {
      "inputs": [
        {
          "internalType": "uint32",
          "name": "",
          "type": "uint32"
        }
      ],
      "name": "marketUpdateIndex",
      "outputs": [
        {
          "internalType": "uint256",
          "name": "",
          "type": "uint256"
        }
      ],
      "stateMutability": "view",
      "type": "function"
    },
    {
      "inputs": [
        {
          "internalType": "uint32",
          "name": "marketIndex",
          "type": "uint32"
        },
        {
          "internalType": "uint256",
          "name": "amount",
          "type": "uint256"
        }
      ],
      "name": "mintLongNextPrice",
      "outputs": [],
      "stateMutability": "nonpayable",
      "type": "function"
    },
    {
      "inputs": [
        {
          "internalType": "uint32",
          "name": "marketIndex",
          "type": "uint32"
        },
        {
          "internalType": "uint256",
          "name": "amount",
          "type": "uint256"
        }
      ],
      "name": "mintShortNextPrice",
      "outputs": [],
      "stateMutability": "nonpayable",
      "type": "function"
    },
    {
      "inputs": [
        {
          "internalType": "uint32",
          "name": "",
          "type": "uint32"
        }
      ],
      "name": "oracleManagers",
      "outputs": [
        {
          "internalType": "address",
          "name": "",
          "type": "address"
        }
      ],
      "stateMutability": "view",
      "type": "function"
    },
    {
      "inputs": [
        {
          "internalType": "uint32",
          "name": "",
          "type": "uint32"
        }
      ],
      "name": "paymentTokens",
      "outputs": [
        {
          "internalType": "address",
          "name": "",
          "type": "address"
        }
      ],
      "stateMutability": "view",
      "type": "function"
    },
    {
      "inputs": [
        {
          "internalType": "uint32",
          "name": "marketIndex",
          "type": "uint32"
        },
        {
          "internalType": "uint256",
          "name": "tokens_redeem",
          "type": "uint256"
        }
      ],
      "name": "redeemLongNextPrice",
      "outputs": [],
      "stateMutability": "nonpayable",
      "type": "function"
    },
    {
      "inputs": [
        {
          "internalType": "uint32",
          "name": "marketIndex",
          "type": "uint32"
        },
        {
          "internalType": "uint256",
          "name": "tokens_redeem",
          "type": "uint256"
        }
      ],
      "name": "redeemShortNextPrice",
      "outputs": [],
      "stateMutability": "nonpayable",
      "type": "function"
    },
    {
      "inputs": [
        {
          "internalType": "uint32",
          "name": "marketIndex",
          "type": "uint32"
        },
        {
          "internalType": "uint256",
          "name": "amountSyntheticTokensToShift",
          "type": "uint256"
        }
      ],
      "name": "shiftPositionFromLongNextPrice",
      "outputs": [],
      "stateMutability": "nonpayable",
      "type": "function"
    },
    {
      "inputs": [
        {
          "internalType": "uint32",
          "name": "marketIndex",
          "type": "uint32"
        },
        {
          "internalType": "uint256",
          "name": "amountSyntheticTokensToShift",
          "type": "uint256"
        }
      ],
      "name": "shiftPositionFromShortNextPrice",
      "outputs": [],
      "stateMutability": "nonpayable",
      "type": "function"
    },
    {
      "inputs": [],
      "name": "staker",
      "outputs": [
        {
          "internalType": "address",
          "name": "",
          "type": "address"
        }
      ],
      "stateMutability": "view",
      "type": "function"
    },
    {
      "inputs": [
        {
          "internalType": "uint32",
          "name": "",
          "type": "uint32"
        },
        {
          "internalType": "bool",
          "name": "",
          "type": "bool"
        },
        {
          "internalType": "uint256",
          "name": "",
          "type": "uint256"
        }
      ],
      "name": "syntheticToken_priceSnapshot",
      "outputs": [
        {
          "internalType": "uint256",
          "name": "",
          "type": "uint256"
        }
      ],
      "stateMutability": "view",
      "type": "function"
    },
    {
      "inputs": [
        {
          "internalType": "uint32",
          "name": "",
          "type": "uint32"
        },
        {
          "internalType": "bool",
          "name": "",
          "type": "bool"
        }
      ],
      "name": "syntheticTokens",
      "outputs": [
        {
          "internalType": "address",
          "name": "",
          "type": "address"
        }
      ],
      "stateMutability": "view",
      "type": "function"
    },
    {
      "inputs": [],
      "name": "tokenFactory",
      "outputs": [
        {
          "internalType": "address",
          "name": "",
          "type": "address"
        }
      ],
      "stateMutability": "view",
      "type": "function"
    },
    {
      "inputs": [],
      "name": "treasury",
      "outputs": [
        {
          "internalType": "address",
          "name": "",
          "type": "address"
        }
      ],
      "stateMutability": "view",
      "type": "function"
    },
    {
      "inputs": [
        {
          "internalType": "uint32",
          "name": "marketIndex",
          "type": "uint32"
        },
        {
          "internalType": "address",
          "name": "_newOracleManager",
          "type": "address"
        }
      ],
      "name": "updateMarketOracle",
      "outputs": [],
      "stateMutability": "nonpayable",
      "type": "function"
    },
    {
      "inputs": [
        {
          "internalType": "uint32",
          "name": "marketIndex",
          "type": "uint32"
        }
      ],
      "name": "updateSystemState",
      "outputs": [],
      "stateMutability": "nonpayable",
      "type": "function"
    },
    {
      "inputs": [
        {
          "internalType": "uint32[]",
          "name": "marketIndexes",
          "type": "uint32[]"
        }
      ],
      "name": "updateSystemStateMulti",
      "outputs": [],
      "stateMutability": "nonpayable",
      "type": "function"
    },
    {
      "inputs": [
        {
          "internalType": "uint32",
          "name": "",
          "type": "uint32"
        },
        {
          "internalType": "address",
          "name": "",
          "type": "address"
        }
      ],
      "name": "userNextPrice_currentUpdateIndex",
      "outputs": [
        {
          "internalType": "uint256",
          "name": "",
          "type": "uint256"
        }
      ],
      "stateMutability": "view",
      "type": "function"
    },
    {
      "inputs": [
        {
          "internalType": "uint32",
          "name": "",
          "type": "uint32"
        },
        {
          "internalType": "bool",
          "name": "",
          "type": "bool"
        },
        {
          "internalType": "address",
          "name": "",
          "type": "address"
        }
      ],
      "name": "userNextPrice_paymentToken_depositAmount",
      "outputs": [
        {
          "internalType": "uint256",
          "name": "",
          "type": "uint256"
        }
      ],
      "stateMutability": "view",
      "type": "function"
    },
    {
      "inputs": [
        {
          "internalType": "uint32",
          "name": "",
          "type": "uint32"
        },
        {
          "internalType": "bool",
          "name": "",
          "type": "bool"
        },
        {
          "internalType": "address",
          "name": "",
          "type": "address"
        }
      ],
      "name": "userNextPrice_syntheticToken_redeemAmount",
      "outputs": [
        {
          "internalType": "uint256",
          "name": "",
          "type": "uint256"
        }
      ],
      "stateMutability": "view",
      "type": "function"
    },
    {
      "inputs": [
        {
          "internalType": "uint32",
          "name": "",
          "type": "uint32"
        },
        {
          "internalType": "bool",
          "name": "",
          "type": "bool"
        },
        {
          "internalType": "address",
          "name": "",
          "type": "address"
        }
      ],
      "name": "userNextPrice_syntheticToken_toShiftAwayFrom_marketSide",
      "outputs": [
        {
          "internalType": "uint256",
          "name": "",
          "type": "uint256"
        }
      ],
      "stateMutability": "view",
      "type": "function"
    },
    {
      "inputs": [
        {
          "internalType": "uint32",
          "name": "",
          "type": "uint32"
        }
      ],
      "name": "yieldManagers",
      "outputs": [
        {
          "internalType": "address",
          "name": "",
          "type": "address"
        }
      ],
      "stateMutability": "view",
      "type": "function"
    }
  ],
  "bytecode": "0x608060405234801561001057600080fd5b506137d6806100206000396000f3fe608060405234801561001057600080fd5b506004361061025e5760003560e01c806391a9fa6111610146578063c2e12471116100c3578063eeb0235211610087578063eeb02352146106c9578063f41cb195146106dc578063f68a327f14610705578063f80c9b9214610718578063f851a44014610743578063f8c8765e146107565761025e565b8063c2e124711461066a578063d88905c91461067d578063da04ce1414610690578063e6b604e0146106a3578063e77772fe146106b65761025e565b8063b14f2a391161010a578063b14f2a39146105ad578063b36f5374146105c0578063b3c7e218146105f3578063bb0a45291461061e578063c2b80072146106395761025e565b806391a9fa61146104ff57806392f6fe80146105125780639c5b0ee3146105255780639dc39e0f1461054e578063b054c4a1146105795761025e565b8063636190c8116101df5780636f486c5b116101a35780636f486c5b146104625780637a0e94f014610493578063867dfc6d146104a65780638900bdfa146104b9578063897a0786146104d95780638f283970146104ec5761025e565b8063636190c8146103d257806364d16f53146103fe57806364e4a81d14610411578063682ad2861461043c5780636c8d2b971461044f5761025e565b80633489868411610226578063348986841461033d57806334daaa251461036e578063414ffd50146103995780635ebaf1db146103ac57806361d027b3146103bf5761025e565b806305c8146f146102635780630e5140dc1461027857806314c88ffa146102bc5780631badf5c0146102dc57806321658e481461031d575b600080fd5b61027661027136600461318d565b610769565b005b6102a9610286366004613208565b606f60209081526000938452604080852082529284528284209052825290205481565b6040519081526020015b60405180910390f35b6102a96102ca36600461318d565b60616020526000908152604090205481565b6103056102ea36600461318d565b6064602052600090815260409020546001600160a01b031681565b6040516001600160a01b0390911681526020016102b3565b6102a961032b36600461318d565b60656020526000908152604090205481565b6102a961034b366004613208565b606e60209081526000938452604080852082529284528284209052825290205481565b6102a961037c3660046131dd565b606a60209081526000928352604080842090915290825290205481565b6102766103a73660046132f1565b610775565b603054610305906001600160a01b031681565b602f54610305906001600160a01b031681565b602f546103e990600160a01b900463ffffffff1681565b60405163ffffffff90911681526020016102b3565b61027661040c3660046131a7565b610939565b6102a961041f3660046131dd565b606960209081526000928352604080842090915290825290205481565b61027661044a366004613283565b6109be565b61027661045d366004613043565b6109ce565b6102a9610470366004613245565b606860209081526000938452604080852082529284528284209052825290205481565b6102766104a1366004612eeb565b610a2d565b6102766104b4366004613283565b610a7c565b6102a96104c736600461318d565b60606020526000908152604090205481565b6102766104e7366004612fc7565b610a88565b6102766104fa366004612e51565b610a92565b61027661050d366004613283565b610abc565b6102a96105203660046132ac565b610ac8565b61030561053336600461318d565b6063602052600090815260409020546001600160a01b031681565b6102a961055c3660046131a7565b606c60209081526000928352604080842090915290825290205481565b6103056105873660046131dd565b60666020908152600092835260408084209091529082529020546001600160a01b031681565b6102766105bb366004612e51565b610b1d565b6105e36105ce36600461318d565b605f6020526000908152604090205460ff1681565b60405190151581526020016102b3565b6102a96106013660046131dd565b606760209081526000928352604080842090915290825290205481565b61030573f10a7f10a7f10a7f10a7f10a7f10a7f10a7f10a781565b6102a9610647366004613208565b606d60209081526000938452604080852082529284528284209052825290205481565b610276610678366004613283565b610b47565b61027661068b3660046130e7565b610b53565b61027661069e366004613283565b610f8b565b6102766106b1366004613283565b610fac565b603154610305906001600160a01b031681565b6102766106d7366004613283565b610fb8565b6103056106ea36600461318d565b6062602052600090815260409020546001600160a01b031681565b6102a9610713366004612ffb565b610fc4565b6102a96107263660046131dd565b606b60209081526000928352604080842090915290825290205481565b602e54610305906001600160a01b031681565b610276610764366004612e90565b611151565b6107728161129d565b50565b61077d6117e8565b63ffffffff88166000908152605f602052604090205460ff16156107de5760405162461bcd60e51b8152602060048201526013602482015272185b1c9958591e481a5b9a5d1a585b1a5e9959606a1b60448201526064015b60405180910390fd5b602f5463ffffffff600160a01b909104811690891611156108325760405162461bcd60e51b815260206004820152600e60248201526d0d2dcc8caf040e8dede40d0d2ced60931b60448201526064016107d5565b63ffffffff8881166000908152605f60209081526040808320805460ff191660019081179091556065835281842086905560618352818420819055603054602f54600160a01b9004909516808552606684528285209185529252808320548380529281902054905163b0956b5f60e01b815260048101929092526001600160a01b03928316602483015282166044820152606481018a90526084810189905260a4810188905260c4810186905260e4810185905291169063b0956b5f9061010401600060405180830381600087803b15801561090d57600080fd5b505af1158015610921573d6000803e3d6000fd5b5050505061092f8489611831565b5050505050505050565b6109416117e8565b63ffffffff821660008181526064602090815260409182902080546001600160a01b038681166001600160a01b03198316811790935584519586521691840182905291830191909152907ffc4d69f373858d480cfc3f12e7cc7f9b12201291753ffc3babef0e7a8041979f906060015b60405180910390a1505050565b6109ca82826000611ab5565b5050565b60005b81811015610a2857610a168383838181106109fc57634e487b7160e01b600052603260045260246000fd5b9050602002016020810190610a11919061318d565b61129d565b80610a20816136e2565b9150506109d1565b505050565b60005b8151811015610a2857610a6a83838381518110610a5d57634e487b7160e01b600052603260045260246000fd5b6020026020010151611cbb565b80610a74816136e2565b915050610a30565b6109ca82826001611db9565b6109ca8282611cbb565b610a9a6117e8565b602e80546001600160a01b0319166001600160a01b0392909216919091179055565b6109ca82826000611db9565b63ffffffff84166000908152606860209081526040808320851580158552818452828520868652845282852054908552908352818420858552909252822054610b12868383611ed2565b979650505050505050565b610b256117e8565b602f80546001600160a01b0319166001600160a01b0392909216919091179055565b6109ca82826001611ef1565b610b5b6117e8565b602f8054600160a01b900463ffffffff16906014610b78836136fd565b91906101000a81548163ffffffff021916908363ffffffff16021790555050603160009054906101000a90046001600160a01b03166001600160a01b031663e6d304678888604051602001610bce929190613424565b6040516020818303038152906040528787604051602001610bf09291906133df565b60408051808303601f1901815290829052603054602f5460e086901b6001600160e01b0319168452610c4394936001600160a01b0390921691600160a01b90910463ffffffff1690600190600401613477565b602060405180830381600087803b158015610c5d57600080fd5b505af1158015610c71573d6000803e3d6000fd5b505050506040513d601f19601f82011682018060405250810190610c959190612e74565b602f54600160a01b900463ffffffff1660009081526066602090815260408083206001845282529182902080546001600160a01b0319166001600160a01b039485161790556031549151919092169163e6d3046791610cf8918b918b91016133fd565b6040516020818303038152906040528787604051602001610d1a9291906133c1565b60408051808303601f1901815290829052603054602f5460e086901b6001600160e01b0319168452610d6d94936001600160a01b0390921691600160a01b90910463ffffffff1690600090600401613477565b602060405180830381600087803b158015610d8757600080fd5b505af1158015610d9b573d6000803e3d6000fd5b505050506040513d601f19601f82011682018060405250810190610dbf9190612e74565b602f8054600160a01b9081900463ffffffff9081166000908152606660209081526040808320838052825280832080546001600160a01b03199081166001600160a01b03998a161790915586548690048516845260628352818420805482168c8a1617905586548690048516845260638352818420805482168a8a161790558654869004851684526064835281842080549091168a89161790559454939093049091168152828120548351630ce74fc560e31b8152935194169363673a7e289360048082019493918390030190829087803b158015610e9d57600080fd5b505af1158015610eb1573d6000803e3d6000fd5b505050506040513d601f19601f82011682018060405250810190610ed591906130cf565b602f805463ffffffff600160a01b91829004811660009081526060602081815260408084209790975594549390930490911680825260668452848220600183528452848220548280528583205482845293909452908490205493517fe4584ea0a1a399f353be60f6d1c0e612653d69e0417763b14dec1245538b976194610f7a9492936001600160a01b039384169316918991908e908e908e908e908d908d906134cb565b60405180910390a150505050505050565b610f936117e8565b63ffffffff909116600090815260656020526040902055565b6109ca82826000611ef1565b6109ca82826001611ab5565b600082610fd0816120b4565b63ffffffff8416600090815260616020908152604080832054606c83528184206001600160a01b038a168552909252909120541580159061103a575063ffffffff85166000908152606c602090815260408083206001600160a01b038a1684529091529020548110155b156111485763ffffffff85166000908152606d60209081526040808320871515845282528083206001600160a01b038a16845290915290205480156110b25763ffffffff86166000908152606860209081526040808320881515845282528083208584529091529020546110ae8282612110565b9450505b63ffffffff86166000908152606f602090815260408083208815845282528083206001600160a01b038b16845290915290205480156111455763ffffffff8716600090815260686020908152604080832089158085528184528285208886528452828520549015855290835281842087855290925290912054611136838383611ed2565b6111409088613590565b965050505b50505b50509392505050565b600054610100900460ff168061116a575060005460ff16155b6111cd5760405162461bcd60e51b815260206004820152602e60248201527f496e697469616c697a61626c653a20636f6e747261637420697320616c72656160448201526d191e481a5b9a5d1a585b1a5e995960921b60648201526084016107d5565b600054610100900460ff161580156111ef576000805461ffff19166101011790555b602e80546001600160a01b038781166001600160a01b03199283168117909355602f805488831690841681179091556031805488841690851681179091556030805493881693909416831790935560408051948552602085019190915283019190915260608201527fd3469a6e81bfb8eb50829f6f9a8531a9b6a7c1e7765bb91fbe57a91e173ccbbe9060800160405180910390a18015611296576000805461ff00191690555b5050505050565b806112a7816120b4565b63ffffffff82166000908152606460209081526040808320548151630ce74fc560e31b815291516001600160a01b039091169263673a7e28926004808201939182900301818787803b1580156112fc57600080fd5b505af1158015611310573d6000803e3d6000fd5b505050506040513d601f19601f8201168201806040525081019061133491906130cf565b63ffffffff841660009081526060602052604090205490915080821415808061136757506030546001600160a01b031633145b156112965763ffffffff8516600081815260686020908152604080832060018085528184528285208686526061808652848720548088529186528487205487805293865284872082885286529386205496909552919092529092916113cb91613590565b63ffffffff88166000908152606c602090815260408083206030546001600160a01b031684529091529020541480156114015750825b156114c75760305463ffffffff881660008181526067602090815260408083206001845282528083205483805281842054858552606c84528285206001600160a01b0390971680865296909352928190205490516317b4d3fb60e31b8152600481019490945260248401879052604484018690526064840192909252608483015260a482015263bda69fd89060c401600060405180830381600087803b1580156114aa57600080fd5b505af11580156114be573d6000803e3d6000fd5b5050505061156d565b60305463ffffffff8816600081815260676020908152604080832060018452909152808220548280528183205491516317b4d3fb60e31b8152600481019490945260248401879052604484018690526064840152608483015260a48201526001600160a01b039091169063bda69fd89060c401600060405180830381600087803b15801561155457600080fd5b505af1158015611568573d6000803e3d6000fd5b505050505b8261157c5750505050506109ca565b60008061158a898888612138565b63ffffffff8b166000908152606660209081526040808320600184528252918290205482516318160ddd60e01b815292519496509294506116309386936001600160a01b0316926318160ddd926004808301939192829003018186803b1580156115f357600080fd5b505afa158015611607573d6000803e3d6000fd5b505050506040513d601f19601f8201168201806040525081019061162b91906130cf565b612110565b63ffffffff8a1660009081526066602090815260408083208380528252918290205482516318160ddd60e01b815292519397506116969385936001600160a01b03909216926318160ddd9260048082019391829003018186803b1580156115f357600080fd5b63ffffffff8a1660009081526060602090815260408083208b90556061909152812080549295506001929091906116ce908490613590565b909155505063ffffffff891660008181526068602090815260408083206001845280835281842094845260618352818420805485529483528184208990558380528252808320935483529290529081208490558061172d8b87876122db565b909250905061173c828561354f565b9350611748818461354f565b63ffffffff8c16600081815260676020908152604080832060018452825280832089905582805280832085905583835260618252918290205482519384529083015281018b9052606081018690526080810182905260a0810188905260c081018790529093507f69e662f95898affac086a5bc1177755bdaf7f4a40a3880364c48012170ee57fe9060e00160405180910390a15050505050505050505050565b602e546001600160a01b0316331461182f5760405162461bcd60e51b815260206004820152600a60248201526937b7363c9030b236b4b760b11b60448201526064016107d5565b565b670de0b6b3a76400008210156118895760405162461bcd60e51b815260206004820152601860248201527f496e73756666696369656e74206d61726b65742073656564000000000000000060448201526064016107d5565b600061189683600261366d565b90506118a282826125cf565b63ffffffff8216600090815260636020526040908190205490516304831f7160e51b8152600481018390526001600160a01b0390911690639063ee2090602401600060405180830381600087803b1580156118fc57600080fd5b505af1158015611910573d6000803e3d6000fd5b5050602f54600160a01b900463ffffffff16600090815260666020908152604080832060018452909152908190205490516340c10f1960e01b815273f10a7f10a7f10a7f10a7f10a7f10a7f10a7f10a76004820152602481018790526001600160a01b0390911692506340c10f199150604401600060405180830381600087803b15801561199d57600080fd5b505af11580156119b1573d6000803e3d6000fd5b5050602f54600160a01b900463ffffffff166000908152606660209081526040808320838052909152908190205490516340c10f1960e01b815273f10a7f10a7f10a7f10a7f10a7f10a7f10a7f10a76004820152602481018790526001600160a01b0390911692506340c10f199150604401600060405180830381600087803b158015611a3d57600080fd5b505af1158015611a51573d6000803e3d6000fd5b5050505063ffffffff8216600081815260676020908152604080832060018452825280832087905582805291829020869055815192835282018590527f6b73d8f672e796176444c21cb5429d8ea426e6f0f8a3b34e7057a808be5d19c691016109b1565b82611abf8161129d565b3384611acb8282611cbb565b63ffffffff861660009081526066602090815260408083208715158452909152908190205490516323b872dd60e01b8152336004820152306024820152604481018790526001600160a01b03909116906323b872dd90606401602060405180830381600087803b158015611b3e57600080fd5b505af1158015611b52573d6000803e3d6000fd5b505050506040513d601f19601f82011682018060405250810190611b7691906130b3565b611b7f57600080fd5b63ffffffff86166000908152606f602090815260408083208715158452825280832033845290915281208054879290611bb9908490613590565b909155505063ffffffff8616600090815260616020526040902054611bdf906001613590565b63ffffffff87166000818152606c60209081526040808320338452825280832094909455918152606b825282812087151582529091529081208054879290611c28908490613590565b909155505063ffffffff86166000908152606160205260409020547fd850f5d8405edb0730cd72e6bb9e228043c91fd591562543ea553efda14970b6908790869088903390611c78906001613590565b6040805163ffffffff90961686529315156020860152928401919091526001600160a01b03166060830152608082015260a00160405180910390a1505050505050565b63ffffffff81166000908152606c602090815260408083206001600160a01b03861684529091529020548015801590611d09575063ffffffff82166000908152606160205260409020548111155b15610a2857611d1a82846001612682565b611d2682846000612682565b611d3282846001612827565b611d3e82846000612827565b611d4a82846001612986565b611d5682846000612986565b63ffffffff82166000818152606c602090815260408083206001600160a01b038816808552908352818420939093558051928352908201929092527fe03aa867e2345cc967d98e4c81f6b0707b5ef082d9d20bac3dcf95540acdeae491016109b1565b82611dc38161129d565b3384611dcf8282611cbb565b611dd986866125cf565b63ffffffff86166000908152606960209081526040808320871515845290915281208054879290611e0b908490613590565b909155505063ffffffff86166000908152606d602090815260408083208715158452825280832033845290915281208054879290611e4a908490613590565b909155505063ffffffff8616600090815260616020526040902054611e70906001613590565b63ffffffff87166000818152606c6020908152604080832033808552908352818420959095559282526061905220547f50b8727b538cf16daeb79894e8bde5c1e975985071be8a8d7620675a5dddfc6b91889187918991611c78906001613590565b600081611edf848661366d565b611ee991906135d6565b949350505050565b82611efb8161129d565b3384611f078282611cbb565b63ffffffff861660009081526066602090815260408083208715158452909152908190205490516323b872dd60e01b8152336004820152306024820152604481018790526001600160a01b03909116906323b872dd90606401602060405180830381600087803b158015611f7a57600080fd5b505af1158015611f8e573d6000803e3d6000fd5b505050506040513d601f19601f82011682018060405250810190611fb291906130b3565b611fbb57600080fd5b63ffffffff86166000908152606e602090815260408083208715158452825280832033845290915281208054879290611ff5908490613590565b909155505063ffffffff861660009081526061602052604090205461201b906001613590565b63ffffffff87166000818152606c60209081526040808320338452825280832094909455918152606a825282812087151582529091529081208054879290612064908490613590565b909155505063ffffffff86166000908152606160205260409020547f191d5f0d51691cdc223884e5321013c9663c6b337a07d550c538d9dcbbd66203908790869088903390611c78906001613590565b63ffffffff81166000908152605f602052604090205460ff166107725760405162461bcd60e51b81526020600482015260146024820152731b585c9ad95d08191bd95cdb89dd08195e1a5cdd60621b60448201526064016107d5565b60008161212584670de0b6b3a764000061366d565b61212f91906135d6565b90505b92915050565b63ffffffff83166000908152606760209081526040808320600184529091528082205482805290822054909161216e8284613590565b905060008061217f88868686612b01565b63ffffffff8a1660009081526063602052604080822054905163452accd960e11b81526004810188905260248101849052939550919350916001600160a01b0390911690638a5599b290604401602060405180830381600087803b1580156121e657600080fd5b505af11580156121fa573d6000803e3d6000fd5b505050506040513d601f19601f8201168201806040525081019061221e91906130cf565b9050801561224a57821561223d576122368187613590565b955061224a565b6122478186613590565b94505b60006122568787612b8f565b905060008882612266828d61368c565b61227091906135ea565b61227a91906135a8565b905060008113156122a25761228f8189613590565b975061229b81886136cb565b96506122cd565b6122ab81613721565b6122b590896136cb565b97506122c081613721565b6122ca9088613590565b96505b505050505050935093915050565b63ffffffff8316600090815260696020908152604080832060018452909152812054819081908190801561233b5763ffffffff88166000908152606960209081526040808320600184529091528120559350836123388188612110565b92505b5063ffffffff8716600090815260696020908152604080832083805290915290205480156123945763ffffffff881660009081526069602090815260408083208380529091528120559250826123918187612110565b91505b5063ffffffff87166000908152606b6020908152604080832060018452909152902054801561242a5760006123c98289612ba7565b90506123d5818761368c565b95506123e1818661354f565b94506123ed828561368c565b93506123fa828989611ed2565b612404908461354f565b63ffffffff8a166000908152606b60209081526040808320600184529091528120559250505b5063ffffffff87166000908152606b6020908152604080832083805290915290205480156124bf57600061245e8288612ba7565b905061246a818661368c565b9450612476818761354f565b9550612482828461368c565b925061248f82888a611ed2565b612499908561354f565b63ffffffff8a166000908152606b60209081526040808320600184529091528120559350505b5063ffffffff87166000908152606a6020908152604080832060018452909152902054801561252d576124f28188612ba7565b6124fc908661368c565b9450612508818461368c565b63ffffffff89166000908152606a602090815260408083206001845290915281205592505b5063ffffffff87166000908152606a6020908152604080832083805290915290205480156125995761255f8187612ba7565b612569908561368c565b9350612575818361368c565b63ffffffff89166000908152606a6020908152604080832083805290915281205591505b6125ac886125a7868861354f565b612bbc565b6125b888600185612cc6565b6125c488600084612cc6565b505050935093915050565b63ffffffff82166000908152606260209081526040808320546063909252918290205491516323b872dd60e01b81523360048201526001600160a01b039283166024820152604481018490529116906323b872dd90606401602060405180830381600087803b15801561264157600080fd5b505af1158015612655573d6000803e3d6000fd5b505050506040513d601f19601f8201168201806040525081019061267991906130b3565b6109ca57600080fd5b63ffffffff83166000908152606d60209081526040808320841515845282528083206001600160a01b038616845290915290205480156128215763ffffffff84166000818152606d602090815260408083208615158085529083528184206001600160a01b03891680865290845282852085905585855260688452828520918552908352818420948452606c8352818420908452825280832054835292905290812054612730908390612110565b63ffffffff8616600090815260666020908152604080832087151584529091529081902054905163a9059cbb60e01b81526001600160a01b0387811660048301526024820184905292935091169063a9059cbb90604401602060405180830381600087803b1580156127a157600080fd5b505af11580156127b5573d6000803e3d6000fd5b505050506040513d601f19601f820116820180604052508101906127d991906130b3565b6127e257600080fd5b7f2b896bbe6fd98e6571cdb9adb035742b407675559adeedf5f06159e3e56f6dda848685846040516128179493929190613449565b60405180910390a1505b50505050565b63ffffffff83166000908152606e60209081526040808320841515845282528083206001600160a01b038616845290915290205480156128215763ffffffff84166000818152606e602090815260408083208615158085529083528184206001600160a01b03891680865290845282852085905585855260688452828520918552908352818420948452606c83528184209084528252808320548352929052908120546128d5908390612ba7565b63ffffffff8616600090815260636020526040908190205490516375b5ffd160e11b81526001600160a01b0387811660048301526024820184905292935091169063eb6bffa290604401600060405180830381600087803b15801561293957600080fd5b505af115801561294d573d6000803e3d6000fd5b505050507f8937f7ec13112bd5042a48b763f209c758b38657c498e81470568e88b0d19707848685846040516128179493929190613449565b63ffffffff83166000908152606f60209081526040808320841515845282528083206001600160a01b038616845290915290205480156128215763ffffffff84166000908152606c602090815260408083206001600160a01b03871684529091528120546129f990869084908690610ac8565b63ffffffff86166000818152606f602090815260408083208815801585529083528184206001600160a01b038b81168087529185528386208690559585526066845282852091855292529182902054915163a9059cbb60e01b8152600481019190915260248101849052929350169063a9059cbb90604401602060405180830381600087803b158015612a8b57600080fd5b505af1158015612a9f573d6000803e3d6000fd5b505050506040513d601f19601f82011682018060405250810190612ac391906130b3565b612acc57600080fd5b7f284b8f45766675af314e474626b6fe315a5c96f2fac530ad6e47991bbf254723848685846040516128179493929190613449565b8183106000808215612b1e57612b1786866136cb565b9050612b2b565b612b2885876136cb565b90505b63ffffffff87166000908152606560205260408120548590612b4d908461366d565b612b5791906135d6565b90506000612b6d82670de0b6b3a7640000612b8f565b9050612b8181670de0b6b3a76400006136cb565b935050505094509492505050565b600081831115612ba0575080612132565b5081612132565b6000670de0b6b3a7640000612125838561366d565b6000811315612c3c5763ffffffff8216600090815260636020526040908190205490516304831f7160e51b8152600481018390526001600160a01b0390911690639063ee2090602401600060405180830381600087803b158015612c1f57600080fd5b505af1158015612c33573d6000803e3d6000fd5b505050506109ca565b60008112156109ca5763ffffffff82166000908152606360205260409020546001600160a01b0316631c499b55612c7283613721565b6040518263ffffffff1660e01b8152600401612c9091815260200190565b600060405180830381600087803b158015612caa57600080fd5b505af1158015612cbe573d6000803e3d6000fd5b505050505050565b6000811315612d595763ffffffff831660009081526066602090815260408083208515158452909152908190205490516340c10f1960e01b8152306004820152602481018390526001600160a01b03909116906340c10f1990604401600060405180830381600087803b158015612d3c57600080fd5b505af1158015612d50573d6000803e3d6000fd5b50505050610a28565b6000811215610a285763ffffffff8316600090815260666020908152604080832085151584529091529020546001600160a01b03166342966c68612d9c83613721565b6040518263ffffffff1660e01b8152600401612dba91815260200190565b600060405180830381600087803b158015612dd457600080fd5b505af1158015612de8573d6000803e3d6000fd5b50505050505050565b60008083601f840112612e02578182fd5b50813567ffffffffffffffff811115612e19578182fd5b602083019150836020828501011115612e3157600080fd5b9250929050565b803563ffffffff81168114612e4c57600080fd5b919050565b600060208284031215612e62578081fd5b8135612e6d8161377d565b9392505050565b600060208284031215612e85578081fd5b8151612e6d8161377d565b60008060008060808587031215612ea5578283fd5b8435612eb08161377d565b93506020850135612ec08161377d565b92506040850135612ed08161377d565b91506060850135612ee08161377d565b939692955090935050565b60008060408385031215612efd578182fd5b8235612f088161377d565b915060208381013567ffffffffffffffff80821115612f25578384fd5b818601915086601f830112612f38578384fd5b813581811115612f4a57612f4a613767565b8060051b604051601f19603f83011681018181108582111715612f6f57612f6f613767565b604052828152858101935084860182860187018b1015612f8d578788fd5b8795505b83861015612fb657612fa281612e38565b855260019590950194938601938601612f91565b508096505050505050509250929050565b60008060408385031215612fd9578182fd5b8235612fe48161377d565b9150612ff260208401612e38565b90509250929050565b60008060006060848603121561300f578283fd5b833561301a8161377d565b925061302860208501612e38565b9150604084013561303881613792565b809150509250925092565b60008060208385031215613055578182fd5b823567ffffffffffffffff8082111561306c578384fd5b818501915085601f83011261307f578384fd5b81358181111561308d578485fd5b8660208260051b85010111156130a1578485fd5b60209290920196919550909350505050565b6000602082840312156130c4578081fd5b8151612e6d81613792565b6000602082840312156130e0578081fd5b5051919050565b600080600080600080600060a0888a031215613101578283fd5b873567ffffffffffffffff80821115613118578485fd5b6131248b838c01612df1565b909950975060208a013591508082111561313c578485fd5b506131498a828b01612df1565b909650945050604088013561315d8161377d565b9250606088013561316d8161377d565b9150608088013561317d8161377d565b8091505092959891949750929550565b60006020828403121561319e578081fd5b61212f82612e38565b600080604083850312156131b9578182fd5b6131c283612e38565b915060208301356131d28161377d565b809150509250929050565b600080604083850312156131ef578182fd5b6131f883612e38565b915060208301356131d281613792565b60008060006060848603121561321c578081fd5b61322584612e38565b9250602084013561323581613792565b915060408401356130388161377d565b600080600060608486031215613259578081fd5b61326284612e38565b9250602084013561327281613792565b929592945050506040919091013590565b60008060408385031215613295578182fd5b61329e83612e38565b946020939093013593505050565b600080600080608085870312156132c1578182fd5b6132ca85612e38565b93506020850135925060408501356132e181613792565b9396929550929360600135925050565b600080600080600080600080610100898b03121561330d578182fd5b61331689612e38565b9a60208a01359a5060408a013599606081013599506080810135985060a0810135975060c0810135965060e00135945092505050565b60008284528282602086013780602084860101526020601f19601f85011685010190509392505050565b60008151808452815b8181101561339b5760208185018101518683018201520161337f565b818111156133ac5782602083870101525b50601f01601f19169290920160200192915050565b600061199960f21b8252828460028401379101600201908152919050565b600061667560f01b8252828460028401379101600201908152919050565b60006a0233637b0ba102237bbb7160ad1b82528284600b8401379101600b01908152919050565b6000680233637b0ba102ab8160bd1b8252828460098401379101600901908152919050565b6001600160a01b0394909416845263ffffffff92909216602084015215156040830152606082015260800190565b600060a0825261348a60a0830188613376565b828103602084015261349c8188613376565b6001600160a01b03969096166040840152505063ffffffff929092166060830152151560809091015292915050565b63ffffffff8c1681526001600160a01b038b811660208301528a8116604083015289811660608301526080820189905261012060a083018190526000916135158483018a8c61334c565b915083820360c085015261352a82888a61334c565b925080861660e085015280851661010085015250509c9b505050505050505050505050565b600080821280156001600160ff1b03849003851316156135715761357161373b565b600160ff1b839003841281161561358a5761358a61373b565b50500190565b600082198211156135a3576135a361373b565b500190565b6000826135b7576135b7613751565b600160ff1b8214600019841416156135d1576135d161373b565b500590565b6000826135e5576135e5613751565b500490565b60006001600160ff1b03818413828413808216868404861116156136105761361061373b565b600160ff1b8487128281168783058912161561362e5761362e61373b565b8587129250878205871284841616156136495761364961373b565b8785058712818416161561365f5761365f61373b565b505050929093029392505050565b60008160001904831182151516156136875761368761373b565b500290565b60008083128015600160ff1b8501841216156136aa576136aa61373b565b6001600160ff1b03840183138116156136c5576136c561373b565b50500390565b6000828210156136dd576136dd61373b565b500390565b60006000198214156136f6576136f661373b565b5060010190565b600063ffffffff808316818114156137175761371761373b565b6001019392505050565b6000600160ff1b8214156137375761373761373b565b0390565b634e487b7160e01b600052601160045260246000fd5b634e487b7160e01b600052601260045260246000fd5b634e487b7160e01b600052604160045260246000fd5b6001600160a01b038116811461077257600080fd5b801515811461077257600080fdfea26469706673582212207e5b3c5e1f556bbc2ffe775c2e548e10069490f77f475959756cf43db589408964736f6c63430008030033",
  "linkReferences": {},
  "deployedLinkReferences": {}
}