{
  "_format": "hh-sol-artifact-1",
  "contractName": "FloatToken",
  "sourceName": "contracts/FloatToken.sol",
  "abi": [
    {
      "anonymous": false,
      "inputs": [
        {
          "indexed": true,
          "internalType": "address",
          "name": "owner",
          "type": "address"
        },
        {
          "indexed": true,
          "internalType": "address",
          "name": "spender",
          "type": "address"
        },
        {
          "indexed": false,
          "internalType": "uint256",
          "name": "value",
          "type": "uint256"
        }
      ],
      "name": "Approval",
      "type": "event"
    },
    {
      "anonymous": false,
      "inputs": [
        {
          "indexed": false,
          "internalType": "address",
          "name": "account",
          "type": "address"
        }
      ],
      "name": "Paused",
      "type": "event"
    },
    {
      "anonymous": false,
      "inputs": [
        {
          "indexed": true,
          "internalType": "bytes32",
          "name": "role",
          "type": "bytes32"
        },
        {
          "indexed": true,
          "internalType": "bytes32",
          "name": "previousAdminRole",
          "type": "bytes32"
        },
        {
          "indexed": true,
          "internalType": "bytes32",
          "name": "newAdminRole",
          "type": "bytes32"
        }
      ],
      "name": "RoleAdminChanged",
      "type": "event"
    },
    {
      "anonymous": false,
      "inputs": [
        {
          "indexed": true,
          "internalType": "bytes32",
          "name": "role",
          "type": "bytes32"
        },
        {
          "indexed": true,
          "internalType": "address",
          "name": "account",
          "type": "address"
        },
        {
          "indexed": true,
          "internalType": "address",
          "name": "sender",
          "type": "address"
        }
      ],
      "name": "RoleGranted",
      "type": "event"
    },
    {
      "anonymous": false,
      "inputs": [
        {
          "indexed": true,
          "internalType": "bytes32",
          "name": "role",
          "type": "bytes32"
        },
        {
          "indexed": true,
          "internalType": "address",
          "name": "account",
          "type": "address"
        },
        {
          "indexed": true,
          "internalType": "address",
          "name": "sender",
          "type": "address"
        }
      ],
      "name": "RoleRevoked",
      "type": "event"
    },
    {
      "anonymous": false,
      "inputs": [
        {
          "indexed": true,
          "internalType": "address",
          "name": "from",
          "type": "address"
        },
        {
          "indexed": true,
          "internalType": "address",
          "name": "to",
          "type": "address"
        },
        {
          "indexed": false,
          "internalType": "uint256",
          "name": "value",
          "type": "uint256"
        }
      ],
      "name": "Transfer",
      "type": "event"
    },
    {
      "anonymous": false,
      "inputs": [
        {
          "indexed": false,
          "internalType": "address",
          "name": "account",
          "type": "address"
        }
      ],
      "name": "Unpaused",
      "type": "event"
    },
    {
      "inputs": [],
      "name": "DEFAULT_ADMIN_ROLE",
      "outputs": [
        {
          "internalType": "bytes32",
          "name": "",
          "type": "bytes32"
        }
      ],
      "stateMutability": "view",
      "type": "function"
    },
    {
      "inputs": [],
      "name": "MINTER_ROLE",
      "outputs": [
        {
          "internalType": "bytes32",
          "name": "",
          "type": "bytes32"
        }
      ],
      "stateMutability": "view",
      "type": "function"
    },
    {
      "inputs": [],
      "name": "PAUSER_ROLE",
      "outputs": [
        {
          "internalType": "bytes32",
          "name": "",
          "type": "bytes32"
        }
      ],
      "stateMutability": "view",
      "type": "function"
    },
    {
      "inputs": [
        {
          "internalType": "address",
          "name": "owner",
          "type": "address"
        },
        {
          "internalType": "address",
          "name": "spender",
          "type": "address"
        }
      ],
      "name": "allowance",
      "outputs": [
        {
          "internalType": "uint256",
          "name": "",
          "type": "uint256"
        }
      ],
      "stateMutability": "view",
      "type": "function"
    },
    {
      "inputs": [
        {
          "internalType": "address",
          "name": "spender",
          "type": "address"
        },
        {
          "internalType": "uint256",
          "name": "amount",
          "type": "uint256"
        }
      ],
      "name": "approve",
      "outputs": [
        {
          "internalType": "bool",
          "name": "",
          "type": "bool"
        }
      ],
      "stateMutability": "nonpayable",
      "type": "function"
    },
    {
      "inputs": [
        {
          "internalType": "address",
          "name": "account",
          "type": "address"
        }
      ],
      "name": "balanceOf",
      "outputs": [
        {
          "internalType": "uint256",
          "name": "",
          "type": "uint256"
        }
      ],
      "stateMutability": "view",
      "type": "function"
    },
    {
      "inputs": [
        {
          "internalType": "uint256",
          "name": "amount",
          "type": "uint256"
        }
      ],
      "name": "burn",
      "outputs": [],
      "stateMutability": "nonpayable",
      "type": "function"
    },
    {
      "inputs": [
        {
          "internalType": "address",
          "name": "account",
          "type": "address"
        },
        {
          "internalType": "uint256",
          "name": "amount",
          "type": "uint256"
        }
      ],
      "name": "burnFrom",
      "outputs": [],
      "stateMutability": "nonpayable",
      "type": "function"
    },
    {
      "inputs": [],
      "name": "decimals",
      "outputs": [
        {
          "internalType": "uint8",
          "name": "",
          "type": "uint8"
        }
      ],
      "stateMutability": "view",
      "type": "function"
    },
    {
      "inputs": [
        {
          "internalType": "address",
          "name": "spender",
          "type": "address"
        },
        {
          "internalType": "uint256",
          "name": "subtractedValue",
          "type": "uint256"
        }
      ],
      "name": "decreaseAllowance",
      "outputs": [
        {
          "internalType": "bool",
          "name": "",
          "type": "bool"
        }
      ],
      "stateMutability": "nonpayable",
      "type": "function"
    },
    {
      "inputs": [
        {
          "internalType": "bytes32",
          "name": "role",
          "type": "bytes32"
        }
      ],
      "name": "getRoleAdmin",
      "outputs": [
        {
          "internalType": "bytes32",
          "name": "",
          "type": "bytes32"
        }
      ],
      "stateMutability": "view",
      "type": "function"
    },
    {
      "inputs": [
        {
          "internalType": "bytes32",
          "name": "role",
          "type": "bytes32"
        },
        {
          "internalType": "uint256",
          "name": "index",
          "type": "uint256"
        }
      ],
      "name": "getRoleMember",
      "outputs": [
        {
          "internalType": "address",
          "name": "",
          "type": "address"
        }
      ],
      "stateMutability": "view",
      "type": "function"
    },
    {
      "inputs": [
        {
          "internalType": "bytes32",
          "name": "role",
          "type": "bytes32"
        }
      ],
      "name": "getRoleMemberCount",
      "outputs": [
        {
          "internalType": "uint256",
          "name": "",
          "type": "uint256"
        }
      ],
      "stateMutability": "view",
      "type": "function"
    },
    {
      "inputs": [
        {
          "internalType": "bytes32",
          "name": "role",
          "type": "bytes32"
        },
        {
          "internalType": "address",
          "name": "account",
          "type": "address"
        }
      ],
      "name": "grantRole",
      "outputs": [],
      "stateMutability": "nonpayable",
      "type": "function"
    },
    {
      "inputs": [
        {
          "internalType": "bytes32",
          "name": "role",
          "type": "bytes32"
        },
        {
          "internalType": "address",
          "name": "account",
          "type": "address"
        }
      ],
      "name": "hasRole",
      "outputs": [
        {
          "internalType": "bool",
          "name": "",
          "type": "bool"
        }
      ],
      "stateMutability": "view",
      "type": "function"
    },
    {
      "inputs": [
        {
          "internalType": "address",
          "name": "spender",
          "type": "address"
        },
        {
          "internalType": "uint256",
          "name": "addedValue",
          "type": "uint256"
        }
      ],
      "name": "increaseAllowance",
      "outputs": [
        {
          "internalType": "bool",
          "name": "",
          "type": "bool"
        }
      ],
      "stateMutability": "nonpayable",
      "type": "function"
    },
    {
      "inputs": [
        {
          "internalType": "string",
          "name": "name",
          "type": "string"
        },
        {
          "internalType": "string",
          "name": "symbol",
          "type": "string"
        }
      ],
      "name": "initialize",
      "outputs": [],
      "stateMutability": "nonpayable",
      "type": "function"
    },
    {
      "inputs": [
        {
          "internalType": "string",
          "name": "name",
          "type": "string"
        },
        {
          "internalType": "string",
          "name": "symbol",
          "type": "string"
        },
        {
          "internalType": "address",
          "name": "stakerAddress",
          "type": "address"
        }
      ],
      "name": "initializeFloatToken",
      "outputs": [],
      "stateMutability": "nonpayable",
      "type": "function"
    },
    {
      "inputs": [
        {
          "internalType": "address",
          "name": "to",
          "type": "address"
        },
        {
          "internalType": "uint256",
          "name": "amount",
          "type": "uint256"
        }
      ],
      "name": "mint",
      "outputs": [],
      "stateMutability": "nonpayable",
      "type": "function"
    },
    {
      "inputs": [],
      "name": "name",
      "outputs": [
        {
          "internalType": "string",
          "name": "",
          "type": "string"
        }
      ],
      "stateMutability": "view",
      "type": "function"
    },
    {
      "inputs": [],
      "name": "pause",
      "outputs": [],
      "stateMutability": "nonpayable",
      "type": "function"
    },
    {
      "inputs": [],
      "name": "paused",
      "outputs": [
        {
          "internalType": "bool",
          "name": "",
          "type": "bool"
        }
      ],
      "stateMutability": "view",
      "type": "function"
    },
    {
      "inputs": [
        {
          "internalType": "bytes32",
          "name": "role",
          "type": "bytes32"
        },
        {
          "internalType": "address",
          "name": "account",
          "type": "address"
        }
      ],
      "name": "renounceRole",
      "outputs": [],
      "stateMutability": "nonpayable",
      "type": "function"
    },
    {
      "inputs": [
        {
          "internalType": "bytes32",
          "name": "role",
          "type": "bytes32"
        },
        {
          "internalType": "address",
          "name": "account",
          "type": "address"
        }
      ],
      "name": "revokeRole",
      "outputs": [],
      "stateMutability": "nonpayable",
      "type": "function"
    },
    {
      "inputs": [
        {
          "internalType": "bytes4",
          "name": "interfaceId",
          "type": "bytes4"
        }
      ],
      "name": "supportsInterface",
      "outputs": [
        {
          "internalType": "bool",
          "name": "",
          "type": "bool"
        }
      ],
      "stateMutability": "view",
      "type": "function"
    },
    {
      "inputs": [],
      "name": "symbol",
      "outputs": [
        {
          "internalType": "string",
          "name": "",
          "type": "string"
        }
      ],
      "stateMutability": "view",
      "type": "function"
    },
    {
      "inputs": [],
      "name": "totalSupply",
      "outputs": [
        {
          "internalType": "uint256",
          "name": "",
          "type": "uint256"
        }
      ],
      "stateMutability": "view",
      "type": "function"
    },
    {
      "inputs": [
        {
          "internalType": "address",
          "name": "recipient",
          "type": "address"
        },
        {
          "internalType": "uint256",
          "name": "amount",
          "type": "uint256"
        }
      ],
      "name": "transfer",
      "outputs": [
        {
          "internalType": "bool",
          "name": "",
          "type": "bool"
        }
      ],
      "stateMutability": "nonpayable",
      "type": "function"
    },
    {
      "inputs": [
        {
          "internalType": "address",
          "name": "sender",
          "type": "address"
        },
        {
          "internalType": "address",
          "name": "recipient",
          "type": "address"
        },
        {
          "internalType": "uint256",
          "name": "amount",
          "type": "uint256"
        }
      ],
      "name": "transferFrom",
      "outputs": [
        {
          "internalType": "bool",
          "name": "",
          "type": "bool"
        }
      ],
      "stateMutability": "nonpayable",
      "type": "function"
    },
    {
      "inputs": [],
      "name": "unpause",
      "outputs": [],
      "stateMutability": "nonpayable",
      "type": "function"
    }
  ],
  "bytecode": "0x608060405234801561001057600080fd5b506121cc806100206000396000f3fe608060405234801561001057600080fd5b50600436106101da5760003560e01c806370a0823111610104578063a457c2d7116100a2578063d539139311610071578063d5391393146103ec578063d547741f14610401578063dd62ed3e14610414578063e63ab1e91461044d576101da565b8063a457c2d7146103a0578063a9059cbb146103b3578063ca15c873146103c6578063cb9425b3146103d9576101da565b80639010d07c116100de5780639010d07c1461035257806391d148541461037d57806395d89b4114610390578063a217fddf14610398576101da565b806370a082311461030e57806379cc6790146103375780638456cb591461034a576101da565b8063313ce5671161017c57806340c10f191161014b57806340c10f19146102c957806342966c68146102dc5780634cd88b76146102ef5780635c975abb14610302576101da565b8063313ce5671461028c57806336568abe1461029b57806339509351146102ae5780633f4ba83a146102c1576101da565b806318160ddd116101b857806318160ddd1461022f57806323b872dd14610241578063248a9ca3146102545780632f2ff15d14610277576101da565b806301ffc9a7146101df57806306fdde0314610207578063095ea7b31461021c575b600080fd5b6101f26101ed366004611e5d565b610462565b60405190151581526020015b60405180910390f35b61020f61048f565b6040516101fe9190611fd9565b6101f261022a366004611dd9565b610521565b60cb545b6040519081526020016101fe565b6101f261024f366004611d9e565b610538565b610233610262366004611e02565b60009081526065602052604090206001015490565b61028a610285366004611e1a565b6105ee565b005b604051601281526020016101fe565b61028a6102a9366004611e1a565b610615565b6101f26102bc366004611dd9565b610637565b61028a61066e565b61028a6102d7366004611dd9565b610702565b61028a6102ea366004611e02565b610710565b61028a6102fd366004611f03565b61071d565b61012d5460ff166101f2565b61023361031c366004611d52565b6001600160a01b0316600090815260c9602052604090205490565b61028a610345366004611dd9565b610794565b61028a610817565b610365610360366004611e3c565b6108a9565b6040516001600160a01b0390911681526020016101fe565b6101f261038b366004611e1a565b6108c8565b61020f6108f3565b610233600081565b6101f26103ae366004611dd9565b610902565b6101f26103c1366004611dd9565b61099d565b6102336103d4366004611e02565b6109aa565b61028a6103e7366004611e85565b6109c1565b61023360008051602061217783398151915281565b61028a61040f366004611e1a565b610b1b565b610233610422366004611d6c565b6001600160a01b03918216600090815260ca6020908152604080832093909416825291909152205490565b61023360008051602061215783398151915281565b60006001600160e01b03198216635a05180f60e01b1480610487575061048782610b25565b90505b919050565b606060cc805461049e906120ef565b80601f01602080910402602001604051908101604052809291908181526020018280546104ca906120ef565b80156105175780601f106104ec57610100808354040283529160200191610517565b820191906000526020600020905b8154815290600101906020018083116104fa57829003601f168201915b5050505050905090565b600061052e338484610b5a565b5060015b92915050565b6000610545848484610c7f565b6001600160a01b038416600090815260ca60209081526040808320338452909152902054828110156105cf5760405162461bcd60e51b815260206004820152602860248201527f45524332303a207472616e7366657220616d6f756e74206578636565647320616044820152676c6c6f77616e636560c01b60648201526084015b60405180910390fd5b6105e385336105de8685612091565b610b5a565b506001949350505050565b6105f88282610e62565b60008281526097602052604090206106109082610e89565b505050565b61061f8282610e9e565b60008281526097602052604090206106109082610f18565b33600081815260ca602090815260408083206001600160a01b0387168452909152812054909161052e9185906105de90869061205a565b6106866000805160206121578339815191523361038b565b6106f85760405162461bcd60e51b815260206004820152603960248201527f45524332305072657365744d696e7465725061757365723a206d75737420686160448201527f76652070617573657220726f6c6520746f20756e70617573650000000000000060648201526084016105c6565b610700610f2d565b565b61070c8282610fc2565b5050565b61071a338261104f565b50565b600054610100900460ff1680610736575060005460ff16155b6107525760405162461bcd60e51b81526004016105c69061200c565b600054610100900460ff16158015610774576000805461ffff19166101011790555b61077e83836111aa565b8015610610576000805461ff0019169055505050565b60006107a08333610422565b9050818110156107fe5760405162461bcd60e51b8152602060048201526024808201527f45524332303a206275726e20616d6f756e74206578636565647320616c6c6f77604482015263616e636560e01b60648201526084016105c6565b61080d83336105de8585612091565b610610838361104f565b61082f6000805160206121578339815191523361038b565b6108a15760405162461bcd60e51b815260206004820152603760248201527f45524332305072657365744d696e7465725061757365723a206d75737420686160448201527f76652070617573657220726f6c6520746f20706175736500000000000000000060648201526084016105c6565b61070061124d565b60008281526097602052604081206108c190836112ca565b9392505050565b60009182526065602090815260408084206001600160a01b0393909316845291905290205460ff1690565b606060cd805461049e906120ef565b33600090815260ca602090815260408083206001600160a01b0386168452909152812054828110156109845760405162461bcd60e51b815260206004820152602560248201527f45524332303a2064656372656173656420616c6c6f77616e63652062656c6f77604482015264207a65726f60d81b60648201526084016105c6565b61099333856105de8685612091565b5060019392505050565b600061052e338484610c7f565b6000818152609760205260408120610487906112d6565b600054610100900460ff16806109da575060005460ff16155b6109f65760405162461bcd60e51b81526004016105c69061200c565b600054610100900460ff16158015610a18576000805461ffff19166101011790555b610a8b86868080601f01602080910402602001604051908101604052809392919081815260200183838082843760009201919091525050604080516020601f8a01819004810282018101909252888152925088915087908190840183828082843760009201919091525061071d92505050565b610a966000836112e0565b610aae600080516020612177833981519152836112e0565b610ac6600080516020612157833981519152836112e0565b610ad1600033610615565b610ae960008051602061217783398151915233610615565b610b0160008051602061215783398151915233610615565b8015610b13576000805461ff00191690555b505050505050565b61061f82826112ea565b60006001600160e01b03198216637965db0b60e01b148061048757506301ffc9a760e01b6001600160e01b0319831614610487565b6001600160a01b038316610bbc5760405162461bcd60e51b8152602060048201526024808201527f45524332303a20617070726f76652066726f6d20746865207a65726f206164646044820152637265737360e01b60648201526084016105c6565b6001600160a01b038216610c1d5760405162461bcd60e51b815260206004820152602260248201527f45524332303a20617070726f766520746f20746865207a65726f206164647265604482015261737360f01b60648201526084016105c6565b6001600160a01b03838116600081815260ca602090815260408083209487168084529482529182902085905590518481527f8c5be1e5ebec7d5bd14f71427d1e84f3dd0314c0f7b2291e5b200ac8c7c3b92591015b60405180910390a3505050565b6001600160a01b038316610ce35760405162461bcd60e51b815260206004820152602560248201527f45524332303a207472616e736665722066726f6d20746865207a65726f206164604482015264647265737360d81b60648201526084016105c6565b6001600160a01b038216610d455760405162461bcd60e51b815260206004820152602360248201527f45524332303a207472616e7366657220746f20746865207a65726f206164647260448201526265737360e81b60648201526084016105c6565b610d50838383611310565b6001600160a01b038316600090815260c9602052604090205481811015610dc85760405162461bcd60e51b815260206004820152602660248201527f45524332303a207472616e7366657220616d6f756e7420657863656564732062604482015265616c616e636560d01b60648201526084016105c6565b610dd28282612091565b6001600160a01b03808616600090815260c960205260408082209390935590851681529081208054849290610e0890849061205a565b92505081905550826001600160a01b0316846001600160a01b03167fddf252ad1be2c89b69c2b068fc378daa952ba7f163c4a11628f55a4df523b3ef84604051610e5491815260200190565b60405180910390a350505050565b600082815260656020526040902060010154610e7f81335b611337565b610610838361139b565b60006108c1836001600160a01b038416611421565b6001600160a01b0381163314610f0e5760405162461bcd60e51b815260206004820152602f60248201527f416363657373436f6e74726f6c3a2063616e206f6e6c792072656e6f756e636560448201526e103937b632b9903337b91039b2b63360891b60648201526084016105c6565b61070c8282611470565b60006108c1836001600160a01b0384166114d7565b61012d5460ff16610f775760405162461bcd60e51b815260206004820152601460248201527314185d5cd8589b194e881b9bdd081c185d5cd95960621b60448201526064016105c6565b61012d805460ff191690557f5db9ee0a495bf2e6ff9c91a7834c1ba4fdd244a5e8aa4e537bd38aeae4b073aa335b6040516001600160a01b03909116815260200160405180910390a1565b610fda6000805160206121778339815191523361038b565b6110455760405162461bcd60e51b815260206004820152603660248201527f45524332305072657365744d696e7465725061757365723a206d7573742068616044820152751d99481b5a5b9d195c881c9bdb19481d1bc81b5a5b9d60521b60648201526084016105c6565b61070c82826115ee565b6001600160a01b0382166110af5760405162461bcd60e51b815260206004820152602160248201527f45524332303a206275726e2066726f6d20746865207a65726f206164647265736044820152607360f81b60648201526084016105c6565b6110bb82600083611310565b6001600160a01b038216600090815260c960205260409020548181101561112f5760405162461bcd60e51b815260206004820152602260248201527f45524332303a206275726e20616d6f756e7420657863656564732062616c616e604482015261636560f01b60648201526084016105c6565b6111398282612091565b6001600160a01b038416600090815260c9602052604081209190915560cb8054849290611167908490612091565b90915550506040518281526000906001600160a01b038516907fddf252ad1be2c89b69c2b068fc378daa952ba7f163c4a11628f55a4df523b3ef90602001610c72565b600054610100900460ff16806111c3575060005460ff16155b6111df5760405162461bcd60e51b81526004016105c69061200c565b600054610100900460ff16158015611201576000805461ffff19166101011790555b6112096116d9565b6112116116d9565b6112196116d9565b6112216116d9565b61122b8383611744565b6112336116d9565b61123b6117d9565b6112436116d9565b61077e838361184f565b61012d5460ff16156112945760405162461bcd60e51b815260206004820152601060248201526f14185d5cd8589b194e881c185d5cd95960821b60448201526064016105c6565b61012d805460ff191660011790557f62e78cea01bee320cd4e420270b5ea74000d11b0c9f74754ebdbfc544b05a258610fa53390565b60006108c183836118e2565b6000610487825490565b6105f88282611976565b6000828152606560205260409020600101546113068133610e7a565b6106108383611470565b6113286000805160206121778339815191523361038b565b61061057610610838383611980565b61134182826108c8565b61070c57611359816001600160a01b0316601461198b565b61136483602061198b565b604051602001611375929190611f64565b60408051601f198184030181529082905262461bcd60e51b82526105c691600401611fd9565b6113a582826108c8565b61070c5760008281526065602090815260408083206001600160a01b03851684529091529020805460ff191660011790556113dd3390565b6001600160a01b0316816001600160a01b0316837f2f8788117e7eff1d82e926ec794901d17c78024a50270940304540a733656f0d60405160405180910390a45050565b600081815260018301602052604081205461146857508154600181810184556000848152602080822090930184905584548482528286019093526040902091909155610532565b506000610532565b61147a82826108c8565b1561070c5760008281526065602090815260408083206001600160a01b0385168085529252808320805460ff1916905551339285917ff6391f5c32d9c69d2a47ea670b442974b53935d1edc7fd64eb21e047a839171b9190a45050565b600081815260018301602052604081205480156115e45760006114fb600183612091565b855490915060009061150f90600190612091565b9050600086600001828154811061153657634e487b7160e01b600052603260045260246000fd5b906000526020600020015490508087600001848154811061156757634e487b7160e01b600052603260045260246000fd5b6000918252602080832090910192909255828152600189019091526040902084905586548790806115a857634e487b7160e01b600052603160045260246000fd5b60019003818190600052602060002001600090559055866001016000878152602001908152602001600020600090556001945050505050610532565b6000915050610532565b6001600160a01b0382166116445760405162461bcd60e51b815260206004820152601f60248201527f45524332303a206d696e7420746f20746865207a65726f20616464726573730060448201526064016105c6565b61165060008383611310565b8060cb6000828254611662919061205a565b90915550506001600160a01b038216600090815260c960205260408120805483929061168f90849061205a565b90915550506040518181526001600160a01b038316906000907fddf252ad1be2c89b69c2b068fc378daa952ba7f163c4a11628f55a4df523b3ef9060200160405180910390a35050565b600054610100900460ff16806116f2575060005460ff16155b61170e5760405162461bcd60e51b81526004016105c69061200c565b600054610100900460ff16158015611730576000805461ffff19166101011790555b801561071a576000805461ff001916905550565b600054610100900460ff168061175d575060005460ff16155b6117795760405162461bcd60e51b81526004016105c69061200c565b600054610100900460ff1615801561179b576000805461ffff19166101011790555b82516117ae9060cc906020860190611bd4565b5081516117c29060cd906020850190611bd4565b508015610610576000805461ff0019169055505050565b600054610100900460ff16806117f2575060005460ff16155b61180e5760405162461bcd60e51b81526004016105c69061200c565b600054610100900460ff16158015611830576000805461ffff19166101011790555b61012d805460ff19169055801561071a576000805461ff001916905550565b600054610100900460ff1680611868575060005460ff16155b6118845760405162461bcd60e51b81526004016105c69061200c565b600054610100900460ff161580156118a6576000805461ffff19166101011790555b6118b26000335b6112e0565b6118ca600080516020612177833981519152336118ad565b61077e600080516020612157833981519152336118ad565b815460009082106119405760405162461bcd60e51b815260206004820152602260248201527f456e756d657261626c655365743a20696e646578206f7574206f6620626f756e604482015261647360f01b60648201526084016105c6565b82600001828154811061196357634e487b7160e01b600052603260045260246000fd5b9060005260206000200154905092915050565b61070c828261139b565b610610838383611b6d565b6060600061199a836002612072565b6119a590600261205a565b67ffffffffffffffff8111156119cb57634e487b7160e01b600052604160045260246000fd5b6040519080825280601f01601f1916602001820160405280156119f5576020820181803683370190505b509050600360fc1b81600081518110611a1e57634e487b7160e01b600052603260045260246000fd5b60200101906001600160f81b031916908160001a905350600f60fb1b81600181518110611a5b57634e487b7160e01b600052603260045260246000fd5b60200101906001600160f81b031916908160001a9053506000611a7f846002612072565b611a8a90600161205a565b90505b6001811115611b1e576f181899199a1a9b1b9c1cb0b131b232b360811b85600f1660108110611acc57634e487b7160e01b600052603260045260246000fd5b1a60f81b828281518110611af057634e487b7160e01b600052603260045260246000fd5b60200101906001600160f81b031916908160001a90535060049490941c93611b17816120d8565b9050611a8d565b5083156108c15760405162461bcd60e51b815260206004820181905260248201527f537472696e67733a20686578206c656e67746820696e73756666696369656e7460448201526064016105c6565b61012d5460ff16156106105760405162461bcd60e51b815260206004820152602a60248201527f45524332305061757361626c653a20746f6b656e207472616e736665722077686044820152691a5b19481c185d5cd95960b21b60648201526084016105c6565b828054611be0906120ef565b90600052602060002090601f016020900481019282611c025760008555611c48565b82601f10611c1b57805160ff1916838001178555611c48565b82800160010185558215611c48579182015b82811115611c48578251825591602001919060010190611c2d565b50611c54929150611c58565b5090565b5b80821115611c545760008155600101611c59565b80356001600160a01b038116811461048a57600080fd5b60008083601f840112611c95578182fd5b50813567ffffffffffffffff811115611cac578182fd5b602083019150836020828501011115611cc457600080fd5b9250929050565b600082601f830112611cdb578081fd5b813567ffffffffffffffff80821115611cf657611cf6612140565b604051601f8301601f19908116603f01168101908282118183101715611d1e57611d1e612140565b81604052838152866020858801011115611d36578485fd5b8360208701602083013792830160200193909352509392505050565b600060208284031215611d63578081fd5b6108c182611c6d565b60008060408385031215611d7e578081fd5b611d8783611c6d565b9150611d9560208401611c6d565b90509250929050565b600080600060608486031215611db2578081fd5b611dbb84611c6d565b9250611dc960208501611c6d565b9150604084013590509250925092565b60008060408385031215611deb578182fd5b611df483611c6d565b946020939093013593505050565b600060208284031215611e13578081fd5b5035919050565b60008060408385031215611e2c578182fd5b82359150611d9560208401611c6d565b60008060408385031215611e4e578182fd5b50508035926020909101359150565b600060208284031215611e6e578081fd5b81356001600160e01b0319811681146108c1578182fd5b600080600080600060608688031215611e9c578081fd5b853567ffffffffffffffff80821115611eb3578283fd5b611ebf89838a01611c84565b90975095506020880135915080821115611ed7578283fd5b50611ee488828901611c84565b9094509250611ef7905060408701611c6d565b90509295509295909350565b60008060408385031215611f15578182fd5b823567ffffffffffffffff80821115611f2c578384fd5b611f3886838701611ccb565b93506020850135915080821115611f4d578283fd5b50611f5a85828601611ccb565b9150509250929050565b60007f416363657373436f6e74726f6c3a206163636f756e742000000000000000000082528351611f9c8160178501602088016120a8565b7001034b99036b4b9b9b4b733903937b6329607d1b6017918401918201528351611fcd8160288401602088016120a8565b01602801949350505050565b6000602082528251806020840152611ff88160408501602087016120a8565b601f01601f19169190910160400192915050565b6020808252602e908201527f496e697469616c697a61626c653a20636f6e747261637420697320616c72656160408201526d191e481a5b9a5d1a585b1a5e995960921b606082015260800190565b6000821982111561206d5761206d61212a565b500190565b600081600019048311821515161561208c5761208c61212a565b500290565b6000828210156120a3576120a361212a565b500390565b60005b838110156120c35781810151838201526020016120ab565b838111156120d2576000848401525b50505050565b6000816120e7576120e761212a565b506000190190565b600181811c9082168061210357607f821691505b6020821081141561212457634e487b7160e01b600052602260045260246000fd5b50919050565b634e487b7160e01b600052601160045260246000fd5b634e487b7160e01b600052604160045260246000fdfe65d7a28e3265b37a6474929f336521b332c1681b933f6cb9f3376673440d862a9f2df0fed2c77648de5860a4cc508cd0818c85b8b8a1ab4ceeef8d981c8956a6a26469706673582212206a19ddb8905ad59f70ab9a2c3474073ce67acf3d8c77007f898d58deb7b8d21864736f6c63430008030033",
  "linkReferences": {},
  "deployedLinkReferences": {}
}